{
  "contractName": "NBMonCore",
  "abi": [
    {
      "inputs": [],
      "stateMutability": "nonpayable",
      "type": "constructor"
    },
    {
      "anonymous": false,
      "inputs": [
        {
          "indexed": true,
          "internalType": "address",
          "name": "owner",
          "type": "address"
        },
        {
          "indexed": true,
          "internalType": "address",
          "name": "approved",
          "type": "address"
        },
        {
          "indexed": true,
          "internalType": "uint256",
          "name": "tokenId",
          "type": "uint256"
        }
      ],
      "name": "Approval",
      "type": "event"
    },
    {
      "anonymous": false,
      "inputs": [
        {
          "indexed": true,
          "internalType": "address",
          "name": "owner",
          "type": "address"
        },
        {
          "indexed": true,
          "internalType": "address",
          "name": "operator",
          "type": "address"
        },
        {
          "indexed": false,
          "internalType": "bool",
          "name": "approved",
          "type": "bool"
        }
      ],
      "name": "ApprovalForAll",
      "type": "event"
    },
    {
      "anonymous": false,
      "inputs": [
        {
          "indexed": true,
          "internalType": "uint256",
          "name": "_nbmonId",
          "type": "uint256"
        }
      ],
      "name": "NBMonBurned",
      "type": "event"
    },
    {
      "anonymous": false,
      "inputs": [
        {
          "indexed": true,
          "internalType": "uint256",
          "name": "_nbmonId",
          "type": "uint256"
        },
        {
          "indexed": true,
          "internalType": "address",
          "name": "_owner",
          "type": "address"
        }
      ],
      "name": "NBMonMinted",
      "type": "event"
    },
    {
      "anonymous": false,
      "inputs": [
        {
          "indexed": false,
          "internalType": "address",
          "name": "account",
          "type": "address"
        }
      ],
      "name": "Paused",
      "type": "event"
    },
    {
      "anonymous": false,
      "inputs": [
        {
          "indexed": true,
          "internalType": "address",
          "name": "from",
          "type": "address"
        },
        {
          "indexed": true,
          "internalType": "address",
          "name": "to",
          "type": "address"
        },
        {
          "indexed": true,
          "internalType": "uint256",
          "name": "tokenId",
          "type": "uint256"
        }
      ],
      "name": "Transfer",
      "type": "event"
    },
    {
      "anonymous": false,
      "inputs": [
        {
          "indexed": false,
          "internalType": "address",
          "name": "account",
          "type": "address"
        }
      ],
      "name": "Unpaused",
      "type": "event"
    },
    {
      "inputs": [],
      "name": "_baseFertilityChance",
      "outputs": [
        {
          "internalType": "uint16",
          "name": "",
          "type": "uint16"
        }
      ],
      "stateMutability": "view",
      "type": "function"
    },
    {
      "inputs": [],
      "name": "_elementTypes",
      "outputs": [
        {
          "internalType": "uint8",
          "name": "",
          "type": "uint8"
        }
      ],
      "stateMutability": "view",
      "type": "function"
    },
    {
      "inputs": [],
      "name": "_genders",
      "outputs": [
        {
          "internalType": "uint8",
          "name": "",
          "type": "uint8"
        }
      ],
      "stateMutability": "view",
      "type": "function"
    },
    {
      "inputs": [],
      "name": "_genera",
      "outputs": [
        {
          "internalType": "uint16",
          "name": "",
          "type": "uint16"
        }
      ],
      "stateMutability": "view",
      "type": "function"
    },
    {
      "inputs": [],
      "name": "_maxPotential",
      "outputs": [
        {
          "internalType": "uint8",
          "name": "",
          "type": "uint8"
        }
      ],
      "stateMutability": "view",
      "type": "function"
    },
    {
      "inputs": [],
      "name": "_nbmonTypes",
      "outputs": [
        {
          "internalType": "uint8",
          "name": "",
          "type": "uint8"
        }
      ],
      "stateMutability": "view",
      "type": "function"
    },
    {
      "inputs": [],
      "name": "_rarityChance",
      "outputs": [
        {
          "internalType": "uint16",
          "name": "",
          "type": "uint16"
        }
      ],
      "stateMutability": "view",
      "type": "function"
    },
    {
      "inputs": [],
      "name": "_shinyChance",
      "outputs": [
        {
          "internalType": "uint16",
          "name": "",
          "type": "uint16"
        }
      ],
      "stateMutability": "view",
      "type": "function"
    },
    {
      "inputs": [],
      "name": "admin",
      "outputs": [
        {
          "internalType": "address",
          "name": "",
          "type": "address"
        }
      ],
      "stateMutability": "view",
      "type": "function"
    },
    {
      "inputs": [
        {
          "internalType": "address",
          "name": "to",
          "type": "address"
        },
        {
          "internalType": "uint256",
          "name": "tokenId",
          "type": "uint256"
        }
      ],
      "name": "approve",
      "outputs": [],
      "stateMutability": "nonpayable",
      "type": "function"
    },
    {
      "inputs": [
        {
          "internalType": "address",
          "name": "owner",
          "type": "address"
        }
      ],
      "name": "balanceOf",
      "outputs": [
        {
          "internalType": "uint256",
          "name": "",
          "type": "uint256"
        }
      ],
      "stateMutability": "view",
      "type": "function"
    },
    {
      "inputs": [],
      "name": "burner",
      "outputs": [
        {
          "internalType": "address",
          "name": "",
          "type": "address"
        }
      ],
      "stateMutability": "view",
      "type": "function"
    },
    {
      "inputs": [],
      "name": "ceo",
      "outputs": [
        {
          "internalType": "address",
          "name": "",
          "type": "address"
        }
      ],
      "stateMutability": "view",
      "type": "function"
    },
    {
      "inputs": [],
      "name": "currentNBMonCount",
      "outputs": [
        {
          "internalType": "uint256",
          "name": "",
          "type": "uint256"
        }
      ],
      "stateMutability": "view",
      "type": "function"
    },
    {
      "inputs": [
        {
          "internalType": "uint256",
          "name": "tokenId",
          "type": "uint256"
        }
      ],
      "name": "getApproved",
      "outputs": [
        {
          "internalType": "address",
          "name": "",
          "type": "address"
        }
      ],
      "stateMutability": "view",
      "type": "function"
    },
    {
      "inputs": [
        {
          "internalType": "address",
          "name": "owner",
          "type": "address"
        },
        {
          "internalType": "address",
          "name": "operator",
          "type": "address"
        }
      ],
      "name": "isApprovedForAll",
      "outputs": [
        {
          "internalType": "bool",
          "name": "",
          "type": "bool"
        }
      ],
      "stateMutability": "view",
      "type": "function"
    },
    {
      "inputs": [],
      "name": "manager",
      "outputs": [
        {
          "internalType": "address",
          "name": "",
          "type": "address"
        }
      ],
      "stateMutability": "view",
      "type": "function"
    },
    {
      "inputs": [],
      "name": "minter",
      "outputs": [
        {
          "internalType": "address",
          "name": "",
          "type": "address"
        }
      ],
      "stateMutability": "view",
      "type": "function"
    },
    {
      "inputs": [],
      "name": "name",
      "outputs": [
        {
          "internalType": "string",
          "name": "",
          "type": "string"
        }
      ],
      "stateMutability": "view",
      "type": "function"
    },
    {
      "inputs": [
        {
          "internalType": "address",
          "name": "_newAdmin",
          "type": "address"
        }
      ],
      "name": "newAdmin",
      "outputs": [],
      "stateMutability": "nonpayable",
      "type": "function"
    },
    {
      "inputs": [
        {
          "internalType": "address",
          "name": "_newBurner",
          "type": "address"
        }
      ],
      "name": "newBurner",
      "outputs": [],
      "stateMutability": "nonpayable",
      "type": "function"
    },
    {
      "inputs": [
        {
          "internalType": "address",
          "name": "_newCEO",
          "type": "address"
        }
      ],
      "name": "newCEO",
      "outputs": [],
      "stateMutability": "nonpayable",
      "type": "function"
    },
    {
      "inputs": [
        {
          "internalType": "address",
          "name": "_newManager",
          "type": "address"
        }
      ],
      "name": "newManager",
      "outputs": [],
      "stateMutability": "nonpayable",
      "type": "function"
    },
    {
      "inputs": [
        {
          "internalType": "address",
          "name": "_newMinter",
          "type": "address"
        }
      ],
      "name": "newMinter",
      "outputs": [],
      "stateMutability": "nonpayable",
      "type": "function"
    },
    {
      "inputs": [
        {
          "internalType": "uint256",
          "name": "tokenId",
          "type": "uint256"
        }
      ],
      "name": "ownerOf",
      "outputs": [
        {
          "internalType": "address",
          "name": "",
          "type": "address"
        }
      ],
      "stateMutability": "view",
      "type": "function"
    },
    {
      "inputs": [],
      "name": "pause",
      "outputs": [],
      "stateMutability": "nonpayable",
      "type": "function"
    },
    {
      "inputs": [],
      "name": "paused",
      "outputs": [
        {
          "internalType": "bool",
          "name": "",
          "type": "bool"
        }
      ],
      "stateMutability": "view",
      "type": "function"
    },
    {
      "inputs": [
        {
          "internalType": "address",
          "name": "from",
          "type": "address"
        },
        {
          "internalType": "address",
          "name": "to",
          "type": "address"
        },
        {
          "internalType": "uint256",
          "name": "tokenId",
          "type": "uint256"
        },
        {
          "internalType": "bytes",
          "name": "_data",
          "type": "bytes"
        }
      ],
      "name": "safeTransfer",
      "outputs": [],
      "stateMutability": "nonpayable",
      "type": "function"
    },
    {
      "inputs": [
        {
          "internalType": "address",
          "name": "from",
          "type": "address"
        },
        {
          "internalType": "address",
          "name": "to",
          "type": "address"
        },
        {
          "internalType": "uint256",
          "name": "tokenId",
          "type": "uint256"
        }
      ],
      "name": "safeTransferFrom",
      "outputs": [],
      "stateMutability": "nonpayable",
      "type": "function"
    },
    {
      "inputs": [
        {
          "internalType": "address",
          "name": "from",
          "type": "address"
        },
        {
          "internalType": "address",
          "name": "to",
          "type": "address"
        },
        {
          "internalType": "uint256",
          "name": "tokenId",
          "type": "uint256"
        },
        {
          "internalType": "bytes",
          "name": "_data",
          "type": "bytes"
        }
      ],
      "name": "safeTransferFrom",
      "outputs": [],
      "stateMutability": "nonpayable",
      "type": "function"
    },
    {
      "inputs": [
        {
          "internalType": "address",
          "name": "operator",
          "type": "address"
        },
        {
          "internalType": "bool",
          "name": "approved",
          "type": "bool"
        }
      ],
      "name": "setApprovalForAll",
      "outputs": [],
      "stateMutability": "nonpayable",
      "type": "function"
    },
    {
      "inputs": [
        {
          "internalType": "string",
          "name": "newBaseURI",
          "type": "string"
        }
      ],
      "name": "setBaseURI",
      "outputs": [],
      "stateMutability": "nonpayable",
      "type": "function"
    },
    {
      "inputs": [
        {
          "internalType": "bytes4",
          "name": "interfaceId",
          "type": "bytes4"
        }
      ],
      "name": "supportsInterface",
      "outputs": [
        {
          "internalType": "bool",
          "name": "",
          "type": "bool"
        }
      ],
      "stateMutability": "view",
      "type": "function"
    },
    {
      "inputs": [],
      "name": "symbol",
      "outputs": [
        {
          "internalType": "string",
          "name": "",
          "type": "string"
        }
      ],
      "stateMutability": "view",
      "type": "function"
    },
    {
      "inputs": [
        {
          "internalType": "uint256",
          "name": "index",
          "type": "uint256"
        }
      ],
      "name": "tokenByIndex",
      "outputs": [
        {
          "internalType": "uint256",
          "name": "",
          "type": "uint256"
        }
      ],
      "stateMutability": "view",
      "type": "function"
    },
    {
      "inputs": [
        {
          "internalType": "address",
          "name": "owner",
          "type": "address"
        },
        {
          "internalType": "uint256",
          "name": "index",
          "type": "uint256"
        }
      ],
      "name": "tokenOfOwnerByIndex",
      "outputs": [
        {
          "internalType": "uint256",
          "name": "",
          "type": "uint256"
        }
      ],
      "stateMutability": "view",
      "type": "function"
    },
    {
      "inputs": [
        {
          "internalType": "uint256",
          "name": "tokenId",
          "type": "uint256"
        }
      ],
      "name": "tokenURI",
      "outputs": [
        {
          "internalType": "string",
          "name": "",
          "type": "string"
        }
      ],
      "stateMutability": "view",
      "type": "function"
    },
    {
      "inputs": [],
      "name": "totalSupply",
      "outputs": [
        {
          "internalType": "uint256",
          "name": "",
          "type": "uint256"
        }
      ],
      "stateMutability": "view",
      "type": "function"
    },
    {
      "inputs": [
        {
          "internalType": "address",
          "name": "from",
          "type": "address"
        },
        {
          "internalType": "address",
          "name": "to",
          "type": "address"
        },
        {
          "internalType": "uint256",
          "name": "tokenId",
          "type": "uint256"
        }
      ],
      "name": "transfer",
      "outputs": [],
      "stateMutability": "nonpayable",
      "type": "function"
    },
    {
      "inputs": [
        {
          "internalType": "address",
          "name": "from",
          "type": "address"
        },
        {
          "internalType": "address",
          "name": "to",
          "type": "address"
        },
        {
          "internalType": "uint256",
          "name": "tokenId",
          "type": "uint256"
        }
      ],
      "name": "transferFrom",
      "outputs": [],
      "stateMutability": "nonpayable",
      "type": "function"
    },
    {
      "inputs": [],
      "name": "unpause",
      "outputs": [],
      "stateMutability": "nonpayable",
      "type": "function"
    },
    {
      "inputs": [
        {
          "internalType": "uint256",
          "name": "_nbmonId",
          "type": "uint256"
        }
      ],
      "name": "getNBMon",
      "outputs": [
        {
          "components": [
            {
              "internalType": "uint256",
              "name": "nbmonId",
              "type": "uint256"
            },
            {
              "internalType": "address",
              "name": "owner",
              "type": "address"
            },
            {
              "internalType": "uint256",
              "name": "bornAt",
              "type": "uint256"
            },
            {
              "internalType": "uint256",
              "name": "transferredAt",
              "type": "uint256"
            },
            {
              "internalType": "uint32[]",
              "name": "nbmonStats",
              "type": "uint32[]"
            },
            {
              "internalType": "uint8[]",
              "name": "elements",
              "type": "uint8[]"
            },
            {
              "internalType": "uint8[]",
              "name": "potential",
              "type": "uint8[]"
            },
            {
              "internalType": "uint8[]",
              "name": "inheritedPassives",
              "type": "uint8[]"
            },
            {
              "internalType": "uint8[]",
              "name": "inheritedMoves",
              "type": "uint8[]"
            }
          ],
          "internalType": "struct NBMonCore.NBMon",
          "name": "",
          "type": "tuple"
        }
      ],
      "stateMutability": "view",
      "type": "function"
    },
    {
      "inputs": [
        {
          "internalType": "address",
          "name": "_owner",
          "type": "address"
        }
      ],
      "name": "getAllNBMonsOfOwner",
      "outputs": [
        {
          "components": [
            {
              "internalType": "uint256",
              "name": "nbmonId",
              "type": "uint256"
            },
            {
              "internalType": "address",
              "name": "owner",
              "type": "address"
            },
            {
              "internalType": "uint256",
              "name": "bornAt",
              "type": "uint256"
            },
            {
              "internalType": "uint256",
              "name": "transferredAt",
              "type": "uint256"
            },
            {
              "internalType": "uint32[]",
              "name": "nbmonStats",
              "type": "uint32[]"
            },
            {
              "internalType": "uint8[]",
              "name": "elements",
              "type": "uint8[]"
            },
            {
              "internalType": "uint8[]",
              "name": "potential",
              "type": "uint8[]"
            },
            {
              "internalType": "uint8[]",
              "name": "inheritedPassives",
              "type": "uint8[]"
            },
            {
              "internalType": "uint8[]",
              "name": "inheritedMoves",
              "type": "uint8[]"
            }
          ],
          "internalType": "struct NBMonCore.NBMon[]",
          "name": "",
          "type": "tuple[]"
        }
      ],
      "stateMutability": "view",
      "type": "function"
    },
    {
      "inputs": [
        {
          "internalType": "address",
          "name": "_owner",
          "type": "address"
        }
      ],
      "name": "getOwnerNBMonCount",
      "outputs": [
        {
          "internalType": "uint256",
          "name": "",
          "type": "uint256"
        }
      ],
      "stateMutability": "view",
      "type": "function"
    },
    {
      "inputs": [
        {
          "internalType": "address",
          "name": "_owner",
          "type": "address"
        }
      ],
      "name": "getOwnerNBMonIds",
      "outputs": [
        {
          "internalType": "uint256[]",
          "name": "",
          "type": "uint256[]"
        }
      ],
      "stateMutability": "view",
      "type": "function"
    },
    {
      "inputs": [
        {
          "internalType": "uint8",
          "name": "genders_",
          "type": "uint8"
        }
      ],
      "name": "changeGenders",
      "outputs": [],
      "stateMutability": "nonpayable",
      "type": "function"
    },
    {
      "inputs": [
        {
          "internalType": "uint16",
          "name": "rarityChance_",
          "type": "uint16"
        }
      ],
      "name": "changeRarityChance",
      "outputs": [],
      "stateMutability": "nonpayable",
      "type": "function"
    },
    {
      "inputs": [
        {
          "internalType": "uint8",
          "name": "nbmonTypes_",
          "type": "uint8"
        }
      ],
      "name": "changeNbmonTypes",
      "outputs": [],
      "stateMutability": "nonpayable",
      "type": "function"
    },
    {
      "inputs": [
        {
          "internalType": "uint16",
          "name": "genera_",
          "type": "uint16"
        }
      ],
      "name": "changeGenera",
      "outputs": [],
      "stateMutability": "nonpayable",
      "type": "function"
    },
    {
      "inputs": [
        {
          "internalType": "uint8",
          "name": "shinyChance_",
          "type": "uint8"
        }
      ],
      "name": "changeShinyChance",
      "outputs": [],
      "stateMutability": "nonpayable",
      "type": "function"
    },
    {
      "inputs": [
        {
          "internalType": "uint8",
          "name": "elementTypes_",
          "type": "uint8"
        }
      ],
      "name": "changeElementTypes",
      "outputs": [],
      "stateMutability": "nonpayable",
      "type": "function"
    },
    {
      "inputs": [
        {
          "internalType": "uint8",
          "name": "maxPotential_",
          "type": "uint8"
        }
      ],
      "name": "changeMaxPotential",
      "outputs": [],
      "stateMutability": "nonpayable",
      "type": "function"
    },
    {
      "inputs": [
        {
          "internalType": "uint16",
          "name": "baseFertilityChance_",
          "type": "uint16"
        }
      ],
      "name": "changeBaseFertilityChance",
      "outputs": [],
      "stateMutability": "nonpayable",
      "type": "function"
    },
    {
      "inputs": [
        {
          "internalType": "uint256",
          "name": "_randomNumber",
          "type": "uint256"
        },
        {
          "internalType": "address",
          "name": "_owner",
          "type": "address"
        },
        {
          "internalType": "uint32",
          "name": "_evolveDurationTime",
          "type": "uint32"
        }
      ],
      "name": "mintOrigin",
      "outputs": [],
      "stateMutability": "nonpayable",
      "type": "function"
    },
    {
      "inputs": [
        {
          "internalType": "uint256",
          "name": "_nbmonId",
          "type": "uint256"
        }
      ],
      "name": "getNbmonStats",
      "outputs": [
        {
          "internalType": "uint32[]",
          "name": "",
          "type": "uint32[]"
        }
      ],
      "stateMutability": "view",
      "type": "function"
    },
    {
      "inputs": [
        {
          "internalType": "uint256",
          "name": "_nbmonId",
          "type": "uint256"
        }
      ],
      "name": "getBornAt",
      "outputs": [
        {
          "internalType": "uint256",
          "name": "",
          "type": "uint256"
        }
      ],
      "stateMutability": "view",
      "type": "function"
    },
    {
      "inputs": [
        {
          "internalType": "uint256",
          "name": "_nbmonId",
          "type": "uint256"
        }
      ],
      "name": "getTransferredAt",
      "outputs": [
        {
          "internalType": "uint256",
          "name": "",
          "type": "uint256"
        }
      ],
      "stateMutability": "view",
      "type": "function"
    },
    {
      "inputs": [
        {
          "internalType": "uint256",
          "name": "_nbmonId",
          "type": "uint256"
        }
      ],
      "name": "getElements",
      "outputs": [
        {
          "internalType": "uint8[]",
          "name": "",
          "type": "uint8[]"
        }
      ],
      "stateMutability": "view",
      "type": "function"
    },
    {
      "inputs": [
        {
          "internalType": "uint256",
          "name": "_nbmonId",
          "type": "uint256"
        }
      ],
      "name": "getPotential",
      "outputs": [
        {
          "internalType": "uint8[]",
          "name": "",
          "type": "uint8[]"
        }
      ],
      "stateMutability": "view",
      "type": "function"
    },
    {
      "inputs": [
        {
          "internalType": "uint256",
          "name": "_nbmonId",
          "type": "uint256"
        }
      ],
      "name": "getInheritedPassives",
      "outputs": [
        {
          "internalType": "uint8[]",
          "name": "",
          "type": "uint8[]"
        }
      ],
      "stateMutability": "view",
      "type": "function"
    },
    {
      "inputs": [
        {
          "internalType": "uint256",
          "name": "_nbmonId",
          "type": "uint256"
        }
      ],
      "name": "getInheritedMoves",
      "outputs": [
        {
          "internalType": "uint8[]",
          "name": "",
          "type": "uint8[]"
        }
      ],
      "stateMutability": "view",
      "type": "function"
    }
  ],
  "bytecode": "0x60806040526001601555601680546001600160601b0319166b0384410d1000000b0303e8021790553480156200003457600080fd5b5060405180604001604052806005815260200164272126b7b760d91b81525060405180604001604052806005815260200164272126a7a760d91b81525062000081620001b460201b60201c565b600080546001600160a01b0319166001600160a01b0392909216919091179055620000a93390565b600180546001600160a01b0319166001600160a01b0392909216919091179055620000d13390565b600280546001600160a01b0319166001600160a01b0392909216919091179055620000f93390565b600380546001600160a01b0319166001600160a01b0392909216919091179055620001213390565b600480546001600160a81b0319166001600160a01b039290921691909117905581516200015690600590602085019062000211565b5080516200016c90600690602084019062000211565b505060408051808201909152601b81527f68747470733a2f2f6e62636f6d70616e792e696f2f6e626d6f6e2f00000000006020820152620001ae9150620001b8565b620002f4565b3390565b6000546001600160a01b0316336001600160a01b03161480620001ee57506003546001600160a01b0316336001600160a01b0316145b620001f857600080fd5b80516200020d90601090602084019062000211565b5050565b8280546200021f90620002b7565b90600052602060002090601f0160209004810192826200024357600085556200028e565b82601f106200025e57805160ff19168380011785556200028e565b828001600101855582156200028e579182015b828111156200028e57825182559160200191906001019062000271565b506200029c929150620002a0565b5090565b5b808211156200029c5760008155600101620002a1565b600181811c90821680620002cc57607f821691505b60208210811415620002ee57634e487b7160e01b600052602260045260246000fd5b50919050565b613e3980620003046000396000f3fe608060405234801561001057600080fd5b50600436106103af5760003560e01c80637392ed1b116101f4578063a6ba31c11161011a578063d49a49cf116100ad578063e89555f51161007c578063e89555f514610875578063e985e9c51461088a578063f840f72b146108c6578063f851a440146108d957600080fd5b8063d49a49cf14610839578063d7cf20811461084c578063d7f9352414610859578063dfac24be1461086257600080fd5b8063b62ae99b116100e9578063b62ae99b146107ed578063b88d4fde14610800578063beabacc814610813578063c87b56dd1461082657600080fd5b8063a6ba31c1146107a0578063a8892ccd146107b3578063a9917dbe146107c7578063ac4a981e146107da57600080fd5b8063906e940011610192578063983bcb7a11610161578063983bcb7a1461073b5780639e7df42814610764578063a22cb46514610778578063a5b424ab1461078b57600080fd5b8063906e9400146106fa578063908921fc1461070d578063944c8fdf1461072057806395d89b411461073357600080fd5b806380c90cdc116101ce57806380c90cdc146106b957806382abc625146106cc5780638456cb59146106df5780638f38abe8146106e757600080fd5b80637392ed1b1461068057806376b82a9114610693578063805528e8146106a657600080fd5b8063479a506d116102d9578063573419121161027757806363ec74771161024657806363ec747714610627578063683087321461063a57806370a082311461064d57806373168a391461066057600080fd5b806357341912146105cf5780635c975abb146105e25780635cad8213146105f45780636352211e1461061457600080fd5b80634bb1b2e1116102b35780634bb1b2e1146105635780634cd1c611146105835780634f6ccce7146105a957806355f804b3146105bc57600080fd5b8063479a506d1461051d578063481c6a751461053d578063498c4a011461055057600080fd5b8063194ddb2a116103515780632f745c59116103205780632f745c59146104cf5780633f4ba83a146104e257806342842e0e146104ea578063434807ad146104fd57600080fd5b8063194ddb2a1461048357806323b872dd14610496578063272565ee146104a957806327810b6e146104bc57600080fd5b8063081812fc1161038d578063081812fc1461041c578063095ea7b31461042f57806311e38c5e1461044457806318160ddd1461047b57600080fd5b806301ffc9a7146103b457806306fdde03146103dc57806307546172146103f1575b600080fd5b6103c76103c23660046137da565b6108ec565b60405190151581526020015b60405180910390f35b6103e4610917565b6040516103d39190613b96565b600154610404906001600160a01b031681565b6040516001600160a01b0390911681526020016103d3565b61040461042a366004613881565b6109a9565b61044261043d3660046137b0565b610a36565b005b61046d61045236600461366e565b6001600160a01b031660009081526012602052604090205490565b6040519081526020016103d3565b600e5461046d565b61046d610491366004613881565b610b76565b6104426104a43660046136bc565b610bae565b6104426104b73660046138e3565b610c09565b600254610404906001600160a01b031681565b61046d6104dd3660046137b0565b610c4f565b610442610ce5565b6104426104f83660046136bc565b610da2565b61051061050b366004613881565b610de7565b6040516103d39190613b83565b61053061052b366004613881565b610e8b565b6040516103d39190613c76565b600454610404906001600160a01b031681565b61044261055e36600461385d565b61121c565b61057661057136600461366e565b61125a565b6040516103d39190613aca565b60165461059790600160401b900460ff1681565b60405160ff90911681526020016103d3565b61046d6105b7366004613881565b611555565b6104426105ca366004613814565b6115e8565b6104426105dd36600461366e565b61163d565b600454600160a01b900460ff166103c7565b61060761060236600461366e565b6116b0565b6040516103d39190613b2c565b610404610622366004613881565b61171b565b6104426106353660046138e3565b611792565b610510610648366004613881565b6117d7565b61046d61065b36600461366e565b61185e565b61067361066e366004613881565b6118e5565b6040516103d39190613b70565b61046d61068e366004613881565b611995565b6104426106a13660046136f8565b6119cd565b6104426106b43660046138e3565b611a06565b6104426106c736600461385d565b611a49565b6104426106da36600461385d565b611a8d565b610442611acf565b6104426106f53660046138e3565b611b54565b61044261070836600461366e565b611b94565b600354610404906001600160a01b031681565b61051061072e366004613881565b611c07565b6103e4611c8e565b60165461075190640100000000900461ffff1681565b60405161ffff90911681526020016103d3565b601654610597906301000000900460ff1681565b610442610786366004613774565b611c9d565b60165461075190600160501b900461ffff1681565b6104426107ae36600461366e565b611d8c565b60165461059790600160481b900460ff1681565b6104426107d536600461366e565b611de1565b6104426107e83660046138e3565b611e36565b6104426107fb36600461389a565b611e6c565b61044261080e3660046136f8565b611e77565b6104426108213660046136bc565b611ed3565b6103e4610834366004613881565b61207e565b60165461075190610100900461ffff1681565b6016546105979060ff1681565b61046d60155481565b610510610870366004613881565b612089565b60165461075190600160301b900461ffff1681565b6103c7610898366004613689565b6001600160a01b039182166000908152600a6020908152604080832093909416825291909152205460ff1690565b6104426108d436600461366e565b612110565b600054610404906001600160a01b031681565b60006001600160e01b03198216631e7c553160e21b1480610911575061091182612183565b92915050565b60606005805461092690613cf8565b80601f016020809104026020016040519081016040528092919081815260200182805461095290613cf8565b801561099f5780601f106109745761010080835404028352916020019161099f565b820191906000526020600020905b81548152906001019060200180831161098257829003601f168201915b5050505050905090565b60006109b4826121a8565b610a1a5760405162461bcd60e51b815260206004820152602c60248201527f4245503732313a20617070726f76656420717565727920666f72206e6f6e657860448201526b34b9ba32b73a103a37b5b2b760a11b60648201526084015b60405180910390fd5b506000908152600960205260409020546001600160a01b031690565b600454600160a01b900460ff1615610a605760405162461bcd60e51b8152600401610a1190613ba9565b6000610a6b8261171b565b9050806001600160a01b0316836001600160a01b03161415610ad95760405162461bcd60e51b815260206004820152602160248201527f4245503732313a20617070726f76616c20746f2063757272656e74206f776e656044820152603960f91b6064820152608401610a11565b336001600160a01b0382161480610af55750610af58133610898565b610b675760405162461bcd60e51b815260206004820152603860248201527f4245503732313a20617070726f76652063616c6c6572206973206e6f74206f7760448201527f6e6572206e6f7220617070726f76656420666f7220616c6c00000000000000006064820152608401610a11565b610b7183836121c5565b505050565b60006011610b85600184613cb5565b81548110610b9557610b95613dbe565b9060005260206000209060090201600301549050919050565b600454600160a01b900460ff1615610bd85760405162461bcd60e51b8152600401610a1190613ba9565b610be23382612233565b610bfe5760405162461bcd60e51b8152600401610a1190613bd3565b610b71838383611ed3565b6000546001600160a01b0316336001600160a01b031614610c2957600080fd5b6016805460ff909216600160481b0269ff00000000000000000019909216919091179055565b6000610c5a8361185e565b8210610cbc5760405162461bcd60e51b815260206004820152602b60248201527f424550373231456e756d657261626c653a206f776e657220696e646578206f7560448201526a74206f6620626f756e647360a81b6064820152608401610a11565b506001600160a01b03919091166000908152600c60209081526040808320938352929052205490565b600454600160a01b900460ff16610d355760405162461bcd60e51b815260206004820152601460248201527314185d5cd8589b194e881b9bdd081c185d5cd95960621b6044820152606401610a11565b6000546001600160a01b0316336001600160a01b031614610d5557600080fd5b6004805460ff60a01b191690557f5db9ee0a495bf2e6ff9c91a7834c1ba4fdd244a5e8aa4e537bd38aeae4b073aa335b6040516001600160a01b03909116815260200160405180910390a1565b600454600160a01b900460ff1615610dcc5760405162461bcd60e51b8152600401610a1190613ba9565b610b7183838360405180602001604052806000815250611e77565b60606011610df6600184613cb5565b81548110610e0657610e06613dbe565b9060005260206000209060090201600601805480602002602001604051908101604052809291908181526020018280548015610e7f57602002820191906000526020600020906000905b825461010083900a900460ff16815260206001928301818104948501949093039092029101808411610e505790505b50505050509050919050565b610ee36040518061012001604052806000815260200160006001600160a01b03168152602001600081526020016000815260200160608152602001606081526020016060815260200160608152602001606081525090565b610eec826121a8565b610f565760405162461bcd60e51b815260206004820152603560248201527f4e424d6f6e436f72653a204e424d6f6e207769746820746865207370656369666044820152741a595908125108191bd95cc81b9bdd08195e1a5cdd605a1b6064820152608401610a11565b6011610f63600184613cb5565b81548110610f7357610f73613dbe565b6000918252602091829020604080516101208101825260099093029091018054835260018101546001600160a01b031683850152600281015483830152600381015460608401526004810180548351818702810187019094528084529394919360808601939283018282801561103457602002820191906000526020600020906000905b82829054906101000a900463ffffffff1663ffffffff1681526020019060040190602082600301049283019260010382029150808411610ff75790505b50505050508152602001600582018054806020026020016040519081016040528092919081815260200182805480156110aa57602002820191906000526020600020906000905b825461010083900a900460ff1681526020600192830181810494850194909303909202910180841161107b5790505b505050505081526020016006820180548060200260200160405190810160405280929190818152602001828054801561112057602002820191906000526020600020906000905b825461010083900a900460ff168152602060019283018181049485019490930390920291018084116110f15790505b505050505081526020016007820180548060200260200160405190810160405280929190818152602001828054801561119657602002820191906000526020600020906000905b825461010083900a900460ff168152602060019283018181049485019490930390920291018084116111675790505b505050505081526020016008820180548060200260200160405190810160405280929190818152602001828054801561120c57602002820191906000526020600020906000905b825461010083900a900460ff168152602060019283018181049485019490930390920291018084116111dd5790505b5050505050815250509050919050565b6000546001600160a01b0316336001600160a01b03161461123c57600080fd5b6016805461ffff9092166101000262ffff0019909216919091179055565b6001600160a01b0381166000908152601460209081526040808320805482518185028101850190935280835260609492939192909184015b8282101561154a5760008481526020908190206040805161012081018252600986029092018054835260018101546001600160a01b031683850152600281015483830152600381015460608401526004810180548351818702810187019094528084529394919360808601939283018282801561135a57602002820191906000526020600020906000905b82829054906101000a900463ffffffff1663ffffffff168152602001906004019060208260030104928301926001038202915080841161131d5790505b50505050508152602001600582018054806020026020016040519081016040528092919081815260200182805480156113d057602002820191906000526020600020906000905b825461010083900a900460ff168152602060019283018181049485019490930390920291018084116113a15790505b505050505081526020016006820180548060200260200160405190810160405280929190818152602001828054801561144657602002820191906000526020600020906000905b825461010083900a900460ff168152602060019283018181049485019490930390920291018084116114175790505b50505050508152602001600782018054806020026020016040519081016040528092919081815260200182805480156114bc57602002820191906000526020600020906000905b825461010083900a900460ff1681526020600192830181810494850194909303909202910180841161148d5790505b505050505081526020016008820180548060200260200160405190810160405280929190818152602001828054801561153257602002820191906000526020600020906000905b825461010083900a900460ff168152602060019283018181049485019490930390920291018084116115035790505b50505050508152505081526020019060010190611292565b505050509050919050565b6000611560600e5490565b82106115c35760405162461bcd60e51b815260206004820152602c60248201527f424550373231456e756d657261626c653a20676c6f62616c20696e646578206f60448201526b7574206f6620626f756e647360a01b6064820152608401610a11565b600e82815481106115d6576115d6613dbe565b90600052602060002001549050919050565b6000546001600160a01b0316336001600160a01b0316148061161d57506003546001600160a01b0316336001600160a01b0316145b61162657600080fd5b805161163990601090602084019061340a565b5050565b6000546001600160a01b0316336001600160a01b0316148061167257506003546001600160a01b0316336001600160a01b0316145b61167b57600080fd5b6001600160a01b03811661168e57600080fd5b600180546001600160a01b0319166001600160a01b0392909216919091179055565b6001600160a01b038116600090815260136020908152604091829020805483518184028101840190945280845260609392830182828015610e7f57602002820191906000526020600020905b8154815260200190600101908083116116fc5750505050509050919050565b6000818152600760205260408120546001600160a01b0316806109115760405162461bcd60e51b815260206004820152602960248201527f4245503732313a206f776e657220717565727920666f72206e6f6e657869737460448201526832b73a103a37b5b2b760b91b6064820152608401610a11565b6000546001600160a01b0316336001600160a01b0316146117b257600080fd5b6016805460ff909216600160401b0268ff000000000000000019909216919091179055565b606060116117e6600184613cb5565b815481106117f6576117f6613dbe565b9060005260206000209060090201600801805480602002602001604051908101604052809291908181526020018280548015610e7f576000918252602091829020805460ff168452908202830192909160019101808411610e50575094979650505050505050565b60006001600160a01b0382166118c95760405162461bcd60e51b815260206004820152602a60248201527f4245503732313a2062616c616e636520717565727920666f7220746865207a65604482015269726f206164647265737360b01b6064820152608401610a11565b506001600160a01b031660009081526008602052604090205490565b606060116118f4600184613cb5565b8154811061190457611904613dbe565b9060005260206000209060090201600401805480602002602001604051908101604052809291908181526020018280548015610e7f57602002820191906000526020600020906000905b82829054906101000a900463ffffffff1663ffffffff168152602001906004019060208260030104928301926001038202915080841161194e575094979650505050505050565b600060116119a4600184613cb5565b815481106119b4576119b4613dbe565b9060005260206000209060090201600201549050919050565b6119d8848484611ed3565b6119e48484848461231d565b611a005760405162461bcd60e51b8152600401610a1190613c24565b50505050565b6000546001600160a01b0316336001600160a01b031614611a2657600080fd5b6016805467ffff000000000000191660ff92909216600160301b02919091179055565b6000546001600160a01b0316336001600160a01b031614611a6957600080fd5b6016805461ffff9092166401000000000265ffff0000000019909216919091179055565b6000546001600160a01b0316336001600160a01b031614611aad57600080fd5b6016805461ffff909216600160501b0261ffff60501b19909216919091179055565b600454600160a01b900460ff1615611af95760405162461bcd60e51b8152600401610a1190613ba9565b6000546001600160a01b0316336001600160a01b031614611b1957600080fd5b6004805460ff60a01b1916600160a01b1790557f62e78cea01bee320cd4e420270b5ea74000d11b0c9f74754ebdbfc544b05a258610d853390565b6000546001600160a01b0316336001600160a01b031614611b7457600080fd5b6016805460ff90921663010000000263ff00000019909216919091179055565b6000546001600160a01b0316336001600160a01b03161480611bc957506003546001600160a01b0316336001600160a01b0316145b611bd257600080fd5b6001600160a01b038116611be557600080fd5b600480546001600160a01b0319166001600160a01b0392909216919091179055565b60606011611c16600184613cb5565b81548110611c2657611c26613dbe565b9060005260206000209060090201600501805480602002602001604051908101604052809291908181526020018280548015610e7f576000918252602091829020805460ff168452908202830192909160019101808411610e50575094979650505050505050565b60606006805461092690613cf8565b600454600160a01b900460ff1615611cc75760405162461bcd60e51b8152600401610a1190613ba9565b6001600160a01b038216331415611d205760405162461bcd60e51b815260206004820152601960248201527f4245503732313a20617070726f766520746f2063616c6c6572000000000000006044820152606401610a11565b336000818152600a602090815260408083206001600160a01b03871680855290835292819020805460ff191686151590811790915590519081529192917f17307eab39ab6107e8899845ad3d59bd9653f200f220920489ca2b5937696c31910160405180910390a35050565b6000546001600160a01b0316336001600160a01b031614611dac57600080fd5b6001600160a01b038116611dbf57600080fd5b600080546001600160a01b0319166001600160a01b0392909216919091179055565b6000546001600160a01b0316336001600160a01b031614611e0157600080fd5b6001600160a01b038116611e1457600080fd5b600380546001600160a01b0319166001600160a01b0392909216919091179055565b6000546001600160a01b0316336001600160a01b031614611e5657600080fd5b6016805460ff191660ff92909216919091179055565b610b7183838361242a565b600454600160a01b900460ff1615611ea15760405162461bcd60e51b8152600401610a1190613ba9565b611eab3383612233565b611ec75760405162461bcd60e51b8152600401610a1190613bd3565b611a00848484846119cd565b826001600160a01b0316611ee68261171b565b6001600160a01b031614611f4e5760405162461bcd60e51b815260206004820152602960248201527f4245503732313a207472616e73666572206f6620746f6b656e2074686174206960448201526839903737ba1037bbb760b91b6064820152608401610a11565b6001600160a01b038216611fb05760405162461bcd60e51b8152602060048201526024808201527f4245503732313a207472616e7366657220746f20746865207a65726f206164646044820152637265737360e01b6064820152608401610a11565b611fbb8383836127c9565b611fc66000826121c5565b6001600160a01b0383166000908152600860205260408120805460019290611fef908490613cb5565b90915550506001600160a01b038216600090815260086020526040812080546001929061201d908490613c89565b909155505060008181526007602052604080822080546001600160a01b0319166001600160a01b0386811691821790925591518493918716917fddf252ad1be2c89b69c2b068fc378daa952ba7f163c4a11628f55a4df523b3ef91a4505050565b6060610911826127d4565b60606011612098600184613cb5565b815481106120a8576120a8613dbe565b9060005260206000209060090201600701805480602002602001604051908101604052809291908181526020018280548015610e7f576000918252602091829020805460ff168452908202830192909160019101808411610e50575094979650505050505050565b6000546001600160a01b0316336001600160a01b0316148061214557506003546001600160a01b0316336001600160a01b0316145b61214e57600080fd5b6001600160a01b03811661216157600080fd5b600280546001600160a01b0319166001600160a01b0392909216919091179055565b60006001600160e01b0319821663780e9d6360e01b1480610911575061091182612936565b6000908152600760205260409020546001600160a01b0316151590565b600081815260096020526040902080546001600160a01b0319166001600160a01b03841690811790915581906121fa8261171b565b6001600160a01b03167f8c5be1e5ebec7d5bd14f71427d1e84f3dd0314c0f7b2291e5b200ac8c7c3b92560405160405180910390a45050565b600061223e826121a8565b61229f5760405162461bcd60e51b815260206004820152602c60248201527f4245503732313a206f70657261746f7220717565727920666f72206e6f6e657860448201526b34b9ba32b73a103a37b5b2b760a11b6064820152608401610a11565b60006122aa8361171b565b9050806001600160a01b0316846001600160a01b031614806122e55750836001600160a01b03166122da846109a9565b6001600160a01b0316145b8061231557506001600160a01b038082166000908152600a602090815260408083209388168352929052205460ff165b949350505050565b60006001600160a01b0384163b1561241f5760405163083305f960e31b81526001600160a01b038516906341982fc890612361903390899088908890600401613a97565b602060405180830381600087803b15801561237b57600080fd5b505af19250505080156123ab575060408051601f3d908101601f191682019092526123a8918101906137f7565b60015b612405573d8080156123d9576040519150601f19603f3d011682016040523d82523d6000602084013e6123de565b606091505b5080516123fd5760405162461bcd60e51b8152600401610a1190613c24565b805181602001fd5b6001600160e01b03191663083305f960e31b149050612315565b506001949350505050565b60006124368483612986565b9050600061244385612c94565b9050600061245086612d9f565b604080516101208101825260155481526001600160a01b038881166020808401918252429484018581526060808601968752608086018b815260a087018b905260c0870189905260e0870182905261010087018290526011805460018101825560009190915287517f31ecc21a745e3968a04e9570e4425bc18fa8019c68028196b546d1669c200c68600990920291820190815595517f31ecc21a745e3968a04e9570e4425bc18fa8019c68028196b546d1669c200c69820180546001600160a01b031916919098161790965591517f31ecc21a745e3968a04e9570e4425bc18fa8019c68028196b546d1669c200c6a86015595517f31ecc21a745e3968a04e9570e4425bc18fa8019c68028196b546d1669c200c6b8501555180519697509495869585946125a6937f31ecc21a745e3968a04e9570e4425bc18fa8019c68028196b546d1669c200c6c9091019291019061348e565b5060a082015180516125c2916005840191602090910190613538565b5060c082015180516125de916006840191602090910190613538565b5060e082015180516125fa916007840191602090910190613538565b506101008201518051612617916008840191602090910190613538565b5050506001600160a01b0388811660009081526014602090815260408083208054600180820183559185529383902086516009909502019384558583015190840180546001600160a01b03191691909516179093559183015160028201556060830151600382015560808301518051849361269992600485019291019061348e565b5060a082015180516126b5916005840191602090910190613538565b5060c082015180516126d1916006840191602090910190613538565b5060e082015180516126ed916007840191602090910190613538565b50610100820151805161270a916008840191602090910190613538565b50505061271988601554612e5e565b6001600160a01b038816600090815260136020908152604082206015805482546001810184559285529284209091019190915580549161275883613d2d565b90915550506001600160a01b038816600090815260126020526040812080549161278183613d2d565b90915550506015546040516001600160a01b038a1691907f47cb4d17ba1d2b90700b9a127f2fec8f547e1497333d5591a0a1e0942f6e1c5290600090a3505050505050505050565b610b71838383612e78565b60606127df826121a8565b6128455760405162461bcd60e51b815260206004820152603160248201527f42455037323155524953746f726167653a2055524920717565727920666f72206044820152703737b732bc34b9ba32b73a103a37b5b2b760791b6064820152608401610a11565b6000828152600b60205260408120805461285e90613cf8565b80601f016020809104026020016040519081016040528092919081815260200182805461288a90613cf8565b80156128d75780601f106128ac576101008083540402835291602001916128d7565b820191906000526020600020905b8154815290600101906020018083116128ba57829003601f168201915b5050505050905060006128e8612f30565b90508051600014156128fb575092915050565b81511561292d578082604051602001612915929190613a68565b60405160208183030381529060405292505050919050565b61231584612f3f565b60006001600160e01b031982166380ac58cd60e01b148061296757506001600160e01b03198216635b5e139f60e01b145b8061091157506301ffc9a760e01b6001600160e01b0319831614610911565b60408051600780825261010082019092526060916020820160e0803683375050601654604080516020808201899052600082840152825180830384018152606090920190925280519101209293506129e49260ff9091169150613d68565b6129ef906001613c89565b81600081518110612a0257612a02613dbe565b63ffffffff9290921660209283029190910182015260165460408051928301869052600190830152610100900461ffff16906060016040516020818303038152906040528051906020012060001c612a5a9190613d68565b612a65906001613c89565b81600181518110612a7857612a78613dbe565b63ffffffff9290921660209283029190910182015260165460408051928301869052600290830152600160301b900461ffff16906060016040516020818303038152906040528051906020012060001c612ad29190613d68565b612add906001613c89565b81600281518110612af057612af0613dbe565b63ffffffff929092166020928302919091018201526040805180830186905260038183015281518082038301815260609091019091528051910120612b3790600190613d68565b612b42906001613c89565b81600381518110612b5557612b55613dbe565b602002602001019063ffffffff16908163ffffffff16815250508181600481518110612b8357612b83613dbe565b63ffffffff9290921660209283029190910182015260165460408051928301869052600490830152640100000000900461ffff16906060016040516020818303038152906040528051906020012060001c612bde9190613d68565b612be9906001613c89565b81600581518110612bfc57612bfc613dbe565b63ffffffff9290921660209283029190910182015260165460408051928301869052600590830152600160501b900461ffff16906060016040516020818303038152906040528051906020012060001c612c569190613d68565b612c61906001613c89565b81600681518110612c7457612c74613dbe565b602002602001019063ffffffff16908163ffffffff168152505092915050565b604080516002808252606080830184529260208301908036833701905050905060005b60028160ff161015612d495760165460408051602080820187905260ff8581168385015283518084038501815260609093019093528151910120612d0592600160401b900490911690613d68565b612d10906001613c89565b828260ff1681518110612d2557612d25613dbe565b60ff9092166020928302919091019091015280612d4181613d48565b915050612cb7565b5080600081518110612d5d57612d5d613dbe565b602002602001015160ff1660011415612d9a57600281600081518110612d8557612d85613dbe565b602002602001019060ff16908160ff16815250505b919050565b60408051600780825261010082019092526060916020820160e08036833701905050905060005b60078160ff161015612e585760165460408051602080820187905260ff8581168385015283518084038501815260609093019093528151910120612e1492600160481b900490911690613d68565b612e1f906001613c89565b828260ff1681518110612e3457612e34613dbe565b60ff9092166020928302919091019091015280612e5081613d48565b915050612dc6565b50919050565b61163982826040518060200160405280600081525061300a565b6001600160a01b038316612ed357612ece81600e80546000838152600f60205260408120829055600182018355919091527fbb7b4a454dc3493923482f07822329ed19e8244eff582cc204f8554c3620c3fd0155565b612ef6565b816001600160a01b0316836001600160a01b031614612ef657612ef6838261303d565b6001600160a01b038216612f0d57610b71816130da565b826001600160a01b0316826001600160a01b031614610b7157610b718282613189565b60606010805461092690613cf8565b6060612f4a826121a8565b612fae5760405162461bcd60e51b815260206004820152602f60248201527f4245503732314d657461646174613a2055524920717565727920666f72206e6f60448201526e3732bc34b9ba32b73a103a37b5b2b760891b6064820152608401610a11565b6000612fb8612f30565b90506000815111612fd85760405180602001604052806000815250613003565b80612fe2846131cd565b604051602001612ff3929190613a68565b6040516020818303038152906040525b9392505050565b61301483836132cb565b613021600084848461231d565b610b715760405162461bcd60e51b8152600401610a1190613c24565b6000600161304a8461185e565b6130549190613cb5565b6000838152600d60205260409020549091508082146130a7576001600160a01b0384166000908152600c602090815260408083208584528252808320548484528184208190558352600d90915290208190555b506000918252600d602090815260408084208490556001600160a01b039094168352600c81528383209183525290812055565b600e546000906130ec90600190613cb5565b6000838152600f6020526040812054600e805493945090928490811061311457613114613dbe565b9060005260206000200154905080600e838154811061313557613135613dbe565b6000918252602080832090910192909255828152600f9091526040808220849055858252812055600e80548061316d5761316d613da8565b6001900381819060005260206000200160009055905550505050565b60006131948361185e565b6001600160a01b039093166000908152600c602090815260408083208684528252808320859055938252600d9052919091209190915550565b6060816131f15750506040805180820190915260018152600360fc1b602082015290565b8160005b811561321b578061320581613d2d565b91506132149050600a83613ca1565b91506131f5565b60008167ffffffffffffffff81111561323657613236613dd4565b6040519080825280601f01601f191660200182016040528015613260576020820181803683370190505b5090505b841561231557613275600183613cb5565b9150613282600a86613d68565b61328d906030613c89565b60f81b8183815181106132a2576132a2613dbe565b60200101906001600160f81b031916908160001a9053506132c4600a86613ca1565b9450613264565b6001600160a01b0382166133215760405162461bcd60e51b815260206004820181905260248201527f4245503732313a206d696e7420746f20746865207a65726f20616464726573736044820152606401610a11565b61332a816121a8565b156133775760405162461bcd60e51b815260206004820152601c60248201527f4245503732313a20746f6b656e20616c7265616479206d696e746564000000006044820152606401610a11565b613383600083836127c9565b6001600160a01b03821660009081526008602052604081208054600192906133ac908490613c89565b909155505060008181526007602052604080822080546001600160a01b0319166001600160a01b03861690811790915590518392907fddf252ad1be2c89b69c2b068fc378daa952ba7f163c4a11628f55a4df523b3ef908290a45050565b82805461341690613cf8565b90600052602060002090601f016020900481019282613438576000855561347e565b82601f1061345157805160ff191683800117855561347e565b8280016001018555821561347e579182015b8281111561347e578251825591602001919060010190613463565b5061348a9291506135cc565b5090565b8280548282559060005260206000209060070160089004810192821561347e5791602002820160005b838211156134fb57835183826101000a81548163ffffffff021916908363ffffffff16021790555092602001926004016020816003010492830192600103026134b7565b801561352b5782816101000a81549063ffffffff02191690556004016020816003010492830192600103026134fb565b505061348a9291506135cc565b82805482825590600052602060002090601f0160209004810192821561347e5791602002820160005b8382111561359f57835183826101000a81548160ff021916908360ff1602179055509260200192600101602081600001049283019260010302613561565b801561352b5782816101000a81549060ff021916905560010160208160000104928301926001030261359f565b5b8082111561348a57600081556001016135cd565b600067ffffffffffffffff808411156135fc576135fc613dd4565b604051601f8501601f19908116603f0116810190828211818310171561362457613624613dd4565b8160405280935085815286868601111561363d57600080fd5b858560208301376000602087830101525050509392505050565b80356001600160a01b0381168114612d9a57600080fd5b60006020828403121561368057600080fd5b61300382613657565b6000806040838503121561369c57600080fd5b6136a583613657565b91506136b360208401613657565b90509250929050565b6000806000606084860312156136d157600080fd5b6136da84613657565b92506136e860208501613657565b9150604084013590509250925092565b6000806000806080858703121561370e57600080fd5b61371785613657565b935061372560208601613657565b925060408501359150606085013567ffffffffffffffff81111561374857600080fd5b8501601f8101871361375957600080fd5b613768878235602084016135e1565b91505092959194509250565b6000806040838503121561378757600080fd5b61379083613657565b9150602083013580151581146137a557600080fd5b809150509250929050565b600080604083850312156137c357600080fd5b6137cc83613657565b946020939093013593505050565b6000602082840312156137ec57600080fd5b813561300381613dea565b60006020828403121561380957600080fd5b815161300381613dea565b60006020828403121561382657600080fd5b813567ffffffffffffffff81111561383d57600080fd5b8201601f8101841361384e57600080fd5b612315848235602084016135e1565b60006020828403121561386f57600080fd5b813561ffff8116811461300357600080fd5b60006020828403121561389357600080fd5b5035919050565b6000806000606084860312156138af57600080fd5b833592506138bf60208501613657565b9150604084013563ffffffff811681146138d857600080fd5b809150509250925092565b6000602082840312156138f557600080fd5b813560ff8116811461300357600080fd5b600081518084526020808501945080840160005b8381101561393c57815163ffffffff168752958201959082019060010161391a565b509495945050505050565b600081518084526020808501945080840160005b8381101561393c57815160ff168752958201959082019060010161395b565b60008151808452613992816020860160208601613ccc565b601f01601f19169290920160200192915050565b60006101208251845260208301516139c960208601826001600160a01b03169052565b50604083015160408501526060830151606085015260808301518160808601526139f582860182613906565b91505060a083015184820360a0860152613a0f8282613947565b91505060c083015184820360c0860152613a298282613947565b91505060e083015184820360e0860152613a438282613947565b9150506101008084015185830382870152613a5e8382613947565b9695505050505050565b60008351613a7a818460208801613ccc565b835190830190613a8e818360208801613ccc565b01949350505050565b6001600160a01b0385811682528416602082015260408101839052608060608201819052600090613a5e9083018461397a565b6000602080830181845280855180835260408601915060408160051b870101925083870160005b82811015613b1f57603f19888603018452613b0d8583516139a6565b94509285019290850190600101613af1565b5092979650505050505050565b6020808252825182820181905260009190848201906040850190845b81811015613b6457835183529284019291840191600101613b48565b50909695505050505050565b6020815260006130036020830184613906565b6020815260006130036020830184613947565b602081526000613003602083018461397a565b60208082526010908201526f14185d5cd8589b194e881c185d5cd95960821b604082015260600190565b60208082526031908201527f4245503732313a207472616e736665722063616c6c6572206973206e6f74206f6040820152701ddb995c881b9bdc88185c1c1c9bdd9959607a1b606082015260800190565b60208082526032908201527f4245503732313a207472616e7366657220746f206e6f6e20424550373231526560408201527131b2b4bb32b91034b6b83632b6b2b73a32b960711b606082015260800190565b60208152600061300360208301846139a6565b60008219821115613c9c57613c9c613d7c565b500190565b600082613cb057613cb0613d92565b500490565b600082821015613cc757613cc7613d7c565b500390565b60005b83811015613ce7578181015183820152602001613ccf565b83811115611a005750506000910152565b600181811c90821680613d0c57607f821691505b60208210811415612e5857634e487b7160e01b600052602260045260246000fd5b6000600019821415613d4157613d41613d7c565b5060010190565b600060ff821660ff811415613d5f57613d5f613d7c565b60010192915050565b600082613d7757613d77613d92565b500690565b634e487b7160e01b600052601160045260246000fd5b634e487b7160e01b600052601260045260246000fd5b634e487b7160e01b600052603160045260246000fd5b634e487b7160e01b600052603260045260246000fd5b634e487b7160e01b600052604160045260246000fd5b6001600160e01b031981168114613e0057600080fd5b5056fea2646970667358221220eb86e83f5e3cc7e0eeb196faed0f50d3d22ab3980c7c46b4066c5a3f329a196e64736f6c63430008060033",
  "immutableReferences": {},
  "source": "//SPDX-License-Identifier: MIT\r\n\r\npragma solidity ^0.8.6;\r\n\r\nimport \"../BEP721/NFTCore.sol\";\r\n\r\n/**\r\n @dev Base contract for NBMon which contains all functionality and methods related with our Realm Hunter game\r\n */\r\ncontract NBMonCore is NFTCore {\r\n    constructor() BEP721(\"NBMon\", \"NBMON\") {\r\n        setBaseURI(\"https://nbcompany.io/nbmon/\");\r\n    }\r\n\r\n    /**\r\n     * @dev Instance of an NBMon with detailed stats instantiated as a struct\r\n     * Note: A lot of the fields are assigned a uint type so that changes are easier to be amended in the future.\r\n     */\r\n    struct NBMon {\r\n        // tokenId for NBMon\r\n        uint256 nbmonId;\r\n        // current owner for NBMon\r\n        address owner;\r\n        uint256 bornAt;\r\n        // timestamp of when NBMon was transferred to current owner (when selling in marketplace, transferring from wallet etc)\r\n        uint256 transferredAt;\r\n        //contains gender, rarity, isShiny, nbmonType, evolveDuration, genera and fertility\r\n        // check './gamestats/genders.txt' for more info.\r\n        // check './gamestats/rarityChance.txt' for more info.\r\n        // check './gamestats/shinyChance.txt' for more info.\r\n        //check './gamestats/evolveDuration.txt' for more info.\r\n        // check './gamestats/nbmonTypes.txt' for more info.\r\n        // check './gamestats/genera.txt' for more info.\r\n        // check './gamestats/fertility.txt' for more info\r\n        uint32[] nbmonStats;\r\n\r\n        // Each NBMon can have up to two elements. There is also a chance to get \"null\" for any of the two element slots.\r\n        // more on elements at './gamestats/elements.txt'\r\n        uint8[] elements;\r\n\r\n        /// @dev contains all of the potential of the NBMon\r\n        /// including health pool, energy, attack, special attack, defense, special defense, speed\r\n        /// Note: does NOT take into consideration of rarity in the blockchain side. Actual EV stats will be reflected in-game.\r\n        /// check './gamestats/potential.txt' for more info.\r\n        uint8[] potential;\r\n\r\n        // only used for breeding to inherit 2 passives from the passive set of the parent NBMons\r\n        // if minted, it will be an empty array\r\n        // check './gamestats/passives.txt' for more info\r\n        uint8[] inheritedPassives;\r\n\r\n        // only used for breeding to inherit 2 moves from the move set of the parent NBMons\r\n        // if minted, it will be an empty array\r\n        // check './gamestats/moveset.txt' for more info\r\n        uint8[] inheritedMoves;  \r\n    }\r\n\r\n    NBMon[] internal nbmons;\r\n\r\n    // mapping from owner address to amount of NBMons owned\r\n    mapping(address => uint256) internal ownerNBMonCount;\r\n    // mapping from owner address to array of IDs of the NBMons the owner owns\r\n    mapping(address => uint256[]) internal ownerNBMonIds;\r\n    // mapping from owner address to list of NBMons owned;\r\n    mapping(address => NBMon[]) internal ownerNBMons;\r\n\r\n    // checks the current NBMon supply for enumeration. Starts at 1 when contract is deployed.\r\n    uint256 public currentNBMonCount = 1;\r\n\r\n    event NBMonMinted(uint256 indexed _nbmonId, address indexed _owner);\r\n    event NBMonBurned(uint256 indexed _nbmonId);\r\n\r\n    // returns a single NBMon given an ID\r\n    function getNBMon(uint256 _nbmonId) public view returns (NBMon memory) {\r\n        require(_exists(_nbmonId), \"NBMonCore: NBMon with the specified ID does not exist\");\r\n        return nbmons[_nbmonId - 1];\r\n    }\r\n\r\n    // returns all NBMons owned by the owner\r\n    function getAllNBMonsOfOwner(address _owner) public view returns (NBMon[] memory) {\r\n        return ownerNBMons[_owner];\r\n    }\r\n\r\n    //returns the amount of NBMons the owner has\r\n    function getOwnerNBMonCount(address _owner) public view returns (uint256) {\r\n        return ownerNBMonCount[_owner];\r\n    }\r\n\r\n    // returns the NBMon IDs of the owner's NBMons\r\n    function getOwnerNBMonIds(address _owner) public view returns (uint256[] memory) {\r\n        return ownerNBMonIds[_owner];\r\n    }\r\n\r\n    /**\r\n     * @dev These numbers are the base modulo for the values of each NBMon stat. If changed, the minted NBMon can have a different stat.\r\n     * Note: Bare in mind that the descriptions for each variable are based off during contract deployment. These variables may change. \r\n     * Check in BSCSCAN or by taking an instance of this contract for the actual values of each variable.\r\n     */\r\n    uint8 public _genders = 2;\r\n    // check ./gamestats/rarityChance.txt for further information\r\n    uint16 public _rarityChance = 1000;\r\n    // check ./gamestats/nbmonTypes.txt for further information\r\n    uint8 public _nbmonTypes = 3;\r\n    //check ./gamestats/genera.txt for further information\r\n    uint16 public _genera = 11;\r\n    // chance to obtain shiny NBMon is 1/4096.\r\n    uint16 public _shinyChance = 4096;\r\n    //if result is 1, it's considered null, and therefore no element is assigned. 2-13 are elements identified in elements.txt.\r\n    uint8 public _elementTypes = 13;\r\n    uint8 public _maxPotential = 65;\r\n    // an NBMon can have 0-8 fertility. however, depending on the rarity, the end fertility result will be different and that's why a base fertility chance is used.\r\n    // check ./gamestats/fertility.txt' for further information\r\n    uint16 public _baseFertilityChance = 900;\r\n\r\n    function changeGenders(uint8 genders_) public onlyAdmin {\r\n        _genders = genders_;\r\n    }\r\n    function changeRarityChance(uint16 rarityChance_) public onlyAdmin {\r\n        _rarityChance = rarityChance_;\r\n    }\r\n    function changeNbmonTypes(uint8 nbmonTypes_) public onlyAdmin {\r\n        _nbmonTypes = nbmonTypes_;\r\n    }\r\n    function changeGenera(uint16 genera_) public onlyAdmin {\r\n        _genera = genera_;\r\n    }\r\n    function changeShinyChance(uint8 shinyChance_) public onlyAdmin {\r\n        _shinyChance = shinyChance_;\r\n    }\r\n    function changeElementTypes(uint8 elementTypes_) public onlyAdmin {\r\n        _elementTypes = elementTypes_;\r\n    }\r\n    function changeMaxPotential(uint8 maxPotential_) public onlyAdmin {\r\n        _maxPotential = maxPotential_;\r\n    }\r\n    function changeBaseFertilityChance(uint16 baseFertilityChance_) public onlyAdmin {\r\n        _baseFertilityChance = baseFertilityChance_;\r\n    }\r\n    /**\r\n     * END OF BASE STATS CHANGE\r\n     */\r\n\r\n     function _randomizePotential(uint256 _randomNumber) private view returns (uint8[] memory _potential) {\r\n         _potential = new uint8[](7);\r\n\r\n         for (uint8 i = 0; i < 7; i++) {\r\n             _potential[i] = uint8(uint256(keccak256(abi.encode(_randomNumber, i))) % _maxPotential + 1);\r\n         }\r\n\r\n         return _potential;\r\n     }\r\n\r\n     function _randomizeElements(uint256 _randomNumber) private view returns (uint8[] memory _elements) {\r\n         _elements = new uint8[](2);\r\n\r\n         for (uint8 i = 0; i < 2; i++) {\r\n             _elements[i] = uint8(uint256(keccak256(abi.encode(_randomNumber, i))) % _elementTypes + 1);\r\n         }\r\n         // first element must NOT be null. If it is null, it is converted to a natural species instead.\r\n         // second element MAY be a null element.\r\n         if (_elements[0] == 1) {\r\n             _elements[0] = 2;\r\n         }\r\n\r\n         return _elements;\r\n     }\r\n\r\n     function _randomizeNbmonStatsOrigin(uint256 _randomNumber, uint32 _baseEvolveDuration) private view returns (uint32[] memory _nbmonStats) {\r\n         _nbmonStats = new uint32[](7);\r\n         \r\n         //randomizing gender\r\n         _nbmonStats[0] = uint32(uint256(keccak256(abi.encode(_randomNumber, 0))) % _genders + 1);\r\n         //randomizing rarity\r\n         _nbmonStats[1] = uint32(uint256(keccak256(abi.encode(_randomNumber, 1))) % _rarityChance + 1);\r\n         //randomizing isShiny\r\n         _nbmonStats[2] = uint32(uint256(keccak256(abi.encode(_randomNumber, 2))) % _shinyChance + 1);\r\n         //randomizing nbmonType (only origin, so result is always 1)\r\n         _nbmonStats[3] = uint32(uint256(keccak256(abi.encode(_randomNumber, 3))) % 1 + 1);\r\n         //evolveDuration\r\n         _nbmonStats[4] = _baseEvolveDuration;\r\n         //randomizing genera\r\n         _nbmonStats[5] = uint32(uint256(keccak256(abi.encode(_randomNumber, 4))) % _genera + 1);\r\n         //randomizing fertility\r\n         _nbmonStats[6] = uint32(uint256(keccak256(abi.encode(_randomNumber, 5))) % _baseFertilityChance + 1);\r\n     }\r\n     \r\n     function mintOrigin(uint256 _randomNumber, address _owner, uint32 _evolveDurationTime) public {\r\n         _mintOrigin(_randomNumber, _owner, _evolveDurationTime);\r\n     }\r\n\r\n    /// Note: _randomNumber will be randomized from the server side and passed on as an argument.\r\n    function _mintOrigin(uint256 _randomNumber, address _owner, uint32 _baseEvolveDuration) private {\r\n        uint32[] memory _nbmonStats = _randomizeNbmonStatsOrigin(_randomNumber, _baseEvolveDuration);\r\n        uint8[] memory _elements = _randomizeElements(_randomNumber);\r\n        uint8[] memory _potential = _randomizePotential(_randomNumber);\r\n        uint8[] memory _inheritedPassives;\r\n        uint8[] memory _inheritedMoves;\r\n\r\n        NBMon memory _nbmon = NBMon(\r\n            currentNBMonCount,\r\n            _owner,\r\n            block.timestamp,\r\n            block.timestamp,\r\n            _nbmonStats,\r\n            _elements,\r\n            _potential,\r\n            _inheritedPassives,\r\n            _inheritedMoves\r\n        );\r\n        nbmons.push(_nbmon);\r\n        ownerNBMons[_owner].push(_nbmon);\r\n        _safeMint(_owner, currentNBMonCount);\r\n        ownerNBMonIds[_owner].push(currentNBMonCount);\r\n        currentNBMonCount++;\r\n        ownerNBMonCount[_owner]++;\r\n        emit NBMonMinted(currentNBMonCount, _owner);\r\n    }\r\n\r\n    /**\r\n     * @dev Singular purpose functions designed to make reading code easier for front-end\r\n     * Otherwise not needed since getNBMon and getAllNBMonsOfOwner and getNBMon contains complete information at once\r\n     */\r\n    function getNbmonStats(uint256 _nbmonId) public view returns (uint32[] memory) {\r\n        return nbmons[_nbmonId - 1].nbmonStats;\r\n    }\r\n    function getBornAt(uint256 _nbmonId) public view returns (uint256) {\r\n        return nbmons[_nbmonId - 1].bornAt;\r\n    }\r\n    function getTransferredAt(uint256 _nbmonId) public view returns (uint256) {\r\n        return nbmons[_nbmonId - 1].transferredAt;\r\n    }\r\n    function getElements(uint256 _nbmonId) public view returns (uint8[] memory) {\r\n        return nbmons[_nbmonId - 1].elements;\r\n    }\r\n    function getPotential(uint256 _nbmonId) public view returns (uint8[] memory) {\r\n        return nbmons[_nbmonId - 1].potential;\r\n    }\r\n    function getInheritedPassives(uint256 _nbmonId) public view returns (uint8[] memory) {\r\n        return nbmons[_nbmonId - 1].inheritedPassives;\r\n    }\r\n    function getInheritedMoves(uint256 _nbmonId) public view returns (uint8[] memory) {\r\n        return nbmons[_nbmonId - 1].inheritedMoves;\r\n    }\r\n}",
  "sourcePath": "/c/Users/suwan/OneDrive/Desktop/School Stuff/CODE Uni/BSC/nbc-contracts_bscstudio/contracts/implementation/NBMonCore.sol",
  "compiler": {
    "name": "solc",
    "version": "0.8.6+commit.11564f7e.Emscripten.clang"
  },
  "schemaVersion": "3.4.2",
  "updatedAt": "2022-01-02T14:55:05.325Z",
  "devdoc": {
    "details": "Base contract for NBMon which contains all functionality and methods related with our Realm Hunter game",
    "kind": "dev",
    "methods": {
      "approve(address,uint256)": {
        "details": "See {IBEP721-approve}."
      },
      "balanceOf(address)": {
        "details": "See {IBEP721-balanceOf}."
      },
      "getApproved(uint256)": {
        "details": "See {IBEP721-getApproved}."
      },
      "getNbmonStats(uint256)": {
        "details": "Singular purpose functions designed to make reading code easier for front-end Otherwise not needed since getNBMon and getAllNBMonsOfOwner and getNBMon contains complete information at once"
      },
      "isApprovedForAll(address,address)": {
        "details": "See {IBEP721-isApprovedForAll}."
      },
      "name()": {
        "details": "See {IBEP721Metadata-name}."
      },
      "ownerOf(uint256)": {
        "details": "See {IBEP721-ownerOf}."
      },
      "pause()": {
        "details": "Triggers stopped state. Only callable by admin. Requirements: - The contract must not be paused."
      },
      "paused()": {
        "details": "Returns true if the contract is paused, and false otherwise."
      },
      "safeTransfer(address,address,uint256,bytes)": {
        "details": "Safely transfers `tokenId` token from `from` to `to`, checking first that contract recipients are aware of the BEP721 protocol to prevent tokens from being forever locked. `_data` is additional data, it has no specified format and it is sent in call to `to`. This internal function is equivalent to {safeTransferFrom}, and can be used to e.g. implement alternative mechanisms to perform token transfer, such as signature-based. Requirements: - `from` cannot be the zero address. - `to` cannot be the zero address. - `tokenId` token must exist and be owned by `from`. - If `to` refers to a smart contract, it must implement {IBEP721Receiver-onBEP721Received}, which is called upon a safe transfer. Emits a {Transfer} event."
      },
      "safeTransferFrom(address,address,uint256)": {
        "details": "See {IBEP721-safeTransferFrom}."
      },
      "safeTransferFrom(address,address,uint256,bytes)": {
        "details": "See {IBEP721-safeTransferFrom}."
      },
      "setApprovalForAll(address,bool)": {
        "details": "See {IBEP721-setApprovalForAll}."
      },
      "setBaseURI(string)": {
        "details": "Changes the current Base URI.  Only callable by Admin or CEO of contract."
      },
      "symbol()": {
        "details": "See {IBEP721Metadata-symbol}."
      },
      "tokenByIndex(uint256)": {
        "details": "See {IBEP721Enumerable-tokenByIndex}."
      },
      "tokenOfOwnerByIndex(address,uint256)": {
        "details": "See {IBEP721Enumerable-tokenOfOwnerByIndex}."
      },
      "tokenURI(uint256)": {
        "details": "Returns the Uniform Resource Identifier (URI) for `tokenId` token."
      },
      "totalSupply()": {
        "details": "See {IBEP721Enumerable-totalSupply}."
      },
      "transfer(address,address,uint256)": {
        "details": "Transfers `tokenId` from `from` to `to`.  As opposed to {transferFrom}, this imposes no restrictions on msg.sender. Requirements: - `to` cannot be the zero address. - `tokenId` token must be owned by `from`. Emits a {Transfer} event."
      },
      "transferFrom(address,address,uint256)": {
        "details": "See {IBEP721-transferFrom}."
      },
      "unpause()": {
        "details": "Returns to normal state. Only callable by admin. Requirements: - The contract must be paused."
      }
    },
    "stateVariables": {
      "_genders": {
        "details": "These numbers are the base modulo for the values of each NBMon stat. If changed, the minted NBMon can have a different stat. Note: Bare in mind that the descriptions for each variable are based off during contract deployment. These variables may change.  Check in BSCSCAN or by taking an instance of this contract for the actual values of each variable."
      }
    },
    "version": 1
  },
  "userdoc": {
    "kind": "user",
    "methods": {},
    "version": 1
  }
}