{
  "_format": "hh-sol-artifact-1",
  "contractName": "NBMonCore",
  "sourceName": "contracts/implementation/NBMonCore.sol",
  "abi": [
    {
      "inputs": [],
      "stateMutability": "nonpayable",
      "type": "constructor"
    },
    {
      "anonymous": false,
      "inputs": [
        {
          "indexed": true,
          "internalType": "address",
          "name": "owner",
          "type": "address"
        },
        {
          "indexed": true,
          "internalType": "address",
          "name": "approved",
          "type": "address"
        },
        {
          "indexed": true,
          "internalType": "uint256",
          "name": "tokenId",
          "type": "uint256"
        }
      ],
      "name": "Approval",
      "type": "event"
    },
    {
      "anonymous": false,
      "inputs": [
        {
          "indexed": true,
          "internalType": "address",
          "name": "owner",
          "type": "address"
        },
        {
          "indexed": true,
          "internalType": "address",
          "name": "operator",
          "type": "address"
        },
        {
          "indexed": false,
          "internalType": "bool",
          "name": "approved",
          "type": "bool"
        }
      ],
      "name": "ApprovalForAll",
      "type": "event"
    },
    {
      "anonymous": false,
      "inputs": [
        {
          "indexed": true,
          "internalType": "uint256",
          "name": "_nbmonId",
          "type": "uint256"
        }
      ],
      "name": "NBMonBurned",
      "type": "event"
    },
    {
      "anonymous": false,
      "inputs": [
        {
          "indexed": true,
          "internalType": "uint256",
          "name": "_nbmonId",
          "type": "uint256"
        },
        {
          "indexed": true,
          "internalType": "address",
          "name": "_owner",
          "type": "address"
        }
      ],
      "name": "NBMonMinted",
      "type": "event"
    },
    {
      "anonymous": false,
      "inputs": [
        {
          "indexed": false,
          "internalType": "address",
          "name": "account",
          "type": "address"
        }
      ],
      "name": "Paused",
      "type": "event"
    },
    {
      "anonymous": false,
      "inputs": [
        {
          "indexed": true,
          "internalType": "address",
          "name": "from",
          "type": "address"
        },
        {
          "indexed": true,
          "internalType": "address",
          "name": "to",
          "type": "address"
        },
        {
          "indexed": true,
          "internalType": "uint256",
          "name": "tokenId",
          "type": "uint256"
        }
      ],
      "name": "Transfer",
      "type": "event"
    },
    {
      "anonymous": false,
      "inputs": [
        {
          "indexed": false,
          "internalType": "address",
          "name": "account",
          "type": "address"
        }
      ],
      "name": "Unpaused",
      "type": "event"
    },
    {
      "inputs": [],
      "name": "_baseEvolutionDuration",
      "outputs": [
        {
          "internalType": "uint32",
          "name": "",
          "type": "uint32"
        }
      ],
      "stateMutability": "view",
      "type": "function"
    },
    {
      "inputs": [],
      "name": "_maxFertilityPoints",
      "outputs": [
        {
          "internalType": "uint16",
          "name": "",
          "type": "uint16"
        }
      ],
      "stateMutability": "view",
      "type": "function"
    },
    {
      "inputs": [],
      "name": "_maxPotential",
      "outputs": [
        {
          "internalType": "uint8",
          "name": "",
          "type": "uint8"
        }
      ],
      "stateMutability": "view",
      "type": "function"
    },
    {
      "inputs": [],
      "name": "_mutationChance",
      "outputs": [
        {
          "internalType": "uint16",
          "name": "",
          "type": "uint16"
        }
      ],
      "stateMutability": "view",
      "type": "function"
    },
    {
      "inputs": [],
      "name": "_mutationTypes",
      "outputs": [
        {
          "internalType": "uint8",
          "name": "",
          "type": "uint8"
        }
      ],
      "stateMutability": "view",
      "type": "function"
    },
    {
      "inputs": [],
      "name": "_oneParentMutationChance",
      "outputs": [
        {
          "internalType": "uint16",
          "name": "",
          "type": "uint16"
        }
      ],
      "stateMutability": "view",
      "type": "function"
    },
    {
      "inputs": [],
      "name": "_rarityChance",
      "outputs": [
        {
          "internalType": "uint16",
          "name": "",
          "type": "uint16"
        }
      ],
      "stateMutability": "view",
      "type": "function"
    },
    {
      "inputs": [],
      "name": "_totalGenders",
      "outputs": [
        {
          "internalType": "uint8",
          "name": "",
          "type": "uint8"
        }
      ],
      "stateMutability": "view",
      "type": "function"
    },
    {
      "inputs": [],
      "name": "_totalGenera",
      "outputs": [
        {
          "internalType": "uint16",
          "name": "",
          "type": "uint16"
        }
      ],
      "stateMutability": "view",
      "type": "function"
    },
    {
      "inputs": [],
      "name": "_totalPassives",
      "outputs": [
        {
          "internalType": "uint16",
          "name": "",
          "type": "uint16"
        }
      ],
      "stateMutability": "view",
      "type": "function"
    },
    {
      "inputs": [],
      "name": "_totalSpecies",
      "outputs": [
        {
          "internalType": "uint8",
          "name": "",
          "type": "uint8"
        }
      ],
      "stateMutability": "view",
      "type": "function"
    },
    {
      "inputs": [],
      "name": "_totalTypes",
      "outputs": [
        {
          "internalType": "uint8",
          "name": "",
          "type": "uint8"
        }
      ],
      "stateMutability": "view",
      "type": "function"
    },
    {
      "inputs": [],
      "name": "_twoParentsMutationChance",
      "outputs": [
        {
          "internalType": "uint16",
          "name": "",
          "type": "uint16"
        }
      ],
      "stateMutability": "view",
      "type": "function"
    },
    {
      "inputs": [],
      "name": "admin",
      "outputs": [
        {
          "internalType": "address",
          "name": "",
          "type": "address"
        }
      ],
      "stateMutability": "view",
      "type": "function"
    },
    {
      "inputs": [
        {
          "internalType": "address",
          "name": "to",
          "type": "address"
        },
        {
          "internalType": "uint256",
          "name": "tokenId",
          "type": "uint256"
        }
      ],
      "name": "approve",
      "outputs": [],
      "stateMutability": "nonpayable",
      "type": "function"
    },
    {
      "inputs": [
        {
          "internalType": "address",
          "name": "owner",
          "type": "address"
        }
      ],
      "name": "balanceOf",
      "outputs": [
        {
          "internalType": "uint256",
          "name": "",
          "type": "uint256"
        }
      ],
      "stateMutability": "view",
      "type": "function"
    },
    {
      "inputs": [
        {
          "internalType": "uint256",
          "name": "_nbmonId",
          "type": "uint256"
        }
      ],
      "name": "burnNBMon",
      "outputs": [],
      "stateMutability": "nonpayable",
      "type": "function"
    },
    {
      "inputs": [],
      "name": "burner",
      "outputs": [
        {
          "internalType": "address",
          "name": "",
          "type": "address"
        }
      ],
      "stateMutability": "view",
      "type": "function"
    },
    {
      "inputs": [],
      "name": "ceo",
      "outputs": [
        {
          "internalType": "address",
          "name": "",
          "type": "address"
        }
      ],
      "stateMutability": "view",
      "type": "function"
    },
    {
      "inputs": [
        {
          "internalType": "uint32",
          "name": "baseEvolutionDuration_",
          "type": "uint32"
        }
      ],
      "name": "changeBaseEvolutionDuration",
      "outputs": [],
      "stateMutability": "nonpayable",
      "type": "function"
    },
    {
      "inputs": [
        {
          "internalType": "uint16",
          "name": "maxFertilityPoints_",
          "type": "uint16"
        }
      ],
      "name": "changeMaxFertilityPoints",
      "outputs": [],
      "stateMutability": "nonpayable",
      "type": "function"
    },
    {
      "inputs": [
        {
          "internalType": "uint8",
          "name": "maxPotential_",
          "type": "uint8"
        }
      ],
      "name": "changeMaxPotential",
      "outputs": [],
      "stateMutability": "nonpayable",
      "type": "function"
    },
    {
      "inputs": [
        {
          "internalType": "uint16",
          "name": "mutationChance_",
          "type": "uint16"
        }
      ],
      "name": "changeMutationChance",
      "outputs": [],
      "stateMutability": "nonpayable",
      "type": "function"
    },
    {
      "inputs": [
        {
          "internalType": "uint8",
          "name": "mutationTypes_",
          "type": "uint8"
        }
      ],
      "name": "changeMutationTypes",
      "outputs": [],
      "stateMutability": "nonpayable",
      "type": "function"
    },
    {
      "inputs": [
        {
          "internalType": "uint16",
          "name": "rarityChance_",
          "type": "uint16"
        }
      ],
      "name": "changeRarityChance",
      "outputs": [],
      "stateMutability": "nonpayable",
      "type": "function"
    },
    {
      "inputs": [
        {
          "internalType": "uint8",
          "name": "totalGenders_",
          "type": "uint8"
        }
      ],
      "name": "changeTotalGenders",
      "outputs": [],
      "stateMutability": "nonpayable",
      "type": "function"
    },
    {
      "inputs": [
        {
          "internalType": "uint16",
          "name": "totalGenera_",
          "type": "uint16"
        }
      ],
      "name": "changeTotalGenera",
      "outputs": [],
      "stateMutability": "nonpayable",
      "type": "function"
    },
    {
      "inputs": [
        {
          "internalType": "uint8",
          "name": "totalSpecies_",
          "type": "uint8"
        }
      ],
      "name": "changeTotalSpecies",
      "outputs": [],
      "stateMutability": "nonpayable",
      "type": "function"
    },
    {
      "inputs": [
        {
          "internalType": "uint8",
          "name": "totalTypes_",
          "type": "uint8"
        }
      ],
      "name": "changeTypes",
      "outputs": [],
      "stateMutability": "nonpayable",
      "type": "function"
    },
    {
      "inputs": [],
      "name": "currentNBMonCount",
      "outputs": [
        {
          "internalType": "uint256",
          "name": "",
          "type": "uint256"
        }
      ],
      "stateMutability": "view",
      "type": "function"
    },
    {
      "inputs": [
        {
          "internalType": "address",
          "name": "_owner",
          "type": "address"
        }
      ],
      "name": "getAllNBMonsOfOwner",
      "outputs": [
        {
          "components": [
            {
              "internalType": "uint256",
              "name": "nbmonId",
              "type": "uint256"
            },
            {
              "internalType": "address",
              "name": "owner",
              "type": "address"
            },
            {
              "internalType": "uint256",
              "name": "bornAt",
              "type": "uint256"
            },
            {
              "internalType": "uint256",
              "name": "transferredAt",
              "type": "uint256"
            },
            {
              "internalType": "uint32[]",
              "name": "nbmonStats",
              "type": "uint32[]"
            },
            {
              "internalType": "uint8[]",
              "name": "types",
              "type": "uint8[]"
            },
            {
              "internalType": "uint8[]",
              "name": "potential",
              "type": "uint8[]"
            },
            {
              "internalType": "uint16[]",
              "name": "passives",
              "type": "uint16[]"
            },
            {
              "internalType": "uint8[]",
              "name": "inheritedPassives",
              "type": "uint8[]"
            },
            {
              "internalType": "uint8[]",
              "name": "inheritedMoves",
              "type": "uint8[]"
            },
            {
              "internalType": "bool",
              "name": "isEgg",
              "type": "bool"
            }
          ],
          "internalType": "struct NBMonCore.NBMon[]",
          "name": "",
          "type": "tuple[]"
        }
      ],
      "stateMutability": "view",
      "type": "function"
    },
    {
      "inputs": [
        {
          "internalType": "uint256",
          "name": "tokenId",
          "type": "uint256"
        }
      ],
      "name": "getApproved",
      "outputs": [
        {
          "internalType": "address",
          "name": "",
          "type": "address"
        }
      ],
      "stateMutability": "view",
      "type": "function"
    },
    {
      "inputs": [
        {
          "internalType": "uint256",
          "name": "_nbmonId",
          "type": "uint256"
        }
      ],
      "name": "getBornAt",
      "outputs": [
        {
          "internalType": "uint256",
          "name": "",
          "type": "uint256"
        }
      ],
      "stateMutability": "view",
      "type": "function"
    },
    {
      "inputs": [
        {
          "internalType": "uint256",
          "name": "_nbmonId",
          "type": "uint256"
        }
      ],
      "name": "getInheritedMoves",
      "outputs": [
        {
          "internalType": "uint8[]",
          "name": "",
          "type": "uint8[]"
        }
      ],
      "stateMutability": "view",
      "type": "function"
    },
    {
      "inputs": [
        {
          "internalType": "uint256",
          "name": "_nbmonId",
          "type": "uint256"
        }
      ],
      "name": "getInheritedPassives",
      "outputs": [
        {
          "internalType": "uint8[]",
          "name": "",
          "type": "uint8[]"
        }
      ],
      "stateMutability": "view",
      "type": "function"
    },
    {
      "inputs": [
        {
          "internalType": "uint256",
          "name": "_nbmonId",
          "type": "uint256"
        }
      ],
      "name": "getNBMon",
      "outputs": [
        {
          "components": [
            {
              "internalType": "uint256",
              "name": "nbmonId",
              "type": "uint256"
            },
            {
              "internalType": "address",
              "name": "owner",
              "type": "address"
            },
            {
              "internalType": "uint256",
              "name": "bornAt",
              "type": "uint256"
            },
            {
              "internalType": "uint256",
              "name": "transferredAt",
              "type": "uint256"
            },
            {
              "internalType": "uint32[]",
              "name": "nbmonStats",
              "type": "uint32[]"
            },
            {
              "internalType": "uint8[]",
              "name": "types",
              "type": "uint8[]"
            },
            {
              "internalType": "uint8[]",
              "name": "potential",
              "type": "uint8[]"
            },
            {
              "internalType": "uint16[]",
              "name": "passives",
              "type": "uint16[]"
            },
            {
              "internalType": "uint8[]",
              "name": "inheritedPassives",
              "type": "uint8[]"
            },
            {
              "internalType": "uint8[]",
              "name": "inheritedMoves",
              "type": "uint8[]"
            },
            {
              "internalType": "bool",
              "name": "isEgg",
              "type": "bool"
            }
          ],
          "internalType": "struct NBMonCore.NBMon",
          "name": "",
          "type": "tuple"
        }
      ],
      "stateMutability": "view",
      "type": "function"
    },
    {
      "inputs": [
        {
          "internalType": "uint256",
          "name": "_nbmonId",
          "type": "uint256"
        }
      ],
      "name": "getNbmonStats",
      "outputs": [
        {
          "internalType": "uint32[]",
          "name": "",
          "type": "uint32[]"
        }
      ],
      "stateMutability": "view",
      "type": "function"
    },
    {
      "inputs": [
        {
          "internalType": "address",
          "name": "_owner",
          "type": "address"
        }
      ],
      "name": "getOwnerNBMonCount",
      "outputs": [
        {
          "internalType": "uint256",
          "name": "",
          "type": "uint256"
        }
      ],
      "stateMutability": "view",
      "type": "function"
    },
    {
      "inputs": [
        {
          "internalType": "address",
          "name": "_owner",
          "type": "address"
        }
      ],
      "name": "getOwnerNBMonIds",
      "outputs": [
        {
          "internalType": "uint256[]",
          "name": "",
          "type": "uint256[]"
        }
      ],
      "stateMutability": "view",
      "type": "function"
    },
    {
      "inputs": [
        {
          "internalType": "uint256",
          "name": "_nbmonId",
          "type": "uint256"
        }
      ],
      "name": "getPassives",
      "outputs": [
        {
          "internalType": "uint16[]",
          "name": "",
          "type": "uint16[]"
        }
      ],
      "stateMutability": "view",
      "type": "function"
    },
    {
      "inputs": [
        {
          "internalType": "uint256",
          "name": "_nbmonId",
          "type": "uint256"
        }
      ],
      "name": "getPotential",
      "outputs": [
        {
          "internalType": "uint8[]",
          "name": "",
          "type": "uint8[]"
        }
      ],
      "stateMutability": "view",
      "type": "function"
    },
    {
      "inputs": [
        {
          "internalType": "uint256",
          "name": "_nbmonId",
          "type": "uint256"
        }
      ],
      "name": "getTransferredAt",
      "outputs": [
        {
          "internalType": "uint256",
          "name": "",
          "type": "uint256"
        }
      ],
      "stateMutability": "view",
      "type": "function"
    },
    {
      "inputs": [
        {
          "internalType": "uint256",
          "name": "_nbmonId",
          "type": "uint256"
        }
      ],
      "name": "getTypes",
      "outputs": [
        {
          "internalType": "uint8[]",
          "name": "",
          "type": "uint8[]"
        }
      ],
      "stateMutability": "view",
      "type": "function"
    },
    {
      "inputs": [
        {
          "internalType": "uint32",
          "name": "_genus",
          "type": "uint32"
        }
      ],
      "name": "getTypesOfGenus",
      "outputs": [
        {
          "internalType": "uint8[]",
          "name": "",
          "type": "uint8[]"
        }
      ],
      "stateMutability": "view",
      "type": "function"
    },
    {
      "inputs": [
        {
          "internalType": "address",
          "name": "owner",
          "type": "address"
        },
        {
          "internalType": "address",
          "name": "operator",
          "type": "address"
        }
      ],
      "name": "isApprovedForAll",
      "outputs": [
        {
          "internalType": "bool",
          "name": "",
          "type": "bool"
        }
      ],
      "stateMutability": "view",
      "type": "function"
    },
    {
      "inputs": [],
      "name": "manager",
      "outputs": [
        {
          "internalType": "address",
          "name": "",
          "type": "address"
        }
      ],
      "stateMutability": "view",
      "type": "function"
    },
    {
      "inputs": [],
      "name": "minter",
      "outputs": [
        {
          "internalType": "address",
          "name": "",
          "type": "address"
        }
      ],
      "stateMutability": "view",
      "type": "function"
    },
    {
      "inputs": [],
      "name": "name",
      "outputs": [
        {
          "internalType": "string",
          "name": "",
          "type": "string"
        }
      ],
      "stateMutability": "view",
      "type": "function"
    },
    {
      "inputs": [
        {
          "internalType": "address",
          "name": "_newAdmin",
          "type": "address"
        }
      ],
      "name": "newAdmin",
      "outputs": [],
      "stateMutability": "nonpayable",
      "type": "function"
    },
    {
      "inputs": [
        {
          "internalType": "address",
          "name": "_newBurner",
          "type": "address"
        }
      ],
      "name": "newBurner",
      "outputs": [],
      "stateMutability": "nonpayable",
      "type": "function"
    },
    {
      "inputs": [
        {
          "internalType": "address",
          "name": "_newCEO",
          "type": "address"
        }
      ],
      "name": "newCEO",
      "outputs": [],
      "stateMutability": "nonpayable",
      "type": "function"
    },
    {
      "inputs": [
        {
          "internalType": "address",
          "name": "_newManager",
          "type": "address"
        }
      ],
      "name": "newManager",
      "outputs": [],
      "stateMutability": "nonpayable",
      "type": "function"
    },
    {
      "inputs": [
        {
          "internalType": "address",
          "name": "_newMinter",
          "type": "address"
        }
      ],
      "name": "newMinter",
      "outputs": [],
      "stateMutability": "nonpayable",
      "type": "function"
    },
    {
      "inputs": [
        {
          "internalType": "uint256",
          "name": "tokenId",
          "type": "uint256"
        }
      ],
      "name": "ownerOf",
      "outputs": [
        {
          "internalType": "address",
          "name": "",
          "type": "address"
        }
      ],
      "stateMutability": "view",
      "type": "function"
    },
    {
      "inputs": [],
      "name": "pause",
      "outputs": [],
      "stateMutability": "nonpayable",
      "type": "function"
    },
    {
      "inputs": [],
      "name": "paused",
      "outputs": [
        {
          "internalType": "bool",
          "name": "",
          "type": "bool"
        }
      ],
      "stateMutability": "view",
      "type": "function"
    },
    {
      "inputs": [
        {
          "internalType": "address",
          "name": "from",
          "type": "address"
        },
        {
          "internalType": "address",
          "name": "to",
          "type": "address"
        },
        {
          "internalType": "uint256",
          "name": "tokenId",
          "type": "uint256"
        },
        {
          "internalType": "bytes",
          "name": "_data",
          "type": "bytes"
        }
      ],
      "name": "safeTransfer",
      "outputs": [],
      "stateMutability": "nonpayable",
      "type": "function"
    },
    {
      "inputs": [
        {
          "internalType": "address",
          "name": "from",
          "type": "address"
        },
        {
          "internalType": "address",
          "name": "to",
          "type": "address"
        },
        {
          "internalType": "uint256",
          "name": "tokenId",
          "type": "uint256"
        }
      ],
      "name": "safeTransferFrom",
      "outputs": [],
      "stateMutability": "nonpayable",
      "type": "function"
    },
    {
      "inputs": [
        {
          "internalType": "address",
          "name": "from",
          "type": "address"
        },
        {
          "internalType": "address",
          "name": "to",
          "type": "address"
        },
        {
          "internalType": "uint256",
          "name": "tokenId",
          "type": "uint256"
        },
        {
          "internalType": "bytes",
          "name": "_data",
          "type": "bytes"
        }
      ],
      "name": "safeTransferFrom",
      "outputs": [],
      "stateMutability": "nonpayable",
      "type": "function"
    },
    {
      "inputs": [
        {
          "internalType": "address",
          "name": "operator",
          "type": "address"
        },
        {
          "internalType": "bool",
          "name": "approved",
          "type": "bool"
        }
      ],
      "name": "setApprovalForAll",
      "outputs": [],
      "stateMutability": "nonpayable",
      "type": "function"
    },
    {
      "inputs": [
        {
          "internalType": "string",
          "name": "newBaseURI",
          "type": "string"
        }
      ],
      "name": "setBaseURI",
      "outputs": [],
      "stateMutability": "nonpayable",
      "type": "function"
    },
    {
      "inputs": [
        {
          "internalType": "bytes4",
          "name": "interfaceId",
          "type": "bytes4"
        }
      ],
      "name": "supportsInterface",
      "outputs": [
        {
          "internalType": "bool",
          "name": "",
          "type": "bool"
        }
      ],
      "stateMutability": "view",
      "type": "function"
    },
    {
      "inputs": [],
      "name": "symbol",
      "outputs": [
        {
          "internalType": "string",
          "name": "",
          "type": "string"
        }
      ],
      "stateMutability": "view",
      "type": "function"
    },
    {
      "inputs": [
        {
          "internalType": "uint256",
          "name": "index",
          "type": "uint256"
        }
      ],
      "name": "tokenByIndex",
      "outputs": [
        {
          "internalType": "uint256",
          "name": "",
          "type": "uint256"
        }
      ],
      "stateMutability": "view",
      "type": "function"
    },
    {
      "inputs": [
        {
          "internalType": "address",
          "name": "owner",
          "type": "address"
        },
        {
          "internalType": "uint256",
          "name": "index",
          "type": "uint256"
        }
      ],
      "name": "tokenOfOwnerByIndex",
      "outputs": [
        {
          "internalType": "uint256",
          "name": "",
          "type": "uint256"
        }
      ],
      "stateMutability": "view",
      "type": "function"
    },
    {
      "inputs": [
        {
          "internalType": "uint256",
          "name": "tokenId",
          "type": "uint256"
        }
      ],
      "name": "tokenURI",
      "outputs": [
        {
          "internalType": "string",
          "name": "",
          "type": "string"
        }
      ],
      "stateMutability": "view",
      "type": "function"
    },
    {
      "inputs": [],
      "name": "totalSupply",
      "outputs": [
        {
          "internalType": "uint256",
          "name": "",
          "type": "uint256"
        }
      ],
      "stateMutability": "view",
      "type": "function"
    },
    {
      "inputs": [
        {
          "internalType": "address",
          "name": "from",
          "type": "address"
        },
        {
          "internalType": "address",
          "name": "to",
          "type": "address"
        },
        {
          "internalType": "uint256",
          "name": "tokenId",
          "type": "uint256"
        }
      ],
      "name": "transfer",
      "outputs": [],
      "stateMutability": "nonpayable",
      "type": "function"
    },
    {
      "inputs": [
        {
          "internalType": "address",
          "name": "from",
          "type": "address"
        },
        {
          "internalType": "address",
          "name": "to",
          "type": "address"
        },
        {
          "internalType": "uint256",
          "name": "tokenId",
          "type": "uint256"
        }
      ],
      "name": "transferFrom",
      "outputs": [],
      "stateMutability": "nonpayable",
      "type": "function"
    },
    {
      "inputs": [],
      "name": "unpause",
      "outputs": [],
      "stateMutability": "nonpayable",
      "type": "function"
    },
    {
      "inputs": [
        {
          "internalType": "uint32",
          "name": "_genus",
          "type": "uint32"
        },
        {
          "internalType": "uint8",
          "name": "_typeOne",
          "type": "uint8"
        },
        {
          "internalType": "uint8",
          "name": "_typeTwo",
          "type": "uint8"
        }
      ],
      "name": "updateTypesOfGenus",
      "outputs": [],
      "stateMutability": "nonpayable",
      "type": "function"
    }
  ],
  "bytecode": "0x60806040526001601655601780546001600160b81b0319167503f4800bb84100180d000b0304000a006403e803e8021790553480156200003e57600080fd5b5060405180604001604052806005815260200164272126b7b760d91b81525060405180604001604052806005815260200164272126a7a760d91b8152506200008b6200054060201b60201c565b600080546001600160a01b0319166001600160a01b0392909216919091179055620000b33390565b600180546001600160a01b0319166001600160a01b0392909216919091179055620000db3390565b600280546001600160a01b0319166001600160a01b0392909216919091179055620001033390565b600380546001600160a01b0319166001600160a01b03929092169190911790556200012b3390565b600480546001600160a81b0319166001600160a01b03929092169190911790558151620001609060059060208501906200059d565b508051620001769060069060208401906200059d565b505060408051808201909152601b81527f68747470733a2f2f6e62636f6d70616e792e696f2f6e626d6f6e2f00000000006020820152620001b8915062000544565b6040805180820190915260048152600f60208083019190915260016000526015905262000209907f27739e4bb5e6f8b5e4b57a047dca8767cc9b982a011081e086cbb0dfa9de818d9060026200062c565b5060408051808201909152600280825260056020808401919091526000829052601590526200025a917f07d4ff730d9753101d832555708a37d38c2c45fce8cacaefc99f06074e93fe0b916200062c565b50604080518082019091526006815260006020808301829052600390915260159052620002ab907fb3a65e8276bd33b3e4f7d6081ebd9899187264822358758dca2e2bc37b2a9c279060026200062c565b5060408051808201909152600b8152600d602080830191909152600460005260159052620002fd907f8191f4eb6b8bafbfe9a5389c8d07d7f5fd81137a7ee653fc4358269845ee1d2e9060026200062c565b506040805180820190915260098152600060208083018290526005909152601590526200034e907fbab719002e4be320868650dc7456e9a1d245e4d5dd64765588e2f21529d871d39060026200062c565b50604080518082019091526002808252600060208084018290526006909152601590526200039e917f25847c9ccf691da811a9f934d6b3b92e6062ef92feb71bf4cb08cbb4fad8d652916200062c565b50604080518082019091526001815260006020808301829052600790915260159052620003ef907f5d0f48e37dc1225cdee8d6f2a0315d796f55423522fe638d7d95421802dfc0069060026200062c565b506040805180820190915260078152600860208083018290526000919091526015905262000441907f2d0e46a571fdfbe57c7c718891a8a12999c102dfffa2b3314ea165dedd1684f59060026200062c565b50604080518082019091526009808252600f6020808401919091526000919091526015905262000495907f497613c0658032a90a449a944031c57b1d03996c3a6148fe12146c45cf3214009060026200062c565b5060408051808201909152600581526009602080830191909152600a60005260159052620004e7907f0cfcac9f3767130657d3b01a9146da544eeb39eb9670066ace5e84da7fc4319f9060026200062c565b506040805180820190915260058152600e602080830191909152600b6000526015905262000539907fcaeae41dfed97dfd8c41876ff591faa3e36cda388621c550caa3321a2a624e5f9060026200062c565b5062000723565b3390565b6000546001600160a01b0316336001600160a01b031614806200057a57506003546001600160a01b0316336001600160a01b0316145b6200058457600080fd5b8051620005999060109060208401906200059d565b5050565b828054620005ab90620006e6565b90600052602060002090601f016020900481019282620005cf57600085556200061a565b82601f10620005ea57805160ff19168380011785556200061a565b828001600101855582156200061a579182015b828111156200061a578251825591602001919060010190620005fd565b5062000628929150620006cf565b5090565b82805482825590600052602060002090601f016020900481019282156200061a5791602002820160005b838211156200069657835183826101000a81548160ff021916908360ff160217905550926020019260010160208160000104928301926001030262000656565b8015620006c55782816101000a81549060ff021916905560010160208160000104928301926001030262000696565b5050620006289291505b5b80821115620006285760008155600101620006d0565b600181811c90821680620006fb57607f821691505b602082108114156200071d57634e487b7160e01b600052602260045260246000fd5b50919050565b613b0e80620007336000396000f3fe608060405234801561001057600080fd5b506004361061041d5760003560e01c806364cb9deb1161022b578063a6ba31c111610130578063d6e39ada116100b8578063dfac24be11610087578063dfac24be146109c2578063e985e9c5146109d5578063f6e6e06114610a11578063f840f72b14610a24578063f851a44014610a3757600080fd5b8063d6e39ada1461097f578063d7ba179a14610992578063d7f93524146109a6578063daa6cc71146109af57600080fd5b8063b88d4fde116100ff578063b88d4fde14610920578063beabacc814610933578063c87b56dd14610946578063cd214b6a14610959578063d49a49cf1461096c57600080fd5b8063a6ba31c1146108d2578063a8892ccd146108e5578063a9917dbe146108f9578063ad3ba7ed1461090c57600080fd5b80638456cb59116101b3578063908921fc11610182578063908921fc146108785780639142828b1461088b57806391a4c241146108a257806395d89b41146108b7578063a22cb465146108bf57600080fd5b80638456cb591461083757806386e70e111461083f5780638d77dc2414610852578063906e94001461086557600080fd5b806373168a39116101fa57806373168a39146107b85780637392ed1b146107d857806376b82a91146107eb5780637ed646cc146107fe57806380a6146d1461080b57600080fd5b806364cb9deb1461075d57806368308732146107725780636b0bb87d1461078557806370a08231146107a557600080fd5b80633d7a0e86116103315780634bb1b2e1116102b9578063573419121161028857806357341912146106f05780635c975abb146107035780635cad8213146107155780635fb0f588146107355780636352211e1461074a57600080fd5b80634bb1b2e1146106975780634f6ccce7146106b757806353fd1b1b146106ca57806355f804b3146106dd57600080fd5b8063475a6d6c11610300578063475a6d6c1461062b578063479a506d1461063e578063481c6a751461065e578063498c4a01146106715780634b7cfe811461068457600080fd5b80633d7a0e86146105d75780633f4ba83a146105f057806342842e0e146105f8578063434807ad1461060b57600080fd5b806323b872dd116103b45780632b618380116103835780632b618380146105655780632cde7538146105785780632f745c591461058b57806332cfe95f1461059e578063359930cf146105c457600080fd5b806323b872dd14610504578063272565ee1461051757806327555a3c1461052a57806327810b6e1461055257600080fd5b8063095ea7b3116103f0578063095ea7b31461049d57806311e38c5e146104b257806318160ddd146104e9578063194ddb2a146104f157600080fd5b806301ffc9a71461042257806306fdde031461044a578063075461721461045f578063081812fc1461048a575b600080fd5b61043561043036600461343a565b610a4a565b60405190151581526020015b60405180910390f35b610452610a75565b6040516104419190613888565b600154610472906001600160a01b031681565b6040516001600160a01b039091168152602001610441565b6104726104983660046134e1565b610b07565b6104b06104ab366004613410565b610b94565b005b6104db6104c03660046132ce565b6001600160a01b031660009081526012602052604090205490565b604051908152602001610441565b600e546104db565b6104db6104ff3660046134e1565b610cd4565b6104b061051236600461331c565b610d0c565b6104b0610525366004613558565b610d67565b60175461053f90600160581b900461ffff1681565b60405161ffff9091168152602001610441565b600254610472906001600160a01b031681565b6104b06105733660046134bd565b610da7565b6104b06105863660046134fa565b610de9565b6104db610599366004613410565b610e2f565b6017546105b290600160481b900460ff1681565b60405160ff9091168152602001610441565b6104b06105d2366004613558565b610ec5565b60175461053f90670100000000000000900461ffff1681565b6104b0610f05565b6104b061060636600461331c565b610fc2565b61061e6106193660046134e1565b611007565b6040516104419190613875565b6104b06106393660046134bd565b6110ab565b61065161064c3660046134e1565b6110ed565b6040516104419190613968565b600454610472906001600160a01b031681565b6104b061067f3660046134bd565b61151e565b6104b0610692366004613558565b61155c565b6106aa6106a53660046132ce565b6115a2565b60405161044191906137a9565b6104db6106c53660046134e1565b61192f565b61061e6106d83660046134fa565b6119c2565b6104b06106eb366004613474565b611a2c565b6104b06106fe3660046132ce565b611a81565b600454600160a01b900460ff16610435565b6107286107233660046132ce565b611af4565b604051610441919061381e565b60175461053f90600160701b900461ffff1681565b6104726107583660046134e1565b611b5f565b60175461053f906301000000900461ffff1681565b61061e6107803660046134e1565b611bd6565b6107986107933660046134e1565b611c5d565b604051610441919061380b565b6104db6107b33660046132ce565b611d09565b6107cb6107c63660046134e1565b611d90565b6040516104419190613862565b6104db6107e63660046134e1565b611e40565b6104b06107f9366004613358565b611e78565b6017546105b29060ff1681565b60175461082290600160981b900463ffffffff1681565b60405163ffffffff9091168152602001610441565b6104b0611eb1565b6104b061084d366004613558565b611f36565b6104b0610860366004613515565b611f6c565b6104b06108733660046132ce565b611fc7565b600354610472906001600160a01b031681565b60175461053f9065010000000000900461ffff1681565b60175461053f90600160881b900461ffff1681565b61045261203a565b6104b06108cd3660046133d4565b612049565b6104b06108e03660046132ce565b612138565b6017546105b290600160801b900460ff1681565b6104b06109073660046132ce565b61218d565b6017546105b290600160681b900460ff1681565b6104b061092e366004613358565b6121e2565b6104b061094136600461331c565b61223e565b6104526109543660046134e1565b6123e9565b6104b0610967366004613558565b6123f4565b60175461053f90610100900461ffff1681565b61061e61098d3660046134e1565b612434565b6017546105b290600160501b900460ff1681565b6104db60165481565b6104b06109bd3660046134bd565b6124bb565b61061e6109d03660046134e1565b6124fd565b6104356109e33660046132e9565b6001600160a01b039182166000908152600a6020908152604080832093909416825291909152205460ff1690565b6104b0610a1f3660046134e1565b612584565b6104b0610a323660046132ce565b6126bd565b600054610472906001600160a01b031681565b60006001600160e01b03198216631e7c553160e21b1480610a6f5750610a6f82612730565b92915050565b606060058054610a84906139ea565b80601f0160208091040260200160405190810160405280929190818152602001828054610ab0906139ea565b8015610afd5780601f10610ad257610100808354040283529160200191610afd565b820191906000526020600020905b815481529060010190602001808311610ae057829003601f168201915b5050505050905090565b6000610b1282612755565b610b785760405162461bcd60e51b815260206004820152602c60248201527f4245503732313a20617070726f76656420717565727920666f72206e6f6e657860448201526b34b9ba32b73a103a37b5b2b760a11b60648201526084015b60405180910390fd5b506000908152600960205260409020546001600160a01b031690565b600454600160a01b900460ff1615610bbe5760405162461bcd60e51b8152600401610b6f9061389b565b6000610bc982611b5f565b9050806001600160a01b0316836001600160a01b03161415610c375760405162461bcd60e51b815260206004820152602160248201527f4245503732313a20617070726f76616c20746f2063757272656e74206f776e656044820152603960f91b6064820152608401610b6f565b336001600160a01b0382161480610c535750610c5381336109e3565b610cc55760405162461bcd60e51b815260206004820152603860248201527f4245503732313a20617070726f76652063616c6c6572206973206e6f74206f7760448201527f6e6572206e6f7220617070726f76656420666f7220616c6c00000000000000006064820152608401610b6f565b610ccf8383612772565b505050565b60006011610ce36001846139a7565b81548110610cf357610cf3613a96565b90600052602060002090600b0201600301549050919050565b600454600160a01b900460ff1615610d365760405162461bcd60e51b8152600401610b6f9061389b565b610d4033826127e0565b610d5c5760405162461bcd60e51b8152600401610b6f906138c5565b610ccf83838361223e565b6000546001600160a01b0316336001600160a01b031614610d8757600080fd5b6017805460ff909216600160801b0260ff60801b19909216919091179055565b6000546001600160a01b0316336001600160a01b031614610dc757600080fd5b6017805461ffff909216600160881b0261ffff60881b19909216919091179055565b6000546001600160a01b0316336001600160a01b031614610e0957600080fd5b6017805463ffffffff909216600160981b0263ffffffff60981b19909216919091179055565b6000610e3a83611d09565b8210610e9c5760405162461bcd60e51b815260206004820152602b60248201527f424550373231456e756d657261626c653a206f776e657220696e646578206f7560448201526a74206f6620626f756e647360a81b6064820152608401610b6f565b506001600160a01b03919091166000908152600c60209081526040808320938352929052205490565b6000546001600160a01b0316336001600160a01b031614610ee557600080fd5b6017805460ff909216600160501b0260ff60501b19909216919091179055565b600454600160a01b900460ff16610f555760405162461bcd60e51b815260206004820152601460248201527314185d5cd8589b194e881b9bdd081c185d5cd95960621b6044820152606401610b6f565b6000546001600160a01b0316336001600160a01b031614610f7557600080fd5b6004805460ff60a01b191690557f5db9ee0a495bf2e6ff9c91a7834c1ba4fdd244a5e8aa4e537bd38aeae4b073aa335b6040516001600160a01b03909116815260200160405180910390a1565b600454600160a01b900460ff1615610fec5760405162461bcd60e51b8152600401610b6f9061389b565b610ccf838383604051806020016040528060008152506121e2565b606060116110166001846139a7565b8154811061102657611026613a96565b90600052602060002090600b020160060180548060200260200160405190810160405280929190818152602001828054801561109f57602002820191906000526020600020906000905b825461010083900a900460ff168152602060019283018181049485019490930390920291018084116110705790505b50505050509050919050565b6000546001600160a01b0316336001600160a01b0316146110cb57600080fd5b6017805461ffff909216600160581b0261ffff60581b19909216919091179055565b6111556040518061016001604052806000815260200160006001600160a01b0316815260200160008152602001600081526020016060815260200160608152602001606081526020016060815260200160608152602001606081526020016000151581525090565b61115e82612755565b6111c85760405162461bcd60e51b815260206004820152603560248201527f4e424d6f6e436f72653a204e424d6f6e207769746820746865207370656369666044820152741a595908125108191bd95cc81b9bdd08195e1a5cdd605a1b6064820152608401610b6f565b60116111d56001846139a7565b815481106111e5576111e5613a96565b60009182526020918290206040805161016081018252600b9093029091018054835260018101546001600160a01b03168385015260028101548383015260038101546060840152600481018054835181870281018701909452808452939491936080860193928301828280156112a657602002820191906000526020600020906000905b82829054906101000a900463ffffffff1663ffffffff16815260200190600401906020826003010492830192600103820291508084116112695790505b505050505081526020016005820180548060200260200160405190810160405280929190818152602001828054801561131c57602002820191906000526020600020906000905b825461010083900a900460ff168152602060019283018181049485019490930390920291018084116112ed5790505b505050505081526020016006820180548060200260200160405190810160405280929190818152602001828054801561139257602002820191906000526020600020906000905b825461010083900a900460ff168152602060019283018181049485019490930390920291018084116113635790505b505050505081526020016007820180548060200260200160405190810160405280929190818152602001828054801561141257602002820191906000526020600020906000905b82829054906101000a900461ffff1661ffff16815260200190600201906020826001010492830192600103820291508084116113d95790505b505050505081526020016008820180548060200260200160405190810160405280929190818152602001828054801561148857602002820191906000526020600020906000905b825461010083900a900460ff168152602060019283018181049485019490930390920291018084116114595790505b50505050508152602001600982018054806020026020016040519081016040528092919081815260200182805480156114fe57602002820191906000526020600020906000905b825461010083900a900460ff168152602060019283018181049485019490930390920291018084116114cf5790505b5050509183525050600a919091015460ff16151560209091015292915050565b6000546001600160a01b0316336001600160a01b03161461153e57600080fd5b6017805461ffff9092166101000262ffff0019909216919091179055565b6000546001600160a01b0316336001600160a01b03161461157c57600080fd5b6017805460ff909216600160481b0269ff00000000000000000019909216919091179055565b6001600160a01b0381166000908152601460209081526040808320805482518185028101850190935280835260609492939192909184015b828210156119245760008481526020908190206040805161016081018252600b86029092018054835260018101546001600160a01b03168385015260028101548383015260038101546060840152600481018054835181870281018701909452808452939491936080860193928301828280156116a257602002820191906000526020600020906000905b82829054906101000a900463ffffffff1663ffffffff16815260200190600401906020826003010492830192600103820291508084116116655790505b505050505081526020016005820180548060200260200160405190810160405280929190818152602001828054801561171857602002820191906000526020600020906000905b825461010083900a900460ff168152602060019283018181049485019490930390920291018084116116e95790505b505050505081526020016006820180548060200260200160405190810160405280929190818152602001828054801561178e57602002820191906000526020600020906000905b825461010083900a900460ff1681526020600192830181810494850194909303909202910180841161175f5790505b505050505081526020016007820180548060200260200160405190810160405280929190818152602001828054801561180e57602002820191906000526020600020906000905b82829054906101000a900461ffff1661ffff16815260200190600201906020826001010492830192600103820291508084116117d55790505b505050505081526020016008820180548060200260200160405190810160405280929190818152602001828054801561188457602002820191906000526020600020906000905b825461010083900a900460ff168152602060019283018181049485019490930390920291018084116118555790505b50505050508152602001600982018054806020026020016040519081016040528092919081815260200182805480156118fa57602002820191906000526020600020906000905b825461010083900a900460ff168152602060019283018181049485019490930390920291018084116118cb5790505b5050509183525050600a919091015460ff16151560209182015290825260019290920191016115da565b505050509050919050565b600061193a600e5490565b821061199d5760405162461bcd60e51b815260206004820152602c60248201527f424550373231456e756d657261626c653a20676c6f62616c20696e646578206f60448201526b7574206f6620626f756e647360a01b6064820152608401610b6f565b600e82815481106119b0576119b0613a96565b90600052602060002001549050919050565b63ffffffff811660009081526015602090815260409182902080548351818402810184019094528084526060939283018282801561109f576000918252602091829020805460ff168452908202830192909160019101808411611070575094979650505050505050565b6000546001600160a01b0316336001600160a01b03161480611a6157506003546001600160a01b0316336001600160a01b0316145b611a6a57600080fd5b8051611a7d9060109060208401906130a7565b5050565b6000546001600160a01b0316336001600160a01b03161480611ab657506003546001600160a01b0316336001600160a01b0316145b611abf57600080fd5b6001600160a01b038116611ad257600080fd5b600180546001600160a01b0319166001600160a01b0392909216919091179055565b6001600160a01b03811660009081526013602090815260409182902080548351818402810184019094528084526060939283018282801561109f57602002820191906000526020600020905b815481526020019060010190808311611b405750505050509050919050565b6000818152600760205260408120546001600160a01b031680610a6f5760405162461bcd60e51b815260206004820152602960248201527f4245503732313a206f776e657220717565727920666f72206e6f6e657869737460448201526832b73a103a37b5b2b760b91b6064820152608401610b6f565b60606011611be56001846139a7565b81548110611bf557611bf5613a96565b90600052602060002090600b020160090180548060200260200160405190810160405280929190818152602001828054801561109f576000918252602091829020805460ff168452908202830192909160019101808411611070575094979650505050505050565b60606011611c6c6001846139a7565b81548110611c7c57611c7c613a96565b90600052602060002090600b020160070180548060200260200160405190810160405280929190818152602001828054801561109f57602002820191906000526020600020906000905b82829054906101000a900461ffff1661ffff1681526020019060020190602082600101049283019260010382029150808411611cc6575094979650505050505050565b60006001600160a01b038216611d745760405162461bcd60e51b815260206004820152602a60248201527f4245503732313a2062616c616e636520717565727920666f7220746865207a65604482015269726f206164647265737360b01b6064820152608401610b6f565b506001600160a01b031660009081526008602052604090205490565b60606011611d9f6001846139a7565b81548110611daf57611daf613a96565b90600052602060002090600b020160040180548060200260200160405190810160405280929190818152602001828054801561109f57602002820191906000526020600020906000905b82829054906101000a900463ffffffff1663ffffffff1681526020019060040190602082600301049283019260010382029150808411611df9575094979650505050505050565b60006011611e4f6001846139a7565b81548110611e5f57611e5f613a96565b90600052602060002090600b0201600201549050919050565b611e8384848461223e565b611e8f848484846128ca565b611eab5760405162461bcd60e51b8152600401610b6f90613916565b50505050565b600454600160a01b900460ff1615611edb5760405162461bcd60e51b8152600401610b6f9061389b565b6000546001600160a01b0316336001600160a01b031614611efb57600080fd5b6004805460ff60a01b1916600160a01b1790557f62e78cea01bee320cd4e420270b5ea74000d11b0c9f74754ebdbfc544b05a258610fa53390565b6000546001600160a01b0316336001600160a01b031614611f5657600080fd5b6017805460ff191660ff92909216919091179055565b6000546001600160a01b0316336001600160a01b031614611f8c57600080fd5b60408051808201825260ff8085168252831660208083019190915263ffffffff86166000908152601590915291909120611eab91600261312b565b6000546001600160a01b0316336001600160a01b03161480611ffc57506003546001600160a01b0316336001600160a01b0316145b61200557600080fd5b6001600160a01b03811661201857600080fd5b600480546001600160a01b0319166001600160a01b0392909216919091179055565b606060068054610a84906139ea565b600454600160a01b900460ff16156120735760405162461bcd60e51b8152600401610b6f9061389b565b6001600160a01b0382163314156120cc5760405162461bcd60e51b815260206004820152601960248201527f4245503732313a20617070726f766520746f2063616c6c6572000000000000006044820152606401610b6f565b336000818152600a602090815260408083206001600160a01b03871680855290835292819020805460ff191686151590811790915590519081529192917f17307eab39ab6107e8899845ad3d59bd9653f200f220920489ca2b5937696c31910160405180910390a35050565b6000546001600160a01b0316336001600160a01b03161461215857600080fd5b6001600160a01b03811661216b57600080fd5b600080546001600160a01b0319166001600160a01b0392909216919091179055565b6000546001600160a01b0316336001600160a01b0316146121ad57600080fd5b6001600160a01b0381166121c057600080fd5b600380546001600160a01b0319166001600160a01b0392909216919091179055565b600454600160a01b900460ff161561220c5760405162461bcd60e51b8152600401610b6f9061389b565b61221633836127e0565b6122325760405162461bcd60e51b8152600401610b6f906138c5565b611eab84848484611e78565b826001600160a01b031661225182611b5f565b6001600160a01b0316146122b95760405162461bcd60e51b815260206004820152602960248201527f4245503732313a207472616e73666572206f6620746f6b656e2074686174206960448201526839903737ba1037bbb760b91b6064820152608401610b6f565b6001600160a01b03821661231b5760405162461bcd60e51b8152602060048201526024808201527f4245503732313a207472616e7366657220746f20746865207a65726f206164646044820152637265737360e01b6064820152608401610b6f565b6123268383836129d7565b612331600082612772565b6001600160a01b038316600090815260086020526040812080546001929061235a9084906139a7565b90915550506001600160a01b038216600090815260086020526040812080546001929061238890849061397b565b909155505060008181526007602052604080822080546001600160a01b0319166001600160a01b0386811691821790925591518493918716917fddf252ad1be2c89b69c2b068fc378daa952ba7f163c4a11628f55a4df523b3ef91a4505050565b6060610a6f826129e2565b6000546001600160a01b0316336001600160a01b03161461241457600080fd5b6017805460ff909216600160681b0260ff60681b19909216919091179055565b606060116124436001846139a7565b8154811061245357612453613a96565b90600052602060002090600b020160050180548060200260200160405190810160405280929190818152602001828054801561109f576000918252602091829020805460ff168452908202830192909160019101808411611070575094979650505050505050565b6000546001600160a01b0316336001600160a01b0316146124db57600080fd5b6017805461ffff90921663010000000264ffff00000019909216919091179055565b6060601161250c6001846139a7565b8154811061251c5761251c613a96565b90600052602060002090600b020160080180548060200260200160405190810160405280929190818152602001828054801561109f576000918252602091829020805460ff168452908202830192909160019101808411611070575094979650505050505050565b61258d81612755565b6125e75760405162461bcd60e51b815260206004820152602560248201527f4e424d6f6e436f72653a204275726e696e67206e6f6e2d6578697374616e7420604482015264272126b7b760d91b6064820152608401610b6f565b3360116125f56001846139a7565b8154811061260557612605613a96565b600091825260209091206001600b9092020101546001600160a01b0316146126865760405162461bcd60e51b815260206004820152602e60248201527f4e424d6f6e436f72653a204f776e657220646f6573206e6f74206f776e20737060448201526d32b1b4b334b2b210272126b7b71760911b6064820152608401610b6f565b61268f81612b44565b60405181907f0f72e6fe9c0fcf69b106238a2722941576b434bd90a630a06fc938ddd7d7e9a390600090a250565b6000546001600160a01b0316336001600160a01b031614806126f257506003546001600160a01b0316336001600160a01b0316145b6126fb57600080fd5b6001600160a01b03811661270e57600080fd5b600280546001600160a01b0319166001600160a01b0392909216919091179055565b60006001600160e01b0319821663780e9d6360e01b1480610a6f5750610a6f82612b50565b6000908152600760205260409020546001600160a01b0316151590565b600081815260096020526040902080546001600160a01b0319166001600160a01b03841690811790915581906127a782611b5f565b6001600160a01b03167f8c5be1e5ebec7d5bd14f71427d1e84f3dd0314c0f7b2291e5b200ac8c7c3b92560405160405180910390a45050565b60006127eb82612755565b61284c5760405162461bcd60e51b815260206004820152602c60248201527f4245503732313a206f70657261746f7220717565727920666f72206e6f6e657860448201526b34b9ba32b73a103a37b5b2b760a11b6064820152608401610b6f565b600061285783611b5f565b9050806001600160a01b0316846001600160a01b031614806128925750836001600160a01b031661288784610b07565b6001600160a01b0316145b806128c257506001600160a01b038082166000908152600a602090815260408083209388168352929052205460ff165b949350505050565b60006001600160a01b0384163b156129cc5760405163083305f960e31b81526001600160a01b038516906341982fc89061290e90339089908890889060040161376c565b602060405180830381600087803b15801561292857600080fd5b505af1925050508015612958575060408051601f3d908101601f1916820190925261295591810190613457565b60015b6129b2573d808015612986576040519150601f19603f3d011682016040523d82523d6000602084013e61298b565b606091505b5080516129aa5760405162461bcd60e51b8152600401610b6f90613916565b805181602001fd5b6001600160e01b03191663083305f960e31b1490506128c2565b506001949350505050565b610ccf838383612ba0565b60606129ed82612755565b612a535760405162461bcd60e51b815260206004820152603160248201527f42455037323155524953746f726167653a2055524920717565727920666f72206044820152703737b732bc34b9ba32b73a103a37b5b2b760791b6064820152608401610b6f565b6000828152600b602052604081208054612a6c906139ea565b80601f0160208091040260200160405190810160405280929190818152602001828054612a98906139ea565b8015612ae55780601f10612aba57610100808354040283529160200191612ae5565b820191906000526020600020905b815481529060010190602001808311612ac857829003601f168201915b505050505090506000612af6612c58565b9050805160001415612b09575092915050565b815115612b3b578082604051602001612b2392919061373d565b60405160208183030381529060405292505050919050565b6128c284612c67565b612b4d81612d32565b50565b60006001600160e01b031982166380ac58cd60e01b1480612b8157506001600160e01b03198216635b5e139f60e01b145b80610a6f57506301ffc9a760e01b6001600160e01b0319831614610a6f565b6001600160a01b038316612bfb57612bf681600e80546000838152600f60205260408120829055600182018355919091527fbb7b4a454dc3493923482f07822329ed19e8244eff582cc204f8554c3620c3fd0155565b612c1e565b816001600160a01b0316836001600160a01b031614612c1e57612c1e8382612d72565b6001600160a01b038216612c3557610ccf81612e0f565b826001600160a01b0316826001600160a01b031614610ccf57610ccf8282612ebe565b606060108054610a84906139ea565b6060612c7282612755565b612cd65760405162461bcd60e51b815260206004820152602f60248201527f4245503732314d657461646174613a2055524920717565727920666f72206e6f60448201526e3732bc34b9ba32b73a103a37b5b2b760891b6064820152608401610b6f565b6000612ce0612c58565b90506000815111612d005760405180602001604052806000815250612d2b565b80612d0a84612f02565b604051602001612d1b92919061373d565b6040516020818303038152906040525b9392505050565b612d3b81613000565b6000818152600b602052604090208054612d54906139ea565b159050612b4d576000818152600b60205260408120612b4d916131cc565b60006001612d7f84611d09565b612d8991906139a7565b6000838152600d6020526040902054909150808214612ddc576001600160a01b0384166000908152600c602090815260408083208584528252808320548484528184208190558352600d90915290208190555b506000918252600d602090815260408084208490556001600160a01b039094168352600c81528383209183525290812055565b600e54600090612e21906001906139a7565b6000838152600f6020526040812054600e8054939450909284908110612e4957612e49613a96565b9060005260206000200154905080600e8381548110612e6a57612e6a613a96565b6000918252602080832090910192909255828152600f9091526040808220849055858252812055600e805480612ea257612ea2613a80565b6001900381819060005260206000200160009055905550505050565b6000612ec983611d09565b6001600160a01b039093166000908152600c602090815260408083208684528252808320859055938252600d9052919091209190915550565b606081612f265750506040805180820190915260018152600360fc1b602082015290565b8160005b8115612f505780612f3a81613a25565b9150612f499050600a83613993565b9150612f2a565b60008167ffffffffffffffff811115612f6b57612f6b613aac565b6040519080825280601f01601f191660200182016040528015612f95576020820181803683370190505b5090505b84156128c257612faa6001836139a7565b9150612fb7600a86613a40565b612fc290603061397b565b60f81b818381518110612fd757612fd7613a96565b60200101906001600160f81b031916908160001a905350612ff9600a86613993565b9450612f99565b600061300b82611b5f565b9050613019816000846129d7565b613024600083612772565b6001600160a01b038116600090815260086020526040812080546001929061304d9084906139a7565b909155505060008281526007602052604080822080546001600160a01b0319169055518391906001600160a01b038416907fddf252ad1be2c89b69c2b068fc378daa952ba7f163c4a11628f55a4df523b3ef908390a45050565b8280546130b3906139ea565b90600052602060002090601f0160209004810192826130d5576000855561311b565b82601f106130ee57805160ff191683800117855561311b565b8280016001018555821561311b579182015b8281111561311b578251825591602001919060010190613100565b50613127929150613202565b5090565b82805482825590600052602060002090601f0160209004810192821561311b5791602002820160005b8382111561319257835183826101000a81548160ff021916908360ff1602179055509260200192600101602081600001049283019260010302613154565b80156131bf5782816101000a81549060ff0219169055600101602081600001049283019260010302613192565b5050613127929150613202565b5080546131d8906139ea565b6000825580601f106131e8575050565b601f016020900490600052602060002090810190612b4d91905b5b808211156131275760008155600101613203565b600067ffffffffffffffff8084111561323257613232613aac565b604051601f8501601f19908116603f0116810190828211818310171561325a5761325a613aac565b8160405280935085815286868601111561327357600080fd5b858560208301376000602087830101525050509392505050565b80356001600160a01b03811681146132a457600080fd5b919050565b803563ffffffff811681146132a457600080fd5b803560ff811681146132a457600080fd5b6000602082840312156132e057600080fd5b612d2b8261328d565b600080604083850312156132fc57600080fd5b6133058361328d565b91506133136020840161328d565b90509250929050565b60008060006060848603121561333157600080fd5b61333a8461328d565b92506133486020850161328d565b9150604084013590509250925092565b6000806000806080858703121561336e57600080fd5b6133778561328d565b93506133856020860161328d565b925060408501359150606085013567ffffffffffffffff8111156133a857600080fd5b8501601f810187136133b957600080fd5b6133c887823560208401613217565b91505092959194509250565b600080604083850312156133e757600080fd5b6133f08361328d565b91506020830135801515811461340557600080fd5b809150509250929050565b6000806040838503121561342357600080fd5b61342c8361328d565b946020939093013593505050565b60006020828403121561344c57600080fd5b8135612d2b81613ac2565b60006020828403121561346957600080fd5b8151612d2b81613ac2565b60006020828403121561348657600080fd5b813567ffffffffffffffff81111561349d57600080fd5b8201601f810184136134ae57600080fd5b6128c284823560208401613217565b6000602082840312156134cf57600080fd5b813561ffff81168114612d2b57600080fd5b6000602082840312156134f357600080fd5b5035919050565b60006020828403121561350c57600080fd5b612d2b826132a9565b60008060006060848603121561352a57600080fd5b613533846132a9565b9250613541602085016132bd565b915061354f604085016132bd565b90509250925092565b60006020828403121561356a57600080fd5b612d2b826132bd565b600081518084526020808501945080840160005b838110156135a757815161ffff1687529582019590820190600101613587565b509495945050505050565b600081518084526020808501945080840160005b838110156135a757815163ffffffff16875295820195908201906001016135c6565b600081518084526020808501945080840160005b838110156135a757815160ff16875295820195908201906001016135fc565b600081518084526136338160208601602086016139be565b601f01601f19169290920160200192915050565b600061016082518452602083015161366a60208601826001600160a01b03169052565b5060408301516040850152606083015160608501526080830151816080860152613696828601826135b2565b91505060a083015184820360a08601526136b082826135e8565b91505060c083015184820360c08601526136ca82826135e8565b91505060e083015184820360e08601526136e48282613573565b91505061010080840151858303828701526136ff83826135e8565b92505050610120808401518583038287015261371b83826135e8565b92505050610140808401516137338287018215159052565b5090949350505050565b6000835161374f8184602088016139be565b8351908301906137638183602088016139be565b01949350505050565b6001600160a01b038581168252841660208201526040810183905260806060820181905260009061379f9083018461361b565b9695505050505050565b6000602080830181845280855180835260408601915060408160051b870101925083870160005b828110156137fe57603f198886030184526137ec858351613647565b945092850192908501906001016137d0565b5092979650505050505050565b602081526000612d2b6020830184613573565b6020808252825182820181905260009190848201906040850190845b818110156138565783518352928401929184019160010161383a565b50909695505050505050565b602081526000612d2b60208301846135b2565b602081526000612d2b60208301846135e8565b602081526000612d2b602083018461361b565b60208082526010908201526f14185d5cd8589b194e881c185d5cd95960821b604082015260600190565b60208082526031908201527f4245503732313a207472616e736665722063616c6c6572206973206e6f74206f6040820152701ddb995c881b9bdc88185c1c1c9bdd9959607a1b606082015260800190565b60208082526032908201527f4245503732313a207472616e7366657220746f206e6f6e20424550373231526560408201527131b2b4bb32b91034b6b83632b6b2b73a32b960711b606082015260800190565b602081526000612d2b6020830184613647565b6000821982111561398e5761398e613a54565b500190565b6000826139a2576139a2613a6a565b500490565b6000828210156139b9576139b9613a54565b500390565b60005b838110156139d95781810151838201526020016139c1565b83811115611eab5750506000910152565b600181811c908216806139fe57607f821691505b60208210811415613a1f57634e487b7160e01b600052602260045260246000fd5b50919050565b6000600019821415613a3957613a39613a54565b5060010190565b600082613a4f57613a4f613a6a565b500690565b634e487b7160e01b600052601160045260246000fd5b634e487b7160e01b600052601260045260246000fd5b634e487b7160e01b600052603160045260246000fd5b634e487b7160e01b600052603260045260246000fd5b634e487b7160e01b600052604160045260246000fd5b6001600160e01b031981168114612b4d57600080fdfea2646970667358221220ebe56122a008496fe0c3efa4e94879baaeddc7f47690f5b884b753df47be5e8c64736f6c63430008060033",
  "linkReferences": {},
  "deployedLinkReferences": {}
}