{
  "contractName": "Token",
  "abi": [
    {
      "inputs": [
        {
          "internalType": "string",
          "name": "name",
          "type": "string"
        },
        {
          "internalType": "string",
          "name": "symbol",
          "type": "string"
        }
      ],
      "stateMutability": "nonpayable",
      "type": "constructor"
    },
    {
      "anonymous": false,
      "inputs": [
        {
          "indexed": true,
          "internalType": "address",
          "name": "owner",
          "type": "address"
        },
        {
          "indexed": true,
          "internalType": "address",
          "name": "approved",
          "type": "address"
        },
        {
          "indexed": true,
          "internalType": "uint256",
          "name": "tokenId",
          "type": "uint256"
        }
      ],
      "name": "Approval",
      "type": "event"
    },
    {
      "anonymous": false,
      "inputs": [
        {
          "indexed": true,
          "internalType": "address",
          "name": "owner",
          "type": "address"
        },
        {
          "indexed": true,
          "internalType": "address",
          "name": "operator",
          "type": "address"
        },
        {
          "indexed": false,
          "internalType": "bool",
          "name": "approved",
          "type": "bool"
        }
      ],
      "name": "ApprovalForAll",
      "type": "event"
    },
    {
      "anonymous": false,
      "inputs": [
        {
          "indexed": true,
          "internalType": "address",
          "name": "previousOwner",
          "type": "address"
        },
        {
          "indexed": true,
          "internalType": "address",
          "name": "newOwner",
          "type": "address"
        }
      ],
      "name": "OwnershipTransferred",
      "type": "event"
    },
    {
      "anonymous": false,
      "inputs": [
        {
          "indexed": true,
          "internalType": "address",
          "name": "from",
          "type": "address"
        },
        {
          "indexed": true,
          "internalType": "address",
          "name": "to",
          "type": "address"
        },
        {
          "indexed": true,
          "internalType": "uint256",
          "name": "tokenId",
          "type": "uint256"
        }
      ],
      "name": "Transfer",
      "type": "event"
    },
    {
      "inputs": [
        {
          "internalType": "address",
          "name": "to",
          "type": "address"
        },
        {
          "internalType": "uint256",
          "name": "tokenId",
          "type": "uint256"
        }
      ],
      "name": "approve",
      "outputs": [],
      "stateMutability": "nonpayable",
      "type": "function"
    },
    {
      "inputs": [
        {
          "internalType": "address",
          "name": "owner",
          "type": "address"
        }
      ],
      "name": "balanceOf",
      "outputs": [
        {
          "internalType": "uint256",
          "name": "",
          "type": "uint256"
        }
      ],
      "stateMutability": "view",
      "type": "function",
      "constant": true
    },
    {
      "inputs": [
        {
          "internalType": "uint256",
          "name": "tokenId",
          "type": "uint256"
        }
      ],
      "name": "getApproved",
      "outputs": [
        {
          "internalType": "address",
          "name": "",
          "type": "address"
        }
      ],
      "stateMutability": "view",
      "type": "function",
      "constant": true
    },
    {
      "inputs": [
        {
          "internalType": "address",
          "name": "owner",
          "type": "address"
        },
        {
          "internalType": "address",
          "name": "operator",
          "type": "address"
        }
      ],
      "name": "isApprovedForAll",
      "outputs": [
        {
          "internalType": "bool",
          "name": "",
          "type": "bool"
        }
      ],
      "stateMutability": "view",
      "type": "function",
      "constant": true
    },
    {
      "inputs": [],
      "name": "name",
      "outputs": [
        {
          "internalType": "string",
          "name": "",
          "type": "string"
        }
      ],
      "stateMutability": "view",
      "type": "function",
      "constant": true
    },
    {
      "inputs": [],
      "name": "owner",
      "outputs": [
        {
          "internalType": "address",
          "name": "",
          "type": "address"
        }
      ],
      "stateMutability": "view",
      "type": "function",
      "constant": true
    },
    {
      "inputs": [
        {
          "internalType": "uint256",
          "name": "tokenId",
          "type": "uint256"
        }
      ],
      "name": "ownerOf",
      "outputs": [
        {
          "internalType": "address",
          "name": "",
          "type": "address"
        }
      ],
      "stateMutability": "view",
      "type": "function",
      "constant": true
    },
    {
      "inputs": [],
      "name": "renounceOwnership",
      "outputs": [],
      "stateMutability": "nonpayable",
      "type": "function"
    },
    {
      "inputs": [
        {
          "internalType": "address",
          "name": "from",
          "type": "address"
        },
        {
          "internalType": "address",
          "name": "to",
          "type": "address"
        },
        {
          "internalType": "uint256",
          "name": "tokenId",
          "type": "uint256"
        }
      ],
      "name": "safeTransferFrom",
      "outputs": [],
      "stateMutability": "nonpayable",
      "type": "function"
    },
    {
      "inputs": [
        {
          "internalType": "address",
          "name": "from",
          "type": "address"
        },
        {
          "internalType": "address",
          "name": "to",
          "type": "address"
        },
        {
          "internalType": "uint256",
          "name": "tokenId",
          "type": "uint256"
        },
        {
          "internalType": "bytes",
          "name": "_data",
          "type": "bytes"
        }
      ],
      "name": "safeTransferFrom",
      "outputs": [],
      "stateMutability": "nonpayable",
      "type": "function"
    },
    {
      "inputs": [
        {
          "internalType": "address",
          "name": "operator",
          "type": "address"
        },
        {
          "internalType": "bool",
          "name": "approved",
          "type": "bool"
        }
      ],
      "name": "setApprovalForAll",
      "outputs": [],
      "stateMutability": "nonpayable",
      "type": "function"
    },
    {
      "inputs": [
        {
          "internalType": "bytes4",
          "name": "interfaceId",
          "type": "bytes4"
        }
      ],
      "name": "supportsInterface",
      "outputs": [
        {
          "internalType": "bool",
          "name": "",
          "type": "bool"
        }
      ],
      "stateMutability": "view",
      "type": "function",
      "constant": true
    },
    {
      "inputs": [],
      "name": "symbol",
      "outputs": [
        {
          "internalType": "string",
          "name": "",
          "type": "string"
        }
      ],
      "stateMutability": "view",
      "type": "function",
      "constant": true
    },
    {
      "inputs": [
        {
          "internalType": "uint256",
          "name": "tokenId",
          "type": "uint256"
        }
      ],
      "name": "tokenURI",
      "outputs": [
        {
          "internalType": "string",
          "name": "",
          "type": "string"
        }
      ],
      "stateMutability": "view",
      "type": "function",
      "constant": true
    },
    {
      "inputs": [
        {
          "internalType": "address",
          "name": "from",
          "type": "address"
        },
        {
          "internalType": "address",
          "name": "to",
          "type": "address"
        },
        {
          "internalType": "uint256",
          "name": "tokenId",
          "type": "uint256"
        }
      ],
      "name": "transferFrom",
      "outputs": [],
      "stateMutability": "nonpayable",
      "type": "function"
    },
    {
      "inputs": [
        {
          "internalType": "address",
          "name": "newOwner",
          "type": "address"
        }
      ],
      "name": "transferOwnership",
      "outputs": [],
      "stateMutability": "nonpayable",
      "type": "function"
    },
    {
      "inputs": [
        {
          "internalType": "address",
          "name": "user",
          "type": "address"
        }
      ],
      "name": "getAllTokensForUser",
      "outputs": [
        {
          "internalType": "uint256[]",
          "name": "",
          "type": "uint256[]"
        }
      ],
      "stateMutability": "view",
      "type": "function",
      "constant": true
    },
    {
      "inputs": [
        {
          "internalType": "uint256",
          "name": "tokenId",
          "type": "uint256"
        }
      ],
      "name": "getTokenDetails",
      "outputs": [
        {
          "components": [
            {
              "internalType": "uint8",
              "name": "attack",
              "type": "uint8"
            },
            {
              "internalType": "uint8",
              "name": "health",
              "type": "uint8"
            },
            {
              "internalType": "uint8",
              "name": "stamina",
              "type": "uint8"
            },
            {
              "internalType": "string",
              "name": "tokenURI",
              "type": "string"
            }
          ],
          "internalType": "struct Token.NBMon",
          "name": "",
          "type": "tuple"
        }
      ],
      "stateMutability": "view",
      "type": "function",
      "constant": true
    },
    {
      "inputs": [
        {
          "internalType": "uint8",
          "name": "attack",
          "type": "uint8"
        },
        {
          "internalType": "uint8",
          "name": "health",
          "type": "uint8"
        },
        {
          "internalType": "uint8",
          "name": "stamina",
          "type": "uint8"
        },
        {
          "internalType": "string",
          "name": "tokenURI",
          "type": "string"
        },
        {
          "internalType": "uint256",
          "name": "price",
          "type": "uint256"
        }
      ],
      "name": "mintExternal",
      "outputs": [],
      "stateMutability": "payable",
      "type": "function",
      "payable": true
    }
  ],
  "bytecode": "0x608060405260006007553480156200001657600080fd5b50604051620038a2380380620038a283398181016040528101906200003c9190620003b5565b818181600090805190602001906200005692919062000168565b5080600190805190602001906200006f92919062000168565b50505062000092620000866200009a60201b60201c565b620000a260201b60201c565b50506200049f565b600033905090565b6000600660009054906101000a900473ffffffffffffffffffffffffffffffffffffffff16905081600660006101000a81548173ffffffffffffffffffffffffffffffffffffffff021916908373ffffffffffffffffffffffffffffffffffffffff1602179055508173ffffffffffffffffffffffffffffffffffffffff168173ffffffffffffffffffffffffffffffffffffffff167f8be0079c531659141344cd1fd0a4f28419497f9722a3daafe3b4186f6b6457e060405160405180910390a35050565b828054620001769062000469565b90600052602060002090601f0160209004810192826200019a5760008555620001e6565b82601f10620001b557805160ff1916838001178555620001e6565b82800160010185558215620001e6579182015b82811115620001e5578251825591602001919060010190620001c8565b5b509050620001f59190620001f9565b5090565b5b8082111562000214576000816000905550600101620001fa565b5090565b6000604051905090565b600080fd5b600080fd5b600080fd5b600080fd5b6000601f19601f8301169050919050565b7f4e487b7100000000000000000000000000000000000000000000000000000000600052604160045260246000fd5b620002818262000236565b810181811067ffffffffffffffff82111715620002a357620002a262000247565b5b80604052505050565b6000620002b862000218565b9050620002c6828262000276565b919050565b600067ffffffffffffffff821115620002e957620002e862000247565b5b620002f48262000236565b9050602081019050919050565b60005b838110156200032157808201518184015260208101905062000304565b8381111562000331576000848401525b50505050565b60006200034e6200034884620002cb565b620002ac565b9050828152602081018484840111156200036d576200036c62000231565b5b6200037a84828562000301565b509392505050565b600082601f8301126200039a57620003996200022c565b5b8151620003ac84826020860162000337565b91505092915050565b60008060408385031215620003cf57620003ce62000222565b5b600083015167ffffffffffffffff811115620003f057620003ef62000227565b5b620003fe8582860162000382565b925050602083015167ffffffffffffffff81111562000422576200042162000227565b5b620004308582860162000382565b9150509250929050565b7f4e487b7100000000000000000000000000000000000000000000000000000000600052602260045260246000fd5b600060028204905060018216806200048257607f821691505b602082108114156200049957620004986200043a565b5b50919050565b6133f380620004af6000396000f3fe6080604052600436106101145760003560e01c8063715018a6116100a0578063b88d4fde11610064578063b88d4fde146103a2578063c1e03728146103cb578063c87b56dd14610408578063e985e9c514610445578063f2fde38b1461048257610114565b8063715018a6146102cf57806382de8fe9146102e65780638da5cb5b1461032357806395d89b411461034e578063a22cb4651461037957610114565b806318c945e3116100e757806318c945e3146101e757806323b872dd1461020357806342842e0e1461022c5780636352211e1461025557806370a082311461029257610114565b806301ffc9a71461011957806306fdde0314610156578063081812fc14610181578063095ea7b3146101be575b600080fd5b34801561012557600080fd5b50610140600480360381019061013b9190611eb7565b6104ab565b60405161014d9190611eff565b60405180910390f35b34801561016257600080fd5b5061016b61058d565b6040516101789190611fb3565b60405180910390f35b34801561018d57600080fd5b506101a860048036038101906101a3919061200b565b61061f565b6040516101b59190612079565b60405180910390f35b3480156101ca57600080fd5b506101e560048036038101906101e091906120c0565b6106a4565b005b61020160048036038101906101fc919061226e565b6107bc565b005b34801561020f57600080fd5b5061022a60048036038101906102259190612305565b6108ec565b005b34801561023857600080fd5b50610253600480360381019061024e9190612305565b61094c565b005b34801561026157600080fd5b5061027c6004803603810190610277919061200b565b61096c565b6040516102899190612079565b60405180910390f35b34801561029e57600080fd5b506102b960048036038101906102b49190612358565b610a1e565b6040516102c69190612394565b60405180910390f35b3480156102db57600080fd5b506102e4610ad6565b005b3480156102f257600080fd5b5061030d60048036038101906103089190612358565b610b5e565b60405161031a919061246d565b60405180910390f35b34801561032f57600080fd5b50610338610cb4565b6040516103459190612079565b60405180910390f35b34801561035a57600080fd5b50610363610cde565b6040516103709190611fb3565b60405180910390f35b34801561038557600080fd5b506103a0600480360381019061039b91906124bb565b610d70565b005b3480156103ae57600080fd5b506103c960048036038101906103c4919061259c565b610d86565b005b3480156103d757600080fd5b506103f260048036038101906103ed919061200b565b610de8565b6040516103ff91906126db565b60405180910390f35b34801561041457600080fd5b5061042f600480360381019061042a919061200b565b610efe565b60405161043c9190611fb3565b60405180910390f35b34801561045157600080fd5b5061046c600480360381019061046791906126fd565b610fa5565b6040516104799190611eff565b60405180910390f35b34801561048e57600080fd5b506104a960048036038101906104a49190612358565b611039565b005b60007f80ac58cd000000000000000000000000000000000000000000000000000000007bffffffffffffffffffffffffffffffffffffffffffffffffffffffff1916827bffffffffffffffffffffffffffffffffffffffffffffffffffffffff1916148061057657507f5b5e139f000000000000000000000000000000000000000000000000000000007bffffffffffffffffffffffffffffffffffffffffffffffffffffffff1916827bffffffffffffffffffffffffffffffffffffffffffffffffffffffff1916145b80610586575061058582611131565b5b9050919050565b60606000805461059c9061276c565b80601f01602080910402602001604051908101604052809291908181526020018280546105c89061276c565b80156106155780601f106105ea57610100808354040283529160200191610615565b820191906000526020600020905b8154815290600101906020018083116105f857829003601f168201915b5050505050905090565b600061062a8261119b565b610669576040517f08c379a000000000000000000000000000000000000000000000000000000000815260040161066090612810565b60405180910390fd5b6004600083815260200190815260200160002060009054906101000a900473ffffffffffffffffffffffffffffffffffffffff169050919050565b60006106af8261096c565b90508073ffffffffffffffffffffffffffffffffffffffff168373ffffffffffffffffffffffffffffffffffffffff161415610720576040517f08c379a0000000000000000000000000000000000000000000000000000000008152600401610717906128a2565b60405180910390fd5b8073ffffffffffffffffffffffffffffffffffffffff1661073f611207565b73ffffffffffffffffffffffffffffffffffffffff16148061076e575061076d81610768611207565b610fa5565b5b6107ad576040517f08c379a00000000000000000000000000000000000000000000000000000000081526004016107a490612934565b60405180910390fd5b6107b7838361120f565b505050565b803410156107ff576040517f08c379a00000000000000000000000000000000000000000000000000000000081526004016107f6906129c6565b60405180910390fd5b61080b336007546112c8565b60405180608001604052808660ff1681526020018560ff1681526020018460ff1681526020018381525060086000600754815260200190815260200160002060008201518160000160006101000a81548160ff021916908360ff16021790555060208201518160000160016101000a81548160ff021916908360ff16021790555060408201518160000160026101000a81548160ff021916908360ff16021790555060608201518160010190805190602001906108c9929190611d77565b50905050600760008154809291906108e090612a15565b91905055505050505050565b6108fd6108f7611207565b82611496565b61093c576040517f08c379a000000000000000000000000000000000000000000000000000000000815260040161093390612ad0565b60405180910390fd5b610947838383611574565b505050565b61096783838360405180602001604052806000815250610d86565b505050565b6000806002600084815260200190815260200160002060009054906101000a900473ffffffffffffffffffffffffffffffffffffffff169050600073ffffffffffffffffffffffffffffffffffffffff168173ffffffffffffffffffffffffffffffffffffffff161415610a15576040517f08c379a0000000000000000000000000000000000000000000000000000000008152600401610a0c90612b62565b60405180910390fd5b80915050919050565b60008073ffffffffffffffffffffffffffffffffffffffff168273ffffffffffffffffffffffffffffffffffffffff161415610a8f576040517f08c379a0000000000000000000000000000000000000000000000000000000008152600401610a8690612bf4565b60405180910390fd5b600360008373ffffffffffffffffffffffffffffffffffffffff1673ffffffffffffffffffffffffffffffffffffffff168152602001908152602001600020549050919050565b610ade611207565b73ffffffffffffffffffffffffffffffffffffffff16610afc610cb4565b73ffffffffffffffffffffffffffffffffffffffff1614610b52576040517f08c379a0000000000000000000000000000000000000000000000000000000008152600401610b4990612c60565b60405180910390fd5b610b5c60006117d0565b565b60606000610b6b83610a1e565b90506000811415610bc857600067ffffffffffffffff811115610b9157610b90612143565b5b604051908082528060200260200182016040528015610bbf5781602001602082028036833780820191505090505b50915050610caf565b60008167ffffffffffffffff811115610be457610be3612143565b5b604051908082528060200260200182016040528015610c125781602001602082028036833780820191505090505b509050600060075490506000805b82811015610ca6578673ffffffffffffffffffffffffffffffffffffffff16610c488261096c565b73ffffffffffffffffffffffffffffffffffffffff161415610c935780848381518110610c7857610c77612c80565b5b6020026020010181815250508180610c8f90612a15565b9250505b8080610c9e90612a15565b915050610c20565b83955050505050505b919050565b6000600660009054906101000a900473ffffffffffffffffffffffffffffffffffffffff16905090565b606060018054610ced9061276c565b80601f0160208091040260200160405190810160405280929190818152602001828054610d199061276c565b8015610d665780601f10610d3b57610100808354040283529160200191610d66565b820191906000526020600020905b815481529060010190602001808311610d4957829003601f168201915b5050505050905090565b610d82610d7b611207565b8383611896565b5050565b610d97610d91611207565b83611496565b610dd6576040517f08c379a0000000000000000000000000000000000000000000000000000000008152600401610dcd90612ad0565b60405180910390fd5b610de284848484611a03565b50505050565b610df0611dfd565b600860008381526020019081526020016000206040518060800160405290816000820160009054906101000a900460ff1660ff1660ff1681526020016000820160019054906101000a900460ff1660ff1660ff1681526020016000820160029054906101000a900460ff1660ff1660ff168152602001600182018054610e759061276c565b80601f0160208091040260200160405190810160405280929190818152602001828054610ea19061276c565b8015610eee5780601f10610ec357610100808354040283529160200191610eee565b820191906000526020600020905b815481529060010190602001808311610ed157829003601f168201915b5050505050815250509050919050565b6060610f098261119b565b610f48576040517f08c379a0000000000000000000000000000000000000000000000000000000008152600401610f3f90612d21565b60405180910390fd5b6000610f52611a5f565b90506000815111610f725760405180602001604052806000815250610f9d565b80610f7c84611a76565b604051602001610f8d929190612d7d565b6040516020818303038152906040525b915050919050565b6000600560008473ffffffffffffffffffffffffffffffffffffffff1673ffffffffffffffffffffffffffffffffffffffff16815260200190815260200160002060008373ffffffffffffffffffffffffffffffffffffffff1673ffffffffffffffffffffffffffffffffffffffff16815260200190815260200160002060009054906101000a900460ff16905092915050565b611041611207565b73ffffffffffffffffffffffffffffffffffffffff1661105f610cb4565b73ffffffffffffffffffffffffffffffffffffffff16146110b5576040517f08c379a00000000000000000000000000000000000000000000000000000000081526004016110ac90612c60565b60405180910390fd5b600073ffffffffffffffffffffffffffffffffffffffff168173ffffffffffffffffffffffffffffffffffffffff161415611125576040517f08c379a000000000000000000000000000000000000000000000000000000000815260040161111c90612e13565b60405180910390fd5b61112e816117d0565b50565b60007f01ffc9a7000000000000000000000000000000000000000000000000000000007bffffffffffffffffffffffffffffffffffffffffffffffffffffffff1916827bffffffffffffffffffffffffffffffffffffffffffffffffffffffff1916149050919050565b60008073ffffffffffffffffffffffffffffffffffffffff166002600084815260200190815260200160002060009054906101000a900473ffffffffffffffffffffffffffffffffffffffff1673ffffffffffffffffffffffffffffffffffffffff1614159050919050565b600033905090565b816004600083815260200190815260200160002060006101000a81548173ffffffffffffffffffffffffffffffffffffffff021916908373ffffffffffffffffffffffffffffffffffffffff160217905550808273ffffffffffffffffffffffffffffffffffffffff166112828361096c565b73ffffffffffffffffffffffffffffffffffffffff167f8c5be1e5ebec7d5bd14f71427d1e84f3dd0314c0f7b2291e5b200ac8c7c3b92560405160405180910390a45050565b600073ffffffffffffffffffffffffffffffffffffffff168273ffffffffffffffffffffffffffffffffffffffff161415611338576040517f08c379a000000000000000000000000000000000000000000000000000000000815260040161132f90612e7f565b60405180910390fd5b6113418161119b565b15611381576040517f08c379a000000000000000000000000000000000000000000000000000000000815260040161137890612eeb565b60405180910390fd5b61138d60008383611bd7565b6001600360008473ffffffffffffffffffffffffffffffffffffffff1673ffffffffffffffffffffffffffffffffffffffff16815260200190815260200160002060008282546113dd9190612f0b565b92505081905550816002600083815260200190815260200160002060006101000a81548173ffffffffffffffffffffffffffffffffffffffff021916908373ffffffffffffffffffffffffffffffffffffffff160217905550808273ffffffffffffffffffffffffffffffffffffffff16600073ffffffffffffffffffffffffffffffffffffffff167fddf252ad1be2c89b69c2b068fc378daa952ba7f163c4a11628f55a4df523b3ef60405160405180910390a45050565b60006114a18261119b565b6114e0576040517f08c379a00000000000000000000000000000000000000000000000000000000081526004016114d790612fd3565b60405180910390fd5b60006114eb8361096c565b90508073ffffffffffffffffffffffffffffffffffffffff168473ffffffffffffffffffffffffffffffffffffffff16148061155a57508373ffffffffffffffffffffffffffffffffffffffff166115428461061f565b73ffffffffffffffffffffffffffffffffffffffff16145b8061156b575061156a8185610fa5565b5b91505092915050565b8273ffffffffffffffffffffffffffffffffffffffff166115948261096c565b73ffffffffffffffffffffffffffffffffffffffff16146115ea576040517f08c379a00000000000000000000000000000000000000000000000000000000081526004016115e190613065565b60405180910390fd5b600073ffffffffffffffffffffffffffffffffffffffff168273ffffffffffffffffffffffffffffffffffffffff16141561165a576040517f08c379a0000000000000000000000000000000000000000000000000000000008152600401611651906130f7565b60405180910390fd5b611665838383611bd7565b61167060008261120f565b6001600360008573ffffffffffffffffffffffffffffffffffffffff1673ffffffffffffffffffffffffffffffffffffffff16815260200190815260200160002060008282546116c09190613117565b925050819055506001600360008473ffffffffffffffffffffffffffffffffffffffff1673ffffffffffffffffffffffffffffffffffffffff16815260200190815260200160002060008282546117179190612f0b565b92505081905550816002600083815260200190815260200160002060006101000a81548173ffffffffffffffffffffffffffffffffffffffff021916908373ffffffffffffffffffffffffffffffffffffffff160217905550808273ffffffffffffffffffffffffffffffffffffffff168473ffffffffffffffffffffffffffffffffffffffff167fddf252ad1be2c89b69c2b068fc378daa952ba7f163c4a11628f55a4df523b3ef60405160405180910390a4505050565b6000600660009054906101000a900473ffffffffffffffffffffffffffffffffffffffff16905081600660006101000a81548173ffffffffffffffffffffffffffffffffffffffff021916908373ffffffffffffffffffffffffffffffffffffffff1602179055508173ffffffffffffffffffffffffffffffffffffffff168173ffffffffffffffffffffffffffffffffffffffff167f8be0079c531659141344cd1fd0a4f28419497f9722a3daafe3b4186f6b6457e060405160405180910390a35050565b8173ffffffffffffffffffffffffffffffffffffffff168373ffffffffffffffffffffffffffffffffffffffff161415611905576040517f08c379a00000000000000000000000000000000000000000000000000000000081526004016118fc90613197565b60405180910390fd5b80600560008573ffffffffffffffffffffffffffffffffffffffff1673ffffffffffffffffffffffffffffffffffffffff16815260200190815260200160002060008473ffffffffffffffffffffffffffffffffffffffff1673ffffffffffffffffffffffffffffffffffffffff16815260200190815260200160002060006101000a81548160ff0219169083151502179055508173ffffffffffffffffffffffffffffffffffffffff168373ffffffffffffffffffffffffffffffffffffffff167f17307eab39ab6107e8899845ad3d59bd9653f200f220920489ca2b5937696c31836040516119f69190611eff565b60405180910390a3505050565b611a0e848484611574565b611a1a84848484611bdc565b611a59576040517f08c379a0000000000000000000000000000000000000000000000000000000008152600401611a5090613229565b60405180910390fd5b50505050565b606060405180602001604052806000815250905090565b60606000821415611abe576040518060400160405280600181526020017f30000000000000000000000000000000000000000000000000000000000000008152509050611bd2565b600082905060005b60008214611af0578080611ad990612a15565b915050600a82611ae99190613278565b9150611ac6565b60008167ffffffffffffffff811115611b0c57611b0b612143565b5b6040519080825280601f01601f191660200182016040528015611b3e5781602001600182028036833780820191505090505b5090505b60008514611bcb57600182611b579190613117565b9150600a85611b6691906132a9565b6030611b729190612f0b565b60f81b818381518110611b8857611b87612c80565b5b60200101907effffffffffffffffffffffffffffffffffffffffffffffffffffffffffffff1916908160001a905350600a85611bc49190613278565b9450611b42565b8093505050505b919050565b505050565b6000611bfd8473ffffffffffffffffffffffffffffffffffffffff16611d64565b15611d57578373ffffffffffffffffffffffffffffffffffffffff1663150b7a02611c26611207565b8786866040518563ffffffff1660e01b8152600401611c48949392919061332f565b6020604051808303816000875af1925050508015611c8457506040513d601f19601f82011682018060405250810190611c819190613390565b60015b611d07573d8060008114611cb4576040519150601f19603f3d011682016040523d82523d6000602084013e611cb9565b606091505b50600081511415611cff576040517f08c379a0000000000000000000000000000000000000000000000000000000008152600401611cf690613229565b60405180910390fd5b805181602001fd5b63150b7a0260e01b7bffffffffffffffffffffffffffffffffffffffffffffffffffffffff1916817bffffffffffffffffffffffffffffffffffffffffffffffffffffffff191614915050611d5c565b600190505b949350505050565b600080823b905060008111915050919050565b828054611d839061276c565b90600052602060002090601f016020900481019282611da55760008555611dec565b82601f10611dbe57805160ff1916838001178555611dec565b82800160010185558215611dec579182015b82811115611deb578251825591602001919060010190611dd0565b5b509050611df99190611e2e565b5090565b6040518060800160405280600060ff168152602001600060ff168152602001600060ff168152602001606081525090565b5b80821115611e47576000816000905550600101611e2f565b5090565b6000604051905090565b600080fd5b600080fd5b60007fffffffff0000000000000000000000000000000000000000000000000000000082169050919050565b611e9481611e5f565b8114611e9f57600080fd5b50565b600081359050611eb181611e8b565b92915050565b600060208284031215611ecd57611ecc611e55565b5b6000611edb84828501611ea2565b91505092915050565b60008115159050919050565b611ef981611ee4565b82525050565b6000602082019050611f146000830184611ef0565b92915050565b600081519050919050565b600082825260208201905092915050565b60005b83811015611f54578082015181840152602081019050611f39565b83811115611f63576000848401525b50505050565b6000601f19601f8301169050919050565b6000611f8582611f1a565b611f8f8185611f25565b9350611f9f818560208601611f36565b611fa881611f69565b840191505092915050565b60006020820190508181036000830152611fcd8184611f7a565b905092915050565b6000819050919050565b611fe881611fd5565b8114611ff357600080fd5b50565b60008135905061200581611fdf565b92915050565b60006020828403121561202157612020611e55565b5b600061202f84828501611ff6565b91505092915050565b600073ffffffffffffffffffffffffffffffffffffffff82169050919050565b600061206382612038565b9050919050565b61207381612058565b82525050565b600060208201905061208e600083018461206a565b92915050565b61209d81612058565b81146120a857600080fd5b50565b6000813590506120ba81612094565b92915050565b600080604083850312156120d7576120d6611e55565b5b60006120e5858286016120ab565b92505060206120f685828601611ff6565b9150509250929050565b600060ff82169050919050565b61211681612100565b811461212157600080fd5b50565b6000813590506121338161210d565b92915050565b600080fd5b600080fd5b7f4e487b7100000000000000000000000000000000000000000000000000000000600052604160045260246000fd5b61217b82611f69565b810181811067ffffffffffffffff8211171561219a57612199612143565b5b80604052505050565b60006121ad611e4b565b90506121b98282612172565b919050565b600067ffffffffffffffff8211156121d9576121d8612143565b5b6121e282611f69565b9050602081019050919050565b82818337600083830152505050565b600061221161220c846121be565b6121a3565b90508281526020810184848401111561222d5761222c61213e565b5b6122388482856121ef565b509392505050565b600082601f83011261225557612254612139565b5b81356122658482602086016121fe565b91505092915050565b600080600080600060a0868803121561228a57612289611e55565b5b600061229888828901612124565b95505060206122a988828901612124565b94505060406122ba88828901612124565b935050606086013567ffffffffffffffff8111156122db576122da611e5a565b5b6122e788828901612240565b92505060806122f888828901611ff6565b9150509295509295909350565b60008060006060848603121561231e5761231d611e55565b5b600061232c868287016120ab565b935050602061233d868287016120ab565b925050604061234e86828701611ff6565b9150509250925092565b60006020828403121561236e5761236d611e55565b5b600061237c848285016120ab565b91505092915050565b61238e81611fd5565b82525050565b60006020820190506123a96000830184612385565b92915050565b600081519050919050565b600082825260208201905092915050565b6000819050602082019050919050565b6123e481611fd5565b82525050565b60006123f683836123db565b60208301905092915050565b6000602082019050919050565b600061241a826123af565b61242481856123ba565b935061242f836123cb565b8060005b8381101561246057815161244788826123ea565b975061245283612402565b925050600181019050612433565b5085935050505092915050565b60006020820190508181036000830152612487818461240f565b905092915050565b61249881611ee4565b81146124a357600080fd5b50565b6000813590506124b58161248f565b92915050565b600080604083850312156124d2576124d1611e55565b5b60006124e0858286016120ab565b92505060206124f1858286016124a6565b9150509250929050565b600067ffffffffffffffff82111561251657612515612143565b5b61251f82611f69565b9050602081019050919050565b600061253f61253a846124fb565b6121a3565b90508281526020810184848401111561255b5761255a61213e565b5b6125668482856121ef565b509392505050565b600082601f83011261258357612582612139565b5b813561259384826020860161252c565b91505092915050565b600080600080608085870312156125b6576125b5611e55565b5b60006125c4878288016120ab565b94505060206125d5878288016120ab565b93505060406125e687828801611ff6565b925050606085013567ffffffffffffffff81111561260757612606611e5a565b5b6126138782880161256e565b91505092959194509250565b61262881612100565b82525050565b600082825260208201905092915050565b600061264a82611f1a565b612654818561262e565b9350612664818560208601611f36565b61266d81611f69565b840191505092915050565b6000608083016000830151612690600086018261261f565b5060208301516126a3602086018261261f565b5060408301516126b6604086018261261f565b50606083015184820360608601526126ce828261263f565b9150508091505092915050565b600060208201905081810360008301526126f58184612678565b905092915050565b6000806040838503121561271457612713611e55565b5b6000612722858286016120ab565b9250506020612733858286016120ab565b9150509250929050565b7f4e487b7100000000000000000000000000000000000000000000000000000000600052602260045260246000fd5b6000600282049050600182168061278457607f821691505b602082108114156127985761279761273d565b5b50919050565b7f4552433732313a20617070726f76656420717565727920666f72206e6f6e657860008201527f697374656e7420746f6b656e0000000000000000000000000000000000000000602082015250565b60006127fa602c83611f25565b91506128058261279e565b604082019050919050565b60006020820190508181036000830152612829816127ed565b9050919050565b7f4552433732313a20617070726f76616c20746f2063757272656e74206f776e6560008201527f7200000000000000000000000000000000000000000000000000000000000000602082015250565b600061288c602183611f25565b915061289782612830565b604082019050919050565b600060208201905081810360008301526128bb8161287f565b9050919050565b7f4552433732313a20617070726f76652063616c6c6572206973206e6f74206f7760008201527f6e6572206e6f7220617070726f76656420666f7220616c6c0000000000000000602082015250565b600061291e603883611f25565b9150612929826128c2565b604082019050919050565b6000602082019050818103600083015261294d81612911565b9050919050565b7f45746865722073656e7420776974682074686973207472616e73616374696f6e60008201527f206973206e6f7420636f72726563740000000000000000000000000000000000602082015250565b60006129b0602f83611f25565b91506129bb82612954565b604082019050919050565b600060208201905081810360008301526129df816129a3565b9050919050565b7f4e487b7100000000000000000000000000000000000000000000000000000000600052601160045260246000fd5b6000612a2082611fd5565b91507fffffffffffffffffffffffffffffffffffffffffffffffffffffffffffffffff821415612a5357612a526129e6565b5b600182019050919050565b7f4552433732313a207472616e736665722063616c6c6572206973206e6f74206f60008201527f776e6572206e6f7220617070726f766564000000000000000000000000000000602082015250565b6000612aba603183611f25565b9150612ac582612a5e565b604082019050919050565b60006020820190508181036000830152612ae981612aad565b9050919050565b7f4552433732313a206f776e657220717565727920666f72206e6f6e657869737460008201527f656e7420746f6b656e0000000000000000000000000000000000000000000000602082015250565b6000612b4c602983611f25565b9150612b5782612af0565b604082019050919050565b60006020820190508181036000830152612b7b81612b3f565b9050919050565b7f4552433732313a2062616c616e636520717565727920666f7220746865207a6560008201527f726f206164647265737300000000000000000000000000000000000000000000602082015250565b6000612bde602a83611f25565b9150612be982612b82565b604082019050919050565b60006020820190508181036000830152612c0d81612bd1565b9050919050565b7f4f776e61626c653a2063616c6c6572206973206e6f7420746865206f776e6572600082015250565b6000612c4a602083611f25565b9150612c5582612c14565b602082019050919050565b60006020820190508181036000830152612c7981612c3d565b9050919050565b7f4e487b7100000000000000000000000000000000000000000000000000000000600052603260045260246000fd5b7f4552433732314d657461646174613a2055524920717565727920666f72206e6f60008201527f6e6578697374656e7420746f6b656e0000000000000000000000000000000000602082015250565b6000612d0b602f83611f25565b9150612d1682612caf565b604082019050919050565b60006020820190508181036000830152612d3a81612cfe565b9050919050565b600081905092915050565b6000612d5782611f1a565b612d618185612d41565b9350612d71818560208601611f36565b80840191505092915050565b6000612d898285612d4c565b9150612d958284612d4c565b91508190509392505050565b7f4f776e61626c653a206e6577206f776e657220697320746865207a65726f206160008201527f6464726573730000000000000000000000000000000000000000000000000000602082015250565b6000612dfd602683611f25565b9150612e0882612da1565b604082019050919050565b60006020820190508181036000830152612e2c81612df0565b9050919050565b7f4552433732313a206d696e7420746f20746865207a65726f2061646472657373600082015250565b6000612e69602083611f25565b9150612e7482612e33565b602082019050919050565b60006020820190508181036000830152612e9881612e5c565b9050919050565b7f4552433732313a20746f6b656e20616c7265616479206d696e74656400000000600082015250565b6000612ed5601c83611f25565b9150612ee082612e9f565b602082019050919050565b60006020820190508181036000830152612f0481612ec8565b9050919050565b6000612f1682611fd5565b9150612f2183611fd5565b9250827fffffffffffffffffffffffffffffffffffffffffffffffffffffffffffffffff03821115612f5657612f556129e6565b5b828201905092915050565b7f4552433732313a206f70657261746f7220717565727920666f72206e6f6e657860008201527f697374656e7420746f6b656e0000000000000000000000000000000000000000602082015250565b6000612fbd602c83611f25565b9150612fc882612f61565b604082019050919050565b60006020820190508181036000830152612fec81612fb0565b9050919050565b7f4552433732313a207472616e73666572206f6620746f6b656e2074686174206960008201527f73206e6f74206f776e0000000000000000000000000000000000000000000000602082015250565b600061304f602983611f25565b915061305a82612ff3565b604082019050919050565b6000602082019050818103600083015261307e81613042565b9050919050565b7f4552433732313a207472616e7366657220746f20746865207a65726f2061646460008201527f7265737300000000000000000000000000000000000000000000000000000000602082015250565b60006130e1602483611f25565b91506130ec82613085565b604082019050919050565b60006020820190508181036000830152613110816130d4565b9050919050565b600061312282611fd5565b915061312d83611fd5565b9250828210156131405761313f6129e6565b5b828203905092915050565b7f4552433732313a20617070726f766520746f2063616c6c657200000000000000600082015250565b6000613181601983611f25565b915061318c8261314b565b602082019050919050565b600060208201905081810360008301526131b081613174565b9050919050565b7f4552433732313a207472616e7366657220746f206e6f6e20455243373231526560008201527f63656976657220696d706c656d656e7465720000000000000000000000000000602082015250565b6000613213603283611f25565b915061321e826131b7565b604082019050919050565b6000602082019050818103600083015261324281613206565b9050919050565b7f4e487b7100000000000000000000000000000000000000000000000000000000600052601260045260246000fd5b600061328382611fd5565b915061328e83611fd5565b92508261329e5761329d613249565b5b828204905092915050565b60006132b482611fd5565b91506132bf83611fd5565b9250826132cf576132ce613249565b5b828206905092915050565b600081519050919050565b600082825260208201905092915050565b6000613301826132da565b61330b81856132e5565b935061331b818560208601611f36565b61332481611f69565b840191505092915050565b6000608082019050613344600083018761206a565b613351602083018661206a565b61335e6040830185612385565b818103606083015261337081846132f6565b905095945050505050565b60008151905061338a81611e8b565b92915050565b6000602082840312156133a6576133a5611e55565b5b60006133b48482850161337b565b9150509291505056fea2646970667358221220ac207ed1a302eb9b303fd358d803646f3499b3a25b27ef73498ffafa9cc9bd4564736f6c634300080a0033",
  "immutableReferences": {},
  "source": "pragma solidity 0.8.10;\r\n\r\nimport \"../node_modules/@openzeppelin/contracts/token/ERC721/ERC721.sol\";\r\nimport \"../node_modules/@openzeppelin/contracts/access/Ownable.sol\";\r\n\r\ncontract Token is ERC721, Ownable{\r\n\r\n\tstruct NBMon {\r\n\t\tuint8 attack; // 0-255\r\n\t\tuint8 health;\r\n\t\tuint8 stamina;\r\n\t\tstring tokenURI;\r\n\t}\r\n\r\n\tuint256 nextId = 0;\r\n\tmapping( uint256 => NBMon) private _tokenDetails;\r\n\r\n\tconstructor(string memory name, string memory symbol) ERC721(name, symbol){\r\n\r\n\t}\r\n\r\n\tfunction getAllTokensForUser(address user) public view returns(uint256[] memory){\r\n\t\tuint256 tokenCount = balanceOf(user);\r\n\t\tif(tokenCount == 0){\r\n\t\t\treturn new uint256[](0);\r\n\t\t}\r\n\t\telse{\r\n\t\t\tuint[] memory result = new uint256[](tokenCount);\r\n\t\t\tuint256 totalDogs = nextId;\r\n\t\t\tuint256 resultIndex = 0;\r\n\t\t\tuint256 i;\r\n\t\t\tfor(i = 0; i < totalDogs; i++){\r\n\t\t\t\tif(ownerOf(i) == user){\r\n\t\t\t\t\tresult[resultIndex] = i;\r\n\t\t\t\t\tresultIndex++;\r\n\t\t\t\t}\r\n\t\t\t}\r\n\t\t\treturn result;\r\n\t\t}\r\n\t}\r\n\r\n\tfunction getTokenDetails(uint256 tokenId) public view returns (NBMon memory){\r\n\t\treturn _tokenDetails[tokenId];\r\n\t}\r\n\r\n\r\n\tfunction mintExternal(uint8 attack, uint8 health, uint8 stamina, string memory tokenURI, uint256 price) public virtual payable {\r\n\t\trequire(\r\n\t\t\tmsg.value >= price,\r\n\t\t\t\"Ether sent with this transaction is not correct\"\r\n\t\t);\r\n\r\n\t\t_mint(msg.sender, nextId);\r\n\t\t_tokenDetails[nextId] = NBMon(attack, health, stamina, tokenURI);\r\n\t\tnextId++;\r\n\t}\r\n\r\n\r\n}",
  "sourcePath": "E:\\marketplace-test\\nbmon-mint\\nbmonmint\\contracts\\Token.sol",
  "compiler": {
    "name": "solc",
    "version": "0.8.10+commit.fc410830.Emscripten.clang"
  },
  "schemaVersion": "3.4.3",
  "updatedAt": "2021-12-05T22:25:35.246Z",
  "networkType": "ethereum",
  "devdoc": {
    "kind": "dev",
    "methods": {
      "approve(address,uint256)": {
        "details": "See {IERC721-approve}."
      },
      "balanceOf(address)": {
        "details": "See {IERC721-balanceOf}."
      },
      "getApproved(uint256)": {
        "details": "See {IERC721-getApproved}."
      },
      "isApprovedForAll(address,address)": {
        "details": "See {IERC721-isApprovedForAll}."
      },
      "name()": {
        "details": "See {IERC721Metadata-name}."
      },
      "owner()": {
        "details": "Returns the address of the current owner."
      },
      "ownerOf(uint256)": {
        "details": "See {IERC721-ownerOf}."
      },
      "renounceOwnership()": {
        "details": "Leaves the contract without owner. It will not be possible to call `onlyOwner` functions anymore. Can only be called by the current owner. NOTE: Renouncing ownership will leave the contract without an owner, thereby removing any functionality that is only available to the owner."
      },
      "safeTransferFrom(address,address,uint256)": {
        "details": "See {IERC721-safeTransferFrom}."
      },
      "safeTransferFrom(address,address,uint256,bytes)": {
        "details": "See {IERC721-safeTransferFrom}."
      },
      "setApprovalForAll(address,bool)": {
        "details": "See {IERC721-setApprovalForAll}."
      },
      "supportsInterface(bytes4)": {
        "details": "See {IERC165-supportsInterface}."
      },
      "symbol()": {
        "details": "See {IERC721Metadata-symbol}."
      },
      "tokenURI(uint256)": {
        "details": "See {IERC721Metadata-tokenURI}."
      },
      "transferFrom(address,address,uint256)": {
        "details": "See {IERC721-transferFrom}."
      },
      "transferOwnership(address)": {
        "details": "Transfers ownership of the contract to a new account (`newOwner`). Can only be called by the current owner."
      }
    },
    "version": 1
  },
  "userdoc": {
    "kind": "user",
    "methods": {},
    "version": 1
  }
}