{
  "contractName": "BEP721",
  "abi": [
    {
      "inputs": [
        {
          "internalType": "string",
          "name": "name_",
          "type": "string"
        },
        {
          "internalType": "string",
          "name": "symbol_",
          "type": "string"
        }
      ],
      "stateMutability": "nonpayable",
      "type": "constructor"
    },
    {
      "anonymous": false,
      "inputs": [
        {
          "indexed": true,
          "internalType": "address",
          "name": "owner",
          "type": "address"
        },
        {
          "indexed": true,
          "internalType": "address",
          "name": "approved",
          "type": "address"
        },
        {
          "indexed": true,
          "internalType": "uint256",
          "name": "tokenId",
          "type": "uint256"
        }
      ],
      "name": "Approval",
      "type": "event"
    },
    {
      "anonymous": false,
      "inputs": [
        {
          "indexed": true,
          "internalType": "address",
          "name": "owner",
          "type": "address"
        },
        {
          "indexed": true,
          "internalType": "address",
          "name": "operator",
          "type": "address"
        },
        {
          "indexed": false,
          "internalType": "bool",
          "name": "approved",
          "type": "bool"
        }
      ],
      "name": "ApprovalForAll",
      "type": "event"
    },
    {
      "anonymous": false,
      "inputs": [
        {
          "indexed": false,
          "internalType": "address",
          "name": "account",
          "type": "address"
        }
      ],
      "name": "Paused",
      "type": "event"
    },
    {
      "anonymous": false,
      "inputs": [
        {
          "indexed": true,
          "internalType": "address",
          "name": "from",
          "type": "address"
        },
        {
          "indexed": true,
          "internalType": "address",
          "name": "to",
          "type": "address"
        },
        {
          "indexed": true,
          "internalType": "uint256",
          "name": "tokenId",
          "type": "uint256"
        }
      ],
      "name": "Transfer",
      "type": "event"
    },
    {
      "anonymous": false,
      "inputs": [
        {
          "indexed": false,
          "internalType": "address",
          "name": "account",
          "type": "address"
        }
      ],
      "name": "Unpaused",
      "type": "event"
    },
    {
      "inputs": [],
      "name": "admin",
      "outputs": [
        {
          "internalType": "address",
          "name": "",
          "type": "address"
        }
      ],
      "stateMutability": "view",
      "type": "function"
    },
    {
      "inputs": [],
      "name": "burner",
      "outputs": [
        {
          "internalType": "address",
          "name": "",
          "type": "address"
        }
      ],
      "stateMutability": "view",
      "type": "function"
    },
    {
      "inputs": [],
      "name": "ceo",
      "outputs": [
        {
          "internalType": "address",
          "name": "",
          "type": "address"
        }
      ],
      "stateMutability": "view",
      "type": "function"
    },
    {
      "inputs": [],
      "name": "manager",
      "outputs": [
        {
          "internalType": "address",
          "name": "",
          "type": "address"
        }
      ],
      "stateMutability": "view",
      "type": "function"
    },
    {
      "inputs": [],
      "name": "minter",
      "outputs": [
        {
          "internalType": "address",
          "name": "",
          "type": "address"
        }
      ],
      "stateMutability": "view",
      "type": "function"
    },
    {
      "inputs": [
        {
          "internalType": "address",
          "name": "_newAdmin",
          "type": "address"
        }
      ],
      "name": "newAdmin",
      "outputs": [],
      "stateMutability": "nonpayable",
      "type": "function"
    },
    {
      "inputs": [
        {
          "internalType": "address",
          "name": "_newBurner",
          "type": "address"
        }
      ],
      "name": "newBurner",
      "outputs": [],
      "stateMutability": "nonpayable",
      "type": "function"
    },
    {
      "inputs": [
        {
          "internalType": "address",
          "name": "_newCEO",
          "type": "address"
        }
      ],
      "name": "newCEO",
      "outputs": [],
      "stateMutability": "nonpayable",
      "type": "function"
    },
    {
      "inputs": [
        {
          "internalType": "address",
          "name": "_newManager",
          "type": "address"
        }
      ],
      "name": "newManager",
      "outputs": [],
      "stateMutability": "nonpayable",
      "type": "function"
    },
    {
      "inputs": [
        {
          "internalType": "address",
          "name": "_newMinter",
          "type": "address"
        }
      ],
      "name": "newMinter",
      "outputs": [],
      "stateMutability": "nonpayable",
      "type": "function"
    },
    {
      "inputs": [],
      "name": "pause",
      "outputs": [],
      "stateMutability": "nonpayable",
      "type": "function"
    },
    {
      "inputs": [],
      "name": "paused",
      "outputs": [
        {
          "internalType": "bool",
          "name": "",
          "type": "bool"
        }
      ],
      "stateMutability": "view",
      "type": "function"
    },
    {
      "inputs": [],
      "name": "unpause",
      "outputs": [],
      "stateMutability": "nonpayable",
      "type": "function"
    },
    {
      "inputs": [
        {
          "internalType": "bytes4",
          "name": "interfaceId",
          "type": "bytes4"
        }
      ],
      "name": "supportsInterface",
      "outputs": [
        {
          "internalType": "bool",
          "name": "",
          "type": "bool"
        }
      ],
      "stateMutability": "view",
      "type": "function"
    },
    {
      "inputs": [
        {
          "internalType": "address",
          "name": "owner",
          "type": "address"
        }
      ],
      "name": "balanceOf",
      "outputs": [
        {
          "internalType": "uint256",
          "name": "",
          "type": "uint256"
        }
      ],
      "stateMutability": "view",
      "type": "function"
    },
    {
      "inputs": [
        {
          "internalType": "uint256",
          "name": "tokenId",
          "type": "uint256"
        }
      ],
      "name": "ownerOf",
      "outputs": [
        {
          "internalType": "address",
          "name": "",
          "type": "address"
        }
      ],
      "stateMutability": "view",
      "type": "function"
    },
    {
      "inputs": [],
      "name": "name",
      "outputs": [
        {
          "internalType": "string",
          "name": "",
          "type": "string"
        }
      ],
      "stateMutability": "view",
      "type": "function"
    },
    {
      "inputs": [],
      "name": "symbol",
      "outputs": [
        {
          "internalType": "string",
          "name": "",
          "type": "string"
        }
      ],
      "stateMutability": "view",
      "type": "function"
    },
    {
      "inputs": [
        {
          "internalType": "uint256",
          "name": "tokenId",
          "type": "uint256"
        }
      ],
      "name": "tokenURI",
      "outputs": [
        {
          "internalType": "string",
          "name": "",
          "type": "string"
        }
      ],
      "stateMutability": "view",
      "type": "function"
    },
    {
      "inputs": [
        {
          "internalType": "address",
          "name": "to",
          "type": "address"
        },
        {
          "internalType": "uint256",
          "name": "tokenId",
          "type": "uint256"
        }
      ],
      "name": "approve",
      "outputs": [],
      "stateMutability": "nonpayable",
      "type": "function"
    },
    {
      "inputs": [
        {
          "internalType": "uint256",
          "name": "tokenId",
          "type": "uint256"
        }
      ],
      "name": "getApproved",
      "outputs": [
        {
          "internalType": "address",
          "name": "",
          "type": "address"
        }
      ],
      "stateMutability": "view",
      "type": "function"
    },
    {
      "inputs": [
        {
          "internalType": "address",
          "name": "operator",
          "type": "address"
        },
        {
          "internalType": "bool",
          "name": "approved",
          "type": "bool"
        }
      ],
      "name": "setApprovalForAll",
      "outputs": [],
      "stateMutability": "nonpayable",
      "type": "function"
    },
    {
      "inputs": [
        {
          "internalType": "address",
          "name": "owner",
          "type": "address"
        },
        {
          "internalType": "address",
          "name": "operator",
          "type": "address"
        }
      ],
      "name": "isApprovedForAll",
      "outputs": [
        {
          "internalType": "bool",
          "name": "",
          "type": "bool"
        }
      ],
      "stateMutability": "view",
      "type": "function"
    },
    {
      "inputs": [
        {
          "internalType": "address",
          "name": "from",
          "type": "address"
        },
        {
          "internalType": "address",
          "name": "to",
          "type": "address"
        },
        {
          "internalType": "uint256",
          "name": "tokenId",
          "type": "uint256"
        }
      ],
      "name": "transferFrom",
      "outputs": [],
      "stateMutability": "nonpayable",
      "type": "function"
    },
    {
      "inputs": [
        {
          "internalType": "address",
          "name": "from",
          "type": "address"
        },
        {
          "internalType": "address",
          "name": "to",
          "type": "address"
        },
        {
          "internalType": "uint256",
          "name": "tokenId",
          "type": "uint256"
        }
      ],
      "name": "safeTransferFrom",
      "outputs": [],
      "stateMutability": "nonpayable",
      "type": "function"
    },
    {
      "inputs": [
        {
          "internalType": "address",
          "name": "from",
          "type": "address"
        },
        {
          "internalType": "address",
          "name": "to",
          "type": "address"
        },
        {
          "internalType": "uint256",
          "name": "tokenId",
          "type": "uint256"
        },
        {
          "internalType": "bytes",
          "name": "_data",
          "type": "bytes"
        }
      ],
      "name": "safeTransferFrom",
      "outputs": [],
      "stateMutability": "nonpayable",
      "type": "function"
    },
    {
      "inputs": [
        {
          "internalType": "address",
          "name": "from",
          "type": "address"
        },
        {
          "internalType": "address",
          "name": "to",
          "type": "address"
        },
        {
          "internalType": "uint256",
          "name": "tokenId",
          "type": "uint256"
        },
        {
          "internalType": "bytes",
          "name": "_data",
          "type": "bytes"
        }
      ],
      "name": "safeTransfer",
      "outputs": [],
      "stateMutability": "nonpayable",
      "type": "function"
    },
    {
      "inputs": [
        {
          "internalType": "address",
          "name": "from",
          "type": "address"
        },
        {
          "internalType": "address",
          "name": "to",
          "type": "address"
        },
        {
          "internalType": "uint256",
          "name": "tokenId",
          "type": "uint256"
        }
      ],
      "name": "transfer",
      "outputs": [],
      "stateMutability": "nonpayable",
      "type": "function"
    }
  ],
  "bytecode": "0x60806040523480156200001157600080fd5b506040516200362b3803806200362b833981810160405281019062000037919062000470565b620000476200021b60201b60201c565b6000806101000a81548173ffffffffffffffffffffffffffffffffffffffff021916908373ffffffffffffffffffffffffffffffffffffffff160217905550620000966200021b60201b60201c565b600160006101000a81548173ffffffffffffffffffffffffffffffffffffffff021916908373ffffffffffffffffffffffffffffffffffffffff160217905550620000e66200021b60201b60201c565b600260006101000a81548173ffffffffffffffffffffffffffffffffffffffff021916908373ffffffffffffffffffffffffffffffffffffffff160217905550620001366200021b60201b60201c565b600360006101000a81548173ffffffffffffffffffffffffffffffffffffffff021916908373ffffffffffffffffffffffffffffffffffffffff160217905550620001866200021b60201b60201c565b600460006101000a81548173ffffffffffffffffffffffffffffffffffffffff021916908373ffffffffffffffffffffffffffffffffffffffff1602179055506000600460146101000a81548160ff0219169083151502179055508160059080519060200190620001f992919062000223565b5080600690805190602001906200021292919062000223565b5050506200055a565b600033905090565b828054620002319062000524565b90600052602060002090601f016020900481019282620002555760008555620002a1565b82601f106200027057805160ff1916838001178555620002a1565b82800160010185558215620002a1579182015b82811115620002a057825182559160200191906001019062000283565b5b509050620002b09190620002b4565b5090565b5b80821115620002cf576000816000905550600101620002b5565b5090565b6000604051905090565b600080fd5b600080fd5b600080fd5b600080fd5b6000601f19601f8301169050919050565b7f4e487b7100000000000000000000000000000000000000000000000000000000600052604160045260246000fd5b6200033c82620002f1565b810181811067ffffffffffffffff821117156200035e576200035d62000302565b5b80604052505050565b600062000373620002d3565b905062000381828262000331565b919050565b600067ffffffffffffffff821115620003a457620003a362000302565b5b620003af82620002f1565b9050602081019050919050565b60005b83811015620003dc578082015181840152602081019050620003bf565b83811115620003ec576000848401525b50505050565b600062000409620004038462000386565b62000367565b905082815260208101848484011115620004285762000427620002ec565b5b62000435848285620003bc565b509392505050565b600082601f830112620004555762000454620002e7565b5b815162000467848260208601620003f2565b91505092915050565b600080604083850312156200048a5762000489620002dd565b5b600083015167ffffffffffffffff811115620004ab57620004aa620002e2565b5b620004b9858286016200043d565b925050602083015167ffffffffffffffff811115620004dd57620004dc620002e2565b5b620004eb858286016200043d565b9150509250929050565b7f4e487b7100000000000000000000000000000000000000000000000000000000600052602260045260246000fd5b600060028204905060018216806200053d57607f821691505b60208210811415620005545762000553620004f5565b5b50919050565b6130c1806200056a6000396000f3fe608060405234801561001057600080fd5b50600436106101c45760003560e01c806376b82a91116100f9578063a9917dbe11610097578063c87b56dd11610071578063c87b56dd146104a3578063e985e9c5146104d3578063f840f72b14610503578063f851a4401461051f576101c4565b8063a9917dbe1461044f578063b88d4fde1461046b578063beabacc814610487576101c4565b8063908921fc116100d3578063908921fc146103db57806395d89b41146103f9578063a22cb46514610417578063a6ba31c114610433576101c4565b806376b82a91146103995780638456cb59146103b5578063906e9400146103bf576101c4565b80633f4ba83a11610166578063573419121161014057806357341912146102ff5780635c975abb1461031b5780636352211e1461033957806370a0823114610369576101c4565b80633f4ba83a146102bb57806342842e0e146102c5578063481c6a75146102e1576101c4565b8063081812fc116101a2578063081812fc14610235578063095ea7b31461026557806323b872dd1461028157806327810b6e1461029d576101c4565b806301ffc9a7146101c957806306fdde03146101f95780630754617214610217575b600080fd5b6101e360048036038101906101de9190612044565b61053d565b6040516101f0919061208c565b60405180910390f35b61020161061f565b60405161020e9190612140565b60405180910390f35b61021f6106b1565b60405161022c91906121a3565b60405180910390f35b61024f600480360381019061024a91906121f4565b6106d7565b60405161025c91906121a3565b60405180910390f35b61027f600480360381019061027a919061224d565b61075c565b005b61029b6004803603810190610296919061228d565b6108bc565b005b6102a5610964565b6040516102b291906121a3565b60405180910390f35b6102c361098a565b005b6102df60048036038101906102da919061228d565b610a8b565b005b6102e9610af3565b6040516102f691906121a3565b60405180910390f35b610319600480360381019061031491906122e0565b610b19565b005b610323610c55565b604051610330919061208c565b60405180910390f35b610353600480360381019061034e91906121f4565b610c6c565b60405161036091906121a3565b60405180910390f35b610383600480360381019061037e91906122e0565b610d1e565b604051610390919061231c565b60405180910390f35b6103b360048036038101906103ae919061246c565b610dd6565b005b6103bd610e32565b005b6103d960048036038101906103d491906122e0565b610f34565b005b6103e3611070565b6040516103f091906121a3565b60405180910390f35b610401611096565b60405161040e9190612140565b60405180910390f35b610431600480360381019061042c919061251b565b611128565b005b61044d600480360381019061044891906122e0565b6112f1565b005b610469600480360381019061046491906122e0565b6113cd565b005b6104856004803603810190610480919061246c565b6114aa565b005b6104a1600480360381019061049c919061228d565b611554565b005b6104bd60048036038101906104b891906121f4565b6117b0565b6040516104ca9190612140565b60405180910390f35b6104ed60048036038101906104e8919061255b565b611857565b6040516104fa919061208c565b60405180910390f35b61051d600480360381019061051891906122e0565b6118eb565b005b610527611a27565b60405161053491906121a3565b60405180910390f35b60007f80ac58cd000000000000000000000000000000000000000000000000000000007bffffffffffffffffffffffffffffffffffffffffffffffffffffffff1916827bffffffffffffffffffffffffffffffffffffffffffffffffffffffff1916148061060857507f5b5e139f000000000000000000000000000000000000000000000000000000007bffffffffffffffffffffffffffffffffffffffffffffffffffffffff1916827bffffffffffffffffffffffffffffffffffffffffffffffffffffffff1916145b80610618575061061782611a4b565b5b9050919050565b60606005805461062e906125ca565b80601f016020809104026020016040519081016040528092919081815260200182805461065a906125ca565b80156106a75780601f1061067c576101008083540402835291602001916106a7565b820191906000526020600020905b81548152906001019060200180831161068a57829003601f168201915b5050505050905090565b600160009054906101000a900473ffffffffffffffffffffffffffffffffffffffff1681565b60006106e282611ab5565b610721576040517f08c379a00000000000000000000000000000000000000000000000000000000081526004016107189061266e565b60405180910390fd5b6009600083815260200190815260200160002060009054906101000a900473ffffffffffffffffffffffffffffffffffffffff169050919050565b610764610c55565b156107a4576040517f08c379a000000000000000000000000000000000000000000000000000000000815260040161079b906126da565b60405180910390fd5b60006107af82610c6c565b90508073ffffffffffffffffffffffffffffffffffffffff168373ffffffffffffffffffffffffffffffffffffffff161415610820576040517f08c379a00000000000000000000000000000000000000000000000000000000081526004016108179061276c565b60405180910390fd5b8073ffffffffffffffffffffffffffffffffffffffff1661083f611b21565b73ffffffffffffffffffffffffffffffffffffffff16148061086e575061086d81610868611b21565b611857565b5b6108ad576040517f08c379a00000000000000000000000000000000000000000000000000000000081526004016108a4906127fe565b60405180910390fd5b6108b78383611b29565b505050565b6108c4610c55565b15610904576040517f08c379a00000000000000000000000000000000000000000000000000000000081526004016108fb906126da565b60405180910390fd5b61091561090f611b21565b82611be2565b610954576040517f08c379a000000000000000000000000000000000000000000000000000000000815260040161094b90612890565b60405180910390fd5b61095f838383611554565b505050565b600260009054906101000a900473ffffffffffffffffffffffffffffffffffffffff1681565b610992610c55565b6109d1576040517f08c379a00000000000000000000000000000000000000000000000000000000081526004016109c8906128fc565b60405180910390fd5b60008054906101000a900473ffffffffffffffffffffffffffffffffffffffff1673ffffffffffffffffffffffffffffffffffffffff16610a10611b21565b73ffffffffffffffffffffffffffffffffffffffff1614610a3057600080fd5b6000600460146101000a81548160ff0219169083151502179055507f5db9ee0a495bf2e6ff9c91a7834c1ba4fdd244a5e8aa4e537bd38aeae4b073aa610a74611b21565b604051610a8191906121a3565b60405180910390a1565b610a93610c55565b15610ad3576040517f08c379a0000000000000000000000000000000000000000000000000000000008152600401610aca906126da565b60405180910390fd5b610aee838383604051806020016040528060008152506114aa565b505050565b600460009054906101000a900473ffffffffffffffffffffffffffffffffffffffff1681565b60008054906101000a900473ffffffffffffffffffffffffffffffffffffffff1673ffffffffffffffffffffffffffffffffffffffff16610b58611b21565b73ffffffffffffffffffffffffffffffffffffffff161480610bce5750600360009054906101000a900473ffffffffffffffffffffffffffffffffffffffff1673ffffffffffffffffffffffffffffffffffffffff16610bb6611b21565b73ffffffffffffffffffffffffffffffffffffffff16145b610bd757600080fd5b600073ffffffffffffffffffffffffffffffffffffffff168173ffffffffffffffffffffffffffffffffffffffff161415610c1157600080fd5b80600160006101000a81548173ffffffffffffffffffffffffffffffffffffffff021916908373ffffffffffffffffffffffffffffffffffffffff16021790555050565b6000600460149054906101000a900460ff16905090565b6000806007600084815260200190815260200160002060009054906101000a900473ffffffffffffffffffffffffffffffffffffffff169050600073ffffffffffffffffffffffffffffffffffffffff168173ffffffffffffffffffffffffffffffffffffffff161415610d15576040517f08c379a0000000000000000000000000000000000000000000000000000000008152600401610d0c9061298e565b60405180910390fd5b80915050919050565b60008073ffffffffffffffffffffffffffffffffffffffff168273ffffffffffffffffffffffffffffffffffffffff161415610d8f576040517f08c379a0000000000000000000000000000000000000000000000000000000008152600401610d8690612a20565b60405180910390fd5b600860008373ffffffffffffffffffffffffffffffffffffffff1673ffffffffffffffffffffffffffffffffffffffff168152602001908152602001600020549050919050565b610de1848484611554565b610ded84848484611cc0565b610e2c576040517f08c379a0000000000000000000000000000000000000000000000000000000008152600401610e2390612ab2565b60405180910390fd5b50505050565b610e3a610c55565b15610e7a576040517f08c379a0000000000000000000000000000000000000000000000000000000008152600401610e71906126da565b60405180910390fd5b60008054906101000a900473ffffffffffffffffffffffffffffffffffffffff1673ffffffffffffffffffffffffffffffffffffffff16610eb9611b21565b73ffffffffffffffffffffffffffffffffffffffff1614610ed957600080fd5b6001600460146101000a81548160ff0219169083151502179055507f62e78cea01bee320cd4e420270b5ea74000d11b0c9f74754ebdbfc544b05a258610f1d611b21565b604051610f2a91906121a3565b60405180910390a1565b60008054906101000a900473ffffffffffffffffffffffffffffffffffffffff1673ffffffffffffffffffffffffffffffffffffffff16610f73611b21565b73ffffffffffffffffffffffffffffffffffffffff161480610fe95750600360009054906101000a900473ffffffffffffffffffffffffffffffffffffffff1673ffffffffffffffffffffffffffffffffffffffff16610fd1611b21565b73ffffffffffffffffffffffffffffffffffffffff16145b610ff257600080fd5b600073ffffffffffffffffffffffffffffffffffffffff168173ffffffffffffffffffffffffffffffffffffffff16141561102c57600080fd5b80600460006101000a81548173ffffffffffffffffffffffffffffffffffffffff021916908373ffffffffffffffffffffffffffffffffffffffff16021790555050565b600360009054906101000a900473ffffffffffffffffffffffffffffffffffffffff1681565b6060600680546110a5906125ca565b80601f01602080910402602001604051908101604052809291908181526020018280546110d1906125ca565b801561111e5780601f106110f35761010080835404028352916020019161111e565b820191906000526020600020905b81548152906001019060200180831161110157829003601f168201915b5050505050905090565b611130610c55565b15611170576040517f08c379a0000000000000000000000000000000000000000000000000000000008152600401611167906126da565b60405180910390fd5b611178611b21565b73ffffffffffffffffffffffffffffffffffffffff168273ffffffffffffffffffffffffffffffffffffffff1614156111e6576040517f08c379a00000000000000000000000000000000000000000000000000000000081526004016111dd90612b1e565b60405180910390fd5b80600a60006111f3611b21565b73ffffffffffffffffffffffffffffffffffffffff1673ffffffffffffffffffffffffffffffffffffffff16815260200190815260200160002060008473ffffffffffffffffffffffffffffffffffffffff1673ffffffffffffffffffffffffffffffffffffffff16815260200190815260200160002060006101000a81548160ff0219169083151502179055508173ffffffffffffffffffffffffffffffffffffffff166112a0611b21565b73ffffffffffffffffffffffffffffffffffffffff167f17307eab39ab6107e8899845ad3d59bd9653f200f220920489ca2b5937696c31836040516112e5919061208c565b60405180910390a35050565b60008054906101000a900473ffffffffffffffffffffffffffffffffffffffff1673ffffffffffffffffffffffffffffffffffffffff16611330611b21565b73ffffffffffffffffffffffffffffffffffffffff161461135057600080fd5b600073ffffffffffffffffffffffffffffffffffffffff168173ffffffffffffffffffffffffffffffffffffffff16141561138a57600080fd5b806000806101000a81548173ffffffffffffffffffffffffffffffffffffffff021916908373ffffffffffffffffffffffffffffffffffffffff16021790555050565b60008054906101000a900473ffffffffffffffffffffffffffffffffffffffff1673ffffffffffffffffffffffffffffffffffffffff1661140c611b21565b73ffffffffffffffffffffffffffffffffffffffff161461142c57600080fd5b600073ffffffffffffffffffffffffffffffffffffffff168173ffffffffffffffffffffffffffffffffffffffff16141561146657600080fd5b80600360006101000a81548173ffffffffffffffffffffffffffffffffffffffff021916908373ffffffffffffffffffffffffffffffffffffffff16021790555050565b6114b2610c55565b156114f2576040517f08c379a00000000000000000000000000000000000000000000000000000000081526004016114e9906126da565b60405180910390fd5b6115036114fd611b21565b83611be2565b611542576040517f08c379a000000000000000000000000000000000000000000000000000000000815260040161153990612890565b60405180910390fd5b61154e84848484610dd6565b50505050565b8273ffffffffffffffffffffffffffffffffffffffff1661157482610c6c565b73ffffffffffffffffffffffffffffffffffffffff16146115ca576040517f08c379a00000000000000000000000000000000000000000000000000000000081526004016115c190612bb0565b60405180910390fd5b600073ffffffffffffffffffffffffffffffffffffffff168273ffffffffffffffffffffffffffffffffffffffff16141561163a576040517f08c379a000000000000000000000000000000000000000000000000000000000815260040161163190612c42565b60405180910390fd5b611645838383611e48565b611650600082611b29565b6001600860008573ffffffffffffffffffffffffffffffffffffffff1673ffffffffffffffffffffffffffffffffffffffff16815260200190815260200160002060008282546116a09190612c91565b925050819055506001600860008473ffffffffffffffffffffffffffffffffffffffff1673ffffffffffffffffffffffffffffffffffffffff16815260200190815260200160002060008282546116f79190612cc5565b92505081905550816007600083815260200190815260200160002060006101000a81548173ffffffffffffffffffffffffffffffffffffffff021916908373ffffffffffffffffffffffffffffffffffffffff160217905550808273ffffffffffffffffffffffffffffffffffffffff168473ffffffffffffffffffffffffffffffffffffffff167fddf252ad1be2c89b69c2b068fc378daa952ba7f163c4a11628f55a4df523b3ef60405160405180910390a4505050565b60606117bb82611ab5565b6117fa576040517f08c379a00000000000000000000000000000000000000000000000000000000081526004016117f190612d8d565b60405180910390fd5b6000611804611e4d565b90506000815111611824576040518060200160405280600081525061184f565b8061182e84611e64565b60405160200161183f929190612de9565b6040516020818303038152906040525b915050919050565b6000600a60008473ffffffffffffffffffffffffffffffffffffffff1673ffffffffffffffffffffffffffffffffffffffff16815260200190815260200160002060008373ffffffffffffffffffffffffffffffffffffffff1673ffffffffffffffffffffffffffffffffffffffff16815260200190815260200160002060009054906101000a900460ff16905092915050565b60008054906101000a900473ffffffffffffffffffffffffffffffffffffffff1673ffffffffffffffffffffffffffffffffffffffff1661192a611b21565b73ffffffffffffffffffffffffffffffffffffffff1614806119a05750600360009054906101000a900473ffffffffffffffffffffffffffffffffffffffff1673ffffffffffffffffffffffffffffffffffffffff16611988611b21565b73ffffffffffffffffffffffffffffffffffffffff16145b6119a957600080fd5b600073ffffffffffffffffffffffffffffffffffffffff168173ffffffffffffffffffffffffffffffffffffffff1614156119e357600080fd5b80600260006101000a81548173ffffffffffffffffffffffffffffffffffffffff021916908373ffffffffffffffffffffffffffffffffffffffff16021790555050565b60008054906101000a900473ffffffffffffffffffffffffffffffffffffffff1681565b60007f01ffc9a7000000000000000000000000000000000000000000000000000000007bffffffffffffffffffffffffffffffffffffffffffffffffffffffff1916827bffffffffffffffffffffffffffffffffffffffffffffffffffffffff1916149050919050565b60008073ffffffffffffffffffffffffffffffffffffffff166007600084815260200190815260200160002060009054906101000a900473ffffffffffffffffffffffffffffffffffffffff1673ffffffffffffffffffffffffffffffffffffffff1614159050919050565b600033905090565b816009600083815260200190815260200160002060006101000a81548173ffffffffffffffffffffffffffffffffffffffff021916908373ffffffffffffffffffffffffffffffffffffffff160217905550808273ffffffffffffffffffffffffffffffffffffffff16611b9c83610c6c565b73ffffffffffffffffffffffffffffffffffffffff167f8c5be1e5ebec7d5bd14f71427d1e84f3dd0314c0f7b2291e5b200ac8c7c3b92560405160405180910390a45050565b6000611bed82611ab5565b611c2c576040517f08c379a0000000000000000000000000000000000000000000000000000000008152600401611c2390612e7f565b60405180910390fd5b6000611c3783610c6c565b90508073ffffffffffffffffffffffffffffffffffffffff168473ffffffffffffffffffffffffffffffffffffffff161480611ca657508373ffffffffffffffffffffffffffffffffffffffff16611c8e846106d7565b73ffffffffffffffffffffffffffffffffffffffff16145b80611cb75750611cb68185611857565b5b91505092915050565b6000611ce18473ffffffffffffffffffffffffffffffffffffffff16611fc5565b15611e3b578373ffffffffffffffffffffffffffffffffffffffff166341982fc8611d0a611b21565b8786866040518563ffffffff1660e01b8152600401611d2c9493929190612ef4565b6020604051808303816000875af1925050508015611d6857506040513d601f19601f82011682018060405250810190611d659190612f55565b60015b611deb573d8060008114611d98576040519150601f19603f3d011682016040523d82523d6000602084013e611d9d565b606091505b50600081511415611de3576040517f08c379a0000000000000000000000000000000000000000000000000000000008152600401611dda90612ab2565b60405180910390fd5b805181602001fd5b6341982fc860e01b7bffffffffffffffffffffffffffffffffffffffffffffffffffffffff1916817bffffffffffffffffffffffffffffffffffffffffffffffffffffffff191614915050611e40565b600190505b949350505050565b505050565b606060405180602001604052806000815250905090565b60606000821415611eac576040518060400160405280600181526020017f30000000000000000000000000000000000000000000000000000000000000008152509050611fc0565b600082905060005b60008214611ede578080611ec790612f82565b915050600a82611ed79190612ffa565b9150611eb4565b60008167ffffffffffffffff811115611efa57611ef9612341565b5b6040519080825280601f01601f191660200182016040528015611f2c5781602001600182028036833780820191505090505b5090505b60008514611fb957600182611f459190612c91565b9150600a85611f54919061302b565b6030611f609190612cc5565b60f81b818381518110611f7657611f7561305c565b5b60200101907effffffffffffffffffffffffffffffffffffffffffffffffffffffffffffff1916908160001a905350600a85611fb29190612ffa565b9450611f30565b8093505050505b919050565b600080823b905060008111915050919050565b6000604051905090565b600080fd5b600080fd5b60007fffffffff0000000000000000000000000000000000000000000000000000000082169050919050565b61202181611fec565b811461202c57600080fd5b50565b60008135905061203e81612018565b92915050565b60006020828403121561205a57612059611fe2565b5b60006120688482850161202f565b91505092915050565b60008115159050919050565b61208681612071565b82525050565b60006020820190506120a1600083018461207d565b92915050565b600081519050919050565b600082825260208201905092915050565b60005b838110156120e15780820151818401526020810190506120c6565b838111156120f0576000848401525b50505050565b6000601f19601f8301169050919050565b6000612112826120a7565b61211c81856120b2565b935061212c8185602086016120c3565b612135816120f6565b840191505092915050565b6000602082019050818103600083015261215a8184612107565b905092915050565b600073ffffffffffffffffffffffffffffffffffffffff82169050919050565b600061218d82612162565b9050919050565b61219d81612182565b82525050565b60006020820190506121b86000830184612194565b92915050565b6000819050919050565b6121d1816121be565b81146121dc57600080fd5b50565b6000813590506121ee816121c8565b92915050565b60006020828403121561220a57612209611fe2565b5b6000612218848285016121df565b91505092915050565b61222a81612182565b811461223557600080fd5b50565b60008135905061224781612221565b92915050565b6000806040838503121561226457612263611fe2565b5b600061227285828601612238565b9250506020612283858286016121df565b9150509250929050565b6000806000606084860312156122a6576122a5611fe2565b5b60006122b486828701612238565b93505060206122c586828701612238565b92505060406122d6868287016121df565b9150509250925092565b6000602082840312156122f6576122f5611fe2565b5b600061230484828501612238565b91505092915050565b612316816121be565b82525050565b6000602082019050612331600083018461230d565b92915050565b600080fd5b600080fd5b7f4e487b7100000000000000000000000000000000000000000000000000000000600052604160045260246000fd5b612379826120f6565b810181811067ffffffffffffffff8211171561239857612397612341565b5b80604052505050565b60006123ab611fd8565b90506123b78282612370565b919050565b600067ffffffffffffffff8211156123d7576123d6612341565b5b6123e0826120f6565b9050602081019050919050565b82818337600083830152505050565b600061240f61240a846123bc565b6123a1565b90508281526020810184848401111561242b5761242a61233c565b5b6124368482856123ed565b509392505050565b600082601f83011261245357612452612337565b5b81356124638482602086016123fc565b91505092915050565b6000806000806080858703121561248657612485611fe2565b5b600061249487828801612238565b94505060206124a587828801612238565b93505060406124b6878288016121df565b925050606085013567ffffffffffffffff8111156124d7576124d6611fe7565b5b6124e38782880161243e565b91505092959194509250565b6124f881612071565b811461250357600080fd5b50565b600081359050612515816124ef565b92915050565b6000806040838503121561253257612531611fe2565b5b600061254085828601612238565b925050602061255185828601612506565b9150509250929050565b6000806040838503121561257257612571611fe2565b5b600061258085828601612238565b925050602061259185828601612238565b9150509250929050565b7f4e487b7100000000000000000000000000000000000000000000000000000000600052602260045260246000fd5b600060028204905060018216806125e257607f821691505b602082108114156125f6576125f561259b565b5b50919050565b7f4245503732313a20617070726f76656420717565727920666f72206e6f6e657860008201527f697374656e7420746f6b656e0000000000000000000000000000000000000000602082015250565b6000612658602c836120b2565b9150612663826125fc565b604082019050919050565b600060208201905081810360008301526126878161264b565b9050919050565b7f5061757361626c653a2070617573656400000000000000000000000000000000600082015250565b60006126c46010836120b2565b91506126cf8261268e565b602082019050919050565b600060208201905081810360008301526126f3816126b7565b9050919050565b7f4245503732313a20617070726f76616c20746f2063757272656e74206f776e6560008201527f7200000000000000000000000000000000000000000000000000000000000000602082015250565b60006127566021836120b2565b9150612761826126fa565b604082019050919050565b6000602082019050818103600083015261278581612749565b9050919050565b7f4245503732313a20617070726f76652063616c6c6572206973206e6f74206f7760008201527f6e6572206e6f7220617070726f76656420666f7220616c6c0000000000000000602082015250565b60006127e86038836120b2565b91506127f38261278c565b604082019050919050565b60006020820190508181036000830152612817816127db565b9050919050565b7f4245503732313a207472616e736665722063616c6c6572206973206e6f74206f60008201527f776e6572206e6f7220617070726f766564000000000000000000000000000000602082015250565b600061287a6031836120b2565b91506128858261281e565b604082019050919050565b600060208201905081810360008301526128a98161286d565b9050919050565b7f5061757361626c653a206e6f7420706175736564000000000000000000000000600082015250565b60006128e66014836120b2565b91506128f1826128b0565b602082019050919050565b60006020820190508181036000830152612915816128d9565b9050919050565b7f4245503732313a206f776e657220717565727920666f72206e6f6e657869737460008201527f656e7420746f6b656e0000000000000000000000000000000000000000000000602082015250565b60006129786029836120b2565b91506129838261291c565b604082019050919050565b600060208201905081810360008301526129a78161296b565b9050919050565b7f4245503732313a2062616c616e636520717565727920666f7220746865207a6560008201527f726f206164647265737300000000000000000000000000000000000000000000602082015250565b6000612a0a602a836120b2565b9150612a15826129ae565b604082019050919050565b60006020820190508181036000830152612a39816129fd565b9050919050565b7f4245503732313a207472616e7366657220746f206e6f6e20424550373231526560008201527f63656976657220696d706c656d656e7465720000000000000000000000000000602082015250565b6000612a9c6032836120b2565b9150612aa782612a40565b604082019050919050565b60006020820190508181036000830152612acb81612a8f565b9050919050565b7f4245503732313a20617070726f766520746f2063616c6c657200000000000000600082015250565b6000612b086019836120b2565b9150612b1382612ad2565b602082019050919050565b60006020820190508181036000830152612b3781612afb565b9050919050565b7f4245503732313a207472616e73666572206f6620746f6b656e2074686174206960008201527f73206e6f74206f776e0000000000000000000000000000000000000000000000602082015250565b6000612b9a6029836120b2565b9150612ba582612b3e565b604082019050919050565b60006020820190508181036000830152612bc981612b8d565b9050919050565b7f4245503732313a207472616e7366657220746f20746865207a65726f2061646460008201527f7265737300000000000000000000000000000000000000000000000000000000602082015250565b6000612c2c6024836120b2565b9150612c3782612bd0565b604082019050919050565b60006020820190508181036000830152612c5b81612c1f565b9050919050565b7f4e487b7100000000000000000000000000000000000000000000000000000000600052601160045260246000fd5b6000612c9c826121be565b9150612ca7836121be565b925082821015612cba57612cb9612c62565b5b828203905092915050565b6000612cd0826121be565b9150612cdb836121be565b9250827fffffffffffffffffffffffffffffffffffffffffffffffffffffffffffffffff03821115612d1057612d0f612c62565b5b828201905092915050565b7f4245503732314d657461646174613a2055524920717565727920666f72206e6f60008201527f6e6578697374656e7420746f6b656e0000000000000000000000000000000000602082015250565b6000612d77602f836120b2565b9150612d8282612d1b565b604082019050919050565b60006020820190508181036000830152612da681612d6a565b9050919050565b600081905092915050565b6000612dc3826120a7565b612dcd8185612dad565b9350612ddd8185602086016120c3565b80840191505092915050565b6000612df58285612db8565b9150612e018284612db8565b91508190509392505050565b7f4245503732313a206f70657261746f7220717565727920666f72206e6f6e657860008201527f697374656e7420746f6b656e0000000000000000000000000000000000000000602082015250565b6000612e69602c836120b2565b9150612e7482612e0d565b604082019050919050565b60006020820190508181036000830152612e9881612e5c565b9050919050565b600081519050919050565b600082825260208201905092915050565b6000612ec682612e9f565b612ed08185612eaa565b9350612ee08185602086016120c3565b612ee9816120f6565b840191505092915050565b6000608082019050612f096000830187612194565b612f166020830186612194565b612f23604083018561230d565b8181036060830152612f358184612ebb565b905095945050505050565b600081519050612f4f81612018565b92915050565b600060208284031215612f6b57612f6a611fe2565b5b6000612f7984828501612f40565b91505092915050565b6000612f8d826121be565b91507fffffffffffffffffffffffffffffffffffffffffffffffffffffffffffffffff821415612fc057612fbf612c62565b5b600182019050919050565b7f4e487b7100000000000000000000000000000000000000000000000000000000600052601260045260246000fd5b6000613005826121be565b9150613010836121be565b9250826130205761301f612fcb565b5b828204905092915050565b6000613036826121be565b9150613041836121be565b92508261305157613050612fcb565b5b828206905092915050565b7f4e487b7100000000000000000000000000000000000000000000000000000000600052603260045260246000fdfea2646970667358221220ac1ea19784ddba7eb841012640c144c9da0df2f92291df5c5a776b0e922e516464736f6c634300080a0033",
  "immutableReferences": {},
  "source": "//SPDX-License-Identifier: MIT\n\npragma solidity ^0.8.6;\n\nimport \"./IBEP721.sol\";\nimport \"./IBEP721Receiver.sol\";\nimport \"./IBEP721Metadata.sol\";\nimport \"../security/Address.sol\";\nimport \"../security/Context.sol\";\nimport \"../BEP165/BEP165.sol\";\nimport \"../security/Strings.sol\";\nimport \"../security/Pausable.sol\";\n\ncontract BEP721 is Context, BEP165, IBEP721, IBEP721Metadata, Pausable {\n    using Address for address;\n    using Strings for uint256;\n\n    // Token name\n    string private _name;\n\n    // Token symbol\n    string private _symbol;\n\n    // Mapping from token ID to owner address\n    mapping(uint256 => address) private _owners;\n\n    // Mapping owner address to token count\n    mapping(address => uint256) private _balances;\n\n    // Mapping from token ID to approved address\n    mapping(uint256 => address) private _tokenApprovals;\n\n    // Mapping from owner to operator approvals\n    mapping(address => mapping(address => bool)) private _operatorApprovals;\n\n    /**\n     * @dev Initializes the contract by setting a `name` and a `symbol` to the token collection.\n     */\n    constructor(string memory name_, string memory symbol_) {\n        _name = name_;\n        _symbol = symbol_;\n    }\n\n    /**\n     * @dev See {IBEP165-supportsInterface}.\n     */\n    function supportsInterface(bytes4 interfaceId) public view virtual override(BEP165, IBEP165) returns (bool) {\n        return\n            interfaceId == type(IBEP721).interfaceId ||\n            interfaceId == type(IBEP721Metadata).interfaceId ||\n            super.supportsInterface(interfaceId);\n    }\n\n    /**\n     * @dev See {IBEP721-balanceOf}.\n     */\n    function balanceOf(address owner) public view virtual override returns (uint256) {\n        require(owner != address(0), \"BEP721: balance query for the zero address\");\n        return _balances[owner];\n    }\n\n    /**\n     * @dev See {IBEP721-ownerOf}.\n     */\n    function ownerOf(uint256 tokenId) public view virtual override returns (address) {\n        address owner = _owners[tokenId];\n        require(owner != address(0), \"BEP721: owner query for nonexistent token\");\n        return owner;\n    }\n\n    /**\n     * @dev See {IBEP721Metadata-name}.\n     */\n    function name() public view virtual override returns (string memory) {\n        return _name;\n    }\n\n    /**\n     * @dev See {IBEP721Metadata-symbol}.\n     */\n    function symbol() public view virtual override returns (string memory) {\n        return _symbol;\n    }\n\n    /**\n     * @dev See {IBEP721Metadata-tokenURI}.\n     */\n    function tokenURI(uint256 tokenId) public view virtual override returns (string memory) {\n        require(_exists(tokenId), \"BEP721Metadata: URI query for nonexistent token\");\n\n        string memory baseURI = _baseURI();\n        return bytes(baseURI).length > 0 ? string(abi.encodePacked(baseURI, tokenId.toString())) : \"\";\n    }\n\n    /**\n     * @dev Base URI for computing {tokenURI}. If set, the resulting URI for each\n     * token will be the concatenation of the `baseURI` and the `tokenId`. Empty\n     * by default, can be overriden in child contracts.\n     */\n    function _baseURI() internal view virtual returns (string memory) {\n        return \"\";\n    }\n\n    /**\n     * @dev See {IBEP721-approve}.\n     */\n    function approve(address to, uint256 tokenId) public virtual override whenNotPaused {\n        address owner = BEP721.ownerOf(tokenId);\n        require(to != owner, \"BEP721: approval to current owner\");\n\n        require(\n            _msgSender() == owner || isApprovedForAll(owner, _msgSender()),\n            \"BEP721: approve caller is not owner nor approved for all\"\n        );\n        _approve(to, tokenId);\n    }\n\n    /**\n     * @dev See {IBEP721-getApproved}.\n     */\n    function getApproved(uint256 tokenId) public view virtual override returns (address) {\n        require(_exists(tokenId), \"BEP721: approved query for nonexistent token\");\n\n        return _tokenApprovals[tokenId];\n    }\n\n    /**\n     * @dev See {IBEP721-setApprovalForAll}.\n     */\n    function setApprovalForAll(address operator, bool approved) public virtual override whenNotPaused {\n        require(operator != _msgSender(), \"BEP721: approve to caller\");\n\n        _operatorApprovals[_msgSender()][operator] = approved;\n        emit ApprovalForAll(_msgSender(), operator, approved);\n    }\n\n    /**\n     * @dev See {IBEP721-isApprovedForAll}.\n     */\n    function isApprovedForAll(address owner, address operator) public view virtual override returns (bool) {\n        return _operatorApprovals[owner][operator];\n    }\n\n    /**\n     * @dev See {IBEP721-transferFrom}.\n     */\n    function transferFrom(\n        address from,\n        address to,\n        uint256 tokenId\n    ) public virtual override whenNotPaused {\n        //solhint-disable-next-line max-line-length\n        require(_isApprovedOrOwner(_msgSender(), tokenId), \"BEP721: transfer caller is not owner nor approved\");\n\n        transfer(from, to, tokenId);\n    }\n\n    /**\n     * @dev See {IBEP721-safeTransferFrom}.\n     */\n    function safeTransferFrom(\n        address from,\n        address to,\n        uint256 tokenId\n    ) public virtual override whenNotPaused {\n        safeTransferFrom(from, to, tokenId, \"\");\n    }\n\n    /**\n     * @dev See {IBEP721-safeTransferFrom}.\n     */\n    function safeTransferFrom(\n        address from,\n        address to,\n        uint256 tokenId,\n        bytes memory _data\n    ) public virtual override whenNotPaused {\n        require(_isApprovedOrOwner(_msgSender(), tokenId), \"BEP721: transfer caller is not owner nor approved\");\n        safeTransfer(from, to, tokenId, _data);\n    }\n\n    /**\n     * @dev Safely transfers `tokenId` token from `from` to `to`, checking first that contract recipients\n     * are aware of the BEP721 protocol to prevent tokens from being forever locked.\n     *\n     * `_data` is additional data, it has no specified format and it is sent in call to `to`.\n     *\n     * This internal function is equivalent to {safeTransferFrom}, and can be used to e.g.\n     * implement alternative mechanisms to perform token transfer, such as signature-based.\n     *\n     * Requirements:\n     *\n     * - `from` cannot be the zero address.\n     * - `to` cannot be the zero address.\n     * - `tokenId` token must exist and be owned by `from`.\n     * - If `to` refers to a smart contract, it must implement {IBEP721Receiver-onBEP721Received}, which is called upon a safe transfer.\n     *\n     * Emits a {Transfer} event.\n     */\n    function safeTransfer(\n        address from,\n        address to,\n        uint256 tokenId,\n        bytes memory _data\n    ) public virtual {\n        transfer(from, to, tokenId);\n        require(_checkOnBEP721Received(from, to, tokenId, _data), \"BEP721: transfer to non BEP721Receiver implementer\");\n    }\n\n    /**\n     * @dev Returns whether `tokenId` exists.\n     *\n     * Tokens can be managed by their owner or approved accounts via {approve} or {setApprovalForAll}.\n     *\n     * Tokens start existing when they are minted (`_mint`),\n     * and stop existing when they are burned (`_burn`).\n     */\n    function _exists(uint256 tokenId) internal view virtual returns (bool) {\n        return _owners[tokenId] != address(0);\n    }\n\n    /**\n     * @dev Returns whether `spender` is allowed to manage `tokenId`.\n     *\n     * Requirements:\n     *\n     * - `tokenId` must exist.\n     */\n    function _isApprovedOrOwner(address spender, uint256 tokenId) internal view virtual returns (bool) {\n        require(_exists(tokenId), \"BEP721: operator query for nonexistent token\");\n        address owner = BEP721.ownerOf(tokenId);\n        return (spender == owner || getApproved(tokenId) == spender || isApprovedForAll(owner, spender));\n    }\n\n    /**\n     * @dev Safely mints `tokenId` and transfers it to `to`.\n     *\n     * Requirements:\n     *\n     * - `tokenId` must not exist.\n     * - If `to` refers to a smart contract, it must implement {IBEP721Receiver-onBEP721Received}, which is called upon a safe transfer.\n     *\n     * Emits a {Transfer} event.\n     */\n    function _safeMint(address to, uint256 tokenId) internal virtual {\n        _safeMint(to, tokenId, \"\");\n    }\n\n    /**\n     * @dev Same as {xref-BEP721-_safeMint-address-uint256-}[`_safeMint`], with an additional `data` parameter which is\n     * forwarded in {IBEP721Receiver-onBEP721Received} to contract recipients.\n     */\n    function _safeMint(\n        address to,\n        uint256 tokenId,\n        bytes memory _data\n    ) internal virtual {\n        _mint(to, tokenId);\n        require(\n            _checkOnBEP721Received(address(0), to, tokenId, _data),\n            \"BEP721: transfer to non BEP721Receiver implementer\"\n        );\n    }\n\n    /**\n     * @dev Mints `tokenId` and transfers it to `to`.\n     *\n     * WARNING: Usage of this method is discouraged, use {_safeMint} whenever possible\n     *\n     * Requirements:\n     *\n     * - `tokenId` must not exist.\n     * - `to` cannot be the zero address.\n     *\n     * Emits a {Transfer} event.\n     */\n    function _mint(address to, uint256 tokenId) internal virtual {\n        require(to != address(0), \"BEP721: mint to the zero address\");\n        require(!_exists(tokenId), \"BEP721: token already minted\");\n\n        _beforeTokenTransfer(address(0), to, tokenId);\n\n        _balances[to] += 1;\n        _owners[tokenId] = to;\n\n        emit Transfer(address(0), to, tokenId);\n    }\n\n    /**\n     * @dev Destroys `tokenId`.\n     * The approval is cleared when the token is burned.\n     *\n     * Requirements:\n     *\n     * - `tokenId` must exist.\n     *\n     * Emits a {Transfer} event.\n     */\n    function _burn(uint256 tokenId) internal virtual {\n        address owner = BEP721.ownerOf(tokenId);\n\n        _beforeTokenTransfer(owner, address(0), tokenId);\n\n        // Clear approvals\n        _approve(address(0), tokenId);\n\n        _balances[owner] -= 1;\n        delete _owners[tokenId];\n\n        emit Transfer(owner, address(0), tokenId);\n    }\n\n    /**\n     * @dev Transfers `tokenId` from `from` to `to`.\n     *  As opposed to {transferFrom}, this imposes no restrictions on msg.sender.\n     *\n     * Requirements:\n     *\n     * - `to` cannot be the zero address.\n     * - `tokenId` token must be owned by `from`.\n     *\n     * Emits a {Transfer} event.\n     */\n    function transfer(\n        address from,\n        address to,\n        uint256 tokenId\n    ) public virtual {\n        require(BEP721.ownerOf(tokenId) == from, \"BEP721: transfer of token that is not own\");\n        require(to != address(0), \"BEP721: transfer to the zero address\");\n\n        _beforeTokenTransfer(from, to, tokenId);\n\n        // Clear approvals from the previous owner\n        _approve(address(0), tokenId);\n\n        _balances[from] -= 1;\n        _balances[to] += 1;\n        _owners[tokenId] = to;\n\n        emit Transfer(from, to, tokenId);\n    }\n\n    /**\n     * @dev Approve `to` to operate on `tokenId`\n     *\n     * Emits a {Approval} event.\n     */\n    function _approve(address to, uint256 tokenId) internal virtual {\n        _tokenApprovals[tokenId] = to;\n        emit Approval(BEP721.ownerOf(tokenId), to, tokenId);\n    }\n\n    /**\n     * @dev Internal function to invoke {IBEP721Receiver-onBEP721Received} on a target address.\n     * The call is not executed if the target address is not a contract.\n     *\n     * @param from address representing the previous owner of the given token ID\n     * @param to target address that will receive the tokens\n     * @param tokenId uint256 ID of the token to be transferred\n     * @param _data bytes optional data to send along with the call\n     * @return bool whether the call correctly returned the expected magic value\n     */\n    function _checkOnBEP721Received(\n        address from,\n        address to,\n        uint256 tokenId,\n        bytes memory _data\n    ) private returns (bool) {\n        if (to.isContract()) {\n            try IBEP721Receiver(to).onBEP721Received(_msgSender(), from, tokenId, _data) returns (bytes4 retval) {\n                return retval == IBEP721Receiver.onBEP721Received.selector;\n            } catch (bytes memory reason) {\n                if (reason.length == 0) {\n                    revert(\"BEP721: transfer to non BEP721Receiver implementer\");\n                } else {\n                    assembly {\n                        revert(add(32, reason), mload(reason))\n                    }\n                }\n            }\n        } else {\n            return true;\n        }\n    }\n\n    /**\n     * @dev Hook that is called before any token transfer. This includes minting\n     * and burning.\n     *\n     * Calling conditions:\n     *\n     * - When `from` and `to` are both non-zero, ``from``'s `tokenId` will be\n     * transferred to `to`.\n     * - When `from` is zero, `tokenId` will be minted for `to`.\n     * - When `to` is zero, ``from``'s `tokenId` will be burned.\n     * - `from` and `to` are never both zero.\n     *\n     * To learn more about hooks, head to xref:ROOT:extending-contracts.adoc#using-hooks[Using Hooks].\n     */\n    function _beforeTokenTransfer(\n        address from,\n        address to,\n        uint256 tokenId\n    ) internal virtual {}\n}",
  "sourcePath": "/Users/igormoscalets/nbmoncompany/nbmondemo/contracts/BEP721/BEP721.sol",
  "compiler": {
    "name": "solc",
    "version": "0.8.10+commit.fc410830.Emscripten.clang"
  },
  "schemaVersion": "3.4.3",
  "updatedAt": "2022-01-02T17:22:47.837Z",
  "devdoc": {
    "kind": "dev",
    "methods": {
      "approve(address,uint256)": {
        "details": "See {IBEP721-approve}."
      },
      "balanceOf(address)": {
        "details": "See {IBEP721-balanceOf}."
      },
      "constructor": {
        "details": "Initializes the contract by setting a `name` and a `symbol` to the token collection."
      },
      "getApproved(uint256)": {
        "details": "See {IBEP721-getApproved}."
      },
      "isApprovedForAll(address,address)": {
        "details": "See {IBEP721-isApprovedForAll}."
      },
      "name()": {
        "details": "See {IBEP721Metadata-name}."
      },
      "ownerOf(uint256)": {
        "details": "See {IBEP721-ownerOf}."
      },
      "pause()": {
        "details": "Triggers stopped state. Only callable by admin. Requirements: - The contract must not be paused."
      },
      "paused()": {
        "details": "Returns true if the contract is paused, and false otherwise."
      },
      "safeTransfer(address,address,uint256,bytes)": {
        "details": "Safely transfers `tokenId` token from `from` to `to`, checking first that contract recipients are aware of the BEP721 protocol to prevent tokens from being forever locked. `_data` is additional data, it has no specified format and it is sent in call to `to`. This internal function is equivalent to {safeTransferFrom}, and can be used to e.g. implement alternative mechanisms to perform token transfer, such as signature-based. Requirements: - `from` cannot be the zero address. - `to` cannot be the zero address. - `tokenId` token must exist and be owned by `from`. - If `to` refers to a smart contract, it must implement {IBEP721Receiver-onBEP721Received}, which is called upon a safe transfer. Emits a {Transfer} event."
      },
      "safeTransferFrom(address,address,uint256)": {
        "details": "See {IBEP721-safeTransferFrom}."
      },
      "safeTransferFrom(address,address,uint256,bytes)": {
        "details": "See {IBEP721-safeTransferFrom}."
      },
      "setApprovalForAll(address,bool)": {
        "details": "See {IBEP721-setApprovalForAll}."
      },
      "supportsInterface(bytes4)": {
        "details": "See {IBEP165-supportsInterface}."
      },
      "symbol()": {
        "details": "See {IBEP721Metadata-symbol}."
      },
      "tokenURI(uint256)": {
        "details": "See {IBEP721Metadata-tokenURI}."
      },
      "transfer(address,address,uint256)": {
        "details": "Transfers `tokenId` from `from` to `to`.  As opposed to {transferFrom}, this imposes no restrictions on msg.sender. Requirements: - `to` cannot be the zero address. - `tokenId` token must be owned by `from`. Emits a {Transfer} event."
      },
      "transferFrom(address,address,uint256)": {
        "details": "See {IBEP721-transferFrom}."
      },
      "unpause()": {
        "details": "Returns to normal state. Only callable by admin. Requirements: - The contract must be paused."
      }
    },
    "version": 1
  },
  "userdoc": {
    "kind": "user",
    "methods": {},
    "version": 1
  }
}