{
  "contractName": "ConvertTo",
  "abi": [
    {
      "inputs": [
        {
          "internalType": "string",
          "name": "_str",
          "type": "string"
        }
      ],
      "name": "StringToInt",
      "outputs": [
        {
          "internalType": "uint256",
          "name": "",
          "type": "uint256"
        }
      ],
      "stateMutability": "pure",
      "type": "function"
    }
  ],
  "bytecode": "0x608060405234801561001057600080fd5b50610630806100206000396000f3fe608060405234801561001057600080fd5b506004361061002b5760003560e01c806361cb0df314610030575b600080fd5b61004a60048036038101906100459190610274565b610060565b60405161005791906102d6565b60405180910390f35b60008060009050600083905060005b815181101561010f5760008183516100879190610320565b9050600083838151811061009e5761009d610354565b5b602001015160f81c60f81b905060008160f81c9050600060308260ff166100c59190610320565b90506001846100d49190610320565b600a6100e091906104b6565b816100eb9190610501565b876100f6919061055b565b9650505050508080610107906105b1565b91505061006f565b508192505050919050565b6000604051905090565b600080fd5b600080fd5b600080fd5b600080fd5b6000601f19601f8301169050919050565b7f4e487b7100000000000000000000000000000000000000000000000000000000600052604160045260246000fd5b61018182610138565b810181811067ffffffffffffffff821117156101a05761019f610149565b5b80604052505050565b60006101b361011a565b90506101bf8282610178565b919050565b600067ffffffffffffffff8211156101df576101de610149565b5b6101e882610138565b9050602081019050919050565b82818337600083830152505050565b6000610217610212846101c4565b6101a9565b90508281526020810184848401111561023357610232610133565b5b61023e8482856101f5565b509392505050565b600082601f83011261025b5761025a61012e565b5b813561026b848260208601610204565b91505092915050565b60006020828403121561028a57610289610124565b5b600082013567ffffffffffffffff8111156102a8576102a7610129565b5b6102b484828501610246565b91505092915050565b6000819050919050565b6102d0816102bd565b82525050565b60006020820190506102eb60008301846102c7565b92915050565b7f4e487b7100000000000000000000000000000000000000000000000000000000600052601160045260246000fd5b600061032b826102bd565b9150610336836102bd565b925082821015610349576103486102f1565b5b828203905092915050565b7f4e487b7100000000000000000000000000000000000000000000000000000000600052603260045260246000fd5b60008160011c9050919050565b6000808291508390505b60018511156103da578086048111156103b6576103b56102f1565b5b60018516156103c55780820291505b80810290506103d385610383565b945061039a565b94509492505050565b6000826103f357600190506104af565b8161040157600090506104af565b8160018114610417576002811461042157610450565b60019150506104af565b60ff841115610433576104326102f1565b5b8360020a91508482111561044a576104496102f1565b5b506104af565b5060208310610133831016604e8410600b84101617156104855782820a9050838111156104805761047f6102f1565b5b6104af565b6104928484846001610390565b925090508184048111156104a9576104a86102f1565b5b81810290505b9392505050565b60006104c1826102bd565b91506104cc836102bd565b92506104f97fffffffffffffffffffffffffffffffffffffffffffffffffffffffffffffffff84846103e3565b905092915050565b600061050c826102bd565b9150610517836102bd565b9250817fffffffffffffffffffffffffffffffffffffffffffffffffffffffffffffffff04831182151516156105505761054f6102f1565b5b828202905092915050565b6000610566826102bd565b9150610571836102bd565b9250827fffffffffffffffffffffffffffffffffffffffffffffffffffffffffffffffff038211156105a6576105a56102f1565b5b828201905092915050565b60006105bc826102bd565b91507fffffffffffffffffffffffffffffffffffffffffffffffffffffffffffffffff8214156105ef576105ee6102f1565b5b60018201905091905056fea26469706673582212201d5dd598e4d9e1d21f02acae23422283643af90d4ea458fb42b362549875f05264736f6c634300080a0033",
  "immutableReferences": {},
  "source": "//SPDX-License-Identifier: MIT\n\npragma solidity ^0.8.6;\n\n/**\n * @dev Contract that implements conversion use cases.\n */\ncontract ConvertTo {\n    function StringToInt(string memory _str) public pure returns(uint256) {\n        uint val = 0;\n        bytes memory stringBytes = bytes(_str);\n        \n        for (uint i = 0; i < stringBytes.length; i++) {\n          uint exp = stringBytes.length - i;\n          bytes1 ival = stringBytes[i];\n          uint8 uval = uint8(ival);\n          uint jval = uval - uint(0x30);\n   \n          val +=  (uint(jval) * (10**(exp-1))); \n        }\n      return val;\n    }\n}",
  "sourcePath": "/Users/igormoscalets/nbmoncompany/nbmondemo/contracts/security/ConvertTo.sol",
  "compiler": {
    "name": "solc",
    "version": "0.8.10+commit.fc410830.Emscripten.clang"
  },
  "schemaVersion": "3.4.3",
  "updatedAt": "2022-01-02T17:22:48.482Z",
  "devdoc": {
    "details": "Contract that implements conversion use cases.",
    "kind": "dev",
    "methods": {},
    "version": 1
  },
  "userdoc": {
    "kind": "user",
    "methods": {},
    "version": 1
  }
}