{
  "contractName": "NBCoinCrowdsale",
  "abi": [
    {
      "inputs": [],
      "stateMutability": "nonpayable",
      "type": "constructor"
    },
    {
      "anonymous": false,
      "inputs": [
        {
          "indexed": false,
          "internalType": "address",
          "name": "account",
          "type": "address"
        }
      ],
      "name": "Paused",
      "type": "event"
    },
    {
      "anonymous": false,
      "inputs": [
        {
          "indexed": true,
          "internalType": "address",
          "name": "purchaser",
          "type": "address"
        },
        {
          "indexed": true,
          "internalType": "address",
          "name": "beneficiary",
          "type": "address"
        },
        {
          "indexed": false,
          "internalType": "uint256",
          "name": "value",
          "type": "uint256"
        },
        {
          "indexed": false,
          "internalType": "uint256",
          "name": "amount",
          "type": "uint256"
        }
      ],
      "name": "TokensPurchased",
      "type": "event"
    },
    {
      "anonymous": false,
      "inputs": [
        {
          "indexed": false,
          "internalType": "address",
          "name": "account",
          "type": "address"
        }
      ],
      "name": "Unpaused",
      "type": "event"
    },
    {
      "stateMutability": "payable",
      "type": "fallback"
    },
    {
      "inputs": [],
      "name": "admin",
      "outputs": [
        {
          "internalType": "address",
          "name": "",
          "type": "address"
        }
      ],
      "stateMutability": "view",
      "type": "function"
    },
    {
      "inputs": [],
      "name": "burner",
      "outputs": [
        {
          "internalType": "address",
          "name": "",
          "type": "address"
        }
      ],
      "stateMutability": "view",
      "type": "function"
    },
    {
      "inputs": [
        {
          "internalType": "address",
          "name": "beneficiary",
          "type": "address"
        }
      ],
      "name": "buyTokens",
      "outputs": [],
      "stateMutability": "payable",
      "type": "function"
    },
    {
      "inputs": [],
      "name": "ceo",
      "outputs": [
        {
          "internalType": "address",
          "name": "",
          "type": "address"
        }
      ],
      "stateMutability": "view",
      "type": "function"
    },
    {
      "inputs": [],
      "name": "getRate",
      "outputs": [
        {
          "internalType": "uint256",
          "name": "",
          "type": "uint256"
        }
      ],
      "stateMutability": "view",
      "type": "function"
    },
    {
      "inputs": [],
      "name": "getToken",
      "outputs": [
        {
          "internalType": "contract IBEP20",
          "name": "",
          "type": "address"
        }
      ],
      "stateMutability": "view",
      "type": "function"
    },
    {
      "inputs": [],
      "name": "getWallet",
      "outputs": [
        {
          "internalType": "address payable",
          "name": "",
          "type": "address"
        }
      ],
      "stateMutability": "view",
      "type": "function"
    },
    {
      "inputs": [],
      "name": "getWeiRaised",
      "outputs": [
        {
          "internalType": "uint256",
          "name": "",
          "type": "uint256"
        }
      ],
      "stateMutability": "view",
      "type": "function"
    },
    {
      "inputs": [],
      "name": "manager",
      "outputs": [
        {
          "internalType": "address",
          "name": "",
          "type": "address"
        }
      ],
      "stateMutability": "view",
      "type": "function"
    },
    {
      "inputs": [],
      "name": "minter",
      "outputs": [
        {
          "internalType": "address",
          "name": "",
          "type": "address"
        }
      ],
      "stateMutability": "view",
      "type": "function"
    },
    {
      "inputs": [
        {
          "internalType": "address",
          "name": "_newAdmin",
          "type": "address"
        }
      ],
      "name": "newAdmin",
      "outputs": [],
      "stateMutability": "nonpayable",
      "type": "function"
    },
    {
      "inputs": [
        {
          "internalType": "address",
          "name": "_newBurner",
          "type": "address"
        }
      ],
      "name": "newBurner",
      "outputs": [],
      "stateMutability": "nonpayable",
      "type": "function"
    },
    {
      "inputs": [
        {
          "internalType": "address",
          "name": "_newCEO",
          "type": "address"
        }
      ],
      "name": "newCEO",
      "outputs": [],
      "stateMutability": "nonpayable",
      "type": "function"
    },
    {
      "inputs": [
        {
          "internalType": "address",
          "name": "_newManager",
          "type": "address"
        }
      ],
      "name": "newManager",
      "outputs": [],
      "stateMutability": "nonpayable",
      "type": "function"
    },
    {
      "inputs": [
        {
          "internalType": "address",
          "name": "_newMinter",
          "type": "address"
        }
      ],
      "name": "newMinter",
      "outputs": [],
      "stateMutability": "nonpayable",
      "type": "function"
    },
    {
      "inputs": [],
      "name": "pause",
      "outputs": [],
      "stateMutability": "nonpayable",
      "type": "function"
    },
    {
      "inputs": [],
      "name": "paused",
      "outputs": [
        {
          "internalType": "bool",
          "name": "",
          "type": "bool"
        }
      ],
      "stateMutability": "view",
      "type": "function"
    },
    {
      "inputs": [],
      "name": "unpause",
      "outputs": [],
      "stateMutability": "nonpayable",
      "type": "function"
    }
  ],
  "bytecode": "0x60806040523480156200001157600080fd5b50610fa073213d2806b07fb2bfcd51fcbc7503755784c72f097380801bdc978efe99e01cba129579ab178bfe191b67016345785d8a0000671bc16d674ec800006001600081905550620000696200045e60201b60201c565b600160006101000a81548173ffffffffffffffffffffffffffffffffffffffff021916908373ffffffffffffffffffffffffffffffffffffffff160217905550620000b96200045e60201b60201c565b600260006101000a81548173ffffffffffffffffffffffffffffffffffffffff021916908373ffffffffffffffffffffffffffffffffffffffff160217905550620001096200045e60201b60201c565b600360006101000a81548173ffffffffffffffffffffffffffffffffffffffff021916908373ffffffffffffffffffffffffffffffffffffffff160217905550620001596200045e60201b60201c565b600460006101000a81548173ffffffffffffffffffffffffffffffffffffffff021916908373ffffffffffffffffffffffffffffffffffffffff160217905550620001a96200045e60201b60201c565b600560006101000a81548173ffffffffffffffffffffffffffffffffffffffff021916908373ffffffffffffffffffffffffffffffffffffffff1602179055506000600560146101000a81548160ff021916908315150217905550600085116200024a576040517f08c379a00000000000000000000000000000000000000000000000000000000081526004016200024190620004c7565b60405180910390fd5b600073ffffffffffffffffffffffffffffffffffffffff168473ffffffffffffffffffffffffffffffffffffffff161415620002bd576040517f08c379a0000000000000000000000000000000000000000000000000000000008152600401620002b4906200055f565b60405180910390fd5b600073ffffffffffffffffffffffffffffffffffffffff168373ffffffffffffffffffffffffffffffffffffffff16141562000330576040517f08c379a00000000000000000000000000000000000000000000000000000000081526004016200032790620005f7565b60405180910390fd5b6000821162000376576040517f08c379a00000000000000000000000000000000000000000000000000000000081526004016200036d9062000669565b60405180910390fd5b60008111620003bc576040517f08c379a0000000000000000000000000000000000000000000000000000000008152600401620003b390620006db565b60405180910390fd5b8460088190555083600760006101000a81548173ffffffffffffffffffffffffffffffffffffffff021916908373ffffffffffffffffffffffffffffffffffffffff16021790555082600660006101000a81548173ffffffffffffffffffffffffffffffffffffffff021916908373ffffffffffffffffffffffffffffffffffffffff16021790555081600a8190555080600b819055505050505050620006fd565b600033905090565b600082825260208201905092915050565b7f43726f776473616c653a20726174652069732030000000000000000000000000600082015250565b6000620004af60148362000466565b9150620004bc8262000477565b602082019050919050565b60006020820190508181036000830152620004e281620004a0565b9050919050565b7f43726f776473616c653a2077616c6c657420697320746865207a65726f20616460008201527f6472657373000000000000000000000000000000000000000000000000000000602082015250565b60006200054760258362000466565b91506200055482620004e9565b604082019050919050565b600060208201905081810360008301526200057a8162000538565b9050919050565b7f43726f776473616c653a20746f6b656e20697320746865207a65726f2061646460008201527f7265737300000000000000000000000000000000000000000000000000000000602082015250565b6000620005df60248362000466565b9150620005ec8262000581565b604082019050919050565b600060208201905081810360008301526200061281620005d0565b9050919050565b7f43726f776473616c653a206d696e507572636861736520697320300000000000600082015250565b600062000651601b8362000466565b91506200065e8262000619565b602082019050919050565b60006020820190508181036000830152620006848162000642565b9050919050565b7f43726f776473616c653a206d6178507572636861736520697320300000000000600082015250565b6000620006c3601b8362000466565b9150620006d0826200068b565b602082019050919050565b60006020820190508181036000830152620006f681620006b4565b9050919050565b611d4b806200070d6000396000f3fe60806040526004361061010d5760003560e01c8063679aefce11610095578063a6ba31c111610064578063a6ba31c114610323578063a9917dbe1461034c578063ec8ac4d814610375578063f840f72b14610391578063f851a440146103ba5761010e565b8063679aefce1461028d5780638456cb59146102b8578063906e9400146102cf578063908921fc146102f85761010e565b80633f4ba83a116100dc5780633f4ba83a146101cc57806340582f13146101e3578063481c6a751461020e57806357341912146102395780635c975abb146102625761010e565b80630754617214610120578063132996041461014b57806321df0da71461017657806327810b6e146101a15761010e565b5b61011e6101196103e5565b6103ed565b005b34801561012c57600080fd5b50610135610554565b6040516101429190611409565b60405180910390f35b34801561015757600080fd5b5061016061057a565b60405161016d9190611445565b60405180910390f35b34801561018257600080fd5b5061018b6105a4565b60405161019891906114bf565b60405180910390f35b3480156101ad57600080fd5b506101b66105ce565b6040516101c39190611409565b60405180910390f35b3480156101d857600080fd5b506101e16105f4565b005b3480156101ef57600080fd5b506101f86106f7565b60405161020591906114f3565b60405180910390f35b34801561021a57600080fd5b50610223610701565b6040516102309190611409565b60405180910390f35b34801561024557600080fd5b50610260600480360381019061025b919061153f565b610727565b005b34801561026e57600080fd5b50610277610865565b6040516102849190611587565b60405180910390f35b34801561029957600080fd5b506102a261087c565b6040516102af91906114f3565b60405180910390f35b3480156102c457600080fd5b506102cd610886565b005b3480156102db57600080fd5b506102f660048036038101906102f1919061153f565b61098a565b005b34801561030457600080fd5b5061030d610ac8565b60405161031a9190611409565b60405180910390f35b34801561032f57600080fd5b5061034a6004803603810190610345919061153f565b610aee565b005b34801561035857600080fd5b50610373600480360381019061036e919061153f565b610bcd565b005b61038f600480360381019061038a919061153f565b6103ed565b005b34801561039d57600080fd5b506103b860048036038101906103b3919061153f565b610cac565b005b3480156103c657600080fd5b506103cf610dea565b6040516103dc9190611409565b60405180910390f35b600033905090565b60026000541415610433576040517f08c379a000000000000000000000000000000000000000000000000000000000815260040161042a906115ff565b60405180910390fd5b6002600081905550610443610865565b15610483576040517f08c379a000000000000000000000000000000000000000000000000000000000815260040161047a9061166b565b60405180910390fd5b60003490506104928282610e10565b600061049d82610fec565b9050816009546104ad91906116ba565b6009819055506104bd8382611003565b8273ffffffffffffffffffffffffffffffffffffffff166104dc6103e5565b73ffffffffffffffffffffffffffffffffffffffff167f6faf93231a456e552dbc9961f58d9713ee4f2e69d15f1975b050ef0911053a7b8484604051610523929190611710565b60405180910390a36105358383611011565b61053d611015565b6105478383611080565b5050600160008190555050565b600260009054906101000a900473ffffffffffffffffffffffffffffffffffffffff1681565b6000600760009054906101000a900473ffffffffffffffffffffffffffffffffffffffff16905090565b6000600660009054906101000a900473ffffffffffffffffffffffffffffffffffffffff16905090565b600360009054906101000a900473ffffffffffffffffffffffffffffffffffffffff1681565b6105fc610865565b61063b576040517f08c379a000000000000000000000000000000000000000000000000000000000815260040161063290611785565b60405180910390fd5b600160009054906101000a900473ffffffffffffffffffffffffffffffffffffffff1673ffffffffffffffffffffffffffffffffffffffff1661067c6103e5565b73ffffffffffffffffffffffffffffffffffffffff161461069c57600080fd5b6000600560146101000a81548160ff0219169083151502179055507f5db9ee0a495bf2e6ff9c91a7834c1ba4fdd244a5e8aa4e537bd38aeae4b073aa6106e06103e5565b6040516106ed9190611409565b60405180910390a1565b6000600954905090565b600560009054906101000a900473ffffffffffffffffffffffffffffffffffffffff1681565b600160009054906101000a900473ffffffffffffffffffffffffffffffffffffffff1673ffffffffffffffffffffffffffffffffffffffff166107686103e5565b73ffffffffffffffffffffffffffffffffffffffff1614806107de5750600460009054906101000a900473ffffffffffffffffffffffffffffffffffffffff1673ffffffffffffffffffffffffffffffffffffffff166107c66103e5565b73ffffffffffffffffffffffffffffffffffffffff16145b6107e757600080fd5b600073ffffffffffffffffffffffffffffffffffffffff168173ffffffffffffffffffffffffffffffffffffffff16141561082157600080fd5b80600260006101000a81548173ffffffffffffffffffffffffffffffffffffffff021916908373ffffffffffffffffffffffffffffffffffffffff16021790555050565b6000600560149054906101000a900460ff16905090565b6000600854905090565b61088e610865565b156108ce576040517f08c379a00000000000000000000000000000000000000000000000000000000081526004016108c59061166b565b60405180910390fd5b600160009054906101000a900473ffffffffffffffffffffffffffffffffffffffff1673ffffffffffffffffffffffffffffffffffffffff1661090f6103e5565b73ffffffffffffffffffffffffffffffffffffffff161461092f57600080fd5b6001600560146101000a81548160ff0219169083151502179055507f62e78cea01bee320cd4e420270b5ea74000d11b0c9f74754ebdbfc544b05a2586109736103e5565b6040516109809190611409565b60405180910390a1565b600160009054906101000a900473ffffffffffffffffffffffffffffffffffffffff1673ffffffffffffffffffffffffffffffffffffffff166109cb6103e5565b73ffffffffffffffffffffffffffffffffffffffff161480610a415750600460009054906101000a900473ffffffffffffffffffffffffffffffffffffffff1673ffffffffffffffffffffffffffffffffffffffff16610a296103e5565b73ffffffffffffffffffffffffffffffffffffffff16145b610a4a57600080fd5b600073ffffffffffffffffffffffffffffffffffffffff168173ffffffffffffffffffffffffffffffffffffffff161415610a8457600080fd5b80600560006101000a81548173ffffffffffffffffffffffffffffffffffffffff021916908373ffffffffffffffffffffffffffffffffffffffff16021790555050565b600460009054906101000a900473ffffffffffffffffffffffffffffffffffffffff1681565b600160009054906101000a900473ffffffffffffffffffffffffffffffffffffffff1673ffffffffffffffffffffffffffffffffffffffff16610b2f6103e5565b73ffffffffffffffffffffffffffffffffffffffff1614610b4f57600080fd5b600073ffffffffffffffffffffffffffffffffffffffff168173ffffffffffffffffffffffffffffffffffffffff161415610b8957600080fd5b80600160006101000a81548173ffffffffffffffffffffffffffffffffffffffff021916908373ffffffffffffffffffffffffffffffffffffffff16021790555050565b600160009054906101000a900473ffffffffffffffffffffffffffffffffffffffff1673ffffffffffffffffffffffffffffffffffffffff16610c0e6103e5565b73ffffffffffffffffffffffffffffffffffffffff1614610c2e57600080fd5b600073ffffffffffffffffffffffffffffffffffffffff168173ffffffffffffffffffffffffffffffffffffffff161415610c6857600080fd5b80600460006101000a81548173ffffffffffffffffffffffffffffffffffffffff021916908373ffffffffffffffffffffffffffffffffffffffff16021790555050565b600160009054906101000a900473ffffffffffffffffffffffffffffffffffffffff1673ffffffffffffffffffffffffffffffffffffffff16610ced6103e5565b73ffffffffffffffffffffffffffffffffffffffff161480610d635750600460009054906101000a900473ffffffffffffffffffffffffffffffffffffffff1673ffffffffffffffffffffffffffffffffffffffff16610d4b6103e5565b73ffffffffffffffffffffffffffffffffffffffff16145b610d6c57600080fd5b600073ffffffffffffffffffffffffffffffffffffffff168173ffffffffffffffffffffffffffffffffffffffff161415610da657600080fd5b80600360006101000a81548173ffffffffffffffffffffffffffffffffffffffff021916908373ffffffffffffffffffffffffffffffffffffffff16021790555050565b600160009054906101000a900473ffffffffffffffffffffffffffffffffffffffff1681565b600073ffffffffffffffffffffffffffffffffffffffff168273ffffffffffffffffffffffffffffffffffffffff161415610e80576040517f08c379a0000000000000000000000000000000000000000000000000000000008152600401610e7790611817565b60405180910390fd5b6000811415610ec4576040517f08c379a0000000000000000000000000000000000000000000000000000000008152600401610ebb90611883565b60405180910390fd5b6000600c60008473ffffffffffffffffffffffffffffffffffffffff1673ffffffffffffffffffffffffffffffffffffffff16815260200190815260200160002054905060008282610f1691906116ba565b9050600a54811015610f5d576040517f08c379a0000000000000000000000000000000000000000000000000000000008152600401610f54906118ef565b60405180910390fd5b600b54811115610fa2576040517f08c379a0000000000000000000000000000000000000000000000000000000008152600401610f9990611981565b60405180910390fd5b80600c60008673ffffffffffffffffffffffffffffffffffffffff1673ffffffffffffffffffffffffffffffffffffffff1681526020019081526020016000208190555050505050565b600060085482610ffc91906119a1565b9050919050565b61100d8282611084565b5050565b5050565b600760009054906101000a900473ffffffffffffffffffffffffffffffffffffffff1673ffffffffffffffffffffffffffffffffffffffff166108fc349081150290604051600060405180830381858888f1935050505015801561107d573d6000803e3d6000fd5b50565b5050565b6110d18282600660009054906101000a900473ffffffffffffffffffffffffffffffffffffffff1673ffffffffffffffffffffffffffffffffffffffff166110d59092919063ffffffff16565b5050565b6111568363a9059cbb60e01b84846040516024016110f49291906119fb565b604051602081830303815290604052907bffffffffffffffffffffffffffffffffffffffffffffffffffffffff19166020820180517bffffffffffffffffffffffffffffffffffffffffffffffffffffffff838183161783525050505061115b565b505050565b60006111bd826040518060400160405280602081526020017f5361666542455032303a206c6f772d6c6576656c2063616c6c206661696c65648152508573ffffffffffffffffffffffffffffffffffffffff166112229092919063ffffffff16565b905060008151111561121d57808060200190518101906111dd9190611a50565b61121c576040517f08c379a000000000000000000000000000000000000000000000000000000000815260040161121390611aef565b60405180910390fd5b5b505050565b6060611231848460008561123a565b90509392505050565b60608247101561127f576040517f08c379a000000000000000000000000000000000000000000000000000000000815260040161127690611b81565b60405180910390fd5b6112888561134e565b6112c7576040517f08c379a00000000000000000000000000000000000000000000000000000000081526004016112be90611bed565b60405180910390fd5b6000808673ffffffffffffffffffffffffffffffffffffffff1685876040516112f09190611c87565b60006040518083038185875af1925050503d806000811461132d576040519150601f19603f3d011682016040523d82523d6000602084013e611332565b606091505b5091509150611342828286611361565b92505050949350505050565b600080823b905060008111915050919050565b60608315611371578290506113c1565b6000835111156113845782518084602001fd5b816040517f08c379a00000000000000000000000000000000000000000000000000000000081526004016113b89190611cf3565b60405180910390fd5b9392505050565b600073ffffffffffffffffffffffffffffffffffffffff82169050919050565b60006113f3826113c8565b9050919050565b611403816113e8565b82525050565b600060208201905061141e60008301846113fa565b92915050565b600061142f826113c8565b9050919050565b61143f81611424565b82525050565b600060208201905061145a6000830184611436565b92915050565b6000819050919050565b600061148561148061147b846113c8565b611460565b6113c8565b9050919050565b60006114978261146a565b9050919050565b60006114a98261148c565b9050919050565b6114b98161149e565b82525050565b60006020820190506114d460008301846114b0565b92915050565b6000819050919050565b6114ed816114da565b82525050565b600060208201905061150860008301846114e4565b92915050565b600080fd5b61151c816113e8565b811461152757600080fd5b50565b60008135905061153981611513565b92915050565b6000602082840312156115555761155461150e565b5b60006115638482850161152a565b91505092915050565b60008115159050919050565b6115818161156c565b82525050565b600060208201905061159c6000830184611578565b92915050565b600082825260208201905092915050565b7f5265656e7472616e637947756172643a207265656e7472616e742063616c6c00600082015250565b60006115e9601f836115a2565b91506115f4826115b3565b602082019050919050565b60006020820190508181036000830152611618816115dc565b9050919050565b7f5061757361626c653a2070617573656400000000000000000000000000000000600082015250565b60006116556010836115a2565b91506116608261161f565b602082019050919050565b6000602082019050818103600083015261168481611648565b9050919050565b7f4e487b7100000000000000000000000000000000000000000000000000000000600052601160045260246000fd5b60006116c5826114da565b91506116d0836114da565b9250827fffffffffffffffffffffffffffffffffffffffffffffffffffffffffffffffff038211156117055761170461168b565b5b828201905092915050565b600060408201905061172560008301856114e4565b61173260208301846114e4565b9392505050565b7f5061757361626c653a206e6f7420706175736564000000000000000000000000600082015250565b600061176f6014836115a2565b915061177a82611739565b602082019050919050565b6000602082019050818103600083015261179e81611762565b9050919050565b7f43726f776473616c653a2062656e656669636961727920697320746865207a6560008201527f726f206164647265737300000000000000000000000000000000000000000000602082015250565b6000611801602a836115a2565b915061180c826117a5565b604082019050919050565b60006020820190508181036000830152611830816117f4565b9050919050565b7f43726f776473616c653a20776569416d6f756e74206973203000000000000000600082015250565b600061186d6019836115a2565b915061187882611837565b602082019050919050565b6000602082019050818103600083015261189c81611860565b9050919050565b7f43726f776473616c653a2050757263686173652062656c6f77206c696d697400600082015250565b60006118d9601f836115a2565b91506118e4826118a3565b602082019050919050565b60006020820190508181036000830152611908816118cc565b9050919050565b7f43726f776473616c653a205075726368617365206578636565646564206c696d60008201527f6974000000000000000000000000000000000000000000000000000000000000602082015250565b600061196b6022836115a2565b91506119768261190f565b604082019050919050565b6000602082019050818103600083015261199a8161195e565b9050919050565b60006119ac826114da565b91506119b7836114da565b9250817fffffffffffffffffffffffffffffffffffffffffffffffffffffffffffffffff04831182151516156119f0576119ef61168b565b5b828202905092915050565b6000604082019050611a1060008301856113fa565b611a1d60208301846114e4565b9392505050565b611a2d8161156c565b8114611a3857600080fd5b50565b600081519050611a4a81611a24565b92915050565b600060208284031215611a6657611a6561150e565b5b6000611a7484828501611a3b565b91505092915050565b7f5361666542455032303a204245503230206f7065726174696f6e20646964206e60008201527f6f74207375636365656400000000000000000000000000000000000000000000602082015250565b6000611ad9602a836115a2565b9150611ae482611a7d565b604082019050919050565b60006020820190508181036000830152611b0881611acc565b9050919050565b7f416464726573733a20696e73756666696369656e742062616c616e636520666f60008201527f722063616c6c0000000000000000000000000000000000000000000000000000602082015250565b6000611b6b6026836115a2565b9150611b7682611b0f565b604082019050919050565b60006020820190508181036000830152611b9a81611b5e565b9050919050565b7f416464726573733a2063616c6c20746f206e6f6e2d636f6e7472616374000000600082015250565b6000611bd7601d836115a2565b9150611be282611ba1565b602082019050919050565b60006020820190508181036000830152611c0681611bca565b9050919050565b600081519050919050565b600081905092915050565b60005b83811015611c41578082015181840152602081019050611c26565b83811115611c50576000848401525b50505050565b6000611c6182611c0d565b611c6b8185611c18565b9350611c7b818560208601611c23565b80840191505092915050565b6000611c938284611c56565b915081905092915050565b600081519050919050565b6000601f19601f8301169050919050565b6000611cc582611c9e565b611ccf81856115a2565b9350611cdf818560208601611c23565b611ce881611ca9565b840191505092915050565b60006020820190508181036000830152611d0d8184611cba565b90509291505056fea2646970667358221220151920491d059c7b3796ae08704d81d2109caf6e4ca8d8f2780dc4f0b6fa0fac64736f6c634300080a0033",
  "immutableReferences": {},
  "source": "//SPDX-License-Identifier: MIT\n\npragma solidity ^0.8.6;\n\nimport \"../crowdsale/Crowdsale.sol\";\n\ncontract NBCoinCrowdsale is Crowdsale {\n    constructor() Crowdsale(\n        //rate, which is 4000 NBCoins/BNB\n        4000, \n        //wallet to receive BNB after NBCoin purchase\n        payable(0x213D2806B07fB2BFCd51fCbC7503755784C72F09),\n        //NBCoin address \n        IBEP20(0x80801BDC978efE99E01CBa129579aB178BfE191b),\n        //Minimum purchase, 0.1 BNB\n        0.1 * 10 ** 18,\n        //Maximum purchase, 2 BNB\n        2 * 10 ** 18\n        ) {\n        }\n}\n\n",
  "sourcePath": "/Users/igormoscalets/nbmoncompany/nbmondemo/contracts/implementation/NBCoinCrowdsale.sol",
  "compiler": {
    "name": "solc",
    "version": "0.8.10+commit.fc410830.Emscripten.clang"
  },
  "schemaVersion": "3.4.3",
  "updatedAt": "2022-01-02T17:22:48.097Z",
  "devdoc": {
    "kind": "dev",
    "methods": {
      "buyTokens(address)": {
        "details": "low level token purchase ***DO NOT OVERRIDE*** This function has a non-reentrancy guard, so it shouldn't be called by another `nonReentrant` function.",
        "params": {
          "beneficiary": "Recipient of the token purchase"
        }
      },
      "getRate()": {
        "returns": {
          "_0": "the number of token units a buyer gets per wei."
        }
      },
      "getToken()": {
        "returns": {
          "_0": "the token being sold."
        }
      },
      "getWallet()": {
        "returns": {
          "_0": "the address where funds are collected."
        }
      },
      "getWeiRaised()": {
        "returns": {
          "_0": "the amount of wei raised."
        }
      },
      "pause()": {
        "details": "Triggers stopped state. Only callable by admin. Requirements: - The contract must not be paused."
      },
      "paused()": {
        "details": "Returns true if the contract is paused, and false otherwise."
      },
      "unpause()": {
        "details": "Returns to normal state. Only callable by admin. Requirements: - The contract must be paused."
      }
    },
    "version": 1
  },
  "userdoc": {
    "events": {
      "TokensPurchased(address,address,uint256,uint256)": {
        "notice": "Event for token purchase logging"
      }
    },
    "kind": "user",
    "methods": {},
    "version": 1
  }
}