{
  "contractName": "NBCoin",
  "abi": [
    {
      "inputs": [],
      "stateMutability": "nonpayable",
      "type": "constructor"
    },
    {
      "anonymous": false,
      "inputs": [
        {
          "indexed": true,
          "internalType": "address",
          "name": "owner",
          "type": "address"
        },
        {
          "indexed": true,
          "internalType": "address",
          "name": "spender",
          "type": "address"
        },
        {
          "indexed": false,
          "internalType": "uint256",
          "name": "value",
          "type": "uint256"
        }
      ],
      "name": "Approval",
      "type": "event"
    },
    {
      "anonymous": false,
      "inputs": [
        {
          "indexed": true,
          "internalType": "address",
          "name": "_owner",
          "type": "address"
        },
        {
          "indexed": true,
          "internalType": "address",
          "name": "_spender",
          "type": "address"
        },
        {
          "indexed": false,
          "internalType": "uint256",
          "name": "_oldValue",
          "type": "uint256"
        },
        {
          "indexed": false,
          "internalType": "uint256",
          "name": "_value",
          "type": "uint256"
        }
      ],
      "name": "Approved",
      "type": "event"
    },
    {
      "anonymous": false,
      "inputs": [
        {
          "indexed": true,
          "internalType": "address",
          "name": "by",
          "type": "address"
        },
        {
          "indexed": true,
          "internalType": "address",
          "name": "from",
          "type": "address"
        },
        {
          "indexed": false,
          "internalType": "uint256",
          "name": "value",
          "type": "uint256"
        }
      ],
      "name": "Burnt",
      "type": "event"
    },
    {
      "anonymous": false,
      "inputs": [
        {
          "indexed": true,
          "internalType": "address",
          "name": "_of",
          "type": "address"
        },
        {
          "indexed": true,
          "internalType": "address",
          "name": "_from",
          "type": "address"
        },
        {
          "indexed": true,
          "internalType": "address",
          "name": "_to",
          "type": "address"
        }
      ],
      "name": "DelegateChanged",
      "type": "event"
    },
    {
      "anonymous": false,
      "inputs": [
        {
          "indexed": true,
          "internalType": "address",
          "name": "from",
          "type": "address"
        },
        {
          "indexed": true,
          "internalType": "address",
          "name": "to",
          "type": "address"
        },
        {
          "indexed": false,
          "internalType": "uint256",
          "name": "value",
          "type": "uint256"
        }
      ],
      "name": "Minted",
      "type": "event"
    },
    {
      "anonymous": false,
      "inputs": [
        {
          "indexed": false,
          "internalType": "address",
          "name": "account",
          "type": "address"
        }
      ],
      "name": "Paused",
      "type": "event"
    },
    {
      "anonymous": false,
      "inputs": [
        {
          "indexed": true,
          "internalType": "address",
          "name": "from",
          "type": "address"
        },
        {
          "indexed": true,
          "internalType": "address",
          "name": "to",
          "type": "address"
        },
        {
          "indexed": false,
          "internalType": "uint256",
          "name": "value",
          "type": "uint256"
        }
      ],
      "name": "Transfer",
      "type": "event"
    },
    {
      "anonymous": false,
      "inputs": [
        {
          "indexed": true,
          "internalType": "address",
          "name": "_by",
          "type": "address"
        },
        {
          "indexed": true,
          "internalType": "address",
          "name": "_from",
          "type": "address"
        },
        {
          "indexed": true,
          "internalType": "address",
          "name": "_to",
          "type": "address"
        },
        {
          "indexed": false,
          "internalType": "uint256",
          "name": "_value",
          "type": "uint256"
        }
      ],
      "name": "Transferred",
      "type": "event"
    },
    {
      "anonymous": false,
      "inputs": [
        {
          "indexed": false,
          "internalType": "address",
          "name": "account",
          "type": "address"
        }
      ],
      "name": "Unpaused",
      "type": "event"
    },
    {
      "anonymous": false,
      "inputs": [
        {
          "indexed": true,
          "internalType": "address",
          "name": "_of",
          "type": "address"
        },
        {
          "indexed": false,
          "internalType": "uint256",
          "name": "_fromVal",
          "type": "uint256"
        },
        {
          "indexed": false,
          "internalType": "uint256",
          "name": "_toVal",
          "type": "uint256"
        }
      ],
      "name": "VotingPowerChanged",
      "type": "event"
    },
    {
      "inputs": [],
      "name": "DELEGATION_TYPEHASH",
      "outputs": [
        {
          "internalType": "bytes32",
          "name": "",
          "type": "bytes32"
        }
      ],
      "stateMutability": "view",
      "type": "function"
    },
    {
      "inputs": [],
      "name": "DOMAIN_TYPEHASH",
      "outputs": [
        {
          "internalType": "bytes32",
          "name": "",
          "type": "bytes32"
        }
      ],
      "stateMutability": "view",
      "type": "function"
    },
    {
      "inputs": [],
      "name": "admin",
      "outputs": [
        {
          "internalType": "address",
          "name": "",
          "type": "address"
        }
      ],
      "stateMutability": "view",
      "type": "function"
    },
    {
      "inputs": [
        {
          "internalType": "address",
          "name": "_owner",
          "type": "address"
        },
        {
          "internalType": "address",
          "name": "spender",
          "type": "address"
        }
      ],
      "name": "allowance",
      "outputs": [
        {
          "internalType": "uint256",
          "name": "",
          "type": "uint256"
        }
      ],
      "stateMutability": "view",
      "type": "function"
    },
    {
      "inputs": [
        {
          "internalType": "address",
          "name": "spender",
          "type": "address"
        },
        {
          "internalType": "uint256",
          "name": "amount",
          "type": "uint256"
        }
      ],
      "name": "approve",
      "outputs": [
        {
          "internalType": "bool",
          "name": "",
          "type": "bool"
        }
      ],
      "stateMutability": "nonpayable",
      "type": "function"
    },
    {
      "inputs": [
        {
          "internalType": "address",
          "name": "account",
          "type": "address"
        }
      ],
      "name": "balanceOf",
      "outputs": [
        {
          "internalType": "uint256",
          "name": "",
          "type": "uint256"
        }
      ],
      "stateMutability": "view",
      "type": "function"
    },
    {
      "inputs": [],
      "name": "burner",
      "outputs": [
        {
          "internalType": "address",
          "name": "",
          "type": "address"
        }
      ],
      "stateMutability": "view",
      "type": "function"
    },
    {
      "inputs": [],
      "name": "ceo",
      "outputs": [
        {
          "internalType": "address",
          "name": "",
          "type": "address"
        }
      ],
      "stateMutability": "view",
      "type": "function"
    },
    {
      "inputs": [],
      "name": "decimals",
      "outputs": [
        {
          "internalType": "uint8",
          "name": "",
          "type": "uint8"
        }
      ],
      "stateMutability": "view",
      "type": "function"
    },
    {
      "inputs": [
        {
          "internalType": "address",
          "name": "spender",
          "type": "address"
        },
        {
          "internalType": "uint256",
          "name": "subtractedValue",
          "type": "uint256"
        }
      ],
      "name": "decreaseAllowance",
      "outputs": [
        {
          "internalType": "bool",
          "name": "",
          "type": "bool"
        }
      ],
      "stateMutability": "nonpayable",
      "type": "function"
    },
    {
      "inputs": [
        {
          "internalType": "address",
          "name": "spender",
          "type": "address"
        },
        {
          "internalType": "uint256",
          "name": "addedValue",
          "type": "uint256"
        }
      ],
      "name": "increaseAllowance",
      "outputs": [
        {
          "internalType": "bool",
          "name": "",
          "type": "bool"
        }
      ],
      "stateMutability": "nonpayable",
      "type": "function"
    },
    {
      "inputs": [],
      "name": "manager",
      "outputs": [
        {
          "internalType": "address",
          "name": "",
          "type": "address"
        }
      ],
      "stateMutability": "view",
      "type": "function"
    },
    {
      "inputs": [],
      "name": "minter",
      "outputs": [
        {
          "internalType": "address",
          "name": "",
          "type": "address"
        }
      ],
      "stateMutability": "view",
      "type": "function"
    },
    {
      "inputs": [],
      "name": "name",
      "outputs": [
        {
          "internalType": "string",
          "name": "",
          "type": "string"
        }
      ],
      "stateMutability": "view",
      "type": "function"
    },
    {
      "inputs": [
        {
          "internalType": "address",
          "name": "_newAdmin",
          "type": "address"
        }
      ],
      "name": "newAdmin",
      "outputs": [],
      "stateMutability": "nonpayable",
      "type": "function"
    },
    {
      "inputs": [
        {
          "internalType": "address",
          "name": "_newBurner",
          "type": "address"
        }
      ],
      "name": "newBurner",
      "outputs": [],
      "stateMutability": "nonpayable",
      "type": "function"
    },
    {
      "inputs": [
        {
          "internalType": "address",
          "name": "_newCEO",
          "type": "address"
        }
      ],
      "name": "newCEO",
      "outputs": [],
      "stateMutability": "nonpayable",
      "type": "function"
    },
    {
      "inputs": [
        {
          "internalType": "address",
          "name": "_newManager",
          "type": "address"
        }
      ],
      "name": "newManager",
      "outputs": [],
      "stateMutability": "nonpayable",
      "type": "function"
    },
    {
      "inputs": [
        {
          "internalType": "address",
          "name": "_newMinter",
          "type": "address"
        }
      ],
      "name": "newMinter",
      "outputs": [],
      "stateMutability": "nonpayable",
      "type": "function"
    },
    {
      "inputs": [
        {
          "internalType": "address",
          "name": "",
          "type": "address"
        }
      ],
      "name": "nonces",
      "outputs": [
        {
          "internalType": "uint256",
          "name": "",
          "type": "uint256"
        }
      ],
      "stateMutability": "view",
      "type": "function"
    },
    {
      "inputs": [],
      "name": "pause",
      "outputs": [],
      "stateMutability": "nonpayable",
      "type": "function"
    },
    {
      "inputs": [],
      "name": "paused",
      "outputs": [
        {
          "internalType": "bool",
          "name": "",
          "type": "bool"
        }
      ],
      "stateMutability": "view",
      "type": "function"
    },
    {
      "inputs": [],
      "name": "symbol",
      "outputs": [
        {
          "internalType": "string",
          "name": "",
          "type": "string"
        }
      ],
      "stateMutability": "view",
      "type": "function"
    },
    {
      "inputs": [],
      "name": "totalSupply",
      "outputs": [
        {
          "internalType": "uint256",
          "name": "",
          "type": "uint256"
        }
      ],
      "stateMutability": "view",
      "type": "function"
    },
    {
      "inputs": [
        {
          "internalType": "address",
          "name": "recipient",
          "type": "address"
        },
        {
          "internalType": "uint256",
          "name": "amount",
          "type": "uint256"
        }
      ],
      "name": "transfer",
      "outputs": [
        {
          "internalType": "bool",
          "name": "",
          "type": "bool"
        }
      ],
      "stateMutability": "nonpayable",
      "type": "function"
    },
    {
      "inputs": [
        {
          "internalType": "address",
          "name": "sender",
          "type": "address"
        },
        {
          "internalType": "address",
          "name": "recipient",
          "type": "address"
        },
        {
          "internalType": "uint256",
          "name": "amount",
          "type": "uint256"
        }
      ],
      "name": "transferFrom",
      "outputs": [
        {
          "internalType": "bool",
          "name": "",
          "type": "bool"
        }
      ],
      "stateMutability": "nonpayable",
      "type": "function"
    },
    {
      "inputs": [],
      "name": "unpause",
      "outputs": [],
      "stateMutability": "nonpayable",
      "type": "function"
    },
    {
      "inputs": [
        {
          "internalType": "address",
          "name": "",
          "type": "address"
        }
      ],
      "name": "votingDelegates",
      "outputs": [
        {
          "internalType": "address",
          "name": "",
          "type": "address"
        }
      ],
      "stateMutability": "view",
      "type": "function"
    },
    {
      "inputs": [
        {
          "internalType": "address",
          "name": "",
          "type": "address"
        },
        {
          "internalType": "uint256",
          "name": "",
          "type": "uint256"
        }
      ],
      "name": "votingPowerHistory",
      "outputs": [
        {
          "internalType": "uint64",
          "name": "blockNumber",
          "type": "uint64"
        },
        {
          "internalType": "uint192",
          "name": "votingPower",
          "type": "uint192"
        }
      ],
      "stateMutability": "view",
      "type": "function"
    },
    {
      "inputs": [
        {
          "internalType": "address",
          "name": "_of",
          "type": "address"
        }
      ],
      "name": "getVotingPower",
      "outputs": [
        {
          "internalType": "uint256",
          "name": "",
          "type": "uint256"
        }
      ],
      "stateMutability": "view",
      "type": "function"
    },
    {
      "inputs": [
        {
          "internalType": "address",
          "name": "_of",
          "type": "address"
        },
        {
          "internalType": "uint256",
          "name": "_blockNum",
          "type": "uint256"
        }
      ],
      "name": "getVotingPowerAt",
      "outputs": [
        {
          "internalType": "uint256",
          "name": "",
          "type": "uint256"
        }
      ],
      "stateMutability": "view",
      "type": "function"
    },
    {
      "inputs": [
        {
          "internalType": "address",
          "name": "_of",
          "type": "address"
        }
      ],
      "name": "getVotingPowerHistory",
      "outputs": [
        {
          "components": [
            {
              "internalType": "uint64",
              "name": "blockNumber",
              "type": "uint64"
            },
            {
              "internalType": "uint192",
              "name": "votingPower",
              "type": "uint192"
            }
          ],
          "internalType": "struct NBCoin.VotingPowerRecord[]",
          "name": "",
          "type": "tuple[]"
        }
      ],
      "stateMutability": "view",
      "type": "function"
    },
    {
      "inputs": [
        {
          "internalType": "address",
          "name": "_of",
          "type": "address"
        }
      ],
      "name": "getVotingPowerHistoryLength",
      "outputs": [
        {
          "internalType": "uint256",
          "name": "",
          "type": "uint256"
        }
      ],
      "stateMutability": "view",
      "type": "function"
    },
    {
      "inputs": [
        {
          "internalType": "address",
          "name": "_to",
          "type": "address"
        }
      ],
      "name": "delegate",
      "outputs": [],
      "stateMutability": "nonpayable",
      "type": "function"
    },
    {
      "inputs": [
        {
          "internalType": "address",
          "name": "_to",
          "type": "address"
        },
        {
          "internalType": "uint256",
          "name": "_nonce",
          "type": "uint256"
        },
        {
          "internalType": "uint256",
          "name": "_exp",
          "type": "uint256"
        },
        {
          "internalType": "uint8",
          "name": "v",
          "type": "uint8"
        },
        {
          "internalType": "bytes32",
          "name": "r",
          "type": "bytes32"
        },
        {
          "internalType": "bytes32",
          "name": "s",
          "type": "bytes32"
        }
      ],
      "name": "delegateWithSig",
      "outputs": [],
      "stateMutability": "nonpayable",
      "type": "function"
    },
    {
      "inputs": [
        {
          "internalType": "address",
          "name": "_to",
          "type": "address"
        },
        {
          "internalType": "uint256",
          "name": "_amount",
          "type": "uint256"
        }
      ],
      "name": "mint",
      "outputs": [
        {
          "internalType": "bool",
          "name": "",
          "type": "bool"
        }
      ],
      "stateMutability": "nonpayable",
      "type": "function"
    },
    {
      "inputs": [
        {
          "internalType": "address",
          "name": "_from",
          "type": "address"
        },
        {
          "internalType": "uint256",
          "name": "_amount",
          "type": "uint256"
        }
      ],
      "name": "burn",
      "outputs": [
        {
          "internalType": "bool",
          "name": "",
          "type": "bool"
        }
      ],
      "stateMutability": "nonpayable",
      "type": "function"
    }
  ],
  "bytecode": "0x60806040526a52b7d2dcc80cd2e4000000600b556a6b88921f0410abc2000000600c553480156200002f57600080fd5b506040518060400160405280600681526020017f4e42436f696e00000000000000000000000000000000000000000000000000008152506040518060400160405280600381526020017f4e42430000000000000000000000000000000000000000000000000000000000815250620000ac620002c060201b60201c565b6000806101000a81548173ffffffffffffffffffffffffffffffffffffffff021916908373ffffffffffffffffffffffffffffffffffffffff160217905550620000fb620002c060201b60201c565b600160006101000a81548173ffffffffffffffffffffffffffffffffffffffff021916908373ffffffffffffffffffffffffffffffffffffffff1602179055506200014b620002c060201b60201c565b600260006101000a81548173ffffffffffffffffffffffffffffffffffffffff021916908373ffffffffffffffffffffffffffffffffffffffff1602179055506200019b620002c060201b60201c565b600360006101000a81548173ffffffffffffffffffffffffffffffffffffffff021916908373ffffffffffffffffffffffffffffffffffffffff160217905550620001eb620002c060201b60201c565b600460006101000a81548173ffffffffffffffffffffffffffffffffffffffff021916908373ffffffffffffffffffffffffffffffffffffffff1602179055506000600460146101000a81548160ff02191690831515021790555081600890805190602001906200025e92919062000b95565b5080600990805190602001906200027792919062000b95565b506012600a60006101000a81548160ff021916908360ff1602179055505050620002b9620002aa620002c060201b60201c565b600b54620002c860201b60201c565b5062000f6c565b600033905090565b6000600160009054906101000a900473ffffffffffffffffffffffffffffffffffffffff1673ffffffffffffffffffffffffffffffffffffffff1662000313620002c060201b60201c565b73ffffffffffffffffffffffffffffffffffffffff16146200033457600080fd5b620003446200047a60201b60201c565b1562000387576040517f08c379a00000000000000000000000000000000000000000000000000000000081526004016200037e9062000ca6565b60405180910390fd5b600c54826200039b6200049160201b60201c565b620003a7919062000d01565b1115620003eb576040517f08c379a0000000000000000000000000000000000000000000000000000000008152600401620003e29062000dae565b60405180910390fd5b620003fd83836200049b60201b60201c565b620004706000600d60008673ffffffffffffffffffffffffffffffffffffffff1673ffffffffffffffffffffffffffffffffffffffff16815260200190815260200160002060009054906101000a900473ffffffffffffffffffffffffffffffffffffffff16846200071960201b60201c565b6001905092915050565b6000600460149054906101000a900460ff16905090565b6000600754905090565b600073ffffffffffffffffffffffffffffffffffffffff168273ffffffffffffffffffffffffffffffffffffffff1614156200050e576040517f08c379a0000000000000000000000000000000000000000000000000000000008152600401620005059062000e20565b60405180910390fd5b62000522600083836200084a60201b60201c565b806007600082825462000536919062000d01565b9250508190555080600560008473ffffffffffffffffffffffffffffffffffffffff1673ffffffffffffffffffffffffffffffffffffffff16815260200190815260200160002060008282546200058e919062000d01565b925050819055508173ffffffffffffffffffffffffffffffffffffffff16620005bc620002c060201b60201c565b73ffffffffffffffffffffffffffffffffffffffff167f9d228d69b5fdb8d273a2336f8fb8612d039631024ea9bf09c424a9503aa078f08360405162000603919062000e53565b60405180910390a38173ffffffffffffffffffffffffffffffffffffffff16600073ffffffffffffffffffffffffffffffffffffffff166200064a620002c060201b60201c565b73ffffffffffffffffffffffffffffffffffffffff167f769254a71d2f67d8ac6cb44f2803c0d05cfbcf9effadb6a984f10ff9de3df6c38460405162000691919062000e53565b60405180910390a48173ffffffffffffffffffffffffffffffffffffffff16600073ffffffffffffffffffffffffffffffffffffffff167fddf252ad1be2c89b69c2b068fc378daa952ba7f163c4a11628f55a4df523b3ef83604051620006f9919062000e53565b60405180910390a362000715600083836200084f60201b60201c565b5050565b8173ffffffffffffffffffffffffffffffffffffffff168373ffffffffffffffffffffffffffffffffffffffff161480620007545750600081145b15620007605762000845565b600073ffffffffffffffffffffffffffffffffffffffff168373ffffffffffffffffffffffffffffffffffffffff1614620007d2576000620007a8846200085460201b60201c565b905060008282620007ba919062000e70565b9050620007cf8583836200092a60201b60201c565b50505b600073ffffffffffffffffffffffffffffffffffffffff168273ffffffffffffffffffffffffffffffffffffffff1614620008445760006200081a836200085460201b60201c565b9050600082826200082c919062000d01565b9050620008418483836200092a60201b60201c565b50505b5b505050565b505050565b505050565b600080600e60008473ffffffffffffffffffffffffffffffffffffffff1673ffffffffffffffffffffffffffffffffffffffff1681526020019081526020016000209050600081805490501462000905578060018280549050620008b9919062000e70565b81548110620008cd57620008cc62000eab565b5b9060005260206000200160000160089054906101000a900477ffffffffffffffffffffffffffffffffffffffffffffffff1662000908565b60005b77ffffffffffffffffffffffffffffffffffffffffffffffff16915050919050565b6000600e60008573ffffffffffffffffffffffffffffffffffffffff1673ffffffffffffffffffffffffffffffffffffffff16815260200190815260200160002090506000818054905014158015620009d5575043816001838054905062000993919062000e70565b81548110620009a757620009a662000eab565b5b9060005260206000200160000160009054906101000a900467ffffffffffffffff1667ffffffffffffffff16145b1562000a5d57818160018380549050620009f0919062000e70565b8154811062000a045762000a0362000eab565b5b9060005260206000200160000160086101000a81548177ffffffffffffffffffffffffffffffffffffffffffffffff021916908377ffffffffffffffffffffffffffffffffffffffffffffffff16021790555062000b3d565b8060405180604001604052804367ffffffffffffffff1681526020018477ffffffffffffffffffffffffffffffffffffffffffffffff168152509080600181540180825580915050600190039060005260206000200160009091909190915060008201518160000160006101000a81548167ffffffffffffffff021916908367ffffffffffffffff16021790555060208201518160000160086101000a81548177ffffffffffffffffffffffffffffffffffffffffffffffff021916908377ffffffffffffffffffffffffffffffffffffffffffffffff16021790555050505b8373ffffffffffffffffffffffffffffffffffffffff167f53ed7954de66613e30dd29b46ab783aa594e6309d021d8854c76bb3325d03aa3848460405162000b8792919062000eda565b60405180910390a250505050565b82805462000ba39062000f36565b90600052602060002090601f01602090048101928262000bc7576000855562000c13565b82601f1062000be257805160ff191683800117855562000c13565b8280016001018555821562000c13579182015b8281111562000c1257825182559160200191906001019062000bf5565b5b50905062000c22919062000c26565b5090565b5b8082111562000c4157600081600090555060010162000c27565b5090565b600082825260208201905092915050565b7f5061757361626c653a2070617573656400000000000000000000000000000000600082015250565b600062000c8e60108362000c45565b915062000c9b8262000c56565b602082019050919050565b6000602082019050818103600083015262000cc18162000c7f565b9050919050565b6000819050919050565b7f4e487b7100000000000000000000000000000000000000000000000000000000600052601160045260246000fd5b600062000d0e8262000cc8565b915062000d1b8362000cc8565b9250827fffffffffffffffffffffffffffffffffffffffffffffffffffffffffffffffff0382111562000d535762000d5262000cd2565b5b828201905092915050565b7f42455032303a2043617020726561636865642e2043616e6e6f74206d696e7400600082015250565b600062000d96601f8362000c45565b915062000da38262000d5e565b602082019050919050565b6000602082019050818103600083015262000dc98162000d87565b9050919050565b7f42455032303a204d696e7420746f20746865207a65726f206164647265737300600082015250565b600062000e08601f8362000c45565b915062000e158262000dd0565b602082019050919050565b6000602082019050818103600083015262000e3b8162000df9565b9050919050565b62000e4d8162000cc8565b82525050565b600060208201905062000e6a600083018462000e42565b92915050565b600062000e7d8262000cc8565b915062000e8a8362000cc8565b92508282101562000ea05762000e9f62000cd2565b5b828203905092915050565b7f4e487b7100000000000000000000000000000000000000000000000000000000600052603260045260246000fd5b600060408201905062000ef1600083018562000e42565b62000f00602083018462000e42565b9392505050565b7f4e487b7100000000000000000000000000000000000000000000000000000000600052602260045260246000fd5b6000600282049050600182168062000f4f57607f821691505b6020821081141562000f665762000f6562000f07565b5b50919050565b6142e98062000f7c6000396000f3fe608060405234801561001057600080fd5b50600436106102275760003560e01c80637ecebe0011610130578063a6ba31c1116100b8578063dd62ed3e1161007c578063dd62ed3e146106b5578063e7a324dc146106e5578063eaeded5f14610703578063f840f72b14610733578063f851a4401461074f57610227565b8063a6ba31c1146105ed578063a9059cbb14610609578063a9917dbe14610639578063bb4d443614610655578063ce9517cf1461068557610227565b8063906e9400116100ff578063906e940014610535578063908921fc1461055157806395d89b411461056f5780639dc29fac1461058d578063a457c2d7146105bd57610227565b80637ecebe001461049a5780637fd491b0146104ca5780638456cb59146104fb57806384b34a311461050557610227565b8063313ce567116101b3578063481c6a7511610182578063481c6a75146103f657806357341912146104145780635c19a95c146104305780635c975abb1461044c57806370a082311461046a57610227565b8063313ce5671461036e578063395093511461038c5780633f4ba83a146103bc57806340c10f19146103c657610227565b806318160ddd116101fa57806318160ddd146102b45780631e0fa234146102d257806320606b701461030257806323b872dd1461032057806327810b6e1461035057610227565b806306fdde031461022c578063075461721461024a578063095ea7b31461026857806315d2c22514610298575b600080fd5b61023461076d565b6040516102419190613166565b60405180910390f35b6102526107ff565b60405161025f91906131c9565b60405180910390f35b610282600480360381019061027d919061324b565b610825565b60405161028f91906132a6565b60405180910390f35b6102b260048036038101906102ad9190613330565b61088b565b005b6102bc610b59565b6040516102c991906133cc565b60405180910390f35b6102ec60048036038101906102e791906133e7565b610b63565b6040516102f991906131c9565b60405180910390f35b61030a610b96565b6040516103179190613423565b60405180910390f35b61033a6004803603810190610335919061343e565b610bba565b60405161034791906132a6565b60405180910390f35b610358610cfa565b60405161036591906131c9565b60405180910390f35b610376610d20565b60405161038391906134a0565b60405180910390f35b6103a660048036038101906103a1919061324b565b610d37565b6040516103b391906132a6565b60405180910390f35b6103c4610e2b565b005b6103e060048036038101906103db919061324b565b610f2c565b6040516103ed91906132a6565b60405180910390f35b6103fe6110ad565b60405161040b91906131c9565b60405180910390f35b61042e600480360381019061042991906133e7565b6110d3565b005b61044a600480360381019061044591906133e7565b61120f565b005b61045461121c565b60405161046191906132a6565b60405180910390f35b610484600480360381019061047f91906133e7565b611233565b60405161049191906133cc565b60405180910390f35b6104b460048036038101906104af91906133e7565b61127c565b6040516104c191906133cc565b60405180910390f35b6104e460048036038101906104df919061324b565b611294565b6040516104f2929190613511565b60405180910390f35b610503611309565b005b61051f600480360381019061051a91906133e7565b61140b565b60405161052c91906133cc565b60405180910390f35b61054f600480360381019061054a91906133e7565b611457565b005b610559611593565b60405161056691906131c9565b60405180910390f35b6105776115b9565b6040516105849190613166565b60405180910390f35b6105a760048036038101906105a2919061324b565b61164b565b6040516105b491906132a6565b60405180910390f35b6105d760048036038101906105d2919061324b565b611775565b6040516105e491906132a6565b60405180910390f35b610607600480360381019061060291906133e7565b6118a9565b005b610623600480360381019061061e919061324b565b611985565b60405161063091906132a6565b60405180910390f35b610653600480360381019061064e91906133e7565b6119eb565b005b61066f600480360381019061066a91906133e7565b611ac8565b60405161067c91906133cc565b60405180910390f35b61069f600480360381019061069a91906133e7565b611b97565b6040516106ac9190613636565b60405180910390f35b6106cf60048036038101906106ca9190613658565b611cc5565b6040516106dc91906133cc565b60405180910390f35b6106ed611d4c565b6040516106fa9190613423565b60405180910390f35b61071d6004803603810190610718919061324b565b611d70565b60405161072a91906133cc565b60405180910390f35b61074d600480360381019061074891906133e7565b611f37565b005b610757612073565b60405161076491906131c9565b60405180910390f35b60606008805461077c906136c7565b80601f01602080910402602001604051908101604052809291908181526020018280546107a8906136c7565b80156107f55780601f106107ca576101008083540402835291602001916107f5565b820191906000526020600020905b8154815290600101906020018083116107d857829003601f168201915b5050505050905090565b600160009054906101000a900473ffffffffffffffffffffffffffffffffffffffff1681565b600061082f61121c565b1561086f576040517f08c379a000000000000000000000000000000000000000000000000000000000815260040161086690613745565b60405180910390fd5b61088161087a612097565b848461209f565b6001905092915050565b60007f8cad95687ba82c2ce50e74f7b754645e5117c3a5bec8151c0726d5857980a8666108b661076d565b8051906020012046306040516020016108d29493929190613765565b60405160208183030381529060405280519060200120905060007fff41620983935eb4d4a3c7384a066ca8c1d10cef9a5eca9eb97ca735cd14a75588888860405160200161092394939291906137aa565b60405160208183030381529060405280519060200120905060008282604051602001610950929190613867565b60405160208183030381529060405280519060200120905060006001828888886040516000815260200160405260405161098d949392919061389e565b6020604051602081039080840390855afa1580156109af573d6000803e3d6000fd5b505050602060405103519050600073ffffffffffffffffffffffffffffffffffffffff168173ffffffffffffffffffffffffffffffffffffffff161415610a2b576040517f08c379a0000000000000000000000000000000000000000000000000000000008152600401610a229061392f565b60405180910390fd5b600f60008273ffffffffffffffffffffffffffffffffffffffff1673ffffffffffffffffffffffffffffffffffffffff168152602001908152602001600020548914610aac576040517f08c379a0000000000000000000000000000000000000000000000000000000008152600401610aa39061399b565b60405180910390fd5b874210610aee576040517f08c379a0000000000000000000000000000000000000000000000000000000008152600401610ae590613a07565b60405180910390fd5b600f60008273ffffffffffffffffffffffffffffffffffffffff1673ffffffffffffffffffffffffffffffffffffffff1681526020019081526020016000206000815480929190610b3e90613a56565b9190505550610b4d818b61226a565b50505050505050505050565b6000600754905090565b600d6020528060005260406000206000915054906101000a900473ffffffffffffffffffffffffffffffffffffffff1681565b7f8cad95687ba82c2ce50e74f7b754645e5117c3a5bec8151c0726d5857980a86681565b6000610bc461121c565b15610c04576040517f08c379a0000000000000000000000000000000000000000000000000000000008152600401610bfb90613745565b60405180910390fd5b610c0f848484612412565b6000600660008673ffffffffffffffffffffffffffffffffffffffff1673ffffffffffffffffffffffffffffffffffffffff1681526020019081526020016000206000610c5a612097565b73ffffffffffffffffffffffffffffffffffffffff1673ffffffffffffffffffffffffffffffffffffffff16815260200190815260200160002054905082811015610cda576040517f08c379a0000000000000000000000000000000000000000000000000000000008152600401610cd190613b11565b60405180910390fd5b610cee85610ce6612097565b85840361209f565b60019150509392505050565b600260009054906101000a900473ffffffffffffffffffffffffffffffffffffffff1681565b6000600a60009054906101000a900460ff16905090565b6000610d4161121c565b15610d81576040517f08c379a0000000000000000000000000000000000000000000000000000000008152600401610d7890613745565b60405180910390fd5b610e21610d8c612097565b848460066000610d9a612097565b73ffffffffffffffffffffffffffffffffffffffff1673ffffffffffffffffffffffffffffffffffffffff16815260200190815260200160002060008873ffffffffffffffffffffffffffffffffffffffff1673ffffffffffffffffffffffffffffffffffffffff16815260200190815260200160002054610e1c9190613b31565b61209f565b6001905092915050565b610e3361121c565b610e72576040517f08c379a0000000000000000000000000000000000000000000000000000000008152600401610e6990613bd3565b60405180910390fd5b60008054906101000a900473ffffffffffffffffffffffffffffffffffffffff1673ffffffffffffffffffffffffffffffffffffffff16610eb1612097565b73ffffffffffffffffffffffffffffffffffffffff1614610ed157600080fd5b6000600460146101000a81548160ff0219169083151502179055507f5db9ee0a495bf2e6ff9c91a7834c1ba4fdd244a5e8aa4e537bd38aeae4b073aa610f15612097565b604051610f2291906131c9565b60405180910390a1565b6000600160009054906101000a900473ffffffffffffffffffffffffffffffffffffffff1673ffffffffffffffffffffffffffffffffffffffff16610f6f612097565b73ffffffffffffffffffffffffffffffffffffffff1614610f8f57600080fd5b610f9761121c565b15610fd7576040517f08c379a0000000000000000000000000000000000000000000000000000000008152600401610fce90613745565b60405180910390fd5b600c5482610fe3610b59565b610fed9190613b31565b111561102e576040517f08c379a000000000000000000000000000000000000000000000000000000000815260040161102590613c3f565b60405180910390fd5b6110388383612696565b6110a36000600d60008673ffffffffffffffffffffffffffffffffffffffff1673ffffffffffffffffffffffffffffffffffffffff16815260200190815260200160002060009054906101000a900473ffffffffffffffffffffffffffffffffffffffff16846128e7565b6001905092915050565b600460009054906101000a900473ffffffffffffffffffffffffffffffffffffffff1681565b60008054906101000a900473ffffffffffffffffffffffffffffffffffffffff1673ffffffffffffffffffffffffffffffffffffffff16611112612097565b73ffffffffffffffffffffffffffffffffffffffff1614806111885750600360009054906101000a900473ffffffffffffffffffffffffffffffffffffffff1673ffffffffffffffffffffffffffffffffffffffff16611170612097565b73ffffffffffffffffffffffffffffffffffffffff16145b61119157600080fd5b600073ffffffffffffffffffffffffffffffffffffffff168173ffffffffffffffffffffffffffffffffffffffff1614156111cb57600080fd5b80600160006101000a81548173ffffffffffffffffffffffffffffffffffffffff021916908373ffffffffffffffffffffffffffffffffffffffff16021790555050565b611219338261226a565b50565b6000600460149054906101000a900460ff16905090565b6000600560008373ffffffffffffffffffffffffffffffffffffffff1673ffffffffffffffffffffffffffffffffffffffff168152602001908152602001600020549050919050565b600f6020528060005260406000206000915090505481565b600e60205281600052604060002081815481106112b057600080fd5b90600052602060002001600091509150508060000160009054906101000a900467ffffffffffffffff16908060000160089054906101000a900477ffffffffffffffffffffffffffffffffffffffffffffffff16905082565b61131161121c565b15611351576040517f08c379a000000000000000000000000000000000000000000000000000000000815260040161134890613745565b60405180910390fd5b60008054906101000a900473ffffffffffffffffffffffffffffffffffffffff1673ffffffffffffffffffffffffffffffffffffffff16611390612097565b73ffffffffffffffffffffffffffffffffffffffff16146113b057600080fd5b6001600460146101000a81548160ff0219169083151502179055507f62e78cea01bee320cd4e420270b5ea74000d11b0c9f74754ebdbfc544b05a2586113f4612097565b60405161140191906131c9565b60405180910390a1565b6000600e60008373ffffffffffffffffffffffffffffffffffffffff1673ffffffffffffffffffffffffffffffffffffffff168152602001908152602001600020805490509050919050565b60008054906101000a900473ffffffffffffffffffffffffffffffffffffffff1673ffffffffffffffffffffffffffffffffffffffff16611496612097565b73ffffffffffffffffffffffffffffffffffffffff16148061150c5750600360009054906101000a900473ffffffffffffffffffffffffffffffffffffffff1673ffffffffffffffffffffffffffffffffffffffff166114f4612097565b73ffffffffffffffffffffffffffffffffffffffff16145b61151557600080fd5b600073ffffffffffffffffffffffffffffffffffffffff168173ffffffffffffffffffffffffffffffffffffffff16141561154f57600080fd5b80600460006101000a81548173ffffffffffffffffffffffffffffffffffffffff021916908373ffffffffffffffffffffffffffffffffffffffff16021790555050565b600360009054906101000a900473ffffffffffffffffffffffffffffffffffffffff1681565b6060600980546115c8906136c7565b80601f01602080910402602001604051908101604052809291908181526020018280546115f4906136c7565b80156116415780601f1061161657610100808354040283529160200191611641565b820191906000526020600020905b81548152906001019060200180831161162457829003601f168201915b5050505050905090565b6000600260009054906101000a900473ffffffffffffffffffffffffffffffffffffffff1673ffffffffffffffffffffffffffffffffffffffff1661168e612097565b73ffffffffffffffffffffffffffffffffffffffff16146116ae57600080fd5b6116b661121c565b156116f6576040517f08c379a00000000000000000000000000000000000000000000000000000000081526004016116ed90613745565b60405180910390fd5b61170083836129ef565b61176b600d60008573ffffffffffffffffffffffffffffffffffffffff1673ffffffffffffffffffffffffffffffffffffffff16815260200190815260200160002060009054906101000a900473ffffffffffffffffffffffffffffffffffffffff166000846128e7565b6001905092915050565b600061177f61121c565b156117bf576040517f08c379a00000000000000000000000000000000000000000000000000000000081526004016117b690613745565b60405180910390fd5b6000600660006117cd612097565b73ffffffffffffffffffffffffffffffffffffffff1673ffffffffffffffffffffffffffffffffffffffff16815260200190815260200160002060008573ffffffffffffffffffffffffffffffffffffffff1673ffffffffffffffffffffffffffffffffffffffff1681526020019081526020016000205490508281101561188a576040517f08c379a000000000000000000000000000000000000000000000000000000000815260040161188190613cd1565b60405180910390fd5b61189e611895612097565b8585840361209f565b600191505092915050565b60008054906101000a900473ffffffffffffffffffffffffffffffffffffffff1673ffffffffffffffffffffffffffffffffffffffff166118e8612097565b73ffffffffffffffffffffffffffffffffffffffff161461190857600080fd5b600073ffffffffffffffffffffffffffffffffffffffff168173ffffffffffffffffffffffffffffffffffffffff16141561194257600080fd5b806000806101000a81548173ffffffffffffffffffffffffffffffffffffffff021916908373ffffffffffffffffffffffffffffffffffffffff16021790555050565b600061198f61121c565b156119cf576040517f08c379a00000000000000000000000000000000000000000000000000000000081526004016119c690613745565b60405180910390fd5b6119e16119da612097565b8484612412565b6001905092915050565b60008054906101000a900473ffffffffffffffffffffffffffffffffffffffff1673ffffffffffffffffffffffffffffffffffffffff16611a2a612097565b73ffffffffffffffffffffffffffffffffffffffff1614611a4a57600080fd5b600073ffffffffffffffffffffffffffffffffffffffff168173ffffffffffffffffffffffffffffffffffffffff161415611a8457600080fd5b80600360006101000a81548173ffffffffffffffffffffffffffffffffffffffff021916908373ffffffffffffffffffffffffffffffffffffffff16021790555050565b600080600e60008473ffffffffffffffffffffffffffffffffffffffff1673ffffffffffffffffffffffffffffffffffffffff16815260200190815260200160002090506000818054905014611b72578060018280549050611b2a9190613cf1565b81548110611b3b57611b3a613d25565b5b9060005260206000200160000160089054906101000a900477ffffffffffffffffffffffffffffffffffffffffffffffff16611b75565b60005b77ffffffffffffffffffffffffffffffffffffffffffffffff16915050919050565b6060600e60008373ffffffffffffffffffffffffffffffffffffffff1673ffffffffffffffffffffffffffffffffffffffff168152602001908152602001600020805480602002602001604051908101604052809291908181526020016000905b82821015611cba578382906000526020600020016040518060400160405290816000820160009054906101000a900467ffffffffffffffff1667ffffffffffffffff1667ffffffffffffffff1681526020016000820160089054906101000a900477ffffffffffffffffffffffffffffffffffffffffffffffff1677ffffffffffffffffffffffffffffffffffffffffffffffff1677ffffffffffffffffffffffffffffffffffffffffffffffff168152505081526020019060010190611bf8565b505050509050919050565b6000600660008473ffffffffffffffffffffffffffffffffffffffff1673ffffffffffffffffffffffffffffffffffffffff16815260200190815260200160002060008373ffffffffffffffffffffffffffffffffffffffff1673ffffffffffffffffffffffffffffffffffffffff16815260200190815260200160002054905092915050565b7fff41620983935eb4d4a3c7384a066ca8c1d10cef9a5eca9eb97ca735cd14a75581565b6000438210611db4576040517f08c379a0000000000000000000000000000000000000000000000000000000008152600401611dab90613da0565b60405180910390fd5b6000600e60008573ffffffffffffffffffffffffffffffffffffffff1673ffffffffffffffffffffffffffffffffffffffff1681526020019081526020016000209050600081805490501415611e0e576000915050611f31565b828160018380549050611e219190613cf1565b81548110611e3257611e31613d25565b5b9060005260206000200160000160009054906101000a900467ffffffffffffffff1667ffffffffffffffff1611611e7457611e6c84611ac8565b915050611f31565b8281600081548110611e8957611e88613d25565b5b9060005260206000200160000160009054906101000a900467ffffffffffffffff1667ffffffffffffffff161115611ec5576000915050611f31565b80611ed08585612cb8565b81548110611ee157611ee0613d25565b5b9060005260206000200160000160089054906101000a900477ffffffffffffffffffffffffffffffffffffffffffffffff1677ffffffffffffffffffffffffffffffffffffffffffffffff169150505b92915050565b60008054906101000a900473ffffffffffffffffffffffffffffffffffffffff1673ffffffffffffffffffffffffffffffffffffffff16611f76612097565b73ffffffffffffffffffffffffffffffffffffffff161480611fec5750600360009054906101000a900473ffffffffffffffffffffffffffffffffffffffff1673ffffffffffffffffffffffffffffffffffffffff16611fd4612097565b73ffffffffffffffffffffffffffffffffffffffff16145b611ff557600080fd5b600073ffffffffffffffffffffffffffffffffffffffff168173ffffffffffffffffffffffffffffffffffffffff16141561202f57600080fd5b80600260006101000a81548173ffffffffffffffffffffffffffffffffffffffff021916908373ffffffffffffffffffffffffffffffffffffffff16021790555050565b60008054906101000a900473ffffffffffffffffffffffffffffffffffffffff1681565b600033905090565b600073ffffffffffffffffffffffffffffffffffffffff168373ffffffffffffffffffffffffffffffffffffffff16141561210f576040517f08c379a000000000000000000000000000000000000000000000000000000000815260040161210690613e32565b60405180910390fd5b600073ffffffffffffffffffffffffffffffffffffffff168273ffffffffffffffffffffffffffffffffffffffff16141561217f576040517f08c379a000000000000000000000000000000000000000000000000000000000815260040161217690613ec4565b60405180910390fd5b80600660008573ffffffffffffffffffffffffffffffffffffffff1673ffffffffffffffffffffffffffffffffffffffff16815260200190815260200160002060008473ffffffffffffffffffffffffffffffffffffffff1673ffffffffffffffffffffffffffffffffffffffff168152602001908152602001600020819055508173ffffffffffffffffffffffffffffffffffffffff168373ffffffffffffffffffffffffffffffffffffffff167f8c5be1e5ebec7d5bd14f71427d1e84f3dd0314c0f7b2291e5b200ac8c7c3b9258360405161225d91906133cc565b60405180910390a3505050565b6000600d60008473ffffffffffffffffffffffffffffffffffffffff1673ffffffffffffffffffffffffffffffffffffffff16815260200190815260200160002060009054906101000a900473ffffffffffffffffffffffffffffffffffffffff1690506000600560008573ffffffffffffffffffffffffffffffffffffffff1673ffffffffffffffffffffffffffffffffffffffff16815260200190815260200160002054905082600d60008673ffffffffffffffffffffffffffffffffffffffff1673ffffffffffffffffffffffffffffffffffffffff16815260200190815260200160002060006101000a81548173ffffffffffffffffffffffffffffffffffffffff021916908373ffffffffffffffffffffffffffffffffffffffff16021790555061239b8284836128e7565b8273ffffffffffffffffffffffffffffffffffffffff168273ffffffffffffffffffffffffffffffffffffffff168573ffffffffffffffffffffffffffffffffffffffff167f3134e8a2e6d97e929a7e54011ea5485d7d196dd5f0ba4d4ef95803e8e3fc257f60405160405180910390a450505050565b600073ffffffffffffffffffffffffffffffffffffffff168373ffffffffffffffffffffffffffffffffffffffff161415612482576040517f08c379a000000000000000000000000000000000000000000000000000000000815260040161247990613f56565b60405180910390fd5b600073ffffffffffffffffffffffffffffffffffffffff168273ffffffffffffffffffffffffffffffffffffffff1614156124f2576040517f08c379a00000000000000000000000000000000000000000000000000000000081526004016124e990613fe8565b60405180910390fd5b6124fd838383612e67565b6000600560008573ffffffffffffffffffffffffffffffffffffffff1673ffffffffffffffffffffffffffffffffffffffff16815260200190815260200160002054905081811015612584576040517f08c379a000000000000000000000000000000000000000000000000000000000815260040161257b9061407a565b60405180910390fd5b818103600560008673ffffffffffffffffffffffffffffffffffffffff1673ffffffffffffffffffffffffffffffffffffffff1681526020019081526020016000208190555081600560008573ffffffffffffffffffffffffffffffffffffffff1673ffffffffffffffffffffffffffffffffffffffff16815260200190815260200160002060008282546126199190613b31565b925050819055508273ffffffffffffffffffffffffffffffffffffffff168473ffffffffffffffffffffffffffffffffffffffff167fddf252ad1be2c89b69c2b068fc378daa952ba7f163c4a11628f55a4df523b3ef8460405161267d91906133cc565b60405180910390a3612690848484612e6c565b50505050565b600073ffffffffffffffffffffffffffffffffffffffff168273ffffffffffffffffffffffffffffffffffffffff161415612706576040517f08c379a00000000000000000000000000000000000000000000000000000000081526004016126fd906140e6565b60405180910390fd5b61271260008383612e67565b80600760008282546127249190613b31565b9250508190555080600560008473ffffffffffffffffffffffffffffffffffffffff1673ffffffffffffffffffffffffffffffffffffffff168152602001908152602001600020600082825461277a9190613b31565b925050819055508173ffffffffffffffffffffffffffffffffffffffff166127a0612097565b73ffffffffffffffffffffffffffffffffffffffff167f9d228d69b5fdb8d273a2336f8fb8612d039631024ea9bf09c424a9503aa078f0836040516127e591906133cc565b60405180910390a38173ffffffffffffffffffffffffffffffffffffffff16600073ffffffffffffffffffffffffffffffffffffffff16612824612097565b73ffffffffffffffffffffffffffffffffffffffff167f769254a71d2f67d8ac6cb44f2803c0d05cfbcf9effadb6a984f10ff9de3df6c38460405161286991906133cc565b60405180910390a48173ffffffffffffffffffffffffffffffffffffffff16600073ffffffffffffffffffffffffffffffffffffffff167fddf252ad1be2c89b69c2b068fc378daa952ba7f163c4a11628f55a4df523b3ef836040516128cf91906133cc565b60405180910390a36128e360008383612e6c565b5050565b8173ffffffffffffffffffffffffffffffffffffffff168373ffffffffffffffffffffffffffffffffffffffff1614806129215750600081145b1561292b576129ea565b600073ffffffffffffffffffffffffffffffffffffffff168373ffffffffffffffffffffffffffffffffffffffff161461298a57600061296a84611ac8565b90506000828261297a9190613cf1565b9050612987858383612e71565b50505b600073ffffffffffffffffffffffffffffffffffffffff168273ffffffffffffffffffffffffffffffffffffffff16146129e95760006129c983611ac8565b9050600082826129d99190613b31565b90506129e6848383612e71565b50505b5b505050565b600073ffffffffffffffffffffffffffffffffffffffff168273ffffffffffffffffffffffffffffffffffffffff161415612a5f576040517f08c379a0000000000000000000000000000000000000000000000000000000008152600401612a5690614178565b60405180910390fd5b612a6b82600083612e67565b6000600560008473ffffffffffffffffffffffffffffffffffffffff1673ffffffffffffffffffffffffffffffffffffffff16815260200190815260200160002054905081811015612af2576040517f08c379a0000000000000000000000000000000000000000000000000000000008152600401612ae99061420a565b60405180910390fd5b818103600560008573ffffffffffffffffffffffffffffffffffffffff1673ffffffffffffffffffffffffffffffffffffffff168152602001908152602001600020819055508160076000828254612b4a9190613cf1565b925050819055508273ffffffffffffffffffffffffffffffffffffffff16612b70612097565b73ffffffffffffffffffffffffffffffffffffffff167fe8a89cc6e5096f9d9f43de82c077c1f4cfe707c0e0c2032176c68813b9ae6a5c84604051612bb591906133cc565b60405180910390a3600073ffffffffffffffffffffffffffffffffffffffff168373ffffffffffffffffffffffffffffffffffffffff16612bf4612097565b73ffffffffffffffffffffffffffffffffffffffff167f769254a71d2f67d8ac6cb44f2803c0d05cfbcf9effadb6a984f10ff9de3df6c385604051612c3991906133cc565b60405180910390a4600073ffffffffffffffffffffffffffffffffffffffff168373ffffffffffffffffffffffffffffffffffffffff167fddf252ad1be2c89b69c2b068fc378daa952ba7f163c4a11628f55a4df523b3ef84604051612c9f91906133cc565b60405180910390a3612cb383600084612e6c565b505050565b600080600e60008573ffffffffffffffffffffffffffffffffffffffff1673ffffffffffffffffffffffffffffffffffffffff168152602001908152602001600020905060008060018380549050612d109190613cf1565b90505b81811115612e5a57600060028383612d2b9190613cf1565b612d359190614259565b82612d409190613cf1565b90506000848281548110612d5757612d56613d25565b5b906000526020600020016040518060400160405290816000820160009054906101000a900467ffffffffffffffff1667ffffffffffffffff1667ffffffffffffffff1681526020016000820160089054906101000a900477ffffffffffffffffffffffffffffffffffffffffffffffff1677ffffffffffffffffffffffffffffffffffffffffffffffff1677ffffffffffffffffffffffffffffffffffffffffffffffff1681525050905086816000015167ffffffffffffffff161415612e25578195505050505050612e61565b86816000015167ffffffffffffffff161015612e4357819350612e53565b600182612e509190613cf1565b92505b5050612d13565b8193505050505b92915050565b505050565b505050565b6000600e60008573ffffffffffffffffffffffffffffffffffffffff1673ffffffffffffffffffffffffffffffffffffffff16815260200190815260200160002090506000818054905014158015612f165750438160018380549050612ed79190613cf1565b81548110612ee857612ee7613d25565b5b9060005260206000200160000160009054906101000a900467ffffffffffffffff1667ffffffffffffffff16145b15612f9757818160018380549050612f2e9190613cf1565b81548110612f3f57612f3e613d25565b5b9060005260206000200160000160086101000a81548177ffffffffffffffffffffffffffffffffffffffffffffffff021916908377ffffffffffffffffffffffffffffffffffffffffffffffff160217905550613077565b8060405180604001604052804367ffffffffffffffff1681526020018477ffffffffffffffffffffffffffffffffffffffffffffffff168152509080600181540180825580915050600190039060005260206000200160009091909190915060008201518160000160006101000a81548167ffffffffffffffff021916908367ffffffffffffffff16021790555060208201518160000160086101000a81548177ffffffffffffffffffffffffffffffffffffffffffffffff021916908377ffffffffffffffffffffffffffffffffffffffffffffffff16021790555050505b8373ffffffffffffffffffffffffffffffffffffffff167f53ed7954de66613e30dd29b46ab783aa594e6309d021d8854c76bb3325d03aa384846040516130bf92919061428a565b60405180910390a250505050565b600081519050919050565b600082825260208201905092915050565b60005b838110156131075780820151818401526020810190506130ec565b83811115613116576000848401525b50505050565b6000601f19601f8301169050919050565b6000613138826130cd565b61314281856130d8565b93506131528185602086016130e9565b61315b8161311c565b840191505092915050565b60006020820190508181036000830152613180818461312d565b905092915050565b600073ffffffffffffffffffffffffffffffffffffffff82169050919050565b60006131b382613188565b9050919050565b6131c3816131a8565b82525050565b60006020820190506131de60008301846131ba565b92915050565b600080fd5b6131f2816131a8565b81146131fd57600080fd5b50565b60008135905061320f816131e9565b92915050565b6000819050919050565b61322881613215565b811461323357600080fd5b50565b6000813590506132458161321f565b92915050565b60008060408385031215613262576132616131e4565b5b600061327085828601613200565b925050602061328185828601613236565b9150509250929050565b60008115159050919050565b6132a08161328b565b82525050565b60006020820190506132bb6000830184613297565b92915050565b600060ff82169050919050565b6132d7816132c1565b81146132e257600080fd5b50565b6000813590506132f4816132ce565b92915050565b6000819050919050565b61330d816132fa565b811461331857600080fd5b50565b60008135905061332a81613304565b92915050565b60008060008060008060c0878903121561334d5761334c6131e4565b5b600061335b89828a01613200565b965050602061336c89828a01613236565b955050604061337d89828a01613236565b945050606061338e89828a016132e5565b935050608061339f89828a0161331b565b92505060a06133b089828a0161331b565b9150509295509295509295565b6133c681613215565b82525050565b60006020820190506133e160008301846133bd565b92915050565b6000602082840312156133fd576133fc6131e4565b5b600061340b84828501613200565b91505092915050565b61341d816132fa565b82525050565b60006020820190506134386000830184613414565b92915050565b600080600060608486031215613457576134566131e4565b5b600061346586828701613200565b935050602061347686828701613200565b925050604061348786828701613236565b9150509250925092565b61349a816132c1565b82525050565b60006020820190506134b56000830184613491565b92915050565b600067ffffffffffffffff82169050919050565b6134d8816134bb565b82525050565b600077ffffffffffffffffffffffffffffffffffffffffffffffff82169050919050565b61350b816134de565b82525050565b600060408201905061352660008301856134cf565b6135336020830184613502565b9392505050565b600081519050919050565b600082825260208201905092915050565b6000819050602082019050919050565b61356f816134bb565b82525050565b61357e816134de565b82525050565b60408201600082015161359a6000850182613566565b5060208201516135ad6020850182613575565b50505050565b60006135bf8383613584565b60408301905092915050565b6000602082019050919050565b60006135e38261353a565b6135ed8185613545565b93506135f883613556565b8060005b8381101561362957815161361088826135b3565b975061361b836135cb565b9250506001810190506135fc565b5085935050505092915050565b6000602082019050818103600083015261365081846135d8565b905092915050565b6000806040838503121561366f5761366e6131e4565b5b600061367d85828601613200565b925050602061368e85828601613200565b9150509250929050565b7f4e487b7100000000000000000000000000000000000000000000000000000000600052602260045260246000fd5b600060028204905060018216806136df57607f821691505b602082108114156136f3576136f2613698565b5b50919050565b7f5061757361626c653a2070617573656400000000000000000000000000000000600082015250565b600061372f6010836130d8565b915061373a826136f9565b602082019050919050565b6000602082019050818103600083015261375e81613722565b9050919050565b600060808201905061377a6000830187613414565b6137876020830186613414565b61379460408301856133bd565b6137a160608301846131ba565b95945050505050565b60006080820190506137bf6000830187613414565b6137cc60208301866131ba565b6137d960408301856133bd565b6137e660608301846133bd565b95945050505050565b600081905092915050565b7f1901000000000000000000000000000000000000000000000000000000000000600082015250565b60006138306002836137ef565b915061383b826137fa565b600282019050919050565b6000819050919050565b61386161385c826132fa565b613846565b82525050565b600061387282613823565b915061387e8285613850565b60208201915061388e8284613850565b6020820191508190509392505050565b60006080820190506138b36000830187613414565b6138c06020830186613491565b6138cd6040830185613414565b6138da6060830184613414565b95945050505050565b7f696e76616c6964207369676e6174757265000000000000000000000000000000600082015250565b60006139196011836130d8565b9150613924826138e3565b602082019050919050565b600060208201905081810360008301526139488161390c565b9050919050565b7f696e76616c6964206e6f6e636500000000000000000000000000000000000000600082015250565b6000613985600d836130d8565b91506139908261394f565b602082019050919050565b600060208201905081810360008301526139b481613978565b9050919050565b7f7369676e61747572652065787069726564000000000000000000000000000000600082015250565b60006139f16011836130d8565b91506139fc826139bb565b602082019050919050565b60006020820190508181036000830152613a20816139e4565b9050919050565b7f4e487b7100000000000000000000000000000000000000000000000000000000600052601160045260246000fd5b6000613a6182613215565b91507fffffffffffffffffffffffffffffffffffffffffffffffffffffffffffffffff821415613a9457613a93613a27565b5b600182019050919050565b7f42455032303a205472616e7366657220616d6f756e742065786365656473206160008201527f6c6c6f77616e6365000000000000000000000000000000000000000000000000602082015250565b6000613afb6028836130d8565b9150613b0682613a9f565b604082019050919050565b60006020820190508181036000830152613b2a81613aee565b9050919050565b6000613b3c82613215565b9150613b4783613215565b9250827fffffffffffffffffffffffffffffffffffffffffffffffffffffffffffffffff03821115613b7c57613b7b613a27565b5b828201905092915050565b7f5061757361626c653a206e6f7420706175736564000000000000000000000000600082015250565b6000613bbd6014836130d8565b9150613bc882613b87565b602082019050919050565b60006020820190508181036000830152613bec81613bb0565b9050919050565b7f42455032303a2043617020726561636865642e2043616e6e6f74206d696e7400600082015250565b6000613c29601f836130d8565b9150613c3482613bf3565b602082019050919050565b60006020820190508181036000830152613c5881613c1c565b9050919050565b7f42455032303a2044656372656173656420616c6c6f77616e63652062656c6f7760008201527f207a65726f000000000000000000000000000000000000000000000000000000602082015250565b6000613cbb6025836130d8565b9150613cc682613c5f565b604082019050919050565b60006020820190508181036000830152613cea81613cae565b9050919050565b6000613cfc82613215565b9150613d0783613215565b925082821015613d1a57613d19613a27565b5b828203905092915050565b7f4e487b7100000000000000000000000000000000000000000000000000000000600052603260045260246000fd5b7f6e6f74207965742064657465726d696e65640000000000000000000000000000600082015250565b6000613d8a6012836130d8565b9150613d9582613d54565b602082019050919050565b60006020820190508181036000830152613db981613d7d565b9050919050565b7f42455032303a20417070726f76652066726f6d20746865207a65726f2061646460008201527f7265737300000000000000000000000000000000000000000000000000000000602082015250565b6000613e1c6024836130d8565b9150613e2782613dc0565b604082019050919050565b60006020820190508181036000830152613e4b81613e0f565b9050919050565b7f42455032303a20417070726f766520746f20746865207a65726f20616464726560008201527f7373000000000000000000000000000000000000000000000000000000000000602082015250565b6000613eae6022836130d8565b9150613eb982613e52565b604082019050919050565b60006020820190508181036000830152613edd81613ea1565b9050919050565b7f42455032303a205472616e736665722066726f6d20746865207a65726f20616460008201527f6472657373000000000000000000000000000000000000000000000000000000602082015250565b6000613f406025836130d8565b9150613f4b82613ee4565b604082019050919050565b60006020820190508181036000830152613f6f81613f33565b9050919050565b7f42455032303a205472616e7366657220746f20746865207a65726f206164647260008201527f6573730000000000000000000000000000000000000000000000000000000000602082015250565b6000613fd26023836130d8565b9150613fdd82613f76565b604082019050919050565b6000602082019050818103600083015261400181613fc5565b9050919050565b7f42455032303a205472616e7366657220616d6f756e742065786365656473206260008201527f616c616e63650000000000000000000000000000000000000000000000000000602082015250565b60006140646026836130d8565b915061406f82614008565b604082019050919050565b6000602082019050818103600083015261409381614057565b9050919050565b7f42455032303a204d696e7420746f20746865207a65726f206164647265737300600082015250565b60006140d0601f836130d8565b91506140db8261409a565b602082019050919050565b600060208201905081810360008301526140ff816140c3565b9050919050565b7f42455032303a204275726e2066726f6d20746865207a65726f2061646472657360008201527f7300000000000000000000000000000000000000000000000000000000000000602082015250565b60006141626021836130d8565b915061416d82614106565b604082019050919050565b6000602082019050818103600083015261419181614155565b9050919050565b7f42455032303a204275726e20616d6f756e7420657863656564732062616c616e60008201527f6365000000000000000000000000000000000000000000000000000000000000602082015250565b60006141f46022836130d8565b91506141ff82614198565b604082019050919050565b60006020820190508181036000830152614223816141e7565b9050919050565b7f4e487b7100000000000000000000000000000000000000000000000000000000600052601260045260246000fd5b600061426482613215565b915061426f83613215565b92508261427f5761427e61422a565b5b828204905092915050565b600060408201905061429f60008301856133bd565b6142ac60208301846133bd565b939250505056fea26469706673582212204b5fcdc4ba87d0a1177555539e4a5848d90429c19ad7e447612cc669c08bc37764736f6c634300080a0033",
  "immutableReferences": {},
  "source": "//SPDX-License-Identifier: MIT\n\npragma solidity ^0.8.6;\n\nimport \"../BEP20/BEP20.sol\";\nimport \"../security/AccessControl.sol\";\n\n/**\n * @dev Total supply starts at 100,000,000 (100 million)\n *      Supply will have a maximum cap of 130,000,000 (130 million)\n *      through yield farming methods\n *\n * @dev NBCoin contract with governance implemented\n */\ncontract NBCoin is BEP20(\"NBCoin\", \"NBC\") {\n    uint256 private totalTokens = 100000000 * 10 ** 18;\n    uint256 private cap = 130000000 * 10 ** 18;\n\n    /**\n     * @notice A voting power record binds voting power of a delegate to a particular\n     *      block when the voting power delegation change happened\n     */\n    struct VotingPowerRecord {\n        /**\n         * @dev block.number when delegation has changed; starting from\n         *      that block voting power value is in effect\n         */  \n        uint64 blockNumber;\n\n        /**\n         * @dev Cumulative voting power a delegate has obtained starting\n         *      from the block stored in blockNumber\n         */\n        uint192 votingPower;\n    }\n\n    /**\n     * @notice A record of each account's voting delegate\n     *\n     * @dev Auxiliary data structure used to sum up an account's voting power\n     *\n     * @dev This mapping keeps record of all voting power delegations:\n     *      voting delegator (token owner) => voting delegate\n     */\n\n    mapping (address => address) public votingDelegates;\n    \n    /**\n     * @notice A record of each account's voting power\n     *\n     * @dev Primarily data structure to store voting power for each account.\n     *      Voting power sums up from the account's token balance and delegated\n     *      balances.\n     *\n     * @dev Stores current value and entire history of its changes.\n     *      The changes are stored as an array of checkpoints.\n     *      VotingPowerRecord is an auxiliary data structure containing voting\n     *      power (number of votes) and block number when the checkpoint is saved\n     *\n     * @dev Maps voting delegate => voting power record\n     */\n    mapping (address => VotingPowerRecord[]) public votingPowerHistory;\n\n    /**\n     * @dev A record of nonces for signing/validating signatures in `delegateWithSig`\n     *      for every delegate, increases after successful validation\n     * \n     * @dev Maps delegate address => delegate nonce\n     */\n    mapping (address => uint256) public nonces;\n\n    /**\n     * @notice EIP-712 contract's domain typeHash, see https://eips.ethereum.org/EIPS/eip-712#rationale-for-typehash\n     */\n    bytes32 public constant DOMAIN_TYPEHASH = keccak256(\"EIP712Domain(string name,uint256 chainId,address verifyingContract)\");\n\n    /**\n     * @notice EIP-712 delegation struct typeHash, see https://eips.ethereum.org/EIPS/eip-712#rationale-for-typehash\n     */\n    bytes32 public constant DELEGATION_TYPEHASH = keccak256(\"Delegation(address delegate,uint256 nonce,uint256 expiry)\");\n\n    /**\n     * @dev Notifies that a key-value pair in `votingDelegates` mapping has changed,\n     *      i.e. a delegator address has changed its delegate address\n     *\n     * @param _of delegator address, a token owner\n     * @param _from old delegate, an address whose delegate rights are revoked\n     * @param _to new delegate, an address which received the voting power\n     */\n    event DelegateChanged(address indexed _of, address indexed _from, address indexed _to);\n\n     /**\n     * @dev Notifies that a key-value pair in `votingPowerHistory` mapping has changed,\n     *      i.e. a delegate's voting power has changed.\n     *\n     * @param _of delegate whose voting power has changed\n     * @param _fromVal previous number of votes delegate had\n     * @param _toVal new number of votes delegate has\n     */\n    event VotingPowerChanged(address indexed _of, uint256 _fromVal, uint256 _toVal);\n\n    /**\n     * @notice Gets current voting power of the account `_of`\n     * @param _of the address of account to get voting power of\n     * @return current cumulative voting power of the account,\n     *      sum of token balances of all its voting delegators\n     */\n    function getVotingPower(address _of) public view returns (uint256) {\n        // get a link to an array of voting power history records for an address specified\n        VotingPowerRecord[] storage history = votingPowerHistory[_of];\n\n        // lookup the history and return latest element\n        return history.length == 0 ? 0: history[history.length - 1].votingPower;\n    }\n\n     /**\n     * @notice Gets past voting power of the account `_of` at some block `_blockNum`\n     * @dev Throws if `_blockNum` is not in the past (not the finalized block)\n     * @param _of the address of account to get voting power of\n     * @param _blockNum block number to get the voting power at\n     * @return past cumulative voting power of the account,\n     *      sum of token balances of all its voting delegators at block number `_blockNum`\n     */\n    function getVotingPowerAt(address _of, uint256 _blockNum) public view returns (uint256) {\n        // make sure block number is not in the past (not the finalized block)\n        require(_blockNum < block.number, \"not yet determined\"); // Compound msg\n\n        // get a link to an array of voting power history records for an address specified\n        VotingPowerRecord[] storage history = votingPowerHistory[_of];\n\n        // if voting power history for the account provided is empty\n        if(history.length == 0) {\n            // than voting power is zero - return the result\n            return 0;\n        }\n        // check latest voting power history record block number:\n        // if history was not updated after the block of interest\n        if(history[history.length - 1].blockNumber <= _blockNum) {\n            // we're done - return last voting power record\n            return getVotingPower(_of);\n        }\n\n        // check first voting power history record block number:\n        // if history was never updated before the block of interest\n        if(history[0].blockNumber > _blockNum) {\n            // we're done - voting power at the block num of interest was zero\n            return 0;\n        }\n\n        // `votingPowerHistory[_of]` is an array ordered by `blockNumber`, ascending;\n        // apply binary search on `votingPowerHistory[_of]` to find such an entry number `i`, that\n        // `votingPowerHistory[_of][i].blockNumber <= _blockNum`, but in the same time\n        // `votingPowerHistory[_of][i + 1].blockNumber > _blockNum`\n        // return the result - voting power found at index `i`\n        return history[_binaryLookup(_of, _blockNum)].votingPower;\n    }\n\n    /**\n     * @dev Reads an entire voting power history array for the delegate specified\n     *\n     * @param _of delegate to query voting power history for\n     * @return voting power history array for the delegate of interest\n     */\n    function getVotingPowerHistory(address _of) public view returns(VotingPowerRecord[] memory) {\n        // return an entire array as memory\n        return votingPowerHistory[_of];\n    }\n\n    /**\n     * @dev Returns length of the voting power history array for the delegate specified;\n     *      useful since reading an entire array just to get its length is expensive (gas cost)\n     *     \n     * @param _of delegate to query voting power history length for\n     * @return voting power history array length for the delegate of interest\n     */\n     function getVotingPowerHistoryLength(address _of) public view returns(uint256) {\n        // read array length and return\n        return votingPowerHistory[_of].length;\n    }\n\n    /**\n     * @notice Delegates voting power of the delegator `msg.sender` to the delegate `_to`\n     *\n     * @dev Accepts zero value address to delegate voting power to, effectively\n     *      removing the delegate in that case\n     *\n     * @param _to address to delegate voting power to\n     */\n    function delegate(address _to) public {\n        // delegate call to `_delegate`\n        _delegate(msg.sender, _to);\n    }\n\n    /**\n     * @notice Delegates voting power of the delegator (represented by its signature) to the delegate `_to`\n     *\n     * @dev Accepts zero value address to delegate voting power to, effectively\n     *      removing the delegate in that case\n     *\n     * @dev Compliant with EIP-712: Ethereum typed structured data hashing and signing,\n     *      see https://eips.ethereum.org/EIPS/eip-712\n     *\n     * @param _to address to delegate voting power to\n     * @param _nonce nonce used to construct the signature, and used to validate it;\n     *      nonce is increased by one after successful signature validation and vote delegation\n     * @param _exp signature expiration time\n     * @param v the recovery byte of the signature\n     * @param r half of the ECDSA signature pair\n     * @param s half of the ECDSA signature pair\n     */\n    function delegateWithSig(address _to, uint256 _nonce, uint256 _exp, uint8 v, bytes32 r, bytes32 s) public {\n        // build the EIP-712 contract domain separator\n        bytes32 domainSeparator = keccak256(abi.encode(DOMAIN_TYPEHASH, keccak256(bytes(name())), block.chainid, address(this)));\n\n        // build the EIP-712 hashStruct of the delegation message\n        bytes32 hashStruct = keccak256(abi.encode(DELEGATION_TYPEHASH, _to, _nonce, _exp));\n\n        // calculate the EIP-712 digest \"\\x19\\x01\"  domainSeparator  hashStruct(message)\n        bytes32 digest = keccak256(abi.encodePacked(\"\\x19\\x01\", domainSeparator, hashStruct));\n\n        // recover the address who signed the message with v, r, s\n        address signer = ecrecover(digest, v, r, s);\n\n        // perform message integrity and security validations\n        require(signer != address(0), \"invalid signature\"); // Compound msg\n        require(_nonce == nonces[signer], \"invalid nonce\"); // Compound msg\n        require(block.timestamp < _exp, \"signature expired\"); // Compound msg\n\n        // update the nonce for that particular signer to avoid replay attack\n        nonces[signer]++;\n\n        // delegate call to `_delegate` - execute the logic required\n        _delegate(signer, _to);\n    }\n\n    /**\n     * @dev Auxiliary function to delegate delegator's `_from` voting power to the delegate `_to`\n     * @dev Writes to `votingDelegates` and `votingPowerHistory` mappings\n     *\n     * @param _from delegator who delegates his voting power\n     * @param _to delegate who receives the voting power\n     */\n    function _delegate(address _from, address _to) private {\n        // read current delegate to be replaced by a new one\n        address _fromDelegate = votingDelegates[_from];\n\n        // read current voting power (it is equal to token balance)\n        uint256 _value = _balances[_from];\n\n        // reassign voting delegate to `_to`\n        votingDelegates[_from] = _to;\n\n        // update voting power for `_fromDelegate` and `_to`\n        _moveVotingPower(_fromDelegate, _to, _value);\n\n        // emit an event\n        emit DelegateChanged(_from, _fromDelegate, _to);\n    }\n\n    /**\n     * @dev Auxiliary function to move voting power `_value`\n     *      from delegate `_from` to the delegate `_to`\n     *\n     * @dev Doesn't have any effect if `_from == _to`, or if `_value == 0`\n     *\n     * @param _from delegate to move voting power from\n     * @param _to delegate to move voting power to\n     * @param _value voting power to move from `_from` to `_to`\n     */\n    function _moveVotingPower(address _from, address _to, uint256 _value) private {\n        // if there is no move (`_from == _to`) or there is nothing to move (`_value == 0`)\n        if(_from == _to || _value == 0) {\n            // return silently with no action\n            return;\n        }\n\n        // if source address is not zero - decrease its voting power\n        if(_from != address(0)) {\n            // read current source address voting power\n            uint256 _fromVal = getVotingPower(_from);\n\n            // calculate decreased voting power\n            // underflow is not possible by design:\n            // voting power is limited by token balance which is checked by the callee\n            uint256 _toVal = _fromVal - _value;\n\n            // update source voting power from `_fromVal` to `_toVal`\n            _updateVotingPower(_from, _fromVal, _toVal);\n        }\n\n        // if destination address is not zero - increase its voting power\n        if(_to != address(0)) {\n            // read current destination address voting power\n            uint256 _fromVal = getVotingPower(_to);\n\n            // calculate increased voting power\n            // overflow is not possible by design:\n            // max token supply limits the cumulative voting power\n            uint256 _toVal = _fromVal + _value;\n\n            // update destination voting power from `_fromVal` to `_toVal`\n            _updateVotingPower(_to, _fromVal, _toVal);\n        }\n    }\n\n    /**\n     * @dev Auxiliary function to update voting power of the delegate `_of`\n     *      from value `_fromVal` to value `_toVal`\n     *\n     * @param _of delegate to update its voting power\n     * @param _fromVal old voting power of the delegate\n     * @param _toVal new voting power of the delegate\n     */\n    function _updateVotingPower(address _of, uint256 _fromVal, uint256 _toVal) private {\n        // get a link to an array of voting power history records for an address specified\n        VotingPowerRecord[] storage history = votingPowerHistory[_of];\n\n        // if there is an existing voting power value stored for current block\n        if(history.length != 0 && history[history.length - 1].blockNumber == block.number) {\n            // update voting power which is already stored in the current block\n            history[history.length - 1].votingPower = uint192(_toVal);\n        }\n\n        // otherwise - if there is no value stored for current block\n        else {\n            // add new element into array representing the value for current block\n            history.push(VotingPowerRecord(uint64(block.number), uint192(_toVal)));\n        }\n\n        // emit an event\n        emit VotingPowerChanged(_of, _fromVal, _toVal);\n    }\n\n    /**\n     * @dev Auxiliary function to lookup an element in a sorted (asc) array of elements\n     *\n     * @dev This function finds the closest element in an array to the value\n     *      of interest (not exceeding that value) and returns its index within an array\n     *\n     * @dev An array to search in is `votingPowerHistory[_to][i].blockNumber`,\n     *      it is sorted in ascending order (blockNumber increases)\n     *\n     * @param _to an address of the delegate to get an array for\n     * @param n value of interest to look for\n     * @return an index of the closest element in an array to the value\n     *      of interest (not exceeding that value)\n     */\n    function _binaryLookup(address _to, uint256 n) private view returns(uint256) {\n        // get a link to an array of voting power history records for an address specified\n        VotingPowerRecord[] storage history = votingPowerHistory[_to];\n\n        // left bound of the search interval, originally start of the array\n        uint256 i = 0;\n\n        // right bound of the search interval, originally end of the array\n        uint256 j = history.length - 1;\n\n        // the iteration process narrows down the bounds by\n        // splitting the interval in a half oce per each iteration\n        while(j > i) {\n            // get an index in the middle of the interval [i, j]\n            uint256 k = j - (j - i) / 2;\n\n            // read an element to compare it with the value of interest\n            VotingPowerRecord memory cp = history[k];\n\n            // if we've got a strict equal - we're lucky and done\n            if(cp.blockNumber == n) {\n                // just return the result - index `k`\n                return k;\n            }\n            // if the value of interest is bigger - move left bound to the middle\n            else if (cp.blockNumber < n) {\n                // move left bound `i` to the middle position `k`\n                i = k;\n            }\n            // otherwise, when the value of interest is smaller - move right bound to the middle\n            else {\n                // move right bound `j` to the middle position `k - 1`:\n                // element at position `k` is bigger and cannot be the result\n                j = k - 1;\n            }\n        }\n        // reaching that point means no exact match found\n        // since we're interested in the element which is not bigger than the\n        // element of interest, we return the lower bound `i`\n        return i;\n    }\n    \n    function mint(address _to, uint256 _amount) public onlyMinter whenNotPaused returns (bool) {\n        require(totalSupply() + _amount <= cap, \"BEP20: Cap reached. Cannot mint\");\n        _mint(_to, _amount);\n        _moveVotingPower(address(0), votingDelegates[_to], _amount);\n        \n        return true;\n    }\n\n    function burn(address _from, uint256 _amount) public onlyBurner whenNotPaused returns (bool) {\n        _burn(_from, _amount);\n        _moveVotingPower(votingDelegates[_from], address(0), _amount);\n        \n        return true;\n    }\n    /**\n     * @dev Constructor will mint initial 100,000,000 tokens to contract address\n     */\n    constructor() {\n        mint(_msgSender(), totalTokens);\n    }\n}\n",
  "sourcePath": "/Users/igormoscalets/nbmoncompany/nbmondemo/contracts/implementation/NBCoin.sol",
  "compiler": {
    "name": "solc",
    "version": "0.8.10+commit.fc410830.Emscripten.clang"
  },
  "schemaVersion": "3.4.3",
  "updatedAt": "2022-01-02T17:22:47.909Z",
  "devdoc": {
    "details": "Total supply starts at 100,000,000 (100 million)      Supply will have a maximum cap of 130,000,000 (130 million)      through yield farming methodsNBCoin contract with governance implemented",
    "events": {
      "DelegateChanged(address,address,address)": {
        "details": "Notifies that a key-value pair in `votingDelegates` mapping has changed,      i.e. a delegator address has changed its delegate address",
        "params": {
          "_from": "old delegate, an address whose delegate rights are revoked",
          "_of": "delegator address, a token owner",
          "_to": "new delegate, an address which received the voting power"
        }
      },
      "VotingPowerChanged(address,uint256,uint256)": {
        "details": "Notifies that a key-value pair in `votingPowerHistory` mapping has changed,      i.e. a delegate's voting power has changed.",
        "params": {
          "_fromVal": "previous number of votes delegate had",
          "_of": "delegate whose voting power has changed",
          "_toVal": "new number of votes delegate has"
        }
      }
    },
    "kind": "dev",
    "methods": {
      "approve(address,uint256)": {
        "details": "Sets `amount` as the allowance of `spender` over the caller's tokens. Returns a boolean value indicating whether the operation succeeded. Requirements: - `spender` cannot be the zero address."
      },
      "balanceOf(address)": {
        "details": "Returns the amount of tokens owned by `account`."
      },
      "constructor": {
        "details": "Constructor will mint initial 100,000,000 tokens to contract address"
      },
      "decimals()": {
        "details": "Returns the token decimals."
      },
      "decreaseAllowance(address,uint256)": {
        "details": "Atomically decreases the allowance granted to `spender` by the caller. This is an alternative to {approve} that can be used as a mitigation for problems described in {IBEP20-approve}. Emits an {Approval} event indicating the updated allowance. Requirements: - `spender` cannot be the zero address. - `spender` must have allowance for the caller of at least `subtractedValue`."
      },
      "delegate(address)": {
        "details": "Accepts zero value address to delegate voting power to, effectively      removing the delegate in that case",
        "params": {
          "_to": "address to delegate voting power to"
        }
      },
      "delegateWithSig(address,uint256,uint256,uint8,bytes32,bytes32)": {
        "details": "Accepts zero value address to delegate voting power to, effectively      removing the delegate in that caseCompliant with EIP-712: Ethereum typed structured data hashing and signing,      see https://eips.ethereum.org/EIPS/eip-712",
        "params": {
          "_exp": "signature expiration time",
          "_nonce": "nonce used to construct the signature, and used to validate it;      nonce is increased by one after successful signature validation and vote delegation",
          "_to": "address to delegate voting power to",
          "r": "half of the ECDSA signature pair",
          "s": "half of the ECDSA signature pair",
          "v": "the recovery byte of the signature"
        }
      },
      "getVotingPower(address)": {
        "params": {
          "_of": "the address of account to get voting power of"
        },
        "returns": {
          "_0": "current cumulative voting power of the account,      sum of token balances of all its voting delegators"
        }
      },
      "getVotingPowerAt(address,uint256)": {
        "details": "Throws if `_blockNum` is not in the past (not the finalized block)",
        "params": {
          "_blockNum": "block number to get the voting power at",
          "_of": "the address of account to get voting power of"
        },
        "returns": {
          "_0": "past cumulative voting power of the account,      sum of token balances of all its voting delegators at block number `_blockNum`"
        }
      },
      "getVotingPowerHistory(address)": {
        "details": "Reads an entire voting power history array for the delegate specified",
        "params": {
          "_of": "delegate to query voting power history for"
        },
        "returns": {
          "_0": "voting power history array for the delegate of interest"
        }
      },
      "getVotingPowerHistoryLength(address)": {
        "details": "Returns length of the voting power history array for the delegate specified;      useful since reading an entire array just to get its length is expensive (gas cost)     ",
        "params": {
          "_of": "delegate to query voting power history length for"
        },
        "returns": {
          "_0": "voting power history array length for the delegate of interest"
        }
      },
      "increaseAllowance(address,uint256)": {
        "details": "Atomically increases the allowance granted to `spender` by the caller. This is an alternative to {approve} that can be used as a mitigation for problems described in {IBEP20-approve}. Emits an {Approval} event indicating the updated allowance. Requirements: - `spender` cannot be the zero address."
      },
      "name()": {
        "details": "Returns the name of the token."
      },
      "pause()": {
        "details": "Triggers stopped state. Only callable by admin. Requirements: - The contract must not be paused."
      },
      "paused()": {
        "details": "Returns true if the contract is paused, and false otherwise."
      },
      "symbol()": {
        "details": "Returns the symbol of the token."
      },
      "totalSupply()": {
        "details": "Returns the amount of tokens in existence."
      },
      "transfer(address,uint256)": {
        "details": "Moves `amount` tokens from the caller's account to `recipient`. Returns a boolean value indicating whether the operation succeeded. Emits a {Transfer} event. Requirements: - `recipient` cannot be the zero address. - the caller must have a balance of at least `amount`."
      },
      "transferFrom(address,address,uint256)": {
        "details": "Moves `amount` tokens from `sender` to `recipient` using the allowance mechanism. `amount` is then deducted from the caller's allowance. Returns a boolean value indicating whether the operation succeeded. Emits an {Approval} event indicating the updated allowance. This is not required by the EIP. See the note at the beginning of {BEP20}. Requirements: - `sender` and `recipient` cannot be the zero address. - `sender` must have a balance of at least `amount`. - the caller must have allowance for ``sender``'s tokens of at least `amount`."
      },
      "unpause()": {
        "details": "Returns to normal state. Only callable by admin. Requirements: - The contract must be paused."
      }
    },
    "stateVariables": {
      "nonces": {
        "details": "A record of nonces for signing/validating signatures in `delegateWithSig`      for every delegate, increases after successful validation Maps delegate address => delegate nonce"
      },
      "votingDelegates": {
        "details": "Auxiliary data structure used to sum up an account's voting powerThis mapping keeps record of all voting power delegations:      voting delegator (token owner) => voting delegate"
      },
      "votingPowerHistory": {
        "details": "Primarily data structure to store voting power for each account.      Voting power sums up from the account's token balance and delegated      balances.Stores current value and entire history of its changes.      The changes are stored as an array of checkpoints.      VotingPowerRecord is an auxiliary data structure containing voting      power (number of votes) and block number when the checkpoint is savedMaps voting delegate => voting power record"
      }
    },
    "version": 1
  },
  "userdoc": {
    "kind": "user",
    "methods": {
      "DELEGATION_TYPEHASH()": {
        "notice": "EIP-712 delegation struct typeHash, see https://eips.ethereum.org/EIPS/eip-712#rationale-for-typehash"
      },
      "DOMAIN_TYPEHASH()": {
        "notice": "EIP-712 contract's domain typeHash, see https://eips.ethereum.org/EIPS/eip-712#rationale-for-typehash"
      },
      "delegate(address)": {
        "notice": "Delegates voting power of the delegator `msg.sender` to the delegate `_to`"
      },
      "delegateWithSig(address,uint256,uint256,uint8,bytes32,bytes32)": {
        "notice": "Delegates voting power of the delegator (represented by its signature) to the delegate `_to`"
      },
      "getVotingPower(address)": {
        "notice": "Gets current voting power of the account `_of`"
      },
      "getVotingPowerAt(address,uint256)": {
        "notice": "Gets past voting power of the account `_of` at some block `_blockNum`"
      },
      "votingDelegates(address)": {
        "notice": "A record of each account's voting delegate"
      },
      "votingPowerHistory(address,uint256)": {
        "notice": "A record of each account's voting power"
      }
    },
    "version": 1
  }
}