{
  "contractName": "NBMarketplace",
  "abi": [
    {
      "inputs": [],
      "stateMutability": "nonpayable",
      "type": "constructor"
    },
    {
      "anonymous": false,
      "inputs": [
        {
          "indexed": false,
          "internalType": "address",
          "name": "_nftContract",
          "type": "address"
        },
        {
          "indexed": false,
          "internalType": "uint256",
          "name": "_tokenId",
          "type": "uint256"
        }
      ],
      "name": "AuctionCancelled",
      "type": "event"
    },
    {
      "anonymous": false,
      "inputs": [
        {
          "indexed": true,
          "internalType": "address",
          "name": "_nftContract",
          "type": "address"
        },
        {
          "indexed": true,
          "internalType": "uint256",
          "name": "_tokenId",
          "type": "uint256"
        },
        {
          "indexed": false,
          "internalType": "uint256",
          "name": "_startingPrice",
          "type": "uint256"
        },
        {
          "indexed": false,
          "internalType": "uint256",
          "name": "_endingPrice",
          "type": "uint256"
        },
        {
          "indexed": false,
          "internalType": "uint256",
          "name": "_duration",
          "type": "uint256"
        },
        {
          "indexed": false,
          "internalType": "address",
          "name": "_seller",
          "type": "address"
        }
      ],
      "name": "AuctionCreated",
      "type": "event"
    },
    {
      "anonymous": false,
      "inputs": [
        {
          "indexed": true,
          "internalType": "address",
          "name": "_nftContract",
          "type": "address"
        },
        {
          "indexed": true,
          "internalType": "uint256",
          "name": "_tokenId",
          "type": "uint256"
        },
        {
          "indexed": false,
          "internalType": "uint256",
          "name": "_endingPrice",
          "type": "uint256"
        },
        {
          "indexed": false,
          "internalType": "address",
          "name": "_winner",
          "type": "address"
        }
      ],
      "name": "AuctionSuccessful",
      "type": "event"
    },
    {
      "anonymous": false,
      "inputs": [
        {
          "indexed": true,
          "internalType": "address",
          "name": "previousOwner",
          "type": "address"
        },
        {
          "indexed": true,
          "internalType": "address",
          "name": "newOwner",
          "type": "address"
        }
      ],
      "name": "OwnershipTransferred",
      "type": "event"
    },
    {
      "anonymous": false,
      "inputs": [
        {
          "indexed": false,
          "internalType": "address",
          "name": "account",
          "type": "address"
        }
      ],
      "name": "Paused",
      "type": "event"
    },
    {
      "anonymous": false,
      "inputs": [
        {
          "indexed": false,
          "internalType": "address",
          "name": "account",
          "type": "address"
        }
      ],
      "name": "Unpaused",
      "type": "event"
    },
    {
      "inputs": [],
      "name": "admin",
      "outputs": [
        {
          "internalType": "address",
          "name": "",
          "type": "address"
        }
      ],
      "stateMutability": "view",
      "type": "function"
    },
    {
      "inputs": [],
      "name": "auctionFee",
      "outputs": [
        {
          "internalType": "uint256",
          "name": "",
          "type": "uint256"
        }
      ],
      "stateMutability": "view",
      "type": "function"
    },
    {
      "inputs": [
        {
          "internalType": "uint256",
          "name": "",
          "type": "uint256"
        }
      ],
      "name": "auctions",
      "outputs": [
        {
          "internalType": "address",
          "name": "seller",
          "type": "address"
        },
        {
          "internalType": "uint128",
          "name": "startingPrice",
          "type": "uint128"
        },
        {
          "internalType": "uint128",
          "name": "endingPrice",
          "type": "uint128"
        },
        {
          "internalType": "uint64",
          "name": "duration",
          "type": "uint64"
        },
        {
          "internalType": "uint256",
          "name": "startedAt",
          "type": "uint256"
        }
      ],
      "stateMutability": "view",
      "type": "function"
    },
    {
      "inputs": [
        {
          "internalType": "uint256",
          "name": "_tokenId",
          "type": "uint256"
        }
      ],
      "name": "bid",
      "outputs": [],
      "stateMutability": "payable",
      "type": "function"
    },
    {
      "inputs": [],
      "name": "burner",
      "outputs": [
        {
          "internalType": "address",
          "name": "",
          "type": "address"
        }
      ],
      "stateMutability": "view",
      "type": "function"
    },
    {
      "inputs": [
        {
          "internalType": "uint256",
          "name": "_tokenId",
          "type": "uint256"
        }
      ],
      "name": "cancelAuction",
      "outputs": [],
      "stateMutability": "nonpayable",
      "type": "function"
    },
    {
      "inputs": [
        {
          "internalType": "uint256",
          "name": "_tokenId",
          "type": "uint256"
        }
      ],
      "name": "cancelAuctionWhenPaused",
      "outputs": [],
      "stateMutability": "nonpayable",
      "type": "function"
    },
    {
      "inputs": [],
      "name": "ceo",
      "outputs": [
        {
          "internalType": "address",
          "name": "",
          "type": "address"
        }
      ],
      "stateMutability": "view",
      "type": "function"
    },
    {
      "inputs": [
        {
          "internalType": "uint256",
          "name": "_tokenId",
          "type": "uint256"
        },
        {
          "internalType": "uint128",
          "name": "_startingPrice",
          "type": "uint128"
        },
        {
          "internalType": "uint128",
          "name": "_endingPrice",
          "type": "uint128"
        },
        {
          "internalType": "uint64",
          "name": "_duration",
          "type": "uint64"
        },
        {
          "internalType": "address",
          "name": "_seller",
          "type": "address"
        }
      ],
      "name": "createAuction",
      "outputs": [],
      "stateMutability": "nonpayable",
      "type": "function"
    },
    {
      "inputs": [
        {
          "internalType": "uint256",
          "name": "_tokenId",
          "type": "uint256"
        }
      ],
      "name": "getAuction",
      "outputs": [
        {
          "internalType": "address",
          "name": "_seller",
          "type": "address"
        },
        {
          "internalType": "uint128",
          "name": "_startingPrice",
          "type": "uint128"
        },
        {
          "internalType": "uint128",
          "name": "_endingPrice",
          "type": "uint128"
        },
        {
          "internalType": "uint64",
          "name": "_duration",
          "type": "uint64"
        },
        {
          "internalType": "uint256",
          "name": "_startedAt",
          "type": "uint256"
        }
      ],
      "stateMutability": "view",
      "type": "function"
    },
    {
      "inputs": [
        {
          "internalType": "uint256",
          "name": "_tokenId",
          "type": "uint256"
        }
      ],
      "name": "getCurrentPrice",
      "outputs": [
        {
          "internalType": "uint256",
          "name": "",
          "type": "uint256"
        }
      ],
      "stateMutability": "view",
      "type": "function"
    },
    {
      "inputs": [],
      "name": "manager",
      "outputs": [
        {
          "internalType": "address",
          "name": "",
          "type": "address"
        }
      ],
      "stateMutability": "view",
      "type": "function"
    },
    {
      "inputs": [],
      "name": "minter",
      "outputs": [
        {
          "internalType": "address",
          "name": "",
          "type": "address"
        }
      ],
      "stateMutability": "view",
      "type": "function"
    },
    {
      "inputs": [
        {
          "internalType": "address",
          "name": "_newAdmin",
          "type": "address"
        }
      ],
      "name": "newAdmin",
      "outputs": [],
      "stateMutability": "nonpayable",
      "type": "function"
    },
    {
      "inputs": [
        {
          "internalType": "address",
          "name": "_newBurner",
          "type": "address"
        }
      ],
      "name": "newBurner",
      "outputs": [],
      "stateMutability": "nonpayable",
      "type": "function"
    },
    {
      "inputs": [
        {
          "internalType": "address",
          "name": "_newCEO",
          "type": "address"
        }
      ],
      "name": "newCEO",
      "outputs": [],
      "stateMutability": "nonpayable",
      "type": "function"
    },
    {
      "inputs": [
        {
          "internalType": "address",
          "name": "_newManager",
          "type": "address"
        }
      ],
      "name": "newManager",
      "outputs": [],
      "stateMutability": "nonpayable",
      "type": "function"
    },
    {
      "inputs": [
        {
          "internalType": "address",
          "name": "_newMinter",
          "type": "address"
        }
      ],
      "name": "newMinter",
      "outputs": [],
      "stateMutability": "nonpayable",
      "type": "function"
    },
    {
      "inputs": [],
      "name": "nftContract",
      "outputs": [
        {
          "internalType": "contract BEP721",
          "name": "",
          "type": "address"
        }
      ],
      "stateMutability": "view",
      "type": "function"
    },
    {
      "inputs": [
        {
          "internalType": "address",
          "name": "",
          "type": "address"
        },
        {
          "internalType": "address",
          "name": "",
          "type": "address"
        },
        {
          "internalType": "uint256",
          "name": "",
          "type": "uint256"
        },
        {
          "internalType": "bytes",
          "name": "",
          "type": "bytes"
        }
      ],
      "name": "onBEP721Received",
      "outputs": [
        {
          "internalType": "bytes4",
          "name": "",
          "type": "bytes4"
        }
      ],
      "stateMutability": "nonpayable",
      "type": "function"
    },
    {
      "inputs": [],
      "name": "owner",
      "outputs": [
        {
          "internalType": "address",
          "name": "",
          "type": "address"
        }
      ],
      "stateMutability": "view",
      "type": "function"
    },
    {
      "inputs": [],
      "name": "pause",
      "outputs": [],
      "stateMutability": "nonpayable",
      "type": "function"
    },
    {
      "inputs": [],
      "name": "paused",
      "outputs": [
        {
          "internalType": "bool",
          "name": "",
          "type": "bool"
        }
      ],
      "stateMutability": "view",
      "type": "function"
    },
    {
      "inputs": [],
      "name": "renounceOwnership",
      "outputs": [],
      "stateMutability": "nonpayable",
      "type": "function"
    },
    {
      "inputs": [
        {
          "internalType": "address",
          "name": "newOwner",
          "type": "address"
        }
      ],
      "name": "transferOwnership",
      "outputs": [],
      "stateMutability": "nonpayable",
      "type": "function"
    },
    {
      "inputs": [],
      "name": "unpause",
      "outputs": [],
      "stateMutability": "nonpayable",
      "type": "function"
    }
  ],
  "bytecode": "0x60806040523480156200001157600080fd5b5073b5e567d854fb0cc4172143a3d2b983e94c6ccfe26101f46200003a6200029260201b60201c565b6000806101000a81548173ffffffffffffffffffffffffffffffffffffffff021916908373ffffffffffffffffffffffffffffffffffffffff160217905550620000896200029260201b60201c565b600160006101000a81548173ffffffffffffffffffffffffffffffffffffffff021916908373ffffffffffffffffffffffffffffffffffffffff160217905550620000d96200029260201b60201c565b600260006101000a81548173ffffffffffffffffffffffffffffffffffffffff021916908373ffffffffffffffffffffffffffffffffffffffff160217905550620001296200029260201b60201c565b600360006101000a81548173ffffffffffffffffffffffffffffffffffffffff021916908373ffffffffffffffffffffffffffffffffffffffff160217905550620001796200029260201b60201c565b600460006101000a81548173ffffffffffffffffffffffffffffffffffffffff021916908373ffffffffffffffffffffffffffffffffffffffff1602179055506000600460146101000a81548160ff021916908315150217905550620001f4620001e86200029260201b60201c565b6200029a60201b60201c565b6127108111156200023c576040517f08c379a00000000000000000000000000000000000000000000000000000000081526004016200023390620003e7565b60405180910390fd5b80600781905550600082905080600660006101000a81548173ffffffffffffffffffffffffffffffffffffffff021916908373ffffffffffffffffffffffffffffffffffffffff16021790555050505062000409565b600033905090565b6000600560009054906101000a900473ffffffffffffffffffffffffffffffffffffffff16905081600560006101000a81548173ffffffffffffffffffffffffffffffffffffffff021916908373ffffffffffffffffffffffffffffffffffffffff1602179055508173ffffffffffffffffffffffffffffffffffffffff168173ffffffffffffffffffffffffffffffffffffffff167f8be0079c531659141344cd1fd0a4f28419497f9722a3daafe3b4186f6b6457e060405160405180910390a35050565b600082825260208201905092915050565b7f4d61726b6574706c6163653a204665652073706563696669656420646f65732060008201527f6e6f74206d65657420726571756972656d656e74730000000000000000000000602082015250565b6000620003cf60358362000360565b9150620003dc8262000371565b604082019050919050565b600060208201905081810360008301526200040281620003c0565b9050919050565b612fc780620004196000396000f3fe6080604052600436106101815760003560e01c80638456cb59116100d1578063a6ba31c11161008a578063d56d229d11610064578063d56d229d1461052f578063f2fde38b1461055a578063f840f72b14610583578063f851a440146105ac57610181565b8063a6ba31c1146104a0578063a9917dbe146104c9578063c55d0f56146104f257610181565b80638456cb59146103b8578063878eb368146103cf5780638da5cb5b146103f8578063906e940014610423578063908921fc1461044c57806396b5a7551461047757610181565b8063481c6a751161013e5780635734191211610118578063573419121461030c5780635c975abb14610335578063715018a61461036057806378bd79351461037757610181565b8063481c6a75146102775780634ee42914146102a2578063571a26a0146102cb57610181565b8063075461721461018657806314525b6b146101b157806327810b6e146101dc5780633f4ba83a1461020757806341982fc81461021e578063454a2ab31461025b575b600080fd5b34801561019257600080fd5b5061019b6105d7565b6040516101a89190611f23565b60405180910390f35b3480156101bd57600080fd5b506101c66105fd565b6040516101d39190611f57565b60405180910390f35b3480156101e857600080fd5b506101f1610603565b6040516101fe9190611f23565b60405180910390f35b34801561021357600080fd5b5061021c610629565b005b34801561022a57600080fd5b5061024560048036038101906102409190612124565b61072a565b60405161025291906121e2565b60405180910390f35b610275600480360381019061027091906121fd565b61073e565b005b34801561028357600080fd5b5061028c6107a5565b6040516102999190611f23565b60405180910390f35b3480156102ae57600080fd5b506102c960048036038101906102c491906122b2565b6107cb565b005b3480156102d757600080fd5b506102f260048036038101906102ed91906121fd565b6108f2565b60405161030395949392919061234b565b60405180910390f35b34801561031857600080fd5b50610333600480360381019061032e919061239e565b610994565b005b34801561034157600080fd5b5061034a610ad0565b60405161035791906123e6565b60405180910390f35b34801561036c57600080fd5b50610375610ae7565b005b34801561038357600080fd5b5061039e600480360381019061039991906121fd565b610b6f565b6040516103af95949392919061234b565b60405180910390f35b3480156103c457600080fd5b506103cd610c6e565b005b3480156103db57600080fd5b506103f660048036038101906103f191906121fd565b610d70565b005b34801561040457600080fd5b5061040d610ec4565b60405161041a9190611f23565b60405180910390f35b34801561042f57600080fd5b5061044a6004803603810190610445919061239e565b610eee565b005b34801561045857600080fd5b5061046161102a565b60405161046e9190611f23565b60405180910390f35b34801561048357600080fd5b5061049e600480360381019061049991906121fd565b611050565b005b3480156104ac57600080fd5b506104c760048036038101906104c2919061239e565b61115c565b005b3480156104d557600080fd5b506104f060048036038101906104eb919061239e565b611238565b005b3480156104fe57600080fd5b50610519600480360381019061051491906121fd565b611315565b6040516105269190611f57565b60405180910390f35b34801561053b57600080fd5b50610544611386565b6040516105519190612460565b60405180910390f35b34801561056657600080fd5b50610581600480360381019061057c919061239e565b6113ac565b005b34801561058f57600080fd5b506105aa60048036038101906105a5919061239e565b6114a4565b005b3480156105b857600080fd5b506105c16115e0565b6040516105ce9190611f23565b60405180910390f35b600160009054906101000a900473ffffffffffffffffffffffffffffffffffffffff1681565b60075481565b600260009054906101000a900473ffffffffffffffffffffffffffffffffffffffff1681565b610631610ad0565b610670576040517f08c379a0000000000000000000000000000000000000000000000000000000008152600401610667906124d8565b60405180910390fd5b60008054906101000a900473ffffffffffffffffffffffffffffffffffffffff1673ffffffffffffffffffffffffffffffffffffffff166106af611604565b73ffffffffffffffffffffffffffffffffffffffff16146106cf57600080fd5b6000600460146101000a81548160ff0219169083151502179055507f5db9ee0a495bf2e6ff9c91a7834c1ba4fdd244a5e8aa4e537bd38aeae4b073aa610713611604565b6040516107209190611f23565b60405180910390a1565b60006341982fc860e01b9050949350505050565b610746610ad0565b15610786576040517f08c379a000000000000000000000000000000000000000000000000000000000815260040161077d90612544565b60405180910390fd5b610790813461160c565b506107a261079c611604565b826117e4565b50565b600460009054906101000a900473ffffffffffffffffffffffffffffffffffffffff1681565b6107d3610ad0565b15610813576040517f08c379a000000000000000000000000000000000000000000000000000000000815260040161080a90612544565b60405180910390fd5b61081b611604565b90506108278186611879565b610866576040517f08c379a000000000000000000000000000000000000000000000000000000000815260040161085d906125d6565b60405180910390fd5b610870818661194d565b60006040518060a001604052808373ffffffffffffffffffffffffffffffffffffffff168152602001866fffffffffffffffffffffffffffffffff168152602001856fffffffffffffffffffffffffffffffff1681526020018467ffffffffffffffff1681526020014281525090506108ea8682846119e2565b505050505050565b60086020528060005260406000206000915090508060000160009054906101000a900473ffffffffffffffffffffffffffffffffffffffff16908060010160009054906101000a90046fffffffffffffffffffffffffffffffff16908060010160109054906101000a90046fffffffffffffffffffffffffffffffff16908060020160009054906101000a900467ffffffffffffffff16908060030154905085565b60008054906101000a900473ffffffffffffffffffffffffffffffffffffffff1673ffffffffffffffffffffffffffffffffffffffff166109d3611604565b73ffffffffffffffffffffffffffffffffffffffff161480610a495750600360009054906101000a900473ffffffffffffffffffffffffffffffffffffffff1673ffffffffffffffffffffffffffffffffffffffff16610a31611604565b73ffffffffffffffffffffffffffffffffffffffff16145b610a5257600080fd5b600073ffffffffffffffffffffffffffffffffffffffff168173ffffffffffffffffffffffffffffffffffffffff161415610a8c57600080fd5b80600160006101000a81548173ffffffffffffffffffffffffffffffffffffffff021916908373ffffffffffffffffffffffffffffffffffffffff16021790555050565b6000600460149054906101000a900460ff16905090565b610aef611604565b73ffffffffffffffffffffffffffffffffffffffff16610b0d610ec4565b73ffffffffffffffffffffffffffffffffffffffff1614610b63576040517f08c379a0000000000000000000000000000000000000000000000000000000008152600401610b5a90612642565b60405180910390fd5b610b6d6000611bd1565b565b600080600080600080600860008881526020019081526020016000209050610b9681611c97565b610bd5576040517f08c379a0000000000000000000000000000000000000000000000000000000008152600401610bcc906126d4565b60405180910390fd5b8060000160009054906101000a900473ffffffffffffffffffffffffffffffffffffffff168160010160009054906101000a90046fffffffffffffffffffffffffffffffff168260010160109054906101000a90046fffffffffffffffffffffffffffffffff168360020160009054906101000a900467ffffffffffffffff168460030154955095509550955095505091939590929450565b610c76610ad0565b15610cb6576040517f08c379a0000000000000000000000000000000000000000000000000000000008152600401610cad90612544565b60405180910390fd5b60008054906101000a900473ffffffffffffffffffffffffffffffffffffffff1673ffffffffffffffffffffffffffffffffffffffff16610cf5611604565b73ffffffffffffffffffffffffffffffffffffffff1614610d1557600080fd5b6001600460146101000a81548160ff0219169083151502179055507f62e78cea01bee320cd4e420270b5ea74000d11b0c9f74754ebdbfc544b05a258610d59611604565b604051610d669190611f23565b60405180910390a1565b610d78610ad0565b610db7576040517f08c379a0000000000000000000000000000000000000000000000000000000008152600401610dae906124d8565b60405180910390fd5b610dbf611604565b73ffffffffffffffffffffffffffffffffffffffff16610ddd610ec4565b73ffffffffffffffffffffffffffffffffffffffff1614610e33576040517f08c379a0000000000000000000000000000000000000000000000000000000008152600401610e2a90612642565b60405180910390fd5b6000600860008381526020019081526020016000209050610e5381611c97565b610e92576040517f08c379a0000000000000000000000000000000000000000000000000000000008152600401610e89906126d4565b60405180910390fd5b610ec0828260000160009054906101000a900473ffffffffffffffffffffffffffffffffffffffff16611ca7565b5050565b6000600560009054906101000a900473ffffffffffffffffffffffffffffffffffffffff16905090565b60008054906101000a900473ffffffffffffffffffffffffffffffffffffffff1673ffffffffffffffffffffffffffffffffffffffff16610f2d611604565b73ffffffffffffffffffffffffffffffffffffffff161480610fa35750600360009054906101000a900473ffffffffffffffffffffffffffffffffffffffff1673ffffffffffffffffffffffffffffffffffffffff16610f8b611604565b73ffffffffffffffffffffffffffffffffffffffff16145b610fac57600080fd5b600073ffffffffffffffffffffffffffffffffffffffff168173ffffffffffffffffffffffffffffffffffffffff161415610fe657600080fd5b80600460006101000a81548173ffffffffffffffffffffffffffffffffffffffff021916908373ffffffffffffffffffffffffffffffffffffffff16021790555050565b600360009054906101000a900473ffffffffffffffffffffffffffffffffffffffff1681565b600060086000838152602001908152602001600020905061107081611c97565b6110af576040517f08c379a00000000000000000000000000000000000000000000000000000000081526004016110a6906126d4565b60405180910390fd5b60008160000160009054906101000a900473ffffffffffffffffffffffffffffffffffffffff1690508073ffffffffffffffffffffffffffffffffffffffff166110f7611604565b73ffffffffffffffffffffffffffffffffffffffff161461114d576040517f08c379a000000000000000000000000000000000000000000000000000000000815260040161114490612766565b60405180910390fd5b6111578382611ca7565b505050565b60008054906101000a900473ffffffffffffffffffffffffffffffffffffffff1673ffffffffffffffffffffffffffffffffffffffff1661119b611604565b73ffffffffffffffffffffffffffffffffffffffff16146111bb57600080fd5b600073ffffffffffffffffffffffffffffffffffffffff168173ffffffffffffffffffffffffffffffffffffffff1614156111f557600080fd5b806000806101000a81548173ffffffffffffffffffffffffffffffffffffffff021916908373ffffffffffffffffffffffffffffffffffffffff16021790555050565b60008054906101000a900473ffffffffffffffffffffffffffffffffffffffff1673ffffffffffffffffffffffffffffffffffffffff16611277611604565b73ffffffffffffffffffffffffffffffffffffffff161461129757600080fd5b600073ffffffffffffffffffffffffffffffffffffffff168173ffffffffffffffffffffffffffffffffffffffff1614156112d157600080fd5b80600360006101000a81548173ffffffffffffffffffffffffffffffffffffffff021916908373ffffffffffffffffffffffffffffffffffffffff16021790555050565b60008060086000848152602001908152602001600020905061133681611c97565b611375576040517f08c379a000000000000000000000000000000000000000000000000000000000815260040161136c906126d4565b60405180910390fd5b61137e81611d19565b915050919050565b600660009054906101000a900473ffffffffffffffffffffffffffffffffffffffff1681565b6113b4611604565b73ffffffffffffffffffffffffffffffffffffffff166113d2610ec4565b73ffffffffffffffffffffffffffffffffffffffff1614611428576040517f08c379a000000000000000000000000000000000000000000000000000000000815260040161141f90612642565b60405180910390fd5b600073ffffffffffffffffffffffffffffffffffffffff168173ffffffffffffffffffffffffffffffffffffffff161415611498576040517f08c379a000000000000000000000000000000000000000000000000000000000815260040161148f906127f8565b60405180910390fd5b6114a181611bd1565b50565b60008054906101000a900473ffffffffffffffffffffffffffffffffffffffff1673ffffffffffffffffffffffffffffffffffffffff166114e3611604565b73ffffffffffffffffffffffffffffffffffffffff1614806115595750600360009054906101000a900473ffffffffffffffffffffffffffffffffffffffff1673ffffffffffffffffffffffffffffffffffffffff16611541611604565b73ffffffffffffffffffffffffffffffffffffffff16145b61156257600080fd5b600073ffffffffffffffffffffffffffffffffffffffff168173ffffffffffffffffffffffffffffffffffffffff16141561159c57600080fd5b80600260006101000a81548173ffffffffffffffffffffffffffffffffffffffff021916908373ffffffffffffffffffffffffffffffffffffffff16021790555050565b60008054906101000a900473ffffffffffffffffffffffffffffffffffffffff1681565b600033905090565b60008060086000858152602001908152602001600020905061162d81611c97565b61166c576040517f08c379a00000000000000000000000000000000000000000000000000000000081526004016116639061288a565b60405180910390fd5b600061167782611d19565b9050808410156116bc576040517f08c379a00000000000000000000000000000000000000000000000000000000081526004016116b39061291c565b60405180910390fd5b60008260000160009054906101000a900473ffffffffffffffffffffffffffffffffffffffff1690506116ee86611dba565b600082111561175e57600061170283611e63565b905060008184611712919061296b565b90508273ffffffffffffffffffffffffffffffffffffffff166108fc829081150290604051600060405180830381858888f1935050505015801561175a573d6000803e3d6000fd5b5050505b85600660009054906101000a900473ffffffffffffffffffffffffffffffffffffffff1673ffffffffffffffffffffffffffffffffffffffff167f6c00bb44a64da29b6a73920d50ff280237d277bda3e1f3cdf4e24392e6839efe846117c2611604565b6040516117d092919061299f565b60405180910390a381935050505092915050565b600660009054906101000a900473ffffffffffffffffffffffffffffffffffffffff1673ffffffffffffffffffffffffffffffffffffffff166376b82a913084846040518463ffffffff1660e01b8152600401611843939291906129ff565b600060405180830381600087803b15801561185d57600080fd5b505af1158015611871573d6000803e3d6000fd5b505050505050565b60008273ffffffffffffffffffffffffffffffffffffffff16600660009054906101000a900473ffffffffffffffffffffffffffffffffffffffff1673ffffffffffffffffffffffffffffffffffffffff16636352211e846040518263ffffffff1660e01b81526004016118ed9190611f57565b602060405180830381865afa15801561190a573d6000803e3d6000fd5b505050506040513d601f19601f8201168201806040525081019061192e9190612a5e565b73ffffffffffffffffffffffffffffffffffffffff1614905092915050565b600660009054906101000a900473ffffffffffffffffffffffffffffffffffffffff1673ffffffffffffffffffffffffffffffffffffffff166342842e0e8330846040518463ffffffff1660e01b81526004016119ac93929190612a8b565b600060405180830381600087803b1580156119c657600080fd5b505af11580156119da573d6000803e3d6000fd5b505050505050565b603c826060015167ffffffffffffffff161015611a34576040517f08c379a0000000000000000000000000000000000000000000000000000000008152600401611a2b90612b34565b60405180910390fd5b816008600085815260200190815260200160002060008201518160000160006101000a81548173ffffffffffffffffffffffffffffffffffffffff021916908373ffffffffffffffffffffffffffffffffffffffff16021790555060208201518160010160006101000a8154816fffffffffffffffffffffffffffffffff02191690836fffffffffffffffffffffffffffffffff16021790555060408201518160010160106101000a8154816fffffffffffffffffffffffffffffffff02191690836fffffffffffffffffffffffffffffffff16021790555060608201518160020160006101000a81548167ffffffffffffffff021916908367ffffffffffffffff1602179055506080820151816003015590505082600660009054906101000a900473ffffffffffffffffffffffffffffffffffffffff1673ffffffffffffffffffffffffffffffffffffffff167febc6e332a2c695c53d77b2922a18bcf3ab024549f5f2bfa67e0875ec29d59d4684602001518560400151866060015186604051611bc49493929190612bb6565b60405180910390a3505050565b6000600560009054906101000a900473ffffffffffffffffffffffffffffffffffffffff16905081600560006101000a81548173ffffffffffffffffffffffffffffffffffffffff021916908373ffffffffffffffffffffffffffffffffffffffff1602179055508173ffffffffffffffffffffffffffffffffffffffff168173ffffffffffffffffffffffffffffffffffffffff167f8be0079c531659141344cd1fd0a4f28419497f9722a3daafe3b4186f6b6457e060405160405180910390a35050565b6000808260030154119050919050565b611cb082611dba565b611cba81836117e4565b7f018b64b6242d32aa550e95d78985b938d71af5b3f10827b0683f55da16393048600660009054906101000a900473ffffffffffffffffffffffffffffffffffffffff1683604051611d0d929190612bfb565b60405180910390a15050565b60008060009050611db28360010160009054906101000a90046fffffffffffffffffffffffffffffffff166fffffffffffffffffffffffffffffffff168460010160109054906101000a90046fffffffffffffffffffffffffffffffff166fffffffffffffffffffffffffffffffff168560020160009054906101000a900467ffffffffffffffff1667ffffffffffffffff1684611e87565b915050919050565b60086000828152602001908152602001600020600080820160006101000a81549073ffffffffffffffffffffffffffffffffffffffff02191690556001820160006101000a8154906fffffffffffffffffffffffffffffffff02191690556001820160106101000a8154906fffffffffffffffffffffffffffffffff02191690556002820160006101000a81549067ffffffffffffffff02191690556003820160009055505050565b600061271060075483611e769190612c24565b611e809190612cad565b9050919050565b6000828210611e9857839050611eda565b60008585611ea69190612ce8565b90506000848483611eb79190612d7c565b611ec19190612e93565b905060008188611ed19190612efd565b90508093505050505b949350505050565b600073ffffffffffffffffffffffffffffffffffffffff82169050919050565b6000611f0d82611ee2565b9050919050565b611f1d81611f02565b82525050565b6000602082019050611f386000830184611f14565b92915050565b6000819050919050565b611f5181611f3e565b82525050565b6000602082019050611f6c6000830184611f48565b92915050565b6000604051905090565b600080fd5b600080fd5b611f8f81611f02565b8114611f9a57600080fd5b50565b600081359050611fac81611f86565b92915050565b611fbb81611f3e565b8114611fc657600080fd5b50565b600081359050611fd881611fb2565b92915050565b600080fd5b600080fd5b6000601f19601f8301169050919050565b7f4e487b7100000000000000000000000000000000000000000000000000000000600052604160045260246000fd5b61203182611fe8565b810181811067ffffffffffffffff821117156120505761204f611ff9565b5b80604052505050565b6000612063611f72565b905061206f8282612028565b919050565b600067ffffffffffffffff82111561208f5761208e611ff9565b5b61209882611fe8565b9050602081019050919050565b82818337600083830152505050565b60006120c76120c284612074565b612059565b9050828152602081018484840111156120e3576120e2611fe3565b5b6120ee8482856120a5565b509392505050565b600082601f83011261210b5761210a611fde565b5b813561211b8482602086016120b4565b91505092915050565b6000806000806080858703121561213e5761213d611f7c565b5b600061214c87828801611f9d565b945050602061215d87828801611f9d565b935050604061216e87828801611fc9565b925050606085013567ffffffffffffffff81111561218f5761218e611f81565b5b61219b878288016120f6565b91505092959194509250565b60007fffffffff0000000000000000000000000000000000000000000000000000000082169050919050565b6121dc816121a7565b82525050565b60006020820190506121f760008301846121d3565b92915050565b60006020828403121561221357612212611f7c565b5b600061222184828501611fc9565b91505092915050565b60006fffffffffffffffffffffffffffffffff82169050919050565b61224f8161222a565b811461225a57600080fd5b50565b60008135905061226c81612246565b92915050565b600067ffffffffffffffff82169050919050565b61228f81612272565b811461229a57600080fd5b50565b6000813590506122ac81612286565b92915050565b600080600080600060a086880312156122ce576122cd611f7c565b5b60006122dc88828901611fc9565b95505060206122ed8882890161225d565b94505060406122fe8882890161225d565b935050606061230f8882890161229d565b925050608061232088828901611f9d565b9150509295509295909350565b6123368161222a565b82525050565b61234581612272565b82525050565b600060a0820190506123606000830188611f14565b61236d602083018761232d565b61237a604083018661232d565b612387606083018561233c565b6123946080830184611f48565b9695505050505050565b6000602082840312156123b4576123b3611f7c565b5b60006123c284828501611f9d565b91505092915050565b60008115159050919050565b6123e0816123cb565b82525050565b60006020820190506123fb60008301846123d7565b92915050565b6000819050919050565b600061242661242161241c84611ee2565b612401565b611ee2565b9050919050565b60006124388261240b565b9050919050565b600061244a8261242d565b9050919050565b61245a8161243f565b82525050565b60006020820190506124756000830184612451565b92915050565b600082825260208201905092915050565b7f5061757361626c653a206e6f7420706175736564000000000000000000000000600082015250565b60006124c260148361247b565b91506124cd8261248c565b602082019050919050565b600060208201905081810360008301526124f1816124b5565b9050919050565b7f5061757361626c653a2070617573656400000000000000000000000000000000600082015250565b600061252e60108361247b565b9150612539826124f8565b602082019050919050565b6000602082019050818103600083015261255d81612521565b9050919050565b7f4d61726b6574706c6163653a2053656c6c65722073706563696669656420646f60008201527f6573206e6f74206f776e20746865204e46540000000000000000000000000000602082015250565b60006125c060328361247b565b91506125cb82612564565b604082019050919050565b600060208201905081810360008301526125ef816125b3565b9050919050565b7f4f776e61626c653a2063616c6c6572206973206e6f7420746865206f776e6572600082015250565b600061262c60208361247b565b9150612637826125f6565b602082019050919050565b6000602082019050818103600083015261265b8161261f565b9050919050565b7f4d61726b6574706c6163653a2053706563696669656420746f6b656e2049442060008201527f6973206e6f74206f6e2061756374696f6e000000000000000000000000000000602082015250565b60006126be60318361247b565b91506126c982612662565b604082019050919050565b600060208201905081810360008301526126ed816126b1565b9050919050565b7f4d61726b6574706c6163653a205370656369666965642073656c6c657220697360008201527f206e6f74206d73672e73656e6465720000000000000000000000000000000000602082015250565b6000612750602f8361247b565b915061275b826126f4565b604082019050919050565b6000602082019050818103600083015261277f81612743565b9050919050565b7f4f776e61626c653a206e6577206f776e657220697320746865207a65726f206160008201527f6464726573730000000000000000000000000000000000000000000000000000602082015250565b60006127e260268361247b565b91506127ed82612786565b604082019050919050565b60006020820190508181036000830152612811816127d5565b9050919050565b7f4d61726b6574706c616365436f72653a2053706563696669656420746f6b656e60008201527f204944206973206e6f74206f6e2061756374696f6e0000000000000000000000602082015250565b600061287460358361247b565b915061287f82612818565b604082019050919050565b600060208201905081810360008301526128a381612867565b9050919050565b7f4d61726b6574706c616365436f72653a2042696420616d6f756e74206973206c60008201527f657373207468616e207072696365000000000000000000000000000000000000602082015250565b6000612906602e8361247b565b9150612911826128aa565b604082019050919050565b60006020820190508181036000830152612935816128f9565b9050919050565b7f4e487b7100000000000000000000000000000000000000000000000000000000600052601160045260246000fd5b600061297682611f3e565b915061298183611f3e565b9250828210156129945761299361293c565b5b828203905092915050565b60006040820190506129b46000830185611f48565b6129c16020830184611f14565b9392505050565b600082825260208201905092915050565b50565b60006129e96000836129c8565b91506129f4826129d9565b600082019050919050565b6000608082019050612a146000830186611f14565b612a216020830185611f14565b612a2e6040830184611f48565b8181036060830152612a3f816129dc565b9050949350505050565b600081519050612a5881611f86565b92915050565b600060208284031215612a7457612a73611f7c565b5b6000612a8284828501612a49565b91505092915050565b6000606082019050612aa06000830186611f14565b612aad6020830185611f14565b612aba6040830184611f48565b949350505050565b7f4d61726b6574706c616365436f72653a2041756374696f6e206475726174696f60008201527f6e206d757374206265206174206c656173742031206d696e7574650000000000602082015250565b6000612b1e603b8361247b565b9150612b2982612ac2565b604082019050919050565b60006020820190508181036000830152612b4d81612b11565b9050919050565b6000612b6f612b6a612b658461222a565b612401565b611f3e565b9050919050565b612b7f81612b54565b82525050565b6000612ba0612b9b612b9684612272565b612401565b611f3e565b9050919050565b612bb081612b85565b82525050565b6000608082019050612bcb6000830187612b76565b612bd86020830186612b76565b612be56040830185612ba7565b612bf26060830184611f14565b95945050505050565b6000604082019050612c106000830185611f14565b612c1d6020830184611f48565b9392505050565b6000612c2f82611f3e565b9150612c3a83611f3e565b9250817fffffffffffffffffffffffffffffffffffffffffffffffffffffffffffffffff0483118215151615612c7357612c7261293c565b5b828202905092915050565b7f4e487b7100000000000000000000000000000000000000000000000000000000600052601260045260246000fd5b6000612cb882611f3e565b9150612cc383611f3e565b925082612cd357612cd2612c7e565b5b828204905092915050565b6000819050919050565b6000612cf382612cde565b9150612cfe83612cde565b9250827f800000000000000000000000000000000000000000000000000000000000000001821260008412151615612d3957612d3861293c565b5b827f7fffffffffffffffffffffffffffffffffffffffffffffffffffffffffffffff018213600084121615612d7157612d7061293c565b5b828203905092915050565b6000612d8782612cde565b9150612d9283612cde565b9250827f7fffffffffffffffffffffffffffffffffffffffffffffffffffffffffffffff0482116000841360008413161615612dd157612dd061293c565b5b817f80000000000000000000000000000000000000000000000000000000000000000583126000841260008413161615612e0e57612e0d61293c565b5b827f80000000000000000000000000000000000000000000000000000000000000000582126000841360008412161615612e4b57612e4a61293c565b5b827f7fffffffffffffffffffffffffffffffffffffffffffffffffffffffffffffff0582126000841260008412161615612e8857612e8761293c565b5b828202905092915050565b6000612e9e82612cde565b9150612ea983612cde565b925082612eb957612eb8612c7e565b5b600160000383147f800000000000000000000000000000000000000000000000000000000000000083141615612ef257612ef161293c565b5b828205905092915050565b6000612f0882612cde565b9150612f1383612cde565b9250817f7fffffffffffffffffffffffffffffffffffffffffffffffffffffffffffffff03831360008312151615612f4e57612f4d61293c565b5b817f8000000000000000000000000000000000000000000000000000000000000000038312600083121615612f8657612f8561293c565b5b82820190509291505056fea26469706673582212206329d2f16f93be6fefde1140a3e82060e1937e69e9c7bd8e885a1c04d76bc19364736f6c634300080a0033",
  "immutableReferences": {},
  "source": "//SPDX-License-Identifier: MIT\n\npragma solidity ^0.8.6;\n\nimport \"../marketplace/Marketplace.sol\";\nimport \"../BEP721/BEP721Receiver.sol\";\n\ncontract NBMarketplace is Marketplace, BEP721Receiver {\n    constructor() Marketplace(address(0xb5E567d854Fb0Cc4172143A3d2b983E94c6ccFe2), 500) {\n    }\n}",
  "sourcePath": "/Users/igormoscalets/nbmoncompany/nbmondemo/contracts/implementation/NBMarketplace.sol",
  "compiler": {
    "name": "solc",
    "version": "0.8.10+commit.fc410830.Emscripten.clang"
  },
  "schemaVersion": "3.4.3",
  "updatedAt": "2022-01-02T17:22:48.111Z",
  "devdoc": {
    "kind": "dev",
    "methods": {
      "onBEP721Received(address,address,uint256,bytes)": {
        "details": "See {IERC721Receiver-onERC721Received}. Always returns `IERC721Receiver.onERC721Received.selector`."
      },
      "owner()": {
        "details": "Returns the address of the current owner."
      },
      "pause()": {
        "details": "Triggers stopped state. Only callable by admin. Requirements: - The contract must not be paused."
      },
      "paused()": {
        "details": "Returns true if the contract is paused, and false otherwise."
      },
      "renounceOwnership()": {
        "details": "Leaves the contract without owner. It will not be possible to call `onlyOwner` functions anymore. Can only be called by the current owner. NOTE: Renouncing ownership will leave the contract without an owner, thereby removing any functionality that is only available to the owner."
      },
      "transferOwnership(address)": {
        "details": "Transfers ownership of the contract to a new account (`newOwner`). Can only be called by the current owner."
      },
      "unpause()": {
        "details": "Returns to normal state. Only callable by admin. Requirements: - The contract must be paused."
      }
    },
    "version": 1
  },
  "userdoc": {
    "kind": "user",
    "methods": {},
    "version": 1
  }
}