{
  "contractName": "NBMonCore",
  "abi": [
    {
      "inputs": [],
      "stateMutability": "nonpayable",
      "type": "constructor"
    },
    {
      "anonymous": false,
      "inputs": [
        {
          "indexed": true,
          "internalType": "address",
          "name": "owner",
          "type": "address"
        },
        {
          "indexed": true,
          "internalType": "address",
          "name": "approved",
          "type": "address"
        },
        {
          "indexed": true,
          "internalType": "uint256",
          "name": "tokenId",
          "type": "uint256"
        }
      ],
      "name": "Approval",
      "type": "event"
    },
    {
      "anonymous": false,
      "inputs": [
        {
          "indexed": true,
          "internalType": "address",
          "name": "owner",
          "type": "address"
        },
        {
          "indexed": true,
          "internalType": "address",
          "name": "operator",
          "type": "address"
        },
        {
          "indexed": false,
          "internalType": "bool",
          "name": "approved",
          "type": "bool"
        }
      ],
      "name": "ApprovalForAll",
      "type": "event"
    },
    {
      "anonymous": false,
      "inputs": [
        {
          "indexed": true,
          "internalType": "uint256",
          "name": "_nbmonId",
          "type": "uint256"
        }
      ],
      "name": "NBMonBurned",
      "type": "event"
    },
    {
      "anonymous": false,
      "inputs": [
        {
          "indexed": true,
          "internalType": "uint256",
          "name": "_nbmonId",
          "type": "uint256"
        },
        {
          "indexed": true,
          "internalType": "address",
          "name": "_owner",
          "type": "address"
        }
      ],
      "name": "NBMonMinted",
      "type": "event"
    },
    {
      "anonymous": false,
      "inputs": [
        {
          "indexed": false,
          "internalType": "address",
          "name": "account",
          "type": "address"
        }
      ],
      "name": "Paused",
      "type": "event"
    },
    {
      "anonymous": false,
      "inputs": [
        {
          "indexed": true,
          "internalType": "address",
          "name": "from",
          "type": "address"
        },
        {
          "indexed": true,
          "internalType": "address",
          "name": "to",
          "type": "address"
        },
        {
          "indexed": true,
          "internalType": "uint256",
          "name": "tokenId",
          "type": "uint256"
        }
      ],
      "name": "Transfer",
      "type": "event"
    },
    {
      "anonymous": false,
      "inputs": [
        {
          "indexed": false,
          "internalType": "address",
          "name": "account",
          "type": "address"
        }
      ],
      "name": "Unpaused",
      "type": "event"
    },
    {
      "inputs": [],
      "name": "_baseFertilityChance",
      "outputs": [
        {
          "internalType": "uint16",
          "name": "",
          "type": "uint16"
        }
      ],
      "stateMutability": "view",
      "type": "function"
    },
    {
      "inputs": [],
      "name": "_elementTypes",
      "outputs": [
        {
          "internalType": "uint8",
          "name": "",
          "type": "uint8"
        }
      ],
      "stateMutability": "view",
      "type": "function"
    },
    {
      "inputs": [],
      "name": "_genders",
      "outputs": [
        {
          "internalType": "uint8",
          "name": "",
          "type": "uint8"
        }
      ],
      "stateMutability": "view",
      "type": "function"
    },
    {
      "inputs": [],
      "name": "_genera",
      "outputs": [
        {
          "internalType": "uint16",
          "name": "",
          "type": "uint16"
        }
      ],
      "stateMutability": "view",
      "type": "function"
    },
    {
      "inputs": [],
      "name": "_maxPotential",
      "outputs": [
        {
          "internalType": "uint8",
          "name": "",
          "type": "uint8"
        }
      ],
      "stateMutability": "view",
      "type": "function"
    },
    {
      "inputs": [],
      "name": "_nbmonTypes",
      "outputs": [
        {
          "internalType": "uint8",
          "name": "",
          "type": "uint8"
        }
      ],
      "stateMutability": "view",
      "type": "function"
    },
    {
      "inputs": [],
      "name": "_rarityChance",
      "outputs": [
        {
          "internalType": "uint16",
          "name": "",
          "type": "uint16"
        }
      ],
      "stateMutability": "view",
      "type": "function"
    },
    {
      "inputs": [],
      "name": "_shinyChance",
      "outputs": [
        {
          "internalType": "uint16",
          "name": "",
          "type": "uint16"
        }
      ],
      "stateMutability": "view",
      "type": "function"
    },
    {
      "inputs": [],
      "name": "admin",
      "outputs": [
        {
          "internalType": "address",
          "name": "",
          "type": "address"
        }
      ],
      "stateMutability": "view",
      "type": "function"
    },
    {
      "inputs": [
        {
          "internalType": "address",
          "name": "to",
          "type": "address"
        },
        {
          "internalType": "uint256",
          "name": "tokenId",
          "type": "uint256"
        }
      ],
      "name": "approve",
      "outputs": [],
      "stateMutability": "nonpayable",
      "type": "function"
    },
    {
      "inputs": [
        {
          "internalType": "address",
          "name": "owner",
          "type": "address"
        }
      ],
      "name": "balanceOf",
      "outputs": [
        {
          "internalType": "uint256",
          "name": "",
          "type": "uint256"
        }
      ],
      "stateMutability": "view",
      "type": "function"
    },
    {
      "inputs": [],
      "name": "burner",
      "outputs": [
        {
          "internalType": "address",
          "name": "",
          "type": "address"
        }
      ],
      "stateMutability": "view",
      "type": "function"
    },
    {
      "inputs": [],
      "name": "ceo",
      "outputs": [
        {
          "internalType": "address",
          "name": "",
          "type": "address"
        }
      ],
      "stateMutability": "view",
      "type": "function"
    },
    {
      "inputs": [],
      "name": "currentNBMonCount",
      "outputs": [
        {
          "internalType": "uint256",
          "name": "",
          "type": "uint256"
        }
      ],
      "stateMutability": "view",
      "type": "function"
    },
    {
      "inputs": [
        {
          "internalType": "uint256",
          "name": "tokenId",
          "type": "uint256"
        }
      ],
      "name": "getApproved",
      "outputs": [
        {
          "internalType": "address",
          "name": "",
          "type": "address"
        }
      ],
      "stateMutability": "view",
      "type": "function"
    },
    {
      "inputs": [
        {
          "internalType": "address",
          "name": "owner",
          "type": "address"
        },
        {
          "internalType": "address",
          "name": "operator",
          "type": "address"
        }
      ],
      "name": "isApprovedForAll",
      "outputs": [
        {
          "internalType": "bool",
          "name": "",
          "type": "bool"
        }
      ],
      "stateMutability": "view",
      "type": "function"
    },
    {
      "inputs": [],
      "name": "manager",
      "outputs": [
        {
          "internalType": "address",
          "name": "",
          "type": "address"
        }
      ],
      "stateMutability": "view",
      "type": "function"
    },
    {
      "inputs": [],
      "name": "minter",
      "outputs": [
        {
          "internalType": "address",
          "name": "",
          "type": "address"
        }
      ],
      "stateMutability": "view",
      "type": "function"
    },
    {
      "inputs": [],
      "name": "name",
      "outputs": [
        {
          "internalType": "string",
          "name": "",
          "type": "string"
        }
      ],
      "stateMutability": "view",
      "type": "function"
    },
    {
      "inputs": [
        {
          "internalType": "address",
          "name": "_newAdmin",
          "type": "address"
        }
      ],
      "name": "newAdmin",
      "outputs": [],
      "stateMutability": "nonpayable",
      "type": "function"
    },
    {
      "inputs": [
        {
          "internalType": "address",
          "name": "_newBurner",
          "type": "address"
        }
      ],
      "name": "newBurner",
      "outputs": [],
      "stateMutability": "nonpayable",
      "type": "function"
    },
    {
      "inputs": [
        {
          "internalType": "address",
          "name": "_newCEO",
          "type": "address"
        }
      ],
      "name": "newCEO",
      "outputs": [],
      "stateMutability": "nonpayable",
      "type": "function"
    },
    {
      "inputs": [
        {
          "internalType": "address",
          "name": "_newManager",
          "type": "address"
        }
      ],
      "name": "newManager",
      "outputs": [],
      "stateMutability": "nonpayable",
      "type": "function"
    },
    {
      "inputs": [
        {
          "internalType": "address",
          "name": "_newMinter",
          "type": "address"
        }
      ],
      "name": "newMinter",
      "outputs": [],
      "stateMutability": "nonpayable",
      "type": "function"
    },
    {
      "inputs": [
        {
          "internalType": "uint256",
          "name": "tokenId",
          "type": "uint256"
        }
      ],
      "name": "ownerOf",
      "outputs": [
        {
          "internalType": "address",
          "name": "",
          "type": "address"
        }
      ],
      "stateMutability": "view",
      "type": "function"
    },
    {
      "inputs": [],
      "name": "pause",
      "outputs": [],
      "stateMutability": "nonpayable",
      "type": "function"
    },
    {
      "inputs": [],
      "name": "paused",
      "outputs": [
        {
          "internalType": "bool",
          "name": "",
          "type": "bool"
        }
      ],
      "stateMutability": "view",
      "type": "function"
    },
    {
      "inputs": [
        {
          "internalType": "address",
          "name": "from",
          "type": "address"
        },
        {
          "internalType": "address",
          "name": "to",
          "type": "address"
        },
        {
          "internalType": "uint256",
          "name": "tokenId",
          "type": "uint256"
        },
        {
          "internalType": "bytes",
          "name": "_data",
          "type": "bytes"
        }
      ],
      "name": "safeTransfer",
      "outputs": [],
      "stateMutability": "nonpayable",
      "type": "function"
    },
    {
      "inputs": [
        {
          "internalType": "address",
          "name": "from",
          "type": "address"
        },
        {
          "internalType": "address",
          "name": "to",
          "type": "address"
        },
        {
          "internalType": "uint256",
          "name": "tokenId",
          "type": "uint256"
        }
      ],
      "name": "safeTransferFrom",
      "outputs": [],
      "stateMutability": "nonpayable",
      "type": "function"
    },
    {
      "inputs": [
        {
          "internalType": "address",
          "name": "from",
          "type": "address"
        },
        {
          "internalType": "address",
          "name": "to",
          "type": "address"
        },
        {
          "internalType": "uint256",
          "name": "tokenId",
          "type": "uint256"
        },
        {
          "internalType": "bytes",
          "name": "_data",
          "type": "bytes"
        }
      ],
      "name": "safeTransferFrom",
      "outputs": [],
      "stateMutability": "nonpayable",
      "type": "function"
    },
    {
      "inputs": [
        {
          "internalType": "address",
          "name": "operator",
          "type": "address"
        },
        {
          "internalType": "bool",
          "name": "approved",
          "type": "bool"
        }
      ],
      "name": "setApprovalForAll",
      "outputs": [],
      "stateMutability": "nonpayable",
      "type": "function"
    },
    {
      "inputs": [
        {
          "internalType": "string",
          "name": "newBaseURI",
          "type": "string"
        }
      ],
      "name": "setBaseURI",
      "outputs": [],
      "stateMutability": "nonpayable",
      "type": "function"
    },
    {
      "inputs": [
        {
          "internalType": "bytes4",
          "name": "interfaceId",
          "type": "bytes4"
        }
      ],
      "name": "supportsInterface",
      "outputs": [
        {
          "internalType": "bool",
          "name": "",
          "type": "bool"
        }
      ],
      "stateMutability": "view",
      "type": "function"
    },
    {
      "inputs": [],
      "name": "symbol",
      "outputs": [
        {
          "internalType": "string",
          "name": "",
          "type": "string"
        }
      ],
      "stateMutability": "view",
      "type": "function"
    },
    {
      "inputs": [
        {
          "internalType": "uint256",
          "name": "index",
          "type": "uint256"
        }
      ],
      "name": "tokenByIndex",
      "outputs": [
        {
          "internalType": "uint256",
          "name": "",
          "type": "uint256"
        }
      ],
      "stateMutability": "view",
      "type": "function"
    },
    {
      "inputs": [
        {
          "internalType": "address",
          "name": "owner",
          "type": "address"
        },
        {
          "internalType": "uint256",
          "name": "index",
          "type": "uint256"
        }
      ],
      "name": "tokenOfOwnerByIndex",
      "outputs": [
        {
          "internalType": "uint256",
          "name": "",
          "type": "uint256"
        }
      ],
      "stateMutability": "view",
      "type": "function"
    },
    {
      "inputs": [
        {
          "internalType": "uint256",
          "name": "tokenId",
          "type": "uint256"
        }
      ],
      "name": "tokenURI",
      "outputs": [
        {
          "internalType": "string",
          "name": "",
          "type": "string"
        }
      ],
      "stateMutability": "view",
      "type": "function"
    },
    {
      "inputs": [],
      "name": "totalSupply",
      "outputs": [
        {
          "internalType": "uint256",
          "name": "",
          "type": "uint256"
        }
      ],
      "stateMutability": "view",
      "type": "function"
    },
    {
      "inputs": [
        {
          "internalType": "address",
          "name": "from",
          "type": "address"
        },
        {
          "internalType": "address",
          "name": "to",
          "type": "address"
        },
        {
          "internalType": "uint256",
          "name": "tokenId",
          "type": "uint256"
        }
      ],
      "name": "transfer",
      "outputs": [],
      "stateMutability": "nonpayable",
      "type": "function"
    },
    {
      "inputs": [
        {
          "internalType": "address",
          "name": "from",
          "type": "address"
        },
        {
          "internalType": "address",
          "name": "to",
          "type": "address"
        },
        {
          "internalType": "uint256",
          "name": "tokenId",
          "type": "uint256"
        }
      ],
      "name": "transferFrom",
      "outputs": [],
      "stateMutability": "nonpayable",
      "type": "function"
    },
    {
      "inputs": [],
      "name": "unpause",
      "outputs": [],
      "stateMutability": "nonpayable",
      "type": "function"
    },
    {
      "inputs": [
        {
          "internalType": "uint256",
          "name": "_nbmonId",
          "type": "uint256"
        }
      ],
      "name": "getNBMon",
      "outputs": [
        {
          "components": [
            {
              "internalType": "uint256",
              "name": "nbmonId",
              "type": "uint256"
            },
            {
              "internalType": "address",
              "name": "owner",
              "type": "address"
            },
            {
              "internalType": "uint256",
              "name": "bornAt",
              "type": "uint256"
            },
            {
              "internalType": "uint256",
              "name": "transferredAt",
              "type": "uint256"
            },
            {
              "internalType": "uint32[]",
              "name": "nbmonStats",
              "type": "uint32[]"
            },
            {
              "internalType": "uint8[]",
              "name": "elements",
              "type": "uint8[]"
            },
            {
              "internalType": "uint8[]",
              "name": "potential",
              "type": "uint8[]"
            },
            {
              "internalType": "uint8[]",
              "name": "inheritedPassives",
              "type": "uint8[]"
            },
            {
              "internalType": "uint8[]",
              "name": "inheritedMoves",
              "type": "uint8[]"
            }
          ],
          "internalType": "struct NBMonCore.NBMon",
          "name": "",
          "type": "tuple"
        }
      ],
      "stateMutability": "view",
      "type": "function"
    },
    {
      "inputs": [
        {
          "internalType": "address",
          "name": "_owner",
          "type": "address"
        }
      ],
      "name": "getAllNBMonsOfOwner",
      "outputs": [
        {
          "components": [
            {
              "internalType": "uint256",
              "name": "nbmonId",
              "type": "uint256"
            },
            {
              "internalType": "address",
              "name": "owner",
              "type": "address"
            },
            {
              "internalType": "uint256",
              "name": "bornAt",
              "type": "uint256"
            },
            {
              "internalType": "uint256",
              "name": "transferredAt",
              "type": "uint256"
            },
            {
              "internalType": "uint32[]",
              "name": "nbmonStats",
              "type": "uint32[]"
            },
            {
              "internalType": "uint8[]",
              "name": "elements",
              "type": "uint8[]"
            },
            {
              "internalType": "uint8[]",
              "name": "potential",
              "type": "uint8[]"
            },
            {
              "internalType": "uint8[]",
              "name": "inheritedPassives",
              "type": "uint8[]"
            },
            {
              "internalType": "uint8[]",
              "name": "inheritedMoves",
              "type": "uint8[]"
            }
          ],
          "internalType": "struct NBMonCore.NBMon[]",
          "name": "",
          "type": "tuple[]"
        }
      ],
      "stateMutability": "view",
      "type": "function"
    },
    {
      "inputs": [
        {
          "internalType": "address",
          "name": "_owner",
          "type": "address"
        }
      ],
      "name": "getOwnerNBMonCount",
      "outputs": [
        {
          "internalType": "uint256",
          "name": "",
          "type": "uint256"
        }
      ],
      "stateMutability": "view",
      "type": "function"
    },
    {
      "inputs": [
        {
          "internalType": "address",
          "name": "_owner",
          "type": "address"
        }
      ],
      "name": "getOwnerNBMonIds",
      "outputs": [
        {
          "internalType": "uint256[]",
          "name": "",
          "type": "uint256[]"
        }
      ],
      "stateMutability": "view",
      "type": "function"
    },
    {
      "inputs": [
        {
          "internalType": "uint8",
          "name": "genders_",
          "type": "uint8"
        }
      ],
      "name": "changeGenders",
      "outputs": [],
      "stateMutability": "nonpayable",
      "type": "function"
    },
    {
      "inputs": [
        {
          "internalType": "uint16",
          "name": "rarityChance_",
          "type": "uint16"
        }
      ],
      "name": "changeRarityChance",
      "outputs": [],
      "stateMutability": "nonpayable",
      "type": "function"
    },
    {
      "inputs": [
        {
          "internalType": "uint8",
          "name": "nbmonTypes_",
          "type": "uint8"
        }
      ],
      "name": "changeNbmonTypes",
      "outputs": [],
      "stateMutability": "nonpayable",
      "type": "function"
    },
    {
      "inputs": [
        {
          "internalType": "uint16",
          "name": "genera_",
          "type": "uint16"
        }
      ],
      "name": "changeGenera",
      "outputs": [],
      "stateMutability": "nonpayable",
      "type": "function"
    },
    {
      "inputs": [
        {
          "internalType": "uint8",
          "name": "shinyChance_",
          "type": "uint8"
        }
      ],
      "name": "changeShinyChance",
      "outputs": [],
      "stateMutability": "nonpayable",
      "type": "function"
    },
    {
      "inputs": [
        {
          "internalType": "uint8",
          "name": "elementTypes_",
          "type": "uint8"
        }
      ],
      "name": "changeElementTypes",
      "outputs": [],
      "stateMutability": "nonpayable",
      "type": "function"
    },
    {
      "inputs": [
        {
          "internalType": "uint8",
          "name": "maxPotential_",
          "type": "uint8"
        }
      ],
      "name": "changeMaxPotential",
      "outputs": [],
      "stateMutability": "nonpayable",
      "type": "function"
    },
    {
      "inputs": [
        {
          "internalType": "uint16",
          "name": "baseFertilityChance_",
          "type": "uint16"
        }
      ],
      "name": "changeBaseFertilityChance",
      "outputs": [],
      "stateMutability": "nonpayable",
      "type": "function"
    },
    {
      "inputs": [
        {
          "internalType": "uint256",
          "name": "_randomNumber",
          "type": "uint256"
        },
        {
          "internalType": "address",
          "name": "_owner",
          "type": "address"
        },
        {
          "internalType": "uint32",
          "name": "_evolveDurationTime",
          "type": "uint32"
        }
      ],
      "name": "mintOrigin",
      "outputs": [],
      "stateMutability": "nonpayable",
      "type": "function"
    },
    {
      "inputs": [
        {
          "internalType": "uint256",
          "name": "_nbmonId",
          "type": "uint256"
        }
      ],
      "name": "getNbmonStats",
      "outputs": [
        {
          "internalType": "uint32[]",
          "name": "",
          "type": "uint32[]"
        }
      ],
      "stateMutability": "view",
      "type": "function"
    },
    {
      "inputs": [
        {
          "internalType": "uint256",
          "name": "_nbmonId",
          "type": "uint256"
        }
      ],
      "name": "getBornAt",
      "outputs": [
        {
          "internalType": "uint256",
          "name": "",
          "type": "uint256"
        }
      ],
      "stateMutability": "view",
      "type": "function"
    },
    {
      "inputs": [
        {
          "internalType": "uint256",
          "name": "_nbmonId",
          "type": "uint256"
        }
      ],
      "name": "getTransferredAt",
      "outputs": [
        {
          "internalType": "uint256",
          "name": "",
          "type": "uint256"
        }
      ],
      "stateMutability": "view",
      "type": "function"
    },
    {
      "inputs": [
        {
          "internalType": "uint256",
          "name": "_nbmonId",
          "type": "uint256"
        }
      ],
      "name": "getElements",
      "outputs": [
        {
          "internalType": "uint8[]",
          "name": "",
          "type": "uint8[]"
        }
      ],
      "stateMutability": "view",
      "type": "function"
    },
    {
      "inputs": [
        {
          "internalType": "uint256",
          "name": "_nbmonId",
          "type": "uint256"
        }
      ],
      "name": "getPotential",
      "outputs": [
        {
          "internalType": "uint8[]",
          "name": "",
          "type": "uint8[]"
        }
      ],
      "stateMutability": "view",
      "type": "function"
    },
    {
      "inputs": [
        {
          "internalType": "uint256",
          "name": "_nbmonId",
          "type": "uint256"
        }
      ],
      "name": "getInheritedPassives",
      "outputs": [
        {
          "internalType": "uint8[]",
          "name": "",
          "type": "uint8[]"
        }
      ],
      "stateMutability": "view",
      "type": "function"
    },
    {
      "inputs": [
        {
          "internalType": "uint256",
          "name": "_nbmonId",
          "type": "uint256"
        }
      ],
      "name": "getInheritedMoves",
      "outputs": [
        {
          "internalType": "uint8[]",
          "name": "",
          "type": "uint8[]"
        }
      ],
      "stateMutability": "view",
      "type": "function"
    }
  ],
  "bytecode": "0x608060405260016015556002601660006101000a81548160ff021916908360ff1602179055506103e8601660016101000a81548161ffff021916908361ffff1602179055506003601660036101000a81548160ff021916908360ff160217905550600b601660046101000a81548161ffff021916908361ffff160217905550611000601660066101000a81548161ffff021916908361ffff160217905550600d601660086101000a81548160ff021916908360ff1602179055506041601660096101000a81548160ff021916908360ff1602179055506103846016600a6101000a81548161ffff021916908361ffff1602179055503480156200010157600080fd5b506040518060400160405280600581526020017f4e424d6f6e0000000000000000000000000000000000000000000000000000008152506040518060400160405280600581526020017f4e424d4f4e0000000000000000000000000000000000000000000000000000008152506200017e6200039860201b60201c565b6000806101000a81548173ffffffffffffffffffffffffffffffffffffffff021916908373ffffffffffffffffffffffffffffffffffffffff160217905550620001cd6200039860201b60201c565b600160006101000a81548173ffffffffffffffffffffffffffffffffffffffff021916908373ffffffffffffffffffffffffffffffffffffffff1602179055506200021d6200039860201b60201c565b600260006101000a81548173ffffffffffffffffffffffffffffffffffffffff021916908373ffffffffffffffffffffffffffffffffffffffff1602179055506200026d6200039860201b60201c565b600360006101000a81548173ffffffffffffffffffffffffffffffffffffffff021916908373ffffffffffffffffffffffffffffffffffffffff160217905550620002bd6200039860201b60201c565b600460006101000a81548173ffffffffffffffffffffffffffffffffffffffff021916908373ffffffffffffffffffffffffffffffffffffffff1602179055506000600460146101000a81548160ff0219169083151502179055508160059080519060200190620003309291906200048c565b508060069080519060200190620003499291906200048c565b505050620003926040518060400160405280601b81526020017f68747470733a2f2f6e62636f6d70616e792e696f2f6e626d6f6e2f0000000000815250620003a060201b60201c565b620005a1565b600033905090565b60008054906101000a900473ffffffffffffffffffffffffffffffffffffffff1673ffffffffffffffffffffffffffffffffffffffff16620003e76200039860201b60201c565b73ffffffffffffffffffffffffffffffffffffffff161480620004665750600360009054906101000a900473ffffffffffffffffffffffffffffffffffffffff1673ffffffffffffffffffffffffffffffffffffffff166200044e6200039860201b60201c565b73ffffffffffffffffffffffffffffffffffffffff16145b6200047057600080fd5b8060109080519060200190620004889291906200048c565b5050565b8280546200049a906200056b565b90600052602060002090601f016020900481019282620004be57600085556200050a565b82601f10620004d957805160ff19168380011785556200050a565b828001600101855582156200050a579182015b8281111562000509578251825591602001919060010190620004ec565b5b5090506200051991906200051d565b5090565b5b80821115620005385760008160009055506001016200051e565b5090565b7f4e487b7100000000000000000000000000000000000000000000000000000000600052602260045260246000fd5b600060028204905060018216806200058457607f821691505b602082108114156200059b576200059a6200053c565b5b50919050565b616e7780620005b16000396000f3fe608060405234801561001057600080fd5b50600436106103af5760003560e01c80637392ed1b116101f4578063a6ba31c11161011a578063d49a49cf116100ad578063e89555f51161007c578063e89555f514610b54578063e985e9c514610b72578063f840f72b14610ba2578063f851a44014610bbe576103af565b8063d49a49cf14610aca578063d7cf208114610ae8578063d7f9352414610b06578063dfac24be14610b24576103af565b8063b62ae99b116100e9578063b62ae99b14610a46578063b88d4fde14610a62578063beabacc814610a7e578063c87b56dd14610a9a576103af565b8063a6ba31c1146109d4578063a8892ccd146109f0578063a9917dbe14610a0e578063ac4a981e14610a2a576103af565b8063906e940011610192578063983bcb7a11610161578063983bcb7a1461095e5780639e7df4281461097c578063a22cb4651461099a578063a5b424ab146109b6576103af565b8063906e9400146108d6578063908921fc146108f2578063944c8fdf1461091057806395d89b4114610940576103af565b806380c90cdc116101ce57806380c90cdc1461087857806382abc625146108945780638456cb59146108b05780638f38abe8146108ba576103af565b80637392ed1b1461081057806376b82a9114610840578063805528e81461085c576103af565b8063479a506d116102d9578063573419121161027757806363ec74771161024657806363ec747714610764578063683087321461078057806370a08231146107b057806373168a39146107e0576103af565b806357341912146106ca5780635c975abb146106e65780635cad8213146107045780636352211e14610734576103af565b80634bb1b2e1116102b35780634bb1b2e1146106305780634cd1c611146106605780634f6ccce71461067e57806355f804b3146106ae576103af565b8063479a506d146105c6578063481c6a75146105f6578063498c4a0114610614576103af565b8063194ddb2a116103515780632f745c59116103205780632f745c59146105405780633f4ba83a1461057057806342842e0e1461057a578063434807ad14610596576103af565b8063194ddb2a146104ba57806323b872dd146104ea578063272565ee1461050657806327810b6e14610522576103af565b8063081812fc1161038d578063081812fc14610420578063095ea7b31461045057806311e38c5e1461046c57806318160ddd1461049c576103af565b806301ffc9a7146103b457806306fdde03146103e45780630754617214610402575b600080fd5b6103ce60048036038101906103c99190614f07565b610bdc565b6040516103db9190614f4f565b60405180910390f35b6103ec610c56565b6040516103f99190615003565b60405180910390f35b61040a610ce8565b6040516104179190615066565b60405180910390f35b61043a600480360381019061043591906150b7565b610d0e565b6040516104479190615066565b60405180910390f35b61046a60048036038101906104659190615110565b610d93565b005b61048660048036038101906104819190615150565b610ef3565b604051610493919061518c565b60405180910390f35b6104a4610f3c565b6040516104b1919061518c565b60405180910390f35b6104d460048036038101906104cf91906150b7565b610f49565b6040516104e1919061518c565b60405180910390f35b61050460048036038101906104ff91906151a7565b610f84565b005b610520600480360381019061051b9190615233565b61102c565b005b61052a6110a9565b6040516105379190615066565b60405180910390f35b61055a60048036038101906105559190615110565b6110cf565b604051610567919061518c565b60405180910390f35b610578611174565b005b610594600480360381019061058f91906151a7565b611275565b005b6105b060048036038101906105ab91906150b7565b6112dd565b6040516105bd919061531e565b60405180910390f35b6105e060048036038101906105db91906150b7565b61138c565b6040516105ed919061557c565b60405180910390f35b6105fe61170d565b60405161060b9190615066565b60405180910390f35b61062e600480360381019061062991906155d8565b611733565b005b61064a60048036038101906106459190615150565b6117b2565b60405161065791906157a8565b60405180910390f35b610668611b41565b60405161067591906157d9565b60405180910390f35b610698600480360381019061069391906150b7565b611b54565b6040516106a5919061518c565b60405180910390f35b6106c860048036038101906106c39190615929565b611bc5565b005b6106e460048036038101906106df9190615150565b611c9d565b005b6106ee611dd9565b6040516106fb9190614f4f565b60405180910390f35b61071e60048036038101906107199190615150565b611df0565b60405161072b9190615a21565b60405180910390f35b61074e600480360381019061074991906150b7565b611e87565b60405161075b9190615066565b60405180910390f35b61077e60048036038101906107799190615233565b611f39565b005b61079a600480360381019061079591906150b7565b611fb6565b6040516107a7919061531e565b60405180910390f35b6107ca60048036038101906107c59190615150565b612065565b6040516107d7919061518c565b60405180910390f35b6107fa60048036038101906107f591906150b7565b61211d565b6040516108079190615ab2565b60405180910390f35b61082a600480360381019061082591906150b7565b6121d2565b604051610837919061518c565b60405180910390f35b61085a60048036038101906108559190615b75565b61220d565b005b61087660048036038101906108719190615233565b612269565b005b610892600480360381019061088d91906155d8565b6122eb565b005b6108ae60048036038101906108a991906155d8565b61236a565b005b6108b86123e9565b005b6108d460048036038101906108cf9190615233565b6124eb565b005b6108f060048036038101906108eb9190615150565b612568565b005b6108fa6126a4565b6040516109079190615066565b60405180910390f35b61092a600480360381019061092591906150b7565b6126ca565b604051610937919061531e565b60405180910390f35b610948612779565b6040516109559190615003565b60405180910390f35b61096661280b565b6040516109739190615c07565b60405180910390f35b61098461281f565b60405161099191906157d9565b60405180910390f35b6109b460048036038101906109af9190615c4e565b612832565b005b6109be6129fb565b6040516109cb9190615c07565b60405180910390f35b6109ee60048036038101906109e99190615150565b612a0f565b005b6109f8612aeb565b604051610a0591906157d9565b60405180910390f35b610a286004803603810190610a239190615150565b612afe565b005b610a446004803603810190610a3f9190615233565b612bdb565b005b610a606004803603810190610a5b9190615cba565b612c58565b005b610a7c6004803603810190610a779190615b75565b612c68565b005b610a986004803603810190610a9391906151a7565b612d12565b005b610ab46004803603810190610aaf91906150b7565b612f6e565b604051610ac19190615003565b60405180910390f35b610ad2612f80565b604051610adf9190615c07565b60405180910390f35b610af0612f94565b604051610afd91906157d9565b60405180910390f35b610b0e612fa7565b604051610b1b919061518c565b60405180910390f35b610b3e6004803603810190610b3991906150b7565b612fad565b604051610b4b919061531e565b60405180910390f35b610b5c61305c565b604051610b699190615c07565b60405180910390f35b610b8c6004803603810190610b879190615d0d565b613070565b604051610b999190614f4f565b60405180910390f35b610bbc6004803603810190610bb79190615150565b613104565b005b610bc6613240565b604051610bd39190615066565b60405180910390f35b60007f79f154c4000000000000000000000000000000000000000000000000000000007bffffffffffffffffffffffffffffffffffffffffffffffffffffffff1916827bffffffffffffffffffffffffffffffffffffffffffffffffffffffff19161480610c4f5750610c4e82613264565b5b9050919050565b606060058054610c6590615d7c565b80601f0160208091040260200160405190810160405280929190818152602001828054610c9190615d7c565b8015610cde5780601f10610cb357610100808354040283529160200191610cde565b820191906000526020600020905b815481529060010190602001808311610cc157829003601f168201915b5050505050905090565b600160009054906101000a900473ffffffffffffffffffffffffffffffffffffffff1681565b6000610d19826132de565b610d58576040517f08c379a0000000000000000000000000000000000000000000000000000000008152600401610d4f90615e20565b60405180910390fd5b6009600083815260200190815260200160002060009054906101000a900473ffffffffffffffffffffffffffffffffffffffff169050919050565b610d9b611dd9565b15610ddb576040517f08c379a0000000000000000000000000000000000000000000000000000000008152600401610dd290615e8c565b60405180910390fd5b6000610de682611e87565b90508073ffffffffffffffffffffffffffffffffffffffff168373ffffffffffffffffffffffffffffffffffffffff161415610e57576040517f08c379a0000000000000000000000000000000000000000000000000000000008152600401610e4e90615f1e565b60405180910390fd5b8073ffffffffffffffffffffffffffffffffffffffff16610e7661334a565b73ffffffffffffffffffffffffffffffffffffffff161480610ea55750610ea481610e9f61334a565b613070565b5b610ee4576040517f08c379a0000000000000000000000000000000000000000000000000000000008152600401610edb90615fb0565b60405180910390fd5b610eee8383613352565b505050565b6000601260008373ffffffffffffffffffffffffffffffffffffffff1673ffffffffffffffffffffffffffffffffffffffff168152602001908152602001600020549050919050565b6000600e80549050905090565b60006011600183610f5a9190615fff565b81548110610f6b57610f6a616033565b5b9060005260206000209060090201600301549050919050565b610f8c611dd9565b15610fcc576040517f08c379a0000000000000000000000000000000000000000000000000000000008152600401610fc390615e8c565b60405180910390fd5b610fdd610fd761334a565b8261340b565b61101c576040517f08c379a0000000000000000000000000000000000000000000000000000000008152600401611013906160d4565b60405180910390fd5b611027838383612d12565b505050565b60008054906101000a900473ffffffffffffffffffffffffffffffffffffffff1673ffffffffffffffffffffffffffffffffffffffff1661106b61334a565b73ffffffffffffffffffffffffffffffffffffffff161461108b57600080fd5b80601660096101000a81548160ff021916908360ff16021790555050565b600260009054906101000a900473ffffffffffffffffffffffffffffffffffffffff1681565b60006110da83612065565b821061111b576040517f08c379a000000000000000000000000000000000000000000000000000000000815260040161111290616166565b60405180910390fd5b600c60008473ffffffffffffffffffffffffffffffffffffffff1673ffffffffffffffffffffffffffffffffffffffff168152602001908152602001600020600083815260200190815260200160002054905092915050565b61117c611dd9565b6111bb576040517f08c379a00000000000000000000000000000000000000000000000000000000081526004016111b2906161d2565b60405180910390fd5b60008054906101000a900473ffffffffffffffffffffffffffffffffffffffff1673ffffffffffffffffffffffffffffffffffffffff166111fa61334a565b73ffffffffffffffffffffffffffffffffffffffff161461121a57600080fd5b6000600460146101000a81548160ff0219169083151502179055507f5db9ee0a495bf2e6ff9c91a7834c1ba4fdd244a5e8aa4e537bd38aeae4b073aa61125e61334a565b60405161126b9190615066565b60405180910390a1565b61127d611dd9565b156112bd576040517f08c379a00000000000000000000000000000000000000000000000000000000081526004016112b490615e8c565b60405180910390fd5b6112d883838360405180602001604052806000815250612c68565b505050565b606060116001836112ee9190615fff565b815481106112ff576112fe616033565b5b906000526020600020906009020160060180548060200260200160405190810160405280929190818152602001828054801561138057602002820191906000526020600020906000905b82829054906101000a900460ff1660ff16815260200190600101906020826000010492830192600103820291508084116113495790505b50505050509050919050565b611394614c3f565b61139d826132de565b6113dc576040517f08c379a00000000000000000000000000000000000000000000000000000000081526004016113d390616264565b60405180910390fd5b60116001836113eb9190615fff565b815481106113fc576113fb616033565b5b906000526020600020906009020160405180610120016040529081600082015481526020016001820160009054906101000a900473ffffffffffffffffffffffffffffffffffffffff1673ffffffffffffffffffffffffffffffffffffffff1673ffffffffffffffffffffffffffffffffffffffff16815260200160028201548152602001600382015481526020016004820180548060200260200160405190810160405280929190818152602001828054801561150557602002820191906000526020600020906000905b82829054906101000a900463ffffffff1663ffffffff16815260200190600401906020826003010492830192600103820291508084116114c85790505b505050505081526020016005820180548060200260200160405190810160405280929190818152602001828054801561158357602002820191906000526020600020906000905b82829054906101000a900460ff1660ff168152602001906001019060208260000104928301926001038202915080841161154c5790505b505050505081526020016006820180548060200260200160405190810160405280929190818152602001828054801561160157602002820191906000526020600020906000905b82829054906101000a900460ff1660ff16815260200190600101906020826000010492830192600103820291508084116115ca5790505b505050505081526020016007820180548060200260200160405190810160405280929190818152602001828054801561167f57602002820191906000526020600020906000905b82829054906101000a900460ff1660ff16815260200190600101906020826000010492830192600103820291508084116116485790505b50505050508152602001600882018054806020026020016040519081016040528092919081815260200182805480156116fd57602002820191906000526020600020906000905b82829054906101000a900460ff1660ff16815260200190600101906020826000010492830192600103820291508084116116c65790505b5050505050815250509050919050565b600460009054906101000a900473ffffffffffffffffffffffffffffffffffffffff1681565b60008054906101000a900473ffffffffffffffffffffffffffffffffffffffff1673ffffffffffffffffffffffffffffffffffffffff1661177261334a565b73ffffffffffffffffffffffffffffffffffffffff161461179257600080fd5b80601660016101000a81548161ffff021916908361ffff16021790555050565b6060601460008373ffffffffffffffffffffffffffffffffffffffff1673ffffffffffffffffffffffffffffffffffffffff168152602001908152602001600020805480602002602001604051908101604052809291908181526020016000905b82821015611b36578382906000526020600020906009020160405180610120016040529081600082015481526020016001820160009054906101000a900473ffffffffffffffffffffffffffffffffffffffff1673ffffffffffffffffffffffffffffffffffffffff1673ffffffffffffffffffffffffffffffffffffffff16815260200160028201548152602001600382015481526020016004820180548060200260200160405190810160405280929190818152602001828054801561192657602002820191906000526020600020906000905b82829054906101000a900463ffffffff1663ffffffff16815260200190600401906020826003010492830192600103820291508084116118e95790505b50505050508152602001600582018054806020026020016040519081016040528092919081815260200182805480156119a457602002820191906000526020600020906000905b82829054906101000a900460ff1660ff168152602001906001019060208260000104928301926001038202915080841161196d5790505b5050505050815260200160068201805480602002602001604051908101604052809291908181526020018280548015611a2257602002820191906000526020600020906000905b82829054906101000a900460ff1660ff16815260200190600101906020826000010492830192600103820291508084116119eb5790505b5050505050815260200160078201805480602002602001604051908101604052809291908181526020018280548015611aa057602002820191906000526020600020906000905b82829054906101000a900460ff1660ff1681526020019060010190602082600001049283019260010382029150808411611a695790505b5050505050815260200160088201805480602002602001604051908101604052809291908181526020018280548015611b1e57602002820191906000526020600020906000905b82829054906101000a900460ff1660ff1681526020019060010190602082600001049283019260010382029150808411611ae75790505b50505050508152505081526020019060010190611813565b505050509050919050565b601660089054906101000a900460ff1681565b6000611b5e610f3c565b8210611b9f576040517f08c379a0000000000000000000000000000000000000000000000000000000008152600401611b96906162f6565b60405180910390fd5b600e8281548110611bb357611bb2616033565b5b90600052602060002001549050919050565b60008054906101000a900473ffffffffffffffffffffffffffffffffffffffff1673ffffffffffffffffffffffffffffffffffffffff16611c0461334a565b73ffffffffffffffffffffffffffffffffffffffff161480611c7a5750600360009054906101000a900473ffffffffffffffffffffffffffffffffffffffff1673ffffffffffffffffffffffffffffffffffffffff16611c6261334a565b73ffffffffffffffffffffffffffffffffffffffff16145b611c8357600080fd5b8060109080519060200190611c99929190614ca1565b5050565b60008054906101000a900473ffffffffffffffffffffffffffffffffffffffff1673ffffffffffffffffffffffffffffffffffffffff16611cdc61334a565b73ffffffffffffffffffffffffffffffffffffffff161480611d525750600360009054906101000a900473ffffffffffffffffffffffffffffffffffffffff1673ffffffffffffffffffffffffffffffffffffffff16611d3a61334a565b73ffffffffffffffffffffffffffffffffffffffff16145b611d5b57600080fd5b600073ffffffffffffffffffffffffffffffffffffffff168173ffffffffffffffffffffffffffffffffffffffff161415611d9557600080fd5b80600160006101000a81548173ffffffffffffffffffffffffffffffffffffffff021916908373ffffffffffffffffffffffffffffffffffffffff16021790555050565b6000600460149054906101000a900460ff16905090565b6060601360008373ffffffffffffffffffffffffffffffffffffffff1673ffffffffffffffffffffffffffffffffffffffff168152602001908152602001600020805480602002602001604051908101604052809291908181526020018280548015611e7b57602002820191906000526020600020905b815481526020019060010190808311611e67575b50505050509050919050565b6000806007600084815260200190815260200160002060009054906101000a900473ffffffffffffffffffffffffffffffffffffffff169050600073ffffffffffffffffffffffffffffffffffffffff168173ffffffffffffffffffffffffffffffffffffffff161415611f30576040517f08c379a0000000000000000000000000000000000000000000000000000000008152600401611f2790616388565b60405180910390fd5b80915050919050565b60008054906101000a900473ffffffffffffffffffffffffffffffffffffffff1673ffffffffffffffffffffffffffffffffffffffff16611f7861334a565b73ffffffffffffffffffffffffffffffffffffffff1614611f9857600080fd5b80601660086101000a81548160ff021916908360ff16021790555050565b60606011600183611fc79190615fff565b81548110611fd857611fd7616033565b5b906000526020600020906009020160080180548060200260200160405190810160405280929190818152602001828054801561205957602002820191906000526020600020906000905b82829054906101000a900460ff1660ff16815260200190600101906020826000010492830192600103820291508084116120225790505b50505050509050919050565b60008073ffffffffffffffffffffffffffffffffffffffff168273ffffffffffffffffffffffffffffffffffffffff1614156120d6576040517f08c379a00000000000000000000000000000000000000000000000000000000081526004016120cd9061641a565b60405180910390fd5b600860008373ffffffffffffffffffffffffffffffffffffffff1673ffffffffffffffffffffffffffffffffffffffff168152602001908152602001600020549050919050565b6060601160018361212e9190615fff565b8154811061213f5761213e616033565b5b90600052602060002090600902016004018054806020026020016040519081016040528092919081815260200182805480156121c657602002820191906000526020600020906000905b82829054906101000a900463ffffffff1663ffffffff16815260200190600401906020826003010492830192600103820291508084116121895790505b50505050509050919050565b600060116001836121e39190615fff565b815481106121f4576121f3616033565b5b9060005260206000209060090201600201549050919050565b612218848484612d12565b612224848484846134e9565b612263576040517f08c379a000000000000000000000000000000000000000000000000000000000815260040161225a906164ac565b60405180910390fd5b50505050565b60008054906101000a900473ffffffffffffffffffffffffffffffffffffffff1673ffffffffffffffffffffffffffffffffffffffff166122a861334a565b73ffffffffffffffffffffffffffffffffffffffff16146122c857600080fd5b8060ff16601660066101000a81548161ffff021916908361ffff16021790555050565b60008054906101000a900473ffffffffffffffffffffffffffffffffffffffff1673ffffffffffffffffffffffffffffffffffffffff1661232a61334a565b73ffffffffffffffffffffffffffffffffffffffff161461234a57600080fd5b80601660046101000a81548161ffff021916908361ffff16021790555050565b60008054906101000a900473ffffffffffffffffffffffffffffffffffffffff1673ffffffffffffffffffffffffffffffffffffffff166123a961334a565b73ffffffffffffffffffffffffffffffffffffffff16146123c957600080fd5b806016600a6101000a81548161ffff021916908361ffff16021790555050565b6123f1611dd9565b15612431576040517f08c379a000000000000000000000000000000000000000000000000000000000815260040161242890615e8c565b60405180910390fd5b60008054906101000a900473ffffffffffffffffffffffffffffffffffffffff1673ffffffffffffffffffffffffffffffffffffffff1661247061334a565b73ffffffffffffffffffffffffffffffffffffffff161461249057600080fd5b6001600460146101000a81548160ff0219169083151502179055507f62e78cea01bee320cd4e420270b5ea74000d11b0c9f74754ebdbfc544b05a2586124d461334a565b6040516124e19190615066565b60405180910390a1565b60008054906101000a900473ffffffffffffffffffffffffffffffffffffffff1673ffffffffffffffffffffffffffffffffffffffff1661252a61334a565b73ffffffffffffffffffffffffffffffffffffffff161461254a57600080fd5b80601660036101000a81548160ff021916908360ff16021790555050565b60008054906101000a900473ffffffffffffffffffffffffffffffffffffffff1673ffffffffffffffffffffffffffffffffffffffff166125a761334a565b73ffffffffffffffffffffffffffffffffffffffff16148061261d5750600360009054906101000a900473ffffffffffffffffffffffffffffffffffffffff1673ffffffffffffffffffffffffffffffffffffffff1661260561334a565b73ffffffffffffffffffffffffffffffffffffffff16145b61262657600080fd5b600073ffffffffffffffffffffffffffffffffffffffff168173ffffffffffffffffffffffffffffffffffffffff16141561266057600080fd5b80600460006101000a81548173ffffffffffffffffffffffffffffffffffffffff021916908373ffffffffffffffffffffffffffffffffffffffff16021790555050565b600360009054906101000a900473ffffffffffffffffffffffffffffffffffffffff1681565b606060116001836126db9190615fff565b815481106126ec576126eb616033565b5b906000526020600020906009020160050180548060200260200160405190810160405280929190818152602001828054801561276d57602002820191906000526020600020906000905b82829054906101000a900460ff1660ff16815260200190600101906020826000010492830192600103820291508084116127365790505b50505050509050919050565b60606006805461278890615d7c565b80601f01602080910402602001604051908101604052809291908181526020018280546127b490615d7c565b80156128015780601f106127d657610100808354040283529160200191612801565b820191906000526020600020905b8154815290600101906020018083116127e457829003601f168201915b5050505050905090565b601660049054906101000a900461ffff1681565b601660039054906101000a900460ff1681565b61283a611dd9565b1561287a576040517f08c379a000000000000000000000000000000000000000000000000000000000815260040161287190615e8c565b60405180910390fd5b61288261334a565b73ffffffffffffffffffffffffffffffffffffffff168273ffffffffffffffffffffffffffffffffffffffff1614156128f0576040517f08c379a00000000000000000000000000000000000000000000000000000000081526004016128e790616518565b60405180910390fd5b80600a60006128fd61334a565b73ffffffffffffffffffffffffffffffffffffffff1673ffffffffffffffffffffffffffffffffffffffff16815260200190815260200160002060008473ffffffffffffffffffffffffffffffffffffffff1673ffffffffffffffffffffffffffffffffffffffff16815260200190815260200160002060006101000a81548160ff0219169083151502179055508173ffffffffffffffffffffffffffffffffffffffff166129aa61334a565b73ffffffffffffffffffffffffffffffffffffffff167f17307eab39ab6107e8899845ad3d59bd9653f200f220920489ca2b5937696c31836040516129ef9190614f4f565b60405180910390a35050565b6016600a9054906101000a900461ffff1681565b60008054906101000a900473ffffffffffffffffffffffffffffffffffffffff1673ffffffffffffffffffffffffffffffffffffffff16612a4e61334a565b73ffffffffffffffffffffffffffffffffffffffff1614612a6e57600080fd5b600073ffffffffffffffffffffffffffffffffffffffff168173ffffffffffffffffffffffffffffffffffffffff161415612aa857600080fd5b806000806101000a81548173ffffffffffffffffffffffffffffffffffffffff021916908373ffffffffffffffffffffffffffffffffffffffff16021790555050565b601660099054906101000a900460ff1681565b60008054906101000a900473ffffffffffffffffffffffffffffffffffffffff1673ffffffffffffffffffffffffffffffffffffffff16612b3d61334a565b73ffffffffffffffffffffffffffffffffffffffff1614612b5d57600080fd5b600073ffffffffffffffffffffffffffffffffffffffff168173ffffffffffffffffffffffffffffffffffffffff161415612b9757600080fd5b80600360006101000a81548173ffffffffffffffffffffffffffffffffffffffff021916908373ffffffffffffffffffffffffffffffffffffffff16021790555050565b60008054906101000a900473ffffffffffffffffffffffffffffffffffffffff1673ffffffffffffffffffffffffffffffffffffffff16612c1a61334a565b73ffffffffffffffffffffffffffffffffffffffff1614612c3a57600080fd5b80601660006101000a81548160ff021916908360ff16021790555050565b612c63838383613671565b505050565b612c70611dd9565b15612cb0576040517f08c379a0000000000000000000000000000000000000000000000000000000008152600401612ca790615e8c565b60405180910390fd5b612cc1612cbb61334a565b8361340b565b612d00576040517f08c379a0000000000000000000000000000000000000000000000000000000008152600401612cf7906160d4565b60405180910390fd5b612d0c8484848461220d565b50505050565b8273ffffffffffffffffffffffffffffffffffffffff16612d3282611e87565b73ffffffffffffffffffffffffffffffffffffffff1614612d88576040517f08c379a0000000000000000000000000000000000000000000000000000000008152600401612d7f906165aa565b60405180910390fd5b600073ffffffffffffffffffffffffffffffffffffffff168273ffffffffffffffffffffffffffffffffffffffff161415612df8576040517f08c379a0000000000000000000000000000000000000000000000000000000008152600401612def9061663c565b60405180910390fd5b612e03838383613ab1565b612e0e600082613352565b6001600860008573ffffffffffffffffffffffffffffffffffffffff1673ffffffffffffffffffffffffffffffffffffffff1681526020019081526020016000206000828254612e5e9190615fff565b925050819055506001600860008473ffffffffffffffffffffffffffffffffffffffff1673ffffffffffffffffffffffffffffffffffffffff1681526020019081526020016000206000828254612eb5919061665c565b92505081905550816007600083815260200190815260200160002060006101000a81548173ffffffffffffffffffffffffffffffffffffffff021916908373ffffffffffffffffffffffffffffffffffffffff160217905550808273ffffffffffffffffffffffffffffffffffffffff168473ffffffffffffffffffffffffffffffffffffffff167fddf252ad1be2c89b69c2b068fc378daa952ba7f163c4a11628f55a4df523b3ef60405160405180910390a4505050565b6060612f7982613ac1565b9050919050565b601660019054906101000a900461ffff1681565b601660009054906101000a900460ff1681565b60155481565b60606011600183612fbe9190615fff565b81548110612fcf57612fce616033565b5b906000526020600020906009020160070180548060200260200160405190810160405280929190818152602001828054801561305057602002820191906000526020600020906000905b82829054906101000a900460ff1660ff16815260200190600101906020826000010492830192600103820291508084116130195790505b50505050509050919050565b601660069054906101000a900461ffff1681565b6000600a60008473ffffffffffffffffffffffffffffffffffffffff1673ffffffffffffffffffffffffffffffffffffffff16815260200190815260200160002060008373ffffffffffffffffffffffffffffffffffffffff1673ffffffffffffffffffffffffffffffffffffffff16815260200190815260200160002060009054906101000a900460ff16905092915050565b60008054906101000a900473ffffffffffffffffffffffffffffffffffffffff1673ffffffffffffffffffffffffffffffffffffffff1661314361334a565b73ffffffffffffffffffffffffffffffffffffffff1614806131b95750600360009054906101000a900473ffffffffffffffffffffffffffffffffffffffff1673ffffffffffffffffffffffffffffffffffffffff166131a161334a565b73ffffffffffffffffffffffffffffffffffffffff16145b6131c257600080fd5b600073ffffffffffffffffffffffffffffffffffffffff168173ffffffffffffffffffffffffffffffffffffffff1614156131fc57600080fd5b80600260006101000a81548173ffffffffffffffffffffffffffffffffffffffff021916908373ffffffffffffffffffffffffffffffffffffffff16021790555050565b60008054906101000a900473ffffffffffffffffffffffffffffffffffffffff1681565b60007f780e9d63000000000000000000000000000000000000000000000000000000007bffffffffffffffffffffffffffffffffffffffffffffffffffffffff1916827bffffffffffffffffffffffffffffffffffffffffffffffffffffffff191614806132d757506132d682613c13565b5b9050919050565b60008073ffffffffffffffffffffffffffffffffffffffff166007600084815260200190815260200160002060009054906101000a900473ffffffffffffffffffffffffffffffffffffffff1673ffffffffffffffffffffffffffffffffffffffff1614159050919050565b600033905090565b816009600083815260200190815260200160002060006101000a81548173ffffffffffffffffffffffffffffffffffffffff021916908373ffffffffffffffffffffffffffffffffffffffff160217905550808273ffffffffffffffffffffffffffffffffffffffff166133c583611e87565b73ffffffffffffffffffffffffffffffffffffffff167f8c5be1e5ebec7d5bd14f71427d1e84f3dd0314c0f7b2291e5b200ac8c7c3b92560405160405180910390a45050565b6000613416826132de565b613455576040517f08c379a000000000000000000000000000000000000000000000000000000000815260040161344c90616724565b60405180910390fd5b600061346083611e87565b90508073ffffffffffffffffffffffffffffffffffffffff168473ffffffffffffffffffffffffffffffffffffffff1614806134cf57508373ffffffffffffffffffffffffffffffffffffffff166134b784610d0e565b73ffffffffffffffffffffffffffffffffffffffff16145b806134e057506134df8185613070565b5b91505092915050565b600061350a8473ffffffffffffffffffffffffffffffffffffffff16613cf5565b15613664578373ffffffffffffffffffffffffffffffffffffffff166341982fc861353361334a565b8786866040518563ffffffff1660e01b81526004016135559493929190616799565b6020604051808303816000875af192505050801561359157506040513d601f19601f8201168201806040525081019061358e91906167fa565b60015b613614573d80600081146135c1576040519150601f19603f3d011682016040523d82523d6000602084013e6135c6565b606091505b5060008151141561360c576040517f08c379a0000000000000000000000000000000000000000000000000000000008152600401613603906164ac565b60405180910390fd5b805181602001fd5b6341982fc860e01b7bffffffffffffffffffffffffffffffffffffffffffffffffffffffff1916817bffffffffffffffffffffffffffffffffffffffffffffffffffffffff191614915050613669565b600190505b949350505050565b600061367d8483613d08565b9050600061368a85614099565b90506000613697866141e0565b9050606080600060405180610120016040528060155481526020018973ffffffffffffffffffffffffffffffffffffffff16815260200142815260200142815260200187815260200186815260200185815260200184815260200183815250905060118190806001815401808255809150506001900390600052602060002090600902016000909190919091506000820151816000015560208201518160010160006101000a81548173ffffffffffffffffffffffffffffffffffffffff021916908373ffffffffffffffffffffffffffffffffffffffff160217905550604082015181600201556060820151816003015560808201518160040190805190602001906137a5929190614d27565b5060a08201518160050190805190602001906137c2929190614dd7565b5060c08201518160060190805190602001906137df929190614dd7565b5060e08201518160070190805190602001906137fc929190614dd7565b5061010082015181600801908051906020019061381a929190614dd7565b505050601460008973ffffffffffffffffffffffffffffffffffffffff1673ffffffffffffffffffffffffffffffffffffffff1681526020019081526020016000208190806001815401808255809150506001900390600052602060002090600902016000909190919091506000820151816000015560208201518160010160006101000a81548173ffffffffffffffffffffffffffffffffffffffff021916908373ffffffffffffffffffffffffffffffffffffffff16021790555060408201518160020155606082015181600301556080820151816004019080519060200190613907929190614d27565b5060a0820151816005019080519060200190613924929190614dd7565b5060c0820151816006019080519060200190613941929190614dd7565b5060e082015181600701908051906020019061395e929190614dd7565b5061010082015181600801908051906020019061397c929190614dd7565b50505061398b886015546142d5565b601360008973ffffffffffffffffffffffffffffffffffffffff1673ffffffffffffffffffffffffffffffffffffffff168152602001908152602001600020601554908060018154018082558091505060019003906000526020600020016000909190919091505560156000815480929190613a0690616827565b9190505550601260008973ffffffffffffffffffffffffffffffffffffffff1673ffffffffffffffffffffffffffffffffffffffff1681526020019081526020016000206000815480929190613a5b90616827565b91905055508773ffffffffffffffffffffffffffffffffffffffff166015547f47cb4d17ba1d2b90700b9a127f2fec8f547e1497333d5591a0a1e0942f6e1c5260405160405180910390a3505050505050505050565b613abc8383836142f3565b505050565b6060613acc826132de565b613b0b576040517f08c379a0000000000000000000000000000000000000000000000000000000008152600401613b02906168e2565b60405180910390fd5b6000600b60008481526020019081526020016000208054613b2b90615d7c565b80601f0160208091040260200160405190810160405280929190818152602001828054613b5790615d7c565b8015613ba45780601f10613b7957610100808354040283529160200191613ba4565b820191906000526020600020905b815481529060010190602001808311613b8757829003601f168201915b505050505090506000613bb5614407565b9050600081511415613bcb578192505050613c0e565b600082511115613c00578082604051602001613be892919061693e565b60405160208183030381529060405292505050613c0e565b613c0984614499565b925050505b919050565b60007f80ac58cd000000000000000000000000000000000000000000000000000000007bffffffffffffffffffffffffffffffffffffffffffffffffffffffff1916827bffffffffffffffffffffffffffffffffffffffffffffffffffffffff19161480613cde57507f5b5e139f000000000000000000000000000000000000000000000000000000007bffffffffffffffffffffffffffffffffffffffffffffffffffffffff1916827bffffffffffffffffffffffffffffffffffffffffffffffffffffffff1916145b80613cee5750613ced82614540565b5b9050919050565b600080823b905060008111915050919050565b6060600767ffffffffffffffff811115613d2557613d246157fe565b5b604051908082528060200260200182016040528015613d535781602001602082028036833780820191505090505b5090506001601660009054906101000a900460ff1660ff16846000604051602001613d7f9291906169a7565b6040516020818303038152906040528051906020012060001c613da291906169ff565b613dac919061665c565b81600081518110613dc057613dbf616033565b5b602002602001019063ffffffff16908163ffffffff16815250506001601660019054906101000a900461ffff1661ffff16846001604051602001613e05929190616a6b565b6040516020818303038152906040528051906020012060001c613e2891906169ff565b613e32919061665c565b81600181518110613e4657613e45616033565b5b602002602001019063ffffffff16908163ffffffff16815250506001601660069054906101000a900461ffff1661ffff16846002604051602001613e8b929190616acf565b6040516020818303038152906040528051906020012060001c613eae91906169ff565b613eb8919061665c565b81600281518110613ecc57613ecb616033565b5b602002602001019063ffffffff16908163ffffffff1681525050600180846003604051602001613efd929190616b33565b6040516020818303038152906040528051906020012060001c613f2091906169ff565b613f2a919061665c565b81600381518110613f3e57613f3d616033565b5b602002602001019063ffffffff16908163ffffffff16815250508181600481518110613f6d57613f6c616033565b5b602002602001019063ffffffff16908163ffffffff16815250506001601660049054906101000a900461ffff1661ffff16846004604051602001613fb2929190616b97565b6040516020818303038152906040528051906020012060001c613fd591906169ff565b613fdf919061665c565b81600581518110613ff357613ff2616033565b5b602002602001019063ffffffff16908163ffffffff168152505060016016600a9054906101000a900461ffff1661ffff16846005604051602001614038929190616bfb565b6040516020818303038152906040528051906020012060001c61405b91906169ff565b614065919061665c565b8160068151811061407957614078616033565b5b602002602001019063ffffffff16908163ffffffff168152505092915050565b6060600267ffffffffffffffff8111156140b6576140b56157fe565b5b6040519080825280602002602001820160405280156140e45781602001602082028036833780820191505090505b50905060005b60028160ff161015614188576001601660089054906101000a900460ff1660ff16848360405160200161411e929190616c24565b6040516020818303038152906040528051906020012060001c61414191906169ff565b61414b919061665c565b828260ff168151811061416157614160616033565b5b602002602001019060ff16908160ff1681525050808061418090616c4d565b9150506140ea565b5060018160008151811061419f5761419e616033565b5b602002602001015160ff1614156141db576002816000815181106141c6576141c5616033565b5b602002602001019060ff16908160ff16815250505b919050565b6060600767ffffffffffffffff8111156141fd576141fc6157fe565b5b60405190808252806020026020018201604052801561422b5781602001602082028036833780820191505090505b50905060005b60078160ff1610156142cf576001601660099054906101000a900460ff1660ff168483604051602001614265929190616c24565b6040516020818303038152906040528051906020012060001c61428891906169ff565b614292919061665c565b828260ff16815181106142a8576142a7616033565b5b602002602001019060ff16908160ff168152505080806142c790616c4d565b915050614231565b50919050565b6142ef8282604051806020016040528060008152506145aa565b5050565b6142fe838383614605565b600073ffffffffffffffffffffffffffffffffffffffff168373ffffffffffffffffffffffffffffffffffffffff1614156143415761433c8161460a565b614380565b8173ffffffffffffffffffffffffffffffffffffffff168373ffffffffffffffffffffffffffffffffffffffff161461437f5761437e8382614653565b5b5b600073ffffffffffffffffffffffffffffffffffffffff168273ffffffffffffffffffffffffffffffffffffffff1614156143c3576143be816147c0565b614402565b8273ffffffffffffffffffffffffffffffffffffffff168273ffffffffffffffffffffffffffffffffffffffff1614614401576144008282614891565b5b5b505050565b60606010805461441690615d7c565b80601f016020809104026020016040519081016040528092919081815260200182805461444290615d7c565b801561448f5780601f106144645761010080835404028352916020019161448f565b820191906000526020600020905b81548152906001019060200180831161447257829003601f168201915b5050505050905090565b60606144a4826132de565b6144e3576040517f08c379a00000000000000000000000000000000000000000000000000000000081526004016144da90616ce9565b60405180910390fd5b60006144ed614407565b9050600081511161450d5760405180602001604052806000815250614538565b8061451784614910565b60405160200161452892919061693e565b6040516020818303038152906040525b915050919050565b60007f01ffc9a7000000000000000000000000000000000000000000000000000000007bffffffffffffffffffffffffffffffffffffffffffffffffffffffff1916827bffffffffffffffffffffffffffffffffffffffffffffffffffffffff1916149050919050565b6145b48383614a71565b6145c160008484846134e9565b614600576040517f08c379a00000000000000000000000000000000000000000000000000000000081526004016145f7906164ac565b60405180910390fd5b505050565b505050565b600e80549050600f600083815260200190815260200160002081905550600e81908060018154018082558091505060019003906000526020600020016000909190919091505550565b6000600161466084612065565b61466a9190615fff565b90506000600d600084815260200190815260200160002054905081811461474f576000600c60008673ffffffffffffffffffffffffffffffffffffffff1673ffffffffffffffffffffffffffffffffffffffff168152602001908152602001600020600084815260200190815260200160002054905080600c60008773ffffffffffffffffffffffffffffffffffffffff1673ffffffffffffffffffffffffffffffffffffffff16815260200190815260200160002060008481526020019081526020016000208190555081600d600083815260200190815260200160002081905550505b600d600084815260200190815260200160002060009055600c60008573ffffffffffffffffffffffffffffffffffffffff1673ffffffffffffffffffffffffffffffffffffffff16815260200190815260200160002060008381526020019081526020016000206000905550505050565b60006001600e805490506147d49190615fff565b90506000600f60008481526020019081526020016000205490506000600e838154811061480457614803616033565b5b9060005260206000200154905080600e838154811061482657614825616033565b5b906000526020600020018190555081600f600083815260200190815260200160002081905550600f600085815260200190815260200160002060009055600e80548061487557614874616d09565b5b6001900381819060005260206000200160009055905550505050565b600061489c83612065565b905081600c60008573ffffffffffffffffffffffffffffffffffffffff1673ffffffffffffffffffffffffffffffffffffffff16815260200190815260200160002060008381526020019081526020016000208190555080600d600084815260200190815260200160002081905550505050565b60606000821415614958576040518060400160405280600181526020017f30000000000000000000000000000000000000000000000000000000000000008152509050614a6c565b600082905060005b6000821461498a57808061497390616827565b915050600a826149839190616d38565b9150614960565b60008167ffffffffffffffff8111156149a6576149a56157fe565b5b6040519080825280601f01601f1916602001820160405280156149d85781602001600182028036833780820191505090505b5090505b60008514614a65576001826149f19190615fff565b9150600a85614a0091906169ff565b6030614a0c919061665c565b60f81b818381518110614a2257614a21616033565b5b60200101907effffffffffffffffffffffffffffffffffffffffffffffffffffffffffffff1916908160001a905350600a85614a5e9190616d38565b94506149dc565b8093505050505b919050565b600073ffffffffffffffffffffffffffffffffffffffff168273ffffffffffffffffffffffffffffffffffffffff161415614ae1576040517f08c379a0000000000000000000000000000000000000000000000000000000008152600401614ad890616db5565b60405180910390fd5b614aea816132de565b15614b2a576040517f08c379a0000000000000000000000000000000000000000000000000000000008152600401614b2190616e21565b60405180910390fd5b614b3660008383613ab1565b6001600860008473ffffffffffffffffffffffffffffffffffffffff1673ffffffffffffffffffffffffffffffffffffffff1681526020019081526020016000206000828254614b86919061665c565b92505081905550816007600083815260200190815260200160002060006101000a81548173ffffffffffffffffffffffffffffffffffffffff021916908373ffffffffffffffffffffffffffffffffffffffff160217905550808273ffffffffffffffffffffffffffffffffffffffff16600073ffffffffffffffffffffffffffffffffffffffff167fddf252ad1be2c89b69c2b068fc378daa952ba7f163c4a11628f55a4df523b3ef60405160405180910390a45050565b60405180610120016040528060008152602001600073ffffffffffffffffffffffffffffffffffffffff168152602001600081526020016000815260200160608152602001606081526020016060815260200160608152602001606081525090565b828054614cad90615d7c565b90600052602060002090601f016020900481019282614ccf5760008555614d16565b82601f10614ce857805160ff1916838001178555614d16565b82800160010185558215614d16579182015b82811115614d15578251825591602001919060010190614cfa565b5b509050614d239190614e7e565b5090565b82805482825590600052602060002090600701600890048101928215614dc65791602002820160005b83821115614d9457835183826101000a81548163ffffffff021916908363ffffffff1602179055509260200192600401602081600301049283019260010302614d50565b8015614dc45782816101000a81549063ffffffff0219169055600401602081600301049283019260010302614d94565b505b509050614dd39190614e7e565b5090565b82805482825590600052602060002090601f01602090048101928215614e6d5791602002820160005b83821115614e3e57835183826101000a81548160ff021916908360ff1602179055509260200192600101602081600001049283019260010302614e00565b8015614e6b5782816101000a81549060ff0219169055600101602081600001049283019260010302614e3e565b505b509050614e7a9190614e7e565b5090565b5b80821115614e97576000816000905550600101614e7f565b5090565b6000604051905090565b600080fd5b600080fd5b60007fffffffff0000000000000000000000000000000000000000000000000000000082169050919050565b614ee481614eaf565b8114614eef57600080fd5b50565b600081359050614f0181614edb565b92915050565b600060208284031215614f1d57614f1c614ea5565b5b6000614f2b84828501614ef2565b91505092915050565b60008115159050919050565b614f4981614f34565b82525050565b6000602082019050614f646000830184614f40565b92915050565b600081519050919050565b600082825260208201905092915050565b60005b83811015614fa4578082015181840152602081019050614f89565b83811115614fb3576000848401525b50505050565b6000601f19601f8301169050919050565b6000614fd582614f6a565b614fdf8185614f75565b9350614fef818560208601614f86565b614ff881614fb9565b840191505092915050565b6000602082019050818103600083015261501d8184614fca565b905092915050565b600073ffffffffffffffffffffffffffffffffffffffff82169050919050565b600061505082615025565b9050919050565b61506081615045565b82525050565b600060208201905061507b6000830184615057565b92915050565b6000819050919050565b61509481615081565b811461509f57600080fd5b50565b6000813590506150b18161508b565b92915050565b6000602082840312156150cd576150cc614ea5565b5b60006150db848285016150a2565b91505092915050565b6150ed81615045565b81146150f857600080fd5b50565b60008135905061510a816150e4565b92915050565b6000806040838503121561512757615126614ea5565b5b6000615135858286016150fb565b9250506020615146858286016150a2565b9150509250929050565b60006020828403121561516657615165614ea5565b5b6000615174848285016150fb565b91505092915050565b61518681615081565b82525050565b60006020820190506151a1600083018461517d565b92915050565b6000806000606084860312156151c0576151bf614ea5565b5b60006151ce868287016150fb565b93505060206151df868287016150fb565b92505060406151f0868287016150a2565b9150509250925092565b600060ff82169050919050565b615210816151fa565b811461521b57600080fd5b50565b60008135905061522d81615207565b92915050565b60006020828403121561524957615248614ea5565b5b60006152578482850161521e565b91505092915050565b600081519050919050565b600082825260208201905092915050565b6000819050602082019050919050565b615295816151fa565b82525050565b60006152a7838361528c565b60208301905092915050565b6000602082019050919050565b60006152cb82615260565b6152d5818561526b565b93506152e08361527c565b8060005b838110156153115781516152f8888261529b565b9750615303836152b3565b9250506001810190506152e4565b5085935050505092915050565b6000602082019050818103600083015261533881846152c0565b905092915050565b61534981615081565b82525050565b61535881615045565b82525050565b600081519050919050565b600082825260208201905092915050565b6000819050602082019050919050565b600063ffffffff82169050919050565b6153a38161538a565b82525050565b60006153b5838361539a565b60208301905092915050565b6000602082019050919050565b60006153d98261535e565b6153e38185615369565b93506153ee8361537a565b8060005b8381101561541f57815161540688826153a9565b9750615411836153c1565b9250506001810190506153f2565b5085935050505092915050565b600082825260208201905092915050565b600061544882615260565b615452818561542c565b935061545d8361527c565b8060005b8381101561548e578151615475888261529b565b9750615480836152b3565b925050600181019050615461565b5085935050505092915050565b6000610120830160008301516154b46000860182615340565b5060208301516154c7602086018261534f565b5060408301516154da6040860182615340565b5060608301516154ed6060860182615340565b506080830151848203608086015261550582826153ce565b91505060a083015184820360a086015261551f828261543d565b91505060c083015184820360c0860152615539828261543d565b91505060e083015184820360e0860152615553828261543d565b91505061010083015184820361010086015261556f828261543d565b9150508091505092915050565b60006020820190508181036000830152615596818461549b565b905092915050565b600061ffff82169050919050565b6155b58161559e565b81146155c057600080fd5b50565b6000813590506155d2816155ac565b92915050565b6000602082840312156155ee576155ed614ea5565b5b60006155fc848285016155c3565b91505092915050565b600081519050919050565b600082825260208201905092915050565b6000819050602082019050919050565b60006101208301600083015161564a6000860182615340565b50602083015161565d602086018261534f565b5060408301516156706040860182615340565b5060608301516156836060860182615340565b506080830151848203608086015261569b82826153ce565b91505060a083015184820360a08601526156b5828261543d565b91505060c083015184820360c08601526156cf828261543d565b91505060e083015184820360e08601526156e9828261543d565b915050610100830151848203610100860152615705828261543d565b9150508091505092915050565b600061571e8383615631565b905092915050565b6000602082019050919050565b600061573e82615605565b6157488185615610565b93508360208202850161575a85615621565b8060005b8581101561579657848403895281516157778582615712565b945061578283615726565b925060208a0199505060018101905061575e565b50829750879550505050505092915050565b600060208201905081810360008301526157c28184615733565b905092915050565b6157d3816151fa565b82525050565b60006020820190506157ee60008301846157ca565b92915050565b600080fd5b600080fd5b7f4e487b7100000000000000000000000000000000000000000000000000000000600052604160045260246000fd5b61583682614fb9565b810181811067ffffffffffffffff82111715615855576158546157fe565b5b80604052505050565b6000615868614e9b565b9050615874828261582d565b919050565b600067ffffffffffffffff821115615894576158936157fe565b5b61589d82614fb9565b9050602081019050919050565b82818337600083830152505050565b60006158cc6158c784615879565b61585e565b9050828152602081018484840111156158e8576158e76157f9565b5b6158f38482856158aa565b509392505050565b600082601f8301126159105761590f6157f4565b5b81356159208482602086016158b9565b91505092915050565b60006020828403121561593f5761593e614ea5565b5b600082013567ffffffffffffffff81111561595d5761595c614eaa565b5b615969848285016158fb565b91505092915050565b600081519050919050565b600082825260208201905092915050565b6000819050602082019050919050565b60006159aa8383615340565b60208301905092915050565b6000602082019050919050565b60006159ce82615972565b6159d8818561597d565b93506159e38361598e565b8060005b83811015615a145781516159fb888261599e565b9750615a06836159b6565b9250506001810190506159e7565b5085935050505092915050565b60006020820190508181036000830152615a3b81846159c3565b905092915050565b600082825260208201905092915050565b6000615a5f8261535e565b615a698185615a43565b9350615a748361537a565b8060005b83811015615aa5578151615a8c88826153a9565b9750615a97836153c1565b925050600181019050615a78565b5085935050505092915050565b60006020820190508181036000830152615acc8184615a54565b905092915050565b600067ffffffffffffffff821115615aef57615aee6157fe565b5b615af882614fb9565b9050602081019050919050565b6000615b18615b1384615ad4565b61585e565b905082815260208101848484011115615b3457615b336157f9565b5b615b3f8482856158aa565b509392505050565b600082601f830112615b5c57615b5b6157f4565b5b8135615b6c848260208601615b05565b91505092915050565b60008060008060808587031215615b8f57615b8e614ea5565b5b6000615b9d878288016150fb565b9450506020615bae878288016150fb565b9350506040615bbf878288016150a2565b925050606085013567ffffffffffffffff811115615be057615bdf614eaa565b5b615bec87828801615b47565b91505092959194509250565b615c018161559e565b82525050565b6000602082019050615c1c6000830184615bf8565b92915050565b615c2b81614f34565b8114615c3657600080fd5b50565b600081359050615c4881615c22565b92915050565b60008060408385031215615c6557615c64614ea5565b5b6000615c73858286016150fb565b9250506020615c8485828601615c39565b9150509250929050565b615c978161538a565b8114615ca257600080fd5b50565b600081359050615cb481615c8e565b92915050565b600080600060608486031215615cd357615cd2614ea5565b5b6000615ce1868287016150a2565b9350506020615cf2868287016150fb565b9250506040615d0386828701615ca5565b9150509250925092565b60008060408385031215615d2457615d23614ea5565b5b6000615d32858286016150fb565b9250506020615d43858286016150fb565b9150509250929050565b7f4e487b7100000000000000000000000000000000000000000000000000000000600052602260045260246000fd5b60006002820490506001821680615d9457607f821691505b60208210811415615da857615da7615d4d565b5b50919050565b7f4245503732313a20617070726f76656420717565727920666f72206e6f6e657860008201527f697374656e7420746f6b656e0000000000000000000000000000000000000000602082015250565b6000615e0a602c83614f75565b9150615e1582615dae565b604082019050919050565b60006020820190508181036000830152615e3981615dfd565b9050919050565b7f5061757361626c653a2070617573656400000000000000000000000000000000600082015250565b6000615e76601083614f75565b9150615e8182615e40565b602082019050919050565b60006020820190508181036000830152615ea581615e69565b9050919050565b7f4245503732313a20617070726f76616c20746f2063757272656e74206f776e6560008201527f7200000000000000000000000000000000000000000000000000000000000000602082015250565b6000615f08602183614f75565b9150615f1382615eac565b604082019050919050565b60006020820190508181036000830152615f3781615efb565b9050919050565b7f4245503732313a20617070726f76652063616c6c6572206973206e6f74206f7760008201527f6e6572206e6f7220617070726f76656420666f7220616c6c0000000000000000602082015250565b6000615f9a603883614f75565b9150615fa582615f3e565b604082019050919050565b60006020820190508181036000830152615fc981615f8d565b9050919050565b7f4e487b7100000000000000000000000000000000000000000000000000000000600052601160045260246000fd5b600061600a82615081565b915061601583615081565b92508282101561602857616027615fd0565b5b828203905092915050565b7f4e487b7100000000000000000000000000000000000000000000000000000000600052603260045260246000fd5b7f4245503732313a207472616e736665722063616c6c6572206973206e6f74206f60008201527f776e6572206e6f7220617070726f766564000000000000000000000000000000602082015250565b60006160be603183614f75565b91506160c982616062565b604082019050919050565b600060208201905081810360008301526160ed816160b1565b9050919050565b7f424550373231456e756d657261626c653a206f776e657220696e646578206f7560008201527f74206f6620626f756e6473000000000000000000000000000000000000000000602082015250565b6000616150602b83614f75565b915061615b826160f4565b604082019050919050565b6000602082019050818103600083015261617f81616143565b9050919050565b7f5061757361626c653a206e6f7420706175736564000000000000000000000000600082015250565b60006161bc601483614f75565b91506161c782616186565b602082019050919050565b600060208201905081810360008301526161eb816161af565b9050919050565b7f4e424d6f6e436f72653a204e424d6f6e2077697468207468652073706563696660008201527f69656420494420646f6573206e6f742065786973740000000000000000000000602082015250565b600061624e603583614f75565b9150616259826161f2565b604082019050919050565b6000602082019050818103600083015261627d81616241565b9050919050565b7f424550373231456e756d657261626c653a20676c6f62616c20696e646578206f60008201527f7574206f6620626f756e64730000000000000000000000000000000000000000602082015250565b60006162e0602c83614f75565b91506162eb82616284565b604082019050919050565b6000602082019050818103600083015261630f816162d3565b9050919050565b7f4245503732313a206f776e657220717565727920666f72206e6f6e657869737460008201527f656e7420746f6b656e0000000000000000000000000000000000000000000000602082015250565b6000616372602983614f75565b915061637d82616316565b604082019050919050565b600060208201905081810360008301526163a181616365565b9050919050565b7f4245503732313a2062616c616e636520717565727920666f7220746865207a6560008201527f726f206164647265737300000000000000000000000000000000000000000000602082015250565b6000616404602a83614f75565b915061640f826163a8565b604082019050919050565b60006020820190508181036000830152616433816163f7565b9050919050565b7f4245503732313a207472616e7366657220746f206e6f6e20424550373231526560008201527f63656976657220696d706c656d656e7465720000000000000000000000000000602082015250565b6000616496603283614f75565b91506164a18261643a565b604082019050919050565b600060208201905081810360008301526164c581616489565b9050919050565b7f4245503732313a20617070726f766520746f2063616c6c657200000000000000600082015250565b6000616502601983614f75565b915061650d826164cc565b602082019050919050565b60006020820190508181036000830152616531816164f5565b9050919050565b7f4245503732313a207472616e73666572206f6620746f6b656e2074686174206960008201527f73206e6f74206f776e0000000000000000000000000000000000000000000000602082015250565b6000616594602983614f75565b915061659f82616538565b604082019050919050565b600060208201905081810360008301526165c381616587565b9050919050565b7f4245503732313a207472616e7366657220746f20746865207a65726f2061646460008201527f7265737300000000000000000000000000000000000000000000000000000000602082015250565b6000616626602483614f75565b9150616631826165ca565b604082019050919050565b6000602082019050818103600083015261665581616619565b9050919050565b600061666782615081565b915061667283615081565b9250827fffffffffffffffffffffffffffffffffffffffffffffffffffffffffffffffff038211156166a7576166a6615fd0565b5b828201905092915050565b7f4245503732313a206f70657261746f7220717565727920666f72206e6f6e657860008201527f697374656e7420746f6b656e0000000000000000000000000000000000000000602082015250565b600061670e602c83614f75565b9150616719826166b2565b604082019050919050565b6000602082019050818103600083015261673d81616701565b9050919050565b600081519050919050565b600082825260208201905092915050565b600061676b82616744565b616775818561674f565b9350616785818560208601614f86565b61678e81614fb9565b840191505092915050565b60006080820190506167ae6000830187615057565b6167bb6020830186615057565b6167c8604083018561517d565b81810360608301526167da8184616760565b905095945050505050565b6000815190506167f481614edb565b92915050565b6000602082840312156168105761680f614ea5565b5b600061681e848285016167e5565b91505092915050565b600061683282615081565b91507fffffffffffffffffffffffffffffffffffffffffffffffffffffffffffffffff82141561686557616864615fd0565b5b600182019050919050565b7f42455037323155524953746f726167653a2055524920717565727920666f722060008201527f6e6f6e6578697374656e7420746f6b656e000000000000000000000000000000602082015250565b60006168cc603183614f75565b91506168d782616870565b604082019050919050565b600060208201905081810360008301526168fb816168bf565b9050919050565b600081905092915050565b600061691882614f6a565b6169228185616902565b9350616932818560208601614f86565b80840191505092915050565b600061694a828561690d565b9150616956828461690d565b91508190509392505050565b6000819050919050565b6000819050919050565b600061699161698c61698784616962565b61696c565b6151fa565b9050919050565b6169a181616976565b82525050565b60006040820190506169bc600083018561517d565b6169c96020830184616998565b9392505050565b7f4e487b7100000000000000000000000000000000000000000000000000000000600052601260045260246000fd5b6000616a0a82615081565b9150616a1583615081565b925082616a2557616a246169d0565b5b828206905092915050565b6000819050919050565b6000616a55616a50616a4b84616a30565b61696c565b6151fa565b9050919050565b616a6581616a3a565b82525050565b6000604082019050616a80600083018561517d565b616a8d6020830184616a5c565b9392505050565b6000819050919050565b6000616ab9616ab4616aaf84616a94565b61696c565b6151fa565b9050919050565b616ac981616a9e565b82525050565b6000604082019050616ae4600083018561517d565b616af16020830184616ac0565b9392505050565b6000819050919050565b6000616b1d616b18616b1384616af8565b61696c565b6151fa565b9050919050565b616b2d81616b02565b82525050565b6000604082019050616b48600083018561517d565b616b556020830184616b24565b9392505050565b6000819050919050565b6000616b81616b7c616b7784616b5c565b61696c565b6151fa565b9050919050565b616b9181616b66565b82525050565b6000604082019050616bac600083018561517d565b616bb96020830184616b88565b9392505050565b6000819050919050565b6000616be5616be0616bdb84616bc0565b61696c565b6151fa565b9050919050565b616bf581616bca565b82525050565b6000604082019050616c10600083018561517d565b616c1d6020830184616bec565b9392505050565b6000604082019050616c39600083018561517d565b616c4660208301846157ca565b9392505050565b6000616c58826151fa565b915060ff821415616c6c57616c6b615fd0565b5b600182019050919050565b7f4245503732314d657461646174613a2055524920717565727920666f72206e6f60008201527f6e6578697374656e7420746f6b656e0000000000000000000000000000000000602082015250565b6000616cd3602f83614f75565b9150616cde82616c77565b604082019050919050565b60006020820190508181036000830152616d0281616cc6565b9050919050565b7f4e487b7100000000000000000000000000000000000000000000000000000000600052603160045260246000fd5b6000616d4382615081565b9150616d4e83615081565b925082616d5e57616d5d6169d0565b5b828204905092915050565b7f4245503732313a206d696e7420746f20746865207a65726f2061646472657373600082015250565b6000616d9f602083614f75565b9150616daa82616d69565b602082019050919050565b60006020820190508181036000830152616dce81616d92565b9050919050565b7f4245503732313a20746f6b656e20616c7265616479206d696e74656400000000600082015250565b6000616e0b601c83614f75565b9150616e1682616dd5565b602082019050919050565b60006020820190508181036000830152616e3a81616dfe565b905091905056fea2646970667358221220c5acb087164534dc7ad7176a9688f26b361d4be06f1fdb3ccdee396093535b8564736f6c634300080a0033",
  "immutableReferences": {},
  "source": "//SPDX-License-Identifier: MIT\n\npragma solidity ^0.8.6;\n\nimport \"../BEP721/NFTCore.sol\";\n\n/**\n @dev Base contract for NBMon which contains all functionality and methods related with our Realm Hunter game\n */\ncontract NBMonCore is NFTCore {\n    constructor() BEP721(\"NBMon\", \"NBMON\") {\n        setBaseURI(\"https://nbcompany.io/nbmon/\");\n    }\n\n    /**\n     * @dev Instance of an NBMon with detailed stats instantiated as a struct\n     * Note: A lot of the fields are assigned a uint type so that changes are easier to be amended in the future.\n     */\n    struct NBMon {\n        // tokenId for NBMon\n        uint256 nbmonId;\n        // current owner for NBMon\n        address owner;\n        uint256 bornAt;\n        // timestamp of when NBMon was transferred to current owner (when selling in marketplace, transferring from wallet etc)\n        uint256 transferredAt;\n        //contains gender, rarity, isShiny, nbmonType, evolveDuration, genera and fertility\n        // check './gamestats/genders.txt' for more info.\n        // check './gamestats/rarityChance.txt' for more info.\n        // check './gamestats/shinyChance.txt' for more info.\n        //check './gamestats/evolveDuration.txt' for more info.\n        // check './gamestats/nbmonTypes.txt' for more info.\n        // check './gamestats/genera.txt' for more info.\n        // check './gamestats/fertility.txt' for more info\n        uint32[] nbmonStats;\n\n        // Each NBMon can have up to two elements. There is also a chance to get \"null\" for any of the two element slots.\n        // more on elements at './gamestats/elements.txt'\n        uint8[] elements;\n\n        /// @dev contains all of the potential of the NBMon\n        /// including health pool, energy, attack, special attack, defense, special defense, speed\n        /// Note: does NOT take into consideration of rarity in the blockchain side. Actual EV stats will be reflected in-game.\n        /// check './gamestats/potential.txt' for more info.\n        uint8[] potential;\n\n        // only used for breeding to inherit 2 passives from the passive set of the parent NBMons\n        // if minted, it will be an empty array\n        // check './gamestats/passives.txt' for more info\n        uint8[] inheritedPassives;\n\n        // only used for breeding to inherit 2 moves from the move set of the parent NBMons\n        // if minted, it will be an empty array\n        // check './gamestats/moveset.txt' for more info\n        uint8[] inheritedMoves;  \n    }\n\n    NBMon[] internal nbmons;\n\n    // mapping from owner address to amount of NBMons owned\n    mapping(address => uint256) internal ownerNBMonCount;\n    // mapping from owner address to array of IDs of the NBMons the owner owns\n    mapping(address => uint256[]) internal ownerNBMonIds;\n    // mapping from owner address to list of NBMons owned;\n    mapping(address => NBMon[]) internal ownerNBMons;\n\n    // checks the current NBMon supply for enumeration. Starts at 1 when contract is deployed.\n    uint256 public currentNBMonCount = 1;\n\n    event NBMonMinted(uint256 indexed _nbmonId, address indexed _owner);\n    event NBMonBurned(uint256 indexed _nbmonId);\n\n    // returns a single NBMon given an ID\n    function getNBMon(uint256 _nbmonId) public view returns (NBMon memory) {\n        require(_exists(_nbmonId), \"NBMonCore: NBMon with the specified ID does not exist\");\n        return nbmons[_nbmonId - 1];\n    }\n\n    // returns all NBMons owned by the owner\n    function getAllNBMonsOfOwner(address _owner) public view returns (NBMon[] memory) {\n        return ownerNBMons[_owner];\n    }\n\n    //returns the amount of NBMons the owner has\n    function getOwnerNBMonCount(address _owner) public view returns (uint256) {\n        return ownerNBMonCount[_owner];\n    }\n\n    // returns the NBMon IDs of the owner's NBMons\n    function getOwnerNBMonIds(address _owner) public view returns (uint256[] memory) {\n        return ownerNBMonIds[_owner];\n    }\n\n    /**\n     * @dev These numbers are the base modulo for the values of each NBMon stat. If changed, the minted NBMon can have a different stat.\n     * Note: Bare in mind that the descriptions for each variable are based off during contract deployment. These variables may change. \n     * Check in BSCSCAN or by taking an instance of this contract for the actual values of each variable.\n     */\n    uint8 public _genders = 2;\n    // check ./gamestats/rarityChance.txt for further information\n    uint16 public _rarityChance = 1000;\n    // check ./gamestats/nbmonTypes.txt for further information\n    uint8 public _nbmonTypes = 3;\n    //check ./gamestats/genera.txt for further information\n    uint16 public _genera = 11;\n    // chance to obtain shiny NBMon is 1/4096.\n    uint16 public _shinyChance = 4096;\n    //if result is 1, it's considered null, and therefore no element is assigned. 2-13 are elements identified in elements.txt.\n    uint8 public _elementTypes = 13;\n    uint8 public _maxPotential = 65;\n    // an NBMon can have 0-8 fertility. however, depending on the rarity, the end fertility result will be different and that's why a base fertility chance is used.\n    // check ./gamestats/fertility.txt' for further information\n    uint16 public _baseFertilityChance = 900;\n\n    function changeGenders(uint8 genders_) public onlyAdmin {\n        _genders = genders_;\n    }\n    function changeRarityChance(uint16 rarityChance_) public onlyAdmin {\n        _rarityChance = rarityChance_;\n    }\n    function changeNbmonTypes(uint8 nbmonTypes_) public onlyAdmin {\n        _nbmonTypes = nbmonTypes_;\n    }\n    function changeGenera(uint16 genera_) public onlyAdmin {\n        _genera = genera_;\n    }\n    function changeShinyChance(uint8 shinyChance_) public onlyAdmin {\n        _shinyChance = shinyChance_;\n    }\n    function changeElementTypes(uint8 elementTypes_) public onlyAdmin {\n        _elementTypes = elementTypes_;\n    }\n    function changeMaxPotential(uint8 maxPotential_) public onlyAdmin {\n        _maxPotential = maxPotential_;\n    }\n    function changeBaseFertilityChance(uint16 baseFertilityChance_) public onlyAdmin {\n        _baseFertilityChance = baseFertilityChance_;\n    }\n    /**\n     * END OF BASE STATS CHANGE\n     */\n\n     function _randomizePotential(uint256 _randomNumber) private view returns (uint8[] memory _potential) {\n         _potential = new uint8[](7);\n\n         for (uint8 i = 0; i < 7; i++) {\n             _potential[i] = uint8(uint256(keccak256(abi.encode(_randomNumber, i))) % _maxPotential + 1);\n         }\n\n         return _potential;\n     }\n\n     function _randomizeElements(uint256 _randomNumber) private view returns (uint8[] memory _elements) {\n         _elements = new uint8[](2);\n\n         for (uint8 i = 0; i < 2; i++) {\n             _elements[i] = uint8(uint256(keccak256(abi.encode(_randomNumber, i))) % _elementTypes + 1);\n         }\n         // first element must NOT be null. If it is null, it is converted to a natural species instead.\n         // second element MAY be a null element.\n         if (_elements[0] == 1) {\n             _elements[0] = 2;\n         }\n\n         return _elements;\n     }\n\n     function _randomizeNbmonStatsOrigin(uint256 _randomNumber, uint32 _baseEvolveDuration) private view returns (uint32[] memory _nbmonStats) {\n         _nbmonStats = new uint32[](7);\n         \n         //randomizing gender\n         _nbmonStats[0] = uint32(uint256(keccak256(abi.encode(_randomNumber, 0))) % _genders + 1);\n         //randomizing rarity\n         _nbmonStats[1] = uint32(uint256(keccak256(abi.encode(_randomNumber, 1))) % _rarityChance + 1);\n         //randomizing isShiny\n         _nbmonStats[2] = uint32(uint256(keccak256(abi.encode(_randomNumber, 2))) % _shinyChance + 1);\n         //randomizing nbmonType (only origin, so result is always 1)\n         _nbmonStats[3] = uint32(uint256(keccak256(abi.encode(_randomNumber, 3))) % 1 + 1);\n         //evolveDuration\n         _nbmonStats[4] = _baseEvolveDuration;\n         //randomizing genera\n         _nbmonStats[5] = uint32(uint256(keccak256(abi.encode(_randomNumber, 4))) % _genera + 1);\n         //randomizing fertility\n         _nbmonStats[6] = uint32(uint256(keccak256(abi.encode(_randomNumber, 5))) % _baseFertilityChance + 1);\n     }\n     \n     function mintOrigin(uint256 _randomNumber, address _owner, uint32 _evolveDurationTime) public {\n         _mintOrigin(_randomNumber, _owner, _evolveDurationTime);\n     }\n\n    /// Note: _randomNumber will be randomized from the server side and passed on as an argument.\n    function _mintOrigin(uint256 _randomNumber, address _owner, uint32 _baseEvolveDuration) private {\n        uint32[] memory _nbmonStats = _randomizeNbmonStatsOrigin(_randomNumber, _baseEvolveDuration);\n        uint8[] memory _elements = _randomizeElements(_randomNumber);\n        uint8[] memory _potential = _randomizePotential(_randomNumber);\n        uint8[] memory _inheritedPassives;\n        uint8[] memory _inheritedMoves;\n\n        NBMon memory _nbmon = NBMon(\n            currentNBMonCount,\n            _owner,\n            block.timestamp,\n            block.timestamp,\n            _nbmonStats,\n            _elements,\n            _potential,\n            _inheritedPassives,\n            _inheritedMoves\n        );\n        nbmons.push(_nbmon);\n        ownerNBMons[_owner].push(_nbmon);\n        _safeMint(_owner, currentNBMonCount);\n        ownerNBMonIds[_owner].push(currentNBMonCount);\n        currentNBMonCount++;\n        ownerNBMonCount[_owner]++;\n        emit NBMonMinted(currentNBMonCount, _owner);\n    }\n\n    /**\n     * @dev Singular purpose functions designed to make reading code easier for front-end\n     * Otherwise not needed since getNBMon and getAllNBMonsOfOwner and getNBMon contains complete information at once\n     */\n    function getNbmonStats(uint256 _nbmonId) public view returns (uint32[] memory) {\n        return nbmons[_nbmonId - 1].nbmonStats;\n    }\n    function getBornAt(uint256 _nbmonId) public view returns (uint256) {\n        return nbmons[_nbmonId - 1].bornAt;\n    }\n    function getTransferredAt(uint256 _nbmonId) public view returns (uint256) {\n        return nbmons[_nbmonId - 1].transferredAt;\n    }\n    function getElements(uint256 _nbmonId) public view returns (uint8[] memory) {\n        return nbmons[_nbmonId - 1].elements;\n    }\n    function getPotential(uint256 _nbmonId) public view returns (uint8[] memory) {\n        return nbmons[_nbmonId - 1].potential;\n    }\n    function getInheritedPassives(uint256 _nbmonId) public view returns (uint8[] memory) {\n        return nbmons[_nbmonId - 1].inheritedPassives;\n    }\n    function getInheritedMoves(uint256 _nbmonId) public view returns (uint8[] memory) {\n        return nbmons[_nbmonId - 1].inheritedMoves;\n    }\n}",
  "sourcePath": "/Users/igormoscalets/nbmoncompany/nbmondemo/contracts/implementation/NBMonCore.sol",
  "compiler": {
    "name": "solc",
    "version": "0.8.10+commit.fc410830.Emscripten.clang"
  },
  "schemaVersion": "3.4.3",
  "updatedAt": "2022-01-02T17:22:48.212Z",
  "devdoc": {
    "details": "Base contract for NBMon which contains all functionality and methods related with our Realm Hunter game",
    "kind": "dev",
    "methods": {
      "approve(address,uint256)": {
        "details": "See {IBEP721-approve}."
      },
      "balanceOf(address)": {
        "details": "See {IBEP721-balanceOf}."
      },
      "getApproved(uint256)": {
        "details": "See {IBEP721-getApproved}."
      },
      "getNbmonStats(uint256)": {
        "details": "Singular purpose functions designed to make reading code easier for front-end Otherwise not needed since getNBMon and getAllNBMonsOfOwner and getNBMon contains complete information at once"
      },
      "isApprovedForAll(address,address)": {
        "details": "See {IBEP721-isApprovedForAll}."
      },
      "name()": {
        "details": "See {IBEP721Metadata-name}."
      },
      "ownerOf(uint256)": {
        "details": "See {IBEP721-ownerOf}."
      },
      "pause()": {
        "details": "Triggers stopped state. Only callable by admin. Requirements: - The contract must not be paused."
      },
      "paused()": {
        "details": "Returns true if the contract is paused, and false otherwise."
      },
      "safeTransfer(address,address,uint256,bytes)": {
        "details": "Safely transfers `tokenId` token from `from` to `to`, checking first that contract recipients are aware of the BEP721 protocol to prevent tokens from being forever locked. `_data` is additional data, it has no specified format and it is sent in call to `to`. This internal function is equivalent to {safeTransferFrom}, and can be used to e.g. implement alternative mechanisms to perform token transfer, such as signature-based. Requirements: - `from` cannot be the zero address. - `to` cannot be the zero address. - `tokenId` token must exist and be owned by `from`. - If `to` refers to a smart contract, it must implement {IBEP721Receiver-onBEP721Received}, which is called upon a safe transfer. Emits a {Transfer} event."
      },
      "safeTransferFrom(address,address,uint256)": {
        "details": "See {IBEP721-safeTransferFrom}."
      },
      "safeTransferFrom(address,address,uint256,bytes)": {
        "details": "See {IBEP721-safeTransferFrom}."
      },
      "setApprovalForAll(address,bool)": {
        "details": "See {IBEP721-setApprovalForAll}."
      },
      "setBaseURI(string)": {
        "details": "Changes the current Base URI.  Only callable by Admin or CEO of contract."
      },
      "symbol()": {
        "details": "See {IBEP721Metadata-symbol}."
      },
      "tokenByIndex(uint256)": {
        "details": "See {IBEP721Enumerable-tokenByIndex}."
      },
      "tokenOfOwnerByIndex(address,uint256)": {
        "details": "See {IBEP721Enumerable-tokenOfOwnerByIndex}."
      },
      "tokenURI(uint256)": {
        "details": "Returns the Uniform Resource Identifier (URI) for `tokenId` token."
      },
      "totalSupply()": {
        "details": "See {IBEP721Enumerable-totalSupply}."
      },
      "transfer(address,address,uint256)": {
        "details": "Transfers `tokenId` from `from` to `to`.  As opposed to {transferFrom}, this imposes no restrictions on msg.sender. Requirements: - `to` cannot be the zero address. - `tokenId` token must be owned by `from`. Emits a {Transfer} event."
      },
      "transferFrom(address,address,uint256)": {
        "details": "See {IBEP721-transferFrom}."
      },
      "unpause()": {
        "details": "Returns to normal state. Only callable by admin. Requirements: - The contract must be paused."
      }
    },
    "stateVariables": {
      "_genders": {
        "details": "These numbers are the base modulo for the values of each NBMon stat. If changed, the minted NBMon can have a different stat. Note: Bare in mind that the descriptions for each variable are based off during contract deployment. These variables may change.  Check in BSCSCAN or by taking an instance of this contract for the actual values of each variable."
      }
    },
    "version": 1
  },
  "userdoc": {
    "kind": "user",
    "methods": {},
    "version": 1
  }
}