{
  "contractName": "NBMonBreedingExtended",
  "abi": [
    {
      "anonymous": false,
      "inputs": [
        {
          "indexed": true,
          "internalType": "address",
          "name": "owner",
          "type": "address"
        },
        {
          "indexed": true,
          "internalType": "address",
          "name": "approved",
          "type": "address"
        },
        {
          "indexed": true,
          "internalType": "uint256",
          "name": "tokenId",
          "type": "uint256"
        }
      ],
      "name": "Approval",
      "type": "event"
    },
    {
      "anonymous": false,
      "inputs": [
        {
          "indexed": true,
          "internalType": "address",
          "name": "owner",
          "type": "address"
        },
        {
          "indexed": true,
          "internalType": "address",
          "name": "operator",
          "type": "address"
        },
        {
          "indexed": false,
          "internalType": "bool",
          "name": "approved",
          "type": "bool"
        }
      ],
      "name": "ApprovalForAll",
      "type": "event"
    },
    {
      "anonymous": false,
      "inputs": [
        {
          "indexed": true,
          "internalType": "uint256",
          "name": "_nbmonId",
          "type": "uint256"
        }
      ],
      "name": "NBMonBurned",
      "type": "event"
    },
    {
      "anonymous": false,
      "inputs": [
        {
          "indexed": true,
          "internalType": "uint256",
          "name": "_nbmonId",
          "type": "uint256"
        },
        {
          "indexed": true,
          "internalType": "address",
          "name": "_owner",
          "type": "address"
        }
      ],
      "name": "NBMonMinted",
      "type": "event"
    },
    {
      "anonymous": false,
      "inputs": [
        {
          "indexed": false,
          "internalType": "address",
          "name": "account",
          "type": "address"
        }
      ],
      "name": "Paused",
      "type": "event"
    },
    {
      "anonymous": false,
      "inputs": [
        {
          "indexed": true,
          "internalType": "address",
          "name": "from",
          "type": "address"
        },
        {
          "indexed": true,
          "internalType": "address",
          "name": "to",
          "type": "address"
        },
        {
          "indexed": true,
          "internalType": "uint256",
          "name": "tokenId",
          "type": "uint256"
        }
      ],
      "name": "Transfer",
      "type": "event"
    },
    {
      "anonymous": false,
      "inputs": [
        {
          "indexed": false,
          "internalType": "address",
          "name": "account",
          "type": "address"
        }
      ],
      "name": "Unpaused",
      "type": "event"
    },
    {
      "inputs": [
        {
          "internalType": "string",
          "name": "_str",
          "type": "string"
        }
      ],
      "name": "StringToInt",
      "outputs": [
        {
          "internalType": "uint256",
          "name": "",
          "type": "uint256"
        }
      ],
      "stateMutability": "pure",
      "type": "function"
    },
    {
      "inputs": [],
      "name": "_baseFertilityChance",
      "outputs": [
        {
          "internalType": "uint16",
          "name": "",
          "type": "uint16"
        }
      ],
      "stateMutability": "view",
      "type": "function"
    },
    {
      "inputs": [],
      "name": "_elementTypes",
      "outputs": [
        {
          "internalType": "uint8",
          "name": "",
          "type": "uint8"
        }
      ],
      "stateMutability": "view",
      "type": "function"
    },
    {
      "inputs": [],
      "name": "_genders",
      "outputs": [
        {
          "internalType": "uint8",
          "name": "",
          "type": "uint8"
        }
      ],
      "stateMutability": "view",
      "type": "function"
    },
    {
      "inputs": [],
      "name": "_genera",
      "outputs": [
        {
          "internalType": "uint16",
          "name": "",
          "type": "uint16"
        }
      ],
      "stateMutability": "view",
      "type": "function"
    },
    {
      "inputs": [],
      "name": "_maxPotential",
      "outputs": [
        {
          "internalType": "uint8",
          "name": "",
          "type": "uint8"
        }
      ],
      "stateMutability": "view",
      "type": "function"
    },
    {
      "inputs": [],
      "name": "_nbmonTypes",
      "outputs": [
        {
          "internalType": "uint8",
          "name": "",
          "type": "uint8"
        }
      ],
      "stateMutability": "view",
      "type": "function"
    },
    {
      "inputs": [],
      "name": "_rarityChance",
      "outputs": [
        {
          "internalType": "uint16",
          "name": "",
          "type": "uint16"
        }
      ],
      "stateMutability": "view",
      "type": "function"
    },
    {
      "inputs": [],
      "name": "_shinyChance",
      "outputs": [
        {
          "internalType": "uint16",
          "name": "",
          "type": "uint16"
        }
      ],
      "stateMutability": "view",
      "type": "function"
    },
    {
      "inputs": [],
      "name": "admin",
      "outputs": [
        {
          "internalType": "address",
          "name": "",
          "type": "address"
        }
      ],
      "stateMutability": "view",
      "type": "function"
    },
    {
      "inputs": [
        {
          "internalType": "address",
          "name": "to",
          "type": "address"
        },
        {
          "internalType": "uint256",
          "name": "tokenId",
          "type": "uint256"
        }
      ],
      "name": "approve",
      "outputs": [],
      "stateMutability": "nonpayable",
      "type": "function"
    },
    {
      "inputs": [
        {
          "internalType": "address",
          "name": "owner",
          "type": "address"
        }
      ],
      "name": "balanceOf",
      "outputs": [
        {
          "internalType": "uint256",
          "name": "",
          "type": "uint256"
        }
      ],
      "stateMutability": "view",
      "type": "function"
    },
    {
      "inputs": [],
      "name": "burner",
      "outputs": [
        {
          "internalType": "address",
          "name": "",
          "type": "address"
        }
      ],
      "stateMutability": "view",
      "type": "function"
    },
    {
      "inputs": [],
      "name": "ceo",
      "outputs": [
        {
          "internalType": "address",
          "name": "",
          "type": "address"
        }
      ],
      "stateMutability": "view",
      "type": "function"
    },
    {
      "inputs": [
        {
          "internalType": "uint16",
          "name": "baseFertilityChance_",
          "type": "uint16"
        }
      ],
      "name": "changeBaseFertilityChance",
      "outputs": [],
      "stateMutability": "nonpayable",
      "type": "function"
    },
    {
      "inputs": [
        {
          "internalType": "uint8",
          "name": "elementTypes_",
          "type": "uint8"
        }
      ],
      "name": "changeElementTypes",
      "outputs": [],
      "stateMutability": "nonpayable",
      "type": "function"
    },
    {
      "inputs": [
        {
          "internalType": "uint8",
          "name": "genders_",
          "type": "uint8"
        }
      ],
      "name": "changeGenders",
      "outputs": [],
      "stateMutability": "nonpayable",
      "type": "function"
    },
    {
      "inputs": [
        {
          "internalType": "uint16",
          "name": "genera_",
          "type": "uint16"
        }
      ],
      "name": "changeGenera",
      "outputs": [],
      "stateMutability": "nonpayable",
      "type": "function"
    },
    {
      "inputs": [
        {
          "internalType": "uint8",
          "name": "maxPotential_",
          "type": "uint8"
        }
      ],
      "name": "changeMaxPotential",
      "outputs": [],
      "stateMutability": "nonpayable",
      "type": "function"
    },
    {
      "inputs": [
        {
          "internalType": "uint8",
          "name": "nbmonTypes_",
          "type": "uint8"
        }
      ],
      "name": "changeNbmonTypes",
      "outputs": [],
      "stateMutability": "nonpayable",
      "type": "function"
    },
    {
      "inputs": [
        {
          "internalType": "uint16",
          "name": "rarityChance_",
          "type": "uint16"
        }
      ],
      "name": "changeRarityChance",
      "outputs": [],
      "stateMutability": "nonpayable",
      "type": "function"
    },
    {
      "inputs": [
        {
          "internalType": "uint8",
          "name": "shinyChance_",
          "type": "uint8"
        }
      ],
      "name": "changeShinyChance",
      "outputs": [],
      "stateMutability": "nonpayable",
      "type": "function"
    },
    {
      "inputs": [],
      "name": "currentNBMonCount",
      "outputs": [
        {
          "internalType": "uint256",
          "name": "",
          "type": "uint256"
        }
      ],
      "stateMutability": "view",
      "type": "function"
    },
    {
      "inputs": [
        {
          "internalType": "address",
          "name": "_owner",
          "type": "address"
        }
      ],
      "name": "getAllNBMonsOfOwner",
      "outputs": [
        {
          "components": [
            {
              "internalType": "uint256",
              "name": "nbmonId",
              "type": "uint256"
            },
            {
              "internalType": "address",
              "name": "owner",
              "type": "address"
            },
            {
              "internalType": "uint256",
              "name": "bornAt",
              "type": "uint256"
            },
            {
              "internalType": "uint256",
              "name": "transferredAt",
              "type": "uint256"
            },
            {
              "internalType": "uint32[]",
              "name": "nbmonStats",
              "type": "uint32[]"
            },
            {
              "internalType": "uint8[]",
              "name": "elements",
              "type": "uint8[]"
            },
            {
              "internalType": "uint8[]",
              "name": "potential",
              "type": "uint8[]"
            },
            {
              "internalType": "uint8[]",
              "name": "inheritedPassives",
              "type": "uint8[]"
            },
            {
              "internalType": "uint8[]",
              "name": "inheritedMoves",
              "type": "uint8[]"
            }
          ],
          "internalType": "struct NBMonCore.NBMon[]",
          "name": "",
          "type": "tuple[]"
        }
      ],
      "stateMutability": "view",
      "type": "function"
    },
    {
      "inputs": [
        {
          "internalType": "uint256",
          "name": "tokenId",
          "type": "uint256"
        }
      ],
      "name": "getApproved",
      "outputs": [
        {
          "internalType": "address",
          "name": "",
          "type": "address"
        }
      ],
      "stateMutability": "view",
      "type": "function"
    },
    {
      "inputs": [
        {
          "internalType": "uint256",
          "name": "_nbmonId",
          "type": "uint256"
        }
      ],
      "name": "getBornAt",
      "outputs": [
        {
          "internalType": "uint256",
          "name": "",
          "type": "uint256"
        }
      ],
      "stateMutability": "view",
      "type": "function"
    },
    {
      "inputs": [
        {
          "internalType": "uint256",
          "name": "_nbmonId",
          "type": "uint256"
        }
      ],
      "name": "getElements",
      "outputs": [
        {
          "internalType": "uint8[]",
          "name": "",
          "type": "uint8[]"
        }
      ],
      "stateMutability": "view",
      "type": "function"
    },
    {
      "inputs": [
        {
          "internalType": "uint256",
          "name": "_nbmonId",
          "type": "uint256"
        }
      ],
      "name": "getInheritedMoves",
      "outputs": [
        {
          "internalType": "uint8[]",
          "name": "",
          "type": "uint8[]"
        }
      ],
      "stateMutability": "view",
      "type": "function"
    },
    {
      "inputs": [
        {
          "internalType": "uint256",
          "name": "_nbmonId",
          "type": "uint256"
        }
      ],
      "name": "getInheritedPassives",
      "outputs": [
        {
          "internalType": "uint8[]",
          "name": "",
          "type": "uint8[]"
        }
      ],
      "stateMutability": "view",
      "type": "function"
    },
    {
      "inputs": [
        {
          "internalType": "uint256",
          "name": "_nbmonId",
          "type": "uint256"
        }
      ],
      "name": "getNBMon",
      "outputs": [
        {
          "components": [
            {
              "internalType": "uint256",
              "name": "nbmonId",
              "type": "uint256"
            },
            {
              "internalType": "address",
              "name": "owner",
              "type": "address"
            },
            {
              "internalType": "uint256",
              "name": "bornAt",
              "type": "uint256"
            },
            {
              "internalType": "uint256",
              "name": "transferredAt",
              "type": "uint256"
            },
            {
              "internalType": "uint32[]",
              "name": "nbmonStats",
              "type": "uint32[]"
            },
            {
              "internalType": "uint8[]",
              "name": "elements",
              "type": "uint8[]"
            },
            {
              "internalType": "uint8[]",
              "name": "potential",
              "type": "uint8[]"
            },
            {
              "internalType": "uint8[]",
              "name": "inheritedPassives",
              "type": "uint8[]"
            },
            {
              "internalType": "uint8[]",
              "name": "inheritedMoves",
              "type": "uint8[]"
            }
          ],
          "internalType": "struct NBMonCore.NBMon",
          "name": "",
          "type": "tuple"
        }
      ],
      "stateMutability": "view",
      "type": "function"
    },
    {
      "inputs": [
        {
          "internalType": "uint256",
          "name": "_nbmonId",
          "type": "uint256"
        }
      ],
      "name": "getNbmonStats",
      "outputs": [
        {
          "internalType": "uint32[]",
          "name": "",
          "type": "uint32[]"
        }
      ],
      "stateMutability": "view",
      "type": "function"
    },
    {
      "inputs": [
        {
          "internalType": "address",
          "name": "_owner",
          "type": "address"
        }
      ],
      "name": "getOwnerNBMonCount",
      "outputs": [
        {
          "internalType": "uint256",
          "name": "",
          "type": "uint256"
        }
      ],
      "stateMutability": "view",
      "type": "function"
    },
    {
      "inputs": [
        {
          "internalType": "address",
          "name": "_owner",
          "type": "address"
        }
      ],
      "name": "getOwnerNBMonIds",
      "outputs": [
        {
          "internalType": "uint256[]",
          "name": "",
          "type": "uint256[]"
        }
      ],
      "stateMutability": "view",
      "type": "function"
    },
    {
      "inputs": [
        {
          "internalType": "uint256",
          "name": "_nbmonId",
          "type": "uint256"
        }
      ],
      "name": "getPotential",
      "outputs": [
        {
          "internalType": "uint8[]",
          "name": "",
          "type": "uint8[]"
        }
      ],
      "stateMutability": "view",
      "type": "function"
    },
    {
      "inputs": [],
      "name": "getRandomNumber",
      "outputs": [
        {
          "internalType": "bytes32",
          "name": "requestId",
          "type": "bytes32"
        }
      ],
      "stateMutability": "nonpayable",
      "type": "function"
    },
    {
      "inputs": [
        {
          "internalType": "uint256",
          "name": "_nbmonId",
          "type": "uint256"
        }
      ],
      "name": "getTransferredAt",
      "outputs": [
        {
          "internalType": "uint256",
          "name": "",
          "type": "uint256"
        }
      ],
      "stateMutability": "view",
      "type": "function"
    },
    {
      "inputs": [
        {
          "internalType": "address",
          "name": "owner",
          "type": "address"
        },
        {
          "internalType": "address",
          "name": "operator",
          "type": "address"
        }
      ],
      "name": "isApprovedForAll",
      "outputs": [
        {
          "internalType": "bool",
          "name": "",
          "type": "bool"
        }
      ],
      "stateMutability": "view",
      "type": "function"
    },
    {
      "inputs": [],
      "name": "manager",
      "outputs": [
        {
          "internalType": "address",
          "name": "",
          "type": "address"
        }
      ],
      "stateMutability": "view",
      "type": "function"
    },
    {
      "inputs": [
        {
          "internalType": "uint256",
          "name": "_randomNumber",
          "type": "uint256"
        },
        {
          "internalType": "address",
          "name": "_owner",
          "type": "address"
        },
        {
          "internalType": "uint32",
          "name": "_evolveDurationTime",
          "type": "uint32"
        }
      ],
      "name": "mintOrigin",
      "outputs": [],
      "stateMutability": "nonpayable",
      "type": "function"
    },
    {
      "inputs": [],
      "name": "minter",
      "outputs": [
        {
          "internalType": "address",
          "name": "",
          "type": "address"
        }
      ],
      "stateMutability": "view",
      "type": "function"
    },
    {
      "inputs": [],
      "name": "name",
      "outputs": [
        {
          "internalType": "string",
          "name": "",
          "type": "string"
        }
      ],
      "stateMutability": "view",
      "type": "function"
    },
    {
      "inputs": [
        {
          "internalType": "address",
          "name": "_newAdmin",
          "type": "address"
        }
      ],
      "name": "newAdmin",
      "outputs": [],
      "stateMutability": "nonpayable",
      "type": "function"
    },
    {
      "inputs": [
        {
          "internalType": "address",
          "name": "_newBurner",
          "type": "address"
        }
      ],
      "name": "newBurner",
      "outputs": [],
      "stateMutability": "nonpayable",
      "type": "function"
    },
    {
      "inputs": [
        {
          "internalType": "address",
          "name": "_newCEO",
          "type": "address"
        }
      ],
      "name": "newCEO",
      "outputs": [],
      "stateMutability": "nonpayable",
      "type": "function"
    },
    {
      "inputs": [
        {
          "internalType": "address",
          "name": "_newManager",
          "type": "address"
        }
      ],
      "name": "newManager",
      "outputs": [],
      "stateMutability": "nonpayable",
      "type": "function"
    },
    {
      "inputs": [
        {
          "internalType": "address",
          "name": "_newMinter",
          "type": "address"
        }
      ],
      "name": "newMinter",
      "outputs": [],
      "stateMutability": "nonpayable",
      "type": "function"
    },
    {
      "inputs": [
        {
          "internalType": "uint256",
          "name": "tokenId",
          "type": "uint256"
        }
      ],
      "name": "ownerOf",
      "outputs": [
        {
          "internalType": "address",
          "name": "",
          "type": "address"
        }
      ],
      "stateMutability": "view",
      "type": "function"
    },
    {
      "inputs": [],
      "name": "pause",
      "outputs": [],
      "stateMutability": "nonpayable",
      "type": "function"
    },
    {
      "inputs": [],
      "name": "paused",
      "outputs": [
        {
          "internalType": "bool",
          "name": "",
          "type": "bool"
        }
      ],
      "stateMutability": "view",
      "type": "function"
    },
    {
      "inputs": [],
      "name": "randomResult",
      "outputs": [
        {
          "internalType": "uint256",
          "name": "",
          "type": "uint256"
        }
      ],
      "stateMutability": "view",
      "type": "function"
    },
    {
      "inputs": [
        {
          "internalType": "bytes32",
          "name": "requestId",
          "type": "bytes32"
        },
        {
          "internalType": "uint256",
          "name": "randomness",
          "type": "uint256"
        }
      ],
      "name": "rawFulfillRandomness",
      "outputs": [],
      "stateMutability": "nonpayable",
      "type": "function"
    },
    {
      "inputs": [
        {
          "internalType": "address",
          "name": "from",
          "type": "address"
        },
        {
          "internalType": "address",
          "name": "to",
          "type": "address"
        },
        {
          "internalType": "uint256",
          "name": "tokenId",
          "type": "uint256"
        },
        {
          "internalType": "bytes",
          "name": "_data",
          "type": "bytes"
        }
      ],
      "name": "safeTransfer",
      "outputs": [],
      "stateMutability": "nonpayable",
      "type": "function"
    },
    {
      "inputs": [
        {
          "internalType": "address",
          "name": "from",
          "type": "address"
        },
        {
          "internalType": "address",
          "name": "to",
          "type": "address"
        },
        {
          "internalType": "uint256",
          "name": "tokenId",
          "type": "uint256"
        }
      ],
      "name": "safeTransferFrom",
      "outputs": [],
      "stateMutability": "nonpayable",
      "type": "function"
    },
    {
      "inputs": [
        {
          "internalType": "address",
          "name": "from",
          "type": "address"
        },
        {
          "internalType": "address",
          "name": "to",
          "type": "address"
        },
        {
          "internalType": "uint256",
          "name": "tokenId",
          "type": "uint256"
        },
        {
          "internalType": "bytes",
          "name": "_data",
          "type": "bytes"
        }
      ],
      "name": "safeTransferFrom",
      "outputs": [],
      "stateMutability": "nonpayable",
      "type": "function"
    },
    {
      "inputs": [
        {
          "internalType": "address",
          "name": "operator",
          "type": "address"
        },
        {
          "internalType": "bool",
          "name": "approved",
          "type": "bool"
        }
      ],
      "name": "setApprovalForAll",
      "outputs": [],
      "stateMutability": "nonpayable",
      "type": "function"
    },
    {
      "inputs": [
        {
          "internalType": "string",
          "name": "newBaseURI",
          "type": "string"
        }
      ],
      "name": "setBaseURI",
      "outputs": [],
      "stateMutability": "nonpayable",
      "type": "function"
    },
    {
      "inputs": [
        {
          "internalType": "bytes4",
          "name": "interfaceId",
          "type": "bytes4"
        }
      ],
      "name": "supportsInterface",
      "outputs": [
        {
          "internalType": "bool",
          "name": "",
          "type": "bool"
        }
      ],
      "stateMutability": "view",
      "type": "function"
    },
    {
      "inputs": [],
      "name": "symbol",
      "outputs": [
        {
          "internalType": "string",
          "name": "",
          "type": "string"
        }
      ],
      "stateMutability": "view",
      "type": "function"
    },
    {
      "inputs": [
        {
          "internalType": "uint256",
          "name": "index",
          "type": "uint256"
        }
      ],
      "name": "tokenByIndex",
      "outputs": [
        {
          "internalType": "uint256",
          "name": "",
          "type": "uint256"
        }
      ],
      "stateMutability": "view",
      "type": "function"
    },
    {
      "inputs": [
        {
          "internalType": "address",
          "name": "owner",
          "type": "address"
        },
        {
          "internalType": "uint256",
          "name": "index",
          "type": "uint256"
        }
      ],
      "name": "tokenOfOwnerByIndex",
      "outputs": [
        {
          "internalType": "uint256",
          "name": "",
          "type": "uint256"
        }
      ],
      "stateMutability": "view",
      "type": "function"
    },
    {
      "inputs": [
        {
          "internalType": "uint256",
          "name": "tokenId",
          "type": "uint256"
        }
      ],
      "name": "tokenURI",
      "outputs": [
        {
          "internalType": "string",
          "name": "",
          "type": "string"
        }
      ],
      "stateMutability": "view",
      "type": "function"
    },
    {
      "inputs": [],
      "name": "totalSupply",
      "outputs": [
        {
          "internalType": "uint256",
          "name": "",
          "type": "uint256"
        }
      ],
      "stateMutability": "view",
      "type": "function"
    },
    {
      "inputs": [
        {
          "internalType": "address",
          "name": "from",
          "type": "address"
        },
        {
          "internalType": "address",
          "name": "to",
          "type": "address"
        },
        {
          "internalType": "uint256",
          "name": "tokenId",
          "type": "uint256"
        }
      ],
      "name": "transfer",
      "outputs": [],
      "stateMutability": "nonpayable",
      "type": "function"
    },
    {
      "inputs": [
        {
          "internalType": "address",
          "name": "from",
          "type": "address"
        },
        {
          "internalType": "address",
          "name": "to",
          "type": "address"
        },
        {
          "internalType": "uint256",
          "name": "tokenId",
          "type": "uint256"
        }
      ],
      "name": "transferFrom",
      "outputs": [],
      "stateMutability": "nonpayable",
      "type": "function"
    },
    {
      "inputs": [],
      "name": "unpause",
      "outputs": [],
      "stateMutability": "nonpayable",
      "type": "function"
    },
    {
      "inputs": [
        {
          "internalType": "uint256",
          "name": "_parentOne",
          "type": "uint256"
        },
        {
          "internalType": "uint256",
          "name": "_parentTwo",
          "type": "uint256"
        }
      ],
      "name": "breedNBMon",
      "outputs": [],
      "stateMutability": "nonpayable",
      "type": "function"
    }
  ],
  "bytecode": "0x60c060405260016019556002601a60006101000a81548160ff021916908360ff1602179055506103e8601a60016101000a81548161ffff021916908361ffff1602179055506003601a60036101000a81548160ff021916908360ff160217905550600b601a60046101000a81548161ffff021916908361ffff160217905550611000601a60066101000a81548161ffff021916908361ffff160217905550600d601a60086101000a81548160ff021916908360ff1602179055506041601a60096101000a81548160ff021916908360ff160217905550610384601a600a6101000a81548161ffff021916908361ffff1602179055503480156200010157600080fd5b506040518060400160405280600581526020017f4e424d6f6e0000000000000000000000000000000000000000000000000000008152506040518060400160405280600581526020017f4e424d4f4e00000000000000000000000000000000000000000000000000000081525073a555fc018435bef5a13c6c6870a9d4c11dec329c7384b9b910527ad5c03a9ca831909e21e236ea7b068173ffffffffffffffffffffffffffffffffffffffff1660a08173ffffffffffffffffffffffffffffffffffffffff16815250508073ffffffffffffffffffffffffffffffffffffffff1660808173ffffffffffffffffffffffffffffffffffffffff168152505050507fcaf3c3727e033261d383b315559476f48034c13b18f8cafed4d871abe504918660001b60018190555067016345785d8a00006002819055506200024b6200046660201b60201c565b600460006101000a81548173ffffffffffffffffffffffffffffffffffffffff021916908373ffffffffffffffffffffffffffffffffffffffff1602179055506200029b6200046660201b60201c565b600560006101000a81548173ffffffffffffffffffffffffffffffffffffffff021916908373ffffffffffffffffffffffffffffffffffffffff160217905550620002eb6200046660201b60201c565b600660006101000a81548173ffffffffffffffffffffffffffffffffffffffff021916908373ffffffffffffffffffffffffffffffffffffffff1602179055506200033b6200046660201b60201c565b600760006101000a81548173ffffffffffffffffffffffffffffffffffffffff021916908373ffffffffffffffffffffffffffffffffffffffff1602179055506200038b6200046660201b60201c565b600860006101000a81548173ffffffffffffffffffffffffffffffffffffffff021916908373ffffffffffffffffffffffffffffffffffffffff1602179055506000600860146101000a81548160ff0219169083151502179055508160099080519060200190620003fe9291906200055c565b5080600a9080519060200190620004179291906200055c565b505050620004606040518060400160405280601b81526020017f68747470733a2f2f6e62636f6d70616e792e696f2f6e626d6f6e2f00000000008152506200046e60201b60201c565b62000671565b600033905090565b600460009054906101000a900473ffffffffffffffffffffffffffffffffffffffff1673ffffffffffffffffffffffffffffffffffffffff16620004b76200046660201b60201c565b73ffffffffffffffffffffffffffffffffffffffff161480620005365750600760009054906101000a900473ffffffffffffffffffffffffffffffffffffffff1673ffffffffffffffffffffffffffffffffffffffff166200051e6200046660201b60201c565b73ffffffffffffffffffffffffffffffffffffffff16145b6200054057600080fd5b8060149080519060200190620005589291906200055c565b5050565b8280546200056a906200063b565b90600052602060002090601f0160209004810192826200058e5760008555620005da565b82601f10620005a957805160ff1916838001178555620005da565b82800160010185558215620005da579182015b82811115620005d9578251825591602001919060010190620005bc565b5b509050620005e99190620005ed565b5090565b5b8082111562000608576000816000905550600101620005ee565b5090565b7f4e487b7100000000000000000000000000000000000000000000000000000000600052602260045260246000fd5b600060028204905060018216806200065457607f821691505b602082108114156200066b576200066a6200060c565b5b50919050565b60805160a051617947620006a560003960008181612993015261401001526000818161326f0152613fd401526179476000f3fe608060405234801561001057600080fd5b50600436106103e65760003560e01c80637392ed1b1161020a578063a6ba31c111610125578063d49a49cf116100b8578063dfac24be11610087578063dfac24be14610bff578063e89555f514610c2f578063e985e9c514610c4d578063f840f72b14610c7d578063f851a44014610c99576103e6565b8063d49a49cf14610b87578063d7cf208114610ba5578063d7f9352414610bc3578063dbdff2c114610be1576103e6565b8063b62ae99b116100f4578063b62ae99b14610b03578063b88d4fde14610b1f578063beabacc814610b3b578063c87b56dd14610b57576103e6565b8063a6ba31c114610a91578063a8892ccd14610aad578063a9917dbe14610acb578063ac4a981e14610ae7576103e6565b8063908921fc1161019d578063983bcb7a1161016c578063983bcb7a14610a1b5780639e7df42814610a39578063a22cb46514610a57578063a5b424ab14610a73576103e6565b8063908921fc14610993578063944c8fdf146109b157806394985ddd146109e157806395d89b41146109fd576103e6565b806382abc625116101d957806382abc625146109355780638456cb59146109515780638f38abe81461095b578063906e940014610977576103e6565b80637392ed1b146108b157806376b82a91146108e1578063805528e8146108fd57806380c90cdc14610919576103e6565b8063434807ad1161030557806357341912116102985780636352211e116102675780636352211e146107d557806363ec747714610805578063683087321461082157806370a082311461085157806373168a3914610881576103e6565b8063573419121461073b5780635c975abb146107575780635cad82131461077557806361cb0df3146107a5576103e6565b80634bb1b2e1116102d45780634bb1b2e1146106a15780634cd1c611146106d15780634f6ccce7146106ef57806355f804b31461071f576103e6565b8063434807ad14610607578063479a506d14610637578063481c6a7514610667578063498c4a0114610685576103e6565b80631af4831b1161037d5780632f745c591161034c5780632f745c59146105935780633f4ba83a146105c357806342619f66146105cd57806342842e0e146105eb576103e6565b80631af4831b1461052157806323b872dd1461053d578063272565ee1461055957806327810b6e14610575576103e6565b8063095ea7b3116103b9578063095ea7b31461048757806311e38c5e146104a357806318160ddd146104d3578063194ddb2a146104f1576103e6565b806301ffc9a7146103eb57806306fdde031461041b5780630754617214610439578063081812fc14610457575b600080fd5b61040560048036038101906104009190615483565b610cb7565b60405161041291906154cb565b60405180910390f35b610423610d31565b604051610430919061557f565b60405180910390f35b610441610dc3565b60405161044e91906155e2565b60405180910390f35b610471600480360381019061046c9190615633565b610de9565b60405161047e91906155e2565b60405180910390f35b6104a1600480360381019061049c919061568c565b610e6e565b005b6104bd60048036038101906104b891906156cc565b610fce565b6040516104ca9190615708565b60405180910390f35b6104db611017565b6040516104e89190615708565b60405180910390f35b61050b60048036038101906105069190615633565b611024565b6040516105189190615708565b60405180910390f35b61053b60048036038101906105369190615723565b61105f565b005b61055760048036038101906105529190615763565b6110c4565b005b610573600480360381019061056e91906157ef565b61116c565b005b61057d6111eb565b60405161058a91906155e2565b60405180910390f35b6105ad60048036038101906105a8919061568c565b611211565b6040516105ba9190615708565b60405180910390f35b6105cb6112b6565b005b6105d56113b9565b6040516105e29190615708565b60405180910390f35b61060560048036038101906106009190615763565b6113bf565b005b610621600480360381019061061c9190615633565b611427565b60405161062e91906158da565b60405180910390f35b610651600480360381019061064c9190615633565b6114d6565b60405161065e9190615b38565b60405180910390f35b61066f611857565b60405161067c91906155e2565b60405180910390f35b61069f600480360381019061069a9190615b94565b61187d565b005b6106bb60048036038101906106b691906156cc565b6118fe565b6040516106c89190615d64565b60405180910390f35b6106d9611c8d565b6040516106e69190615d95565b60405180910390f35b61070960048036038101906107049190615633565b611ca0565b6040516107169190615708565b60405180910390f35b61073960048036038101906107349190615ee5565b611d11565b005b610755600480360381019061075091906156cc565b611deb565b005b61075f611f29565b60405161076c91906154cb565b60405180910390f35b61078f600480360381019061078a91906156cc565b611f40565b60405161079c9190615fdd565b60405180910390f35b6107bf60048036038101906107ba9190615ee5565b611fd7565b6040516107cc9190615708565b60405180910390f35b6107ef60048036038101906107ea9190615633565b612091565b6040516107fc91906155e2565b60405180910390f35b61081f600480360381019061081a91906157ef565b612143565b005b61083b60048036038101906108369190615633565b6121c2565b60405161084891906158da565b60405180910390f35b61086b600480360381019061086691906156cc565b612271565b6040516108789190615708565b60405180910390f35b61089b60048036038101906108969190615633565b612329565b6040516108a8919061606e565b60405180910390f35b6108cb60048036038101906108c69190615633565b6123de565b6040516108d89190615708565b60405180910390f35b6108fb60048036038101906108f69190616131565b612419565b005b610917600480360381019061091291906157ef565b612475565b005b610933600480360381019061092e9190615b94565b6124f9565b005b61094f600480360381019061094a9190615b94565b61257a565b005b6109596125fb565b005b610975600480360381019061097091906157ef565b6126ff565b005b610991600480360381019061098c91906156cc565b61277e565b005b61099b6128bc565b6040516109a891906155e2565b60405180910390f35b6109cb60048036038101906109c69190615633565b6128e2565b6040516109d891906158da565b60405180910390f35b6109fb60048036038101906109f691906161ea565b612991565b005b610a05612a2d565b604051610a12919061557f565b60405180910390f35b610a23612abf565b604051610a309190616239565b60405180910390f35b610a41612ad3565b604051610a4e9190615d95565b60405180910390f35b610a716004803603810190610a6c9190616280565b612ae6565b005b610a7b612caf565b604051610a889190616239565b60405180910390f35b610aab6004803603810190610aa691906156cc565b612cc3565b005b610ab5612da2565b604051610ac29190615d95565b60405180910390f35b610ae56004803603810190610ae091906156cc565b612db5565b005b610b016004803603810190610afc91906157ef565b612e94565b005b610b1d6004803603810190610b1891906162ec565b612f13565b005b610b396004803603810190610b349190616131565b612f23565b005b610b556004803603810190610b509190615763565b612fcd565b005b610b716004803603810190610b6c9190615633565b613229565b604051610b7e919061557f565b60405180910390f35b610b8f61323b565b604051610b9c9190616239565b60405180910390f35b610bad61324f565b604051610bba9190615d95565b60405180910390f35b610bcb613262565b604051610bd89190615708565b60405180910390f35b610be9613268565b604051610bf6919061634e565b60405180910390f35b610c196004803603810190610c149190615633565b61335b565b604051610c2691906158da565b60405180910390f35b610c3761340a565b604051610c449190616239565b60405180910390f35b610c676004803603810190610c629190616369565b61341e565b604051610c7491906154cb565b60405180910390f35b610c976004803603810190610c9291906156cc565b6134b2565b005b610ca16135f0565b604051610cae91906155e2565b60405180910390f35b60007f79f154c4000000000000000000000000000000000000000000000000000000007bffffffffffffffffffffffffffffffffffffffffffffffffffffffff1916827bffffffffffffffffffffffffffffffffffffffffffffffffffffffff19161480610d2a5750610d2982613616565b5b9050919050565b606060098054610d40906163d8565b80601f0160208091040260200160405190810160405280929190818152602001828054610d6c906163d8565b8015610db95780601f10610d8e57610100808354040283529160200191610db9565b820191906000526020600020905b815481529060010190602001808311610d9c57829003601f168201915b5050505050905090565b600560009054906101000a900473ffffffffffffffffffffffffffffffffffffffff1681565b6000610df482613690565b610e33576040517f08c379a0000000000000000000000000000000000000000000000000000000008152600401610e2a9061647c565b60405180910390fd5b600d600083815260200190815260200160002060009054906101000a900473ffffffffffffffffffffffffffffffffffffffff169050919050565b610e76611f29565b15610eb6576040517f08c379a0000000000000000000000000000000000000000000000000000000008152600401610ead906164e8565b60405180910390fd5b6000610ec182612091565b90508073ffffffffffffffffffffffffffffffffffffffff168373ffffffffffffffffffffffffffffffffffffffff161415610f32576040517f08c379a0000000000000000000000000000000000000000000000000000000008152600401610f299061657a565b60405180910390fd5b8073ffffffffffffffffffffffffffffffffffffffff16610f516136fc565b73ffffffffffffffffffffffffffffffffffffffff161480610f805750610f7f81610f7a6136fc565b61341e565b5b610fbf576040517f08c379a0000000000000000000000000000000000000000000000000000000008152600401610fb69061660c565b60405180910390fd5b610fc98383613704565b505050565b6000601660008373ffffffffffffffffffffffffffffffffffffffff1673ffffffffffffffffffffffffffffffffffffffff168152602001908152602001600020549050919050565b6000601280549050905090565b60006015600183611035919061665b565b815481106110465761104561668f565b5b9060005260206000209060090201600301549050919050565b600560009054906101000a900473ffffffffffffffffffffffffffffffffffffffff1673ffffffffffffffffffffffffffffffffffffffff166110a06136fc565b73ffffffffffffffffffffffffffffffffffffffff16146110c057600080fd5b5050565b6110cc611f29565b1561110c576040517f08c379a0000000000000000000000000000000000000000000000000000000008152600401611103906164e8565b60405180910390fd5b61111d6111176136fc565b826137bd565b61115c576040517f08c379a000000000000000000000000000000000000000000000000000000000815260040161115390616730565b60405180910390fd5b611167838383612fcd565b505050565b600460009054906101000a900473ffffffffffffffffffffffffffffffffffffffff1673ffffffffffffffffffffffffffffffffffffffff166111ad6136fc565b73ffffffffffffffffffffffffffffffffffffffff16146111cd57600080fd5b80601a60096101000a81548160ff021916908360ff16021790555050565b600660009054906101000a900473ffffffffffffffffffffffffffffffffffffffff1681565b600061121c83612271565b821061125d576040517f08c379a0000000000000000000000000000000000000000000000000000000008152600401611254906167c2565b60405180910390fd5b601060008473ffffffffffffffffffffffffffffffffffffffff1673ffffffffffffffffffffffffffffffffffffffff168152602001908152602001600020600083815260200190815260200160002054905092915050565b6112be611f29565b6112fd576040517f08c379a00000000000000000000000000000000000000000000000000000000081526004016112f49061682e565b60405180910390fd5b600460009054906101000a900473ffffffffffffffffffffffffffffffffffffffff1673ffffffffffffffffffffffffffffffffffffffff1661133e6136fc565b73ffffffffffffffffffffffffffffffffffffffff161461135e57600080fd5b6000600860146101000a81548160ff0219169083151502179055507f5db9ee0a495bf2e6ff9c91a7834c1ba4fdd244a5e8aa4e537bd38aeae4b073aa6113a26136fc565b6040516113af91906155e2565b60405180910390a1565b60035481565b6113c7611f29565b15611407576040517f08c379a00000000000000000000000000000000000000000000000000000000081526004016113fe906164e8565b60405180910390fd5b61142283838360405180602001604052806000815250612f23565b505050565b60606015600183611438919061665b565b815481106114495761144861668f565b5b90600052602060002090600902016006018054806020026020016040519081016040528092919081815260200182805480156114ca57602002820191906000526020600020906000905b82829054906101000a900460ff1660ff16815260200190600101906020826000010492830192600103820291508084116114935790505b50505050509050919050565b6114de6151bb565b6114e782613690565b611526576040517f08c379a000000000000000000000000000000000000000000000000000000000815260040161151d906168c0565b60405180910390fd5b6015600183611535919061665b565b815481106115465761154561668f565b5b906000526020600020906009020160405180610120016040529081600082015481526020016001820160009054906101000a900473ffffffffffffffffffffffffffffffffffffffff1673ffffffffffffffffffffffffffffffffffffffff1673ffffffffffffffffffffffffffffffffffffffff16815260200160028201548152602001600382015481526020016004820180548060200260200160405190810160405280929190818152602001828054801561164f57602002820191906000526020600020906000905b82829054906101000a900463ffffffff1663ffffffff16815260200190600401906020826003010492830192600103820291508084116116125790505b50505050508152602001600582018054806020026020016040519081016040528092919081815260200182805480156116cd57602002820191906000526020600020906000905b82829054906101000a900460ff1660ff16815260200190600101906020826000010492830192600103820291508084116116965790505b505050505081526020016006820180548060200260200160405190810160405280929190818152602001828054801561174b57602002820191906000526020600020906000905b82829054906101000a900460ff1660ff16815260200190600101906020826000010492830192600103820291508084116117145790505b50505050508152602001600782018054806020026020016040519081016040528092919081815260200182805480156117c957602002820191906000526020600020906000905b82829054906101000a900460ff1660ff16815260200190600101906020826000010492830192600103820291508084116117925790505b505050505081526020016008820180548060200260200160405190810160405280929190818152602001828054801561184757602002820191906000526020600020906000905b82829054906101000a900460ff1660ff16815260200190600101906020826000010492830192600103820291508084116118105790505b5050505050815250509050919050565b600860009054906101000a900473ffffffffffffffffffffffffffffffffffffffff1681565b600460009054906101000a900473ffffffffffffffffffffffffffffffffffffffff1673ffffffffffffffffffffffffffffffffffffffff166118be6136fc565b73ffffffffffffffffffffffffffffffffffffffff16146118de57600080fd5b80601a60016101000a81548161ffff021916908361ffff16021790555050565b6060601860008373ffffffffffffffffffffffffffffffffffffffff1673ffffffffffffffffffffffffffffffffffffffff168152602001908152602001600020805480602002602001604051908101604052809291908181526020016000905b82821015611c82578382906000526020600020906009020160405180610120016040529081600082015481526020016001820160009054906101000a900473ffffffffffffffffffffffffffffffffffffffff1673ffffffffffffffffffffffffffffffffffffffff1673ffffffffffffffffffffffffffffffffffffffff168152602001600282015481526020016003820154815260200160048201805480602002602001604051908101604052809291908181526020018280548015611a7257602002820191906000526020600020906000905b82829054906101000a900463ffffffff1663ffffffff1681526020019060040190602082600301049283019260010382029150808411611a355790505b5050505050815260200160058201805480602002602001604051908101604052809291908181526020018280548015611af057602002820191906000526020600020906000905b82829054906101000a900460ff1660ff1681526020019060010190602082600001049283019260010382029150808411611ab95790505b5050505050815260200160068201805480602002602001604051908101604052809291908181526020018280548015611b6e57602002820191906000526020600020906000905b82829054906101000a900460ff1660ff1681526020019060010190602082600001049283019260010382029150808411611b375790505b5050505050815260200160078201805480602002602001604051908101604052809291908181526020018280548015611bec57602002820191906000526020600020906000905b82829054906101000a900460ff1660ff1681526020019060010190602082600001049283019260010382029150808411611bb55790505b5050505050815260200160088201805480602002602001604051908101604052809291908181526020018280548015611c6a57602002820191906000526020600020906000905b82829054906101000a900460ff1660ff1681526020019060010190602082600001049283019260010382029150808411611c335790505b5050505050815250508152602001906001019061195f565b505050509050919050565b601a60089054906101000a900460ff1681565b6000611caa611017565b8210611ceb576040517f08c379a0000000000000000000000000000000000000000000000000000000008152600401611ce290616952565b60405180910390fd5b60128281548110611cff57611cfe61668f565b5b90600052602060002001549050919050565b600460009054906101000a900473ffffffffffffffffffffffffffffffffffffffff1673ffffffffffffffffffffffffffffffffffffffff16611d526136fc565b73ffffffffffffffffffffffffffffffffffffffff161480611dc85750600760009054906101000a900473ffffffffffffffffffffffffffffffffffffffff1673ffffffffffffffffffffffffffffffffffffffff16611db06136fc565b73ffffffffffffffffffffffffffffffffffffffff16145b611dd157600080fd5b8060149080519060200190611de792919061521d565b5050565b600460009054906101000a900473ffffffffffffffffffffffffffffffffffffffff1673ffffffffffffffffffffffffffffffffffffffff16611e2c6136fc565b73ffffffffffffffffffffffffffffffffffffffff161480611ea25750600760009054906101000a900473ffffffffffffffffffffffffffffffffffffffff1673ffffffffffffffffffffffffffffffffffffffff16611e8a6136fc565b73ffffffffffffffffffffffffffffffffffffffff16145b611eab57600080fd5b600073ffffffffffffffffffffffffffffffffffffffff168173ffffffffffffffffffffffffffffffffffffffff161415611ee557600080fd5b80600560006101000a81548173ffffffffffffffffffffffffffffffffffffffff021916908373ffffffffffffffffffffffffffffffffffffffff16021790555050565b6000600860149054906101000a900460ff16905090565b6060601760008373ffffffffffffffffffffffffffffffffffffffff1673ffffffffffffffffffffffffffffffffffffffff168152602001908152602001600020805480602002602001604051908101604052809291908181526020018280548015611fcb57602002820191906000526020600020905b815481526020019060010190808311611fb7575b50505050509050919050565b60008060009050600083905060005b8151811015612086576000818351611ffe919061665b565b905060008383815181106120155761201461668f565b5b602001015160f81c60f81b905060008160f81c9050600060308260ff1661203c919061665b565b905060018461204b919061665b565b600a6120579190616aa5565b816120629190616af0565b8761206d9190616b4a565b965050505050808061207e90616ba0565b915050611fe6565b508192505050919050565b600080600b600084815260200190815260200160002060009054906101000a900473ffffffffffffffffffffffffffffffffffffffff169050600073ffffffffffffffffffffffffffffffffffffffff168173ffffffffffffffffffffffffffffffffffffffff16141561213a576040517f08c379a000000000000000000000000000000000000000000000000000000000815260040161213190616c5b565b60405180910390fd5b80915050919050565b600460009054906101000a900473ffffffffffffffffffffffffffffffffffffffff1673ffffffffffffffffffffffffffffffffffffffff166121846136fc565b73ffffffffffffffffffffffffffffffffffffffff16146121a457600080fd5b80601a60086101000a81548160ff021916908360ff16021790555050565b606060156001836121d3919061665b565b815481106121e4576121e361668f565b5b906000526020600020906009020160080180548060200260200160405190810160405280929190818152602001828054801561226557602002820191906000526020600020906000905b82829054906101000a900460ff1660ff168152602001906001019060208260000104928301926001038202915080841161222e5790505b50505050509050919050565b60008073ffffffffffffffffffffffffffffffffffffffff168273ffffffffffffffffffffffffffffffffffffffff1614156122e2576040517f08c379a00000000000000000000000000000000000000000000000000000000081526004016122d990616ced565b60405180910390fd5b600c60008373ffffffffffffffffffffffffffffffffffffffff1673ffffffffffffffffffffffffffffffffffffffff168152602001908152602001600020549050919050565b6060601560018361233a919061665b565b8154811061234b5761234a61668f565b5b90600052602060002090600902016004018054806020026020016040519081016040528092919081815260200182805480156123d257602002820191906000526020600020906000905b82829054906101000a900463ffffffff1663ffffffff16815260200190600401906020826003010492830192600103820291508084116123955790505b50505050509050919050565b600060156001836123ef919061665b565b81548110612400576123ff61668f565b5b9060005260206000209060090201600201549050919050565b612424848484612fcd565b6124308484848461389b565b61246f576040517f08c379a000000000000000000000000000000000000000000000000000000000815260040161246690616d7f565b60405180910390fd5b50505050565b600460009054906101000a900473ffffffffffffffffffffffffffffffffffffffff1673ffffffffffffffffffffffffffffffffffffffff166124b66136fc565b73ffffffffffffffffffffffffffffffffffffffff16146124d657600080fd5b8060ff16601a60066101000a81548161ffff021916908361ffff16021790555050565b600460009054906101000a900473ffffffffffffffffffffffffffffffffffffffff1673ffffffffffffffffffffffffffffffffffffffff1661253a6136fc565b73ffffffffffffffffffffffffffffffffffffffff161461255a57600080fd5b80601a60046101000a81548161ffff021916908361ffff16021790555050565b600460009054906101000a900473ffffffffffffffffffffffffffffffffffffffff1673ffffffffffffffffffffffffffffffffffffffff166125bb6136fc565b73ffffffffffffffffffffffffffffffffffffffff16146125db57600080fd5b80601a600a6101000a81548161ffff021916908361ffff16021790555050565b612603611f29565b15612643576040517f08c379a000000000000000000000000000000000000000000000000000000000815260040161263a906164e8565b60405180910390fd5b600460009054906101000a900473ffffffffffffffffffffffffffffffffffffffff1673ffffffffffffffffffffffffffffffffffffffff166126846136fc565b73ffffffffffffffffffffffffffffffffffffffff16146126a457600080fd5b6001600860146101000a81548160ff0219169083151502179055507f62e78cea01bee320cd4e420270b5ea74000d11b0c9f74754ebdbfc544b05a2586126e86136fc565b6040516126f591906155e2565b60405180910390a1565b600460009054906101000a900473ffffffffffffffffffffffffffffffffffffffff1673ffffffffffffffffffffffffffffffffffffffff166127406136fc565b73ffffffffffffffffffffffffffffffffffffffff161461276057600080fd5b80601a60036101000a81548160ff021916908360ff16021790555050565b600460009054906101000a900473ffffffffffffffffffffffffffffffffffffffff1673ffffffffffffffffffffffffffffffffffffffff166127bf6136fc565b73ffffffffffffffffffffffffffffffffffffffff1614806128355750600760009054906101000a900473ffffffffffffffffffffffffffffffffffffffff1673ffffffffffffffffffffffffffffffffffffffff1661281d6136fc565b73ffffffffffffffffffffffffffffffffffffffff16145b61283e57600080fd5b600073ffffffffffffffffffffffffffffffffffffffff168173ffffffffffffffffffffffffffffffffffffffff16141561287857600080fd5b80600860006101000a81548173ffffffffffffffffffffffffffffffffffffffff021916908373ffffffffffffffffffffffffffffffffffffffff16021790555050565b600760009054906101000a900473ffffffffffffffffffffffffffffffffffffffff1681565b606060156001836128f3919061665b565b815481106129045761290361668f565b5b906000526020600020906009020160050180548060200260200160405190810160405280929190818152602001828054801561298557602002820191906000526020600020906000905b82829054906101000a900460ff1660ff168152602001906001019060208260000104928301926001038202915080841161294e5790505b50505050509050919050565b7f000000000000000000000000000000000000000000000000000000000000000073ffffffffffffffffffffffffffffffffffffffff163373ffffffffffffffffffffffffffffffffffffffff1614612a1f576040517f08c379a0000000000000000000000000000000000000000000000000000000008152600401612a1690616deb565b60405180910390fd5b612a298282613a23565b5050565b6060600a8054612a3c906163d8565b80601f0160208091040260200160405190810160405280929190818152602001828054612a68906163d8565b8015612ab55780601f10612a8a57610100808354040283529160200191612ab5565b820191906000526020600020905b815481529060010190602001808311612a9857829003601f168201915b5050505050905090565b601a60049054906101000a900461ffff1681565b601a60039054906101000a900460ff1681565b612aee611f29565b15612b2e576040517f08c379a0000000000000000000000000000000000000000000000000000000008152600401612b25906164e8565b60405180910390fd5b612b366136fc565b73ffffffffffffffffffffffffffffffffffffffff168273ffffffffffffffffffffffffffffffffffffffff161415612ba4576040517f08c379a0000000000000000000000000000000000000000000000000000000008152600401612b9b90616e57565b60405180910390fd5b80600e6000612bb16136fc565b73ffffffffffffffffffffffffffffffffffffffff1673ffffffffffffffffffffffffffffffffffffffff16815260200190815260200160002060008473ffffffffffffffffffffffffffffffffffffffff1673ffffffffffffffffffffffffffffffffffffffff16815260200190815260200160002060006101000a81548160ff0219169083151502179055508173ffffffffffffffffffffffffffffffffffffffff16612c5e6136fc565b73ffffffffffffffffffffffffffffffffffffffff167f17307eab39ab6107e8899845ad3d59bd9653f200f220920489ca2b5937696c3183604051612ca391906154cb565b60405180910390a35050565b601a600a9054906101000a900461ffff1681565b600460009054906101000a900473ffffffffffffffffffffffffffffffffffffffff1673ffffffffffffffffffffffffffffffffffffffff16612d046136fc565b73ffffffffffffffffffffffffffffffffffffffff1614612d2457600080fd5b600073ffffffffffffffffffffffffffffffffffffffff168173ffffffffffffffffffffffffffffffffffffffff161415612d5e57600080fd5b80600460006101000a81548173ffffffffffffffffffffffffffffffffffffffff021916908373ffffffffffffffffffffffffffffffffffffffff16021790555050565b601a60099054906101000a900460ff1681565b600460009054906101000a900473ffffffffffffffffffffffffffffffffffffffff1673ffffffffffffffffffffffffffffffffffffffff16612df66136fc565b73ffffffffffffffffffffffffffffffffffffffff1614612e1657600080fd5b600073ffffffffffffffffffffffffffffffffffffffff168173ffffffffffffffffffffffffffffffffffffffff161415612e5057600080fd5b80600760006101000a81548173ffffffffffffffffffffffffffffffffffffffff021916908373ffffffffffffffffffffffffffffffffffffffff16021790555050565b600460009054906101000a900473ffffffffffffffffffffffffffffffffffffffff1673ffffffffffffffffffffffffffffffffffffffff16612ed56136fc565b73ffffffffffffffffffffffffffffffffffffffff1614612ef557600080fd5b80601a60006101000a81548160ff021916908360ff16021790555050565b612f1e838383613a2e565b505050565b612f2b611f29565b15612f6b576040517f08c379a0000000000000000000000000000000000000000000000000000000008152600401612f62906164e8565b60405180910390fd5b612f7c612f766136fc565b836137bd565b612fbb576040517f08c379a0000000000000000000000000000000000000000000000000000000008152600401612fb290616730565b60405180910390fd5b612fc784848484612419565b50505050565b8273ffffffffffffffffffffffffffffffffffffffff16612fed82612091565b73ffffffffffffffffffffffffffffffffffffffff1614613043576040517f08c379a000000000000000000000000000000000000000000000000000000000815260040161303a90616ee9565b60405180910390fd5b600073ffffffffffffffffffffffffffffffffffffffff168273ffffffffffffffffffffffffffffffffffffffff1614156130b3576040517f08c379a00000000000000000000000000000000000000000000000000000000081526004016130aa90616f7b565b60405180910390fd5b6130be838383613e6e565b6130c9600082613704565b6001600c60008573ffffffffffffffffffffffffffffffffffffffff1673ffffffffffffffffffffffffffffffffffffffff1681526020019081526020016000206000828254613119919061665b565b925050819055506001600c60008473ffffffffffffffffffffffffffffffffffffffff1673ffffffffffffffffffffffffffffffffffffffff16815260200190815260200160002060008282546131709190616b4a565b9250508190555081600b600083815260200190815260200160002060006101000a81548173ffffffffffffffffffffffffffffffffffffffff021916908373ffffffffffffffffffffffffffffffffffffffff160217905550808273ffffffffffffffffffffffffffffffffffffffff168473ffffffffffffffffffffffffffffffffffffffff167fddf252ad1be2c89b69c2b068fc378daa952ba7f163c4a11628f55a4df523b3ef60405160405180910390a4505050565b606061323482613e7e565b9050919050565b601a60019054906101000a900461ffff1681565b601a60009054906101000a900460ff1681565b60195481565b60006002547f000000000000000000000000000000000000000000000000000000000000000073ffffffffffffffffffffffffffffffffffffffff166370a08231306040518263ffffffff1660e01b81526004016132c691906155e2565b602060405180830381865afa1580156132e3573d6000803e3d6000fd5b505050506040513d601f19601f820116820180604052508101906133079190616fb0565b1015613348576040517f08c379a000000000000000000000000000000000000000000000000000000000815260040161333f9061704f565b60405180910390fd5b613356600154600254613fd0565b905090565b6060601560018361336c919061665b565b8154811061337d5761337c61668f565b5b90600052602060002090600902016007018054806020026020016040519081016040528092919081815260200182805480156133fe57602002820191906000526020600020906000905b82829054906101000a900460ff1660ff16815260200190600101906020826000010492830192600103820291508084116133c75790505b50505050509050919050565b601a60069054906101000a900461ffff1681565b6000600e60008473ffffffffffffffffffffffffffffffffffffffff1673ffffffffffffffffffffffffffffffffffffffff16815260200190815260200160002060008373ffffffffffffffffffffffffffffffffffffffff1673ffffffffffffffffffffffffffffffffffffffff16815260200190815260200160002060009054906101000a900460ff16905092915050565b600460009054906101000a900473ffffffffffffffffffffffffffffffffffffffff1673ffffffffffffffffffffffffffffffffffffffff166134f36136fc565b73ffffffffffffffffffffffffffffffffffffffff1614806135695750600760009054906101000a900473ffffffffffffffffffffffffffffffffffffffff1673ffffffffffffffffffffffffffffffffffffffff166135516136fc565b73ffffffffffffffffffffffffffffffffffffffff16145b61357257600080fd5b600073ffffffffffffffffffffffffffffffffffffffff168173ffffffffffffffffffffffffffffffffffffffff1614156135ac57600080fd5b80600660006101000a81548173ffffffffffffffffffffffffffffffffffffffff021916908373ffffffffffffffffffffffffffffffffffffffff16021790555050565b600460009054906101000a900473ffffffffffffffffffffffffffffffffffffffff1681565b60007f780e9d63000000000000000000000000000000000000000000000000000000007bffffffffffffffffffffffffffffffffffffffffffffffffffffffff1916827bffffffffffffffffffffffffffffffffffffffffffffffffffffffff19161480613689575061368882614120565b5b9050919050565b60008073ffffffffffffffffffffffffffffffffffffffff16600b600084815260200190815260200160002060009054906101000a900473ffffffffffffffffffffffffffffffffffffffff1673ffffffffffffffffffffffffffffffffffffffff1614159050919050565b600033905090565b81600d600083815260200190815260200160002060006101000a81548173ffffffffffffffffffffffffffffffffffffffff021916908373ffffffffffffffffffffffffffffffffffffffff160217905550808273ffffffffffffffffffffffffffffffffffffffff1661377783612091565b73ffffffffffffffffffffffffffffffffffffffff167f8c5be1e5ebec7d5bd14f71427d1e84f3dd0314c0f7b2291e5b200ac8c7c3b92560405160405180910390a45050565b60006137c882613690565b613807576040517f08c379a00000000000000000000000000000000000000000000000000000000081526004016137fe906170e1565b60405180910390fd5b600061381283612091565b90508073ffffffffffffffffffffffffffffffffffffffff168473ffffffffffffffffffffffffffffffffffffffff16148061388157508373ffffffffffffffffffffffffffffffffffffffff1661386984610de9565b73ffffffffffffffffffffffffffffffffffffffff16145b806138925750613891818561341e565b5b91505092915050565b60006138bc8473ffffffffffffffffffffffffffffffffffffffff16614202565b15613a16578373ffffffffffffffffffffffffffffffffffffffff166341982fc86138e56136fc565b8786866040518563ffffffff1660e01b81526004016139079493929190617156565b6020604051808303816000875af192505050801561394357506040513d601f19601f8201168201806040525081019061394091906171b7565b60015b6139c6573d8060008114613973576040519150601f19603f3d011682016040523d82523d6000602084013e613978565b606091505b506000815114156139be576040517f08c379a00000000000000000000000000000000000000000000000000000000081526004016139b590616d7f565b60405180910390fd5b805181602001fd5b6341982fc860e01b7bffffffffffffffffffffffffffffffffffffffffffffffffffffffff1916817bffffffffffffffffffffffffffffffffffffffffffffffffffffffff191614915050613a1b565b600190505b949350505050565b806003819055505050565b6000613a3a8483614215565b90506000613a47856145a6565b90506000613a54866146ed565b9050606080600060405180610120016040528060195481526020018973ffffffffffffffffffffffffffffffffffffffff16815260200142815260200142815260200187815260200186815260200185815260200184815260200183815250905060158190806001815401808255809150506001900390600052602060002090600902016000909190919091506000820151816000015560208201518160010160006101000a81548173ffffffffffffffffffffffffffffffffffffffff021916908373ffffffffffffffffffffffffffffffffffffffff16021790555060408201518160020155606082015181600301556080820151816004019080519060200190613b629291906152a3565b5060a0820151816005019080519060200190613b7f929190615353565b5060c0820151816006019080519060200190613b9c929190615353565b5060e0820151816007019080519060200190613bb9929190615353565b50610100820151816008019080519060200190613bd7929190615353565b505050601860008973ffffffffffffffffffffffffffffffffffffffff1673ffffffffffffffffffffffffffffffffffffffff1681526020019081526020016000208190806001815401808255809150506001900390600052602060002090600902016000909190919091506000820151816000015560208201518160010160006101000a81548173ffffffffffffffffffffffffffffffffffffffff021916908373ffffffffffffffffffffffffffffffffffffffff16021790555060408201518160020155606082015181600301556080820151816004019080519060200190613cc49291906152a3565b5060a0820151816005019080519060200190613ce1929190615353565b5060c0820151816006019080519060200190613cfe929190615353565b5060e0820151816007019080519060200190613d1b929190615353565b50610100820151816008019080519060200190613d39929190615353565b505050613d48886019546147e2565b601760008973ffffffffffffffffffffffffffffffffffffffff1673ffffffffffffffffffffffffffffffffffffffff168152602001908152602001600020601954908060018154018082558091505060019003906000526020600020016000909190919091505560196000815480929190613dc390616ba0565b9190505550601660008973ffffffffffffffffffffffffffffffffffffffff1673ffffffffffffffffffffffffffffffffffffffff1681526020019081526020016000206000815480929190613e1890616ba0565b91905055508773ffffffffffffffffffffffffffffffffffffffff166019547f47cb4d17ba1d2b90700b9a127f2fec8f547e1497333d5591a0a1e0942f6e1c5260405160405180910390a3505050505050505050565b613e79838383614800565b505050565b6060613e8982613690565b613ec8576040517f08c379a0000000000000000000000000000000000000000000000000000000008152600401613ebf90617256565b60405180910390fd5b6000600f60008481526020019081526020016000208054613ee8906163d8565b80601f0160208091040260200160405190810160405280929190818152602001828054613f14906163d8565b8015613f615780601f10613f3657610100808354040283529160200191613f61565b820191906000526020600020905b815481529060010190602001808311613f4457829003601f168201915b505050505090506000613f72614914565b9050600081511415613f88578192505050613fcb565b600082511115613fbd578082604051602001613fa59291906172b2565b60405160208183030381529060405292505050613fcb565b613fc6846149a6565b925050505b919050565b60007f000000000000000000000000000000000000000000000000000000000000000073ffffffffffffffffffffffffffffffffffffffff16634000aea07f0000000000000000000000000000000000000000000000000000000000000000848660006040516020016140449291906172d6565b6040516020818303038152906040526040518463ffffffff1660e01b8152600401614071939291906172ff565b6020604051808303816000875af1158015614090573d6000803e3d6000fd5b505050506040513d601f19601f820116820180604052508101906140b49190617352565b5060006140d68460003060008089815260200190815260200160002054614a4d565b90506001600080868152602001908152602001600020546140f79190616b4a565b600080868152602001908152602001600020819055506141178482614a89565b91505092915050565b60007f80ac58cd000000000000000000000000000000000000000000000000000000007bffffffffffffffffffffffffffffffffffffffffffffffffffffffff1916827bffffffffffffffffffffffffffffffffffffffffffffffffffffffff191614806141eb57507f5b5e139f000000000000000000000000000000000000000000000000000000007bffffffffffffffffffffffffffffffffffffffffffffffffffffffff1916827bffffffffffffffffffffffffffffffffffffffffffffffffffffffff1916145b806141fb57506141fa82614abc565b5b9050919050565b600080823b905060008111915050919050565b6060600767ffffffffffffffff81111561423257614231615dba565b5b6040519080825280602002602001820160405280156142605781602001602082028036833780820191505090505b5090506001601a60009054906101000a900460ff1660ff1684600060405160200161428c9291906173c4565b6040516020818303038152906040528051906020012060001c6142af919061741c565b6142b99190616b4a565b816000815181106142cd576142cc61668f565b5b602002602001019063ffffffff16908163ffffffff16815250506001601a60019054906101000a900461ffff1661ffff16846001604051602001614312929190617488565b6040516020818303038152906040528051906020012060001c614335919061741c565b61433f9190616b4a565b816001815181106143535761435261668f565b5b602002602001019063ffffffff16908163ffffffff16815250506001601a60069054906101000a900461ffff1661ffff168460026040516020016143989291906174ec565b6040516020818303038152906040528051906020012060001c6143bb919061741c565b6143c59190616b4a565b816002815181106143d9576143d861668f565b5b602002602001019063ffffffff16908163ffffffff168152505060018084600360405160200161440a929190617550565b6040516020818303038152906040528051906020012060001c61442d919061741c565b6144379190616b4a565b8160038151811061444b5761444a61668f565b5b602002602001019063ffffffff16908163ffffffff1681525050818160048151811061447a5761447961668f565b5b602002602001019063ffffffff16908163ffffffff16815250506001601a60049054906101000a900461ffff1661ffff168460046040516020016144bf9291906175b4565b6040516020818303038152906040528051906020012060001c6144e2919061741c565b6144ec9190616b4a565b81600581518110614500576144ff61668f565b5b602002602001019063ffffffff16908163ffffffff16815250506001601a600a9054906101000a900461ffff1661ffff16846005604051602001614545929190617618565b6040516020818303038152906040528051906020012060001c614568919061741c565b6145729190616b4a565b816006815181106145865761458561668f565b5b602002602001019063ffffffff16908163ffffffff168152505092915050565b6060600267ffffffffffffffff8111156145c3576145c2615dba565b5b6040519080825280602002602001820160405280156145f15781602001602082028036833780820191505090505b50905060005b60028160ff161015614695576001601a60089054906101000a900460ff1660ff16848360405160200161462b929190617641565b6040516020818303038152906040528051906020012060001c61464e919061741c565b6146589190616b4a565b828260ff168151811061466e5761466d61668f565b5b602002602001019060ff16908160ff1681525050808061468d9061766a565b9150506145f7565b506001816000815181106146ac576146ab61668f565b5b602002602001015160ff1614156146e8576002816000815181106146d3576146d261668f565b5b602002602001019060ff16908160ff16815250505b919050565b6060600767ffffffffffffffff81111561470a57614709615dba565b5b6040519080825280602002602001820160405280156147385781602001602082028036833780820191505090505b50905060005b60078160ff1610156147dc576001601a60099054906101000a900460ff1660ff168483604051602001614772929190617641565b6040516020818303038152906040528051906020012060001c614795919061741c565b61479f9190616b4a565b828260ff16815181106147b5576147b461668f565b5b602002602001019060ff16908160ff168152505080806147d49061766a565b91505061473e565b50919050565b6147fc828260405180602001604052806000815250614b26565b5050565b61480b838383614b81565b600073ffffffffffffffffffffffffffffffffffffffff168373ffffffffffffffffffffffffffffffffffffffff16141561484e5761484981614b86565b61488d565b8173ffffffffffffffffffffffffffffffffffffffff168373ffffffffffffffffffffffffffffffffffffffff161461488c5761488b8382614bcf565b5b5b600073ffffffffffffffffffffffffffffffffffffffff168273ffffffffffffffffffffffffffffffffffffffff1614156148d0576148cb81614d3c565b61490f565b8273ffffffffffffffffffffffffffffffffffffffff168273ffffffffffffffffffffffffffffffffffffffff161461490e5761490d8282614e0d565b5b5b505050565b606060148054614923906163d8565b80601f016020809104026020016040519081016040528092919081815260200182805461494f906163d8565b801561499c5780601f106149715761010080835404028352916020019161499c565b820191906000526020600020905b81548152906001019060200180831161497f57829003601f168201915b5050505050905090565b60606149b182613690565b6149f0576040517f08c379a00000000000000000000000000000000000000000000000000000000081526004016149e790617706565b60405180910390fd5b60006149fa614914565b90506000815111614a1a5760405180602001604052806000815250614a45565b80614a2484614e8c565b604051602001614a359291906172b2565b6040516020818303038152906040525b915050919050565b600084848484604051602001614a669493929190617726565b6040516020818303038152906040528051906020012060001c9050949350505050565b60008282604051602001614a9e9291906177ad565b60405160208183030381529060405280519060200120905092915050565b60007f01ffc9a7000000000000000000000000000000000000000000000000000000007bffffffffffffffffffffffffffffffffffffffffffffffffffffffff1916827bffffffffffffffffffffffffffffffffffffffffffffffffffffffff1916149050919050565b614b308383614fed565b614b3d600084848461389b565b614b7c576040517f08c379a0000000000000000000000000000000000000000000000000000000008152600401614b7390616d7f565b60405180910390fd5b505050565b505050565b6012805490506013600083815260200190815260200160002081905550601281908060018154018082558091505060019003906000526020600020016000909190919091505550565b60006001614bdc84612271565b614be6919061665b565b9050600060116000848152602001908152602001600020549050818114614ccb576000601060008673ffffffffffffffffffffffffffffffffffffffff1673ffffffffffffffffffffffffffffffffffffffff168152602001908152602001600020600084815260200190815260200160002054905080601060008773ffffffffffffffffffffffffffffffffffffffff1673ffffffffffffffffffffffffffffffffffffffff168152602001908152602001600020600084815260200190815260200160002081905550816011600083815260200190815260200160002081905550505b6011600084815260200190815260200160002060009055601060008573ffffffffffffffffffffffffffffffffffffffff1673ffffffffffffffffffffffffffffffffffffffff16815260200190815260200160002060008381526020019081526020016000206000905550505050565b60006001601280549050614d50919061665b565b9050600060136000848152602001908152602001600020549050600060128381548110614d8057614d7f61668f565b5b906000526020600020015490508060128381548110614da257614da161668f565b5b906000526020600020018190555081601360008381526020019081526020016000208190555060136000858152602001908152602001600020600090556012805480614df157614df06177d9565b5b6001900381819060005260206000200160009055905550505050565b6000614e1883612271565b905081601060008573ffffffffffffffffffffffffffffffffffffffff1673ffffffffffffffffffffffffffffffffffffffff168152602001908152602001600020600083815260200190815260200160002081905550806011600084815260200190815260200160002081905550505050565b60606000821415614ed4576040518060400160405280600181526020017f30000000000000000000000000000000000000000000000000000000000000008152509050614fe8565b600082905060005b60008214614f06578080614eef90616ba0565b915050600a82614eff9190617808565b9150614edc565b60008167ffffffffffffffff811115614f2257614f21615dba565b5b6040519080825280601f01601f191660200182016040528015614f545781602001600182028036833780820191505090505b5090505b60008514614fe157600182614f6d919061665b565b9150600a85614f7c919061741c565b6030614f889190616b4a565b60f81b818381518110614f9e57614f9d61668f565b5b60200101907effffffffffffffffffffffffffffffffffffffffffffffffffffffffffffff1916908160001a905350600a85614fda9190617808565b9450614f58565b8093505050505b919050565b600073ffffffffffffffffffffffffffffffffffffffff168273ffffffffffffffffffffffffffffffffffffffff16141561505d576040517f08c379a000000000000000000000000000000000000000000000000000000000815260040161505490617885565b60405180910390fd5b61506681613690565b156150a6576040517f08c379a000000000000000000000000000000000000000000000000000000000815260040161509d906178f1565b60405180910390fd5b6150b260008383613e6e565b6001600c60008473ffffffffffffffffffffffffffffffffffffffff1673ffffffffffffffffffffffffffffffffffffffff16815260200190815260200160002060008282546151029190616b4a565b9250508190555081600b600083815260200190815260200160002060006101000a81548173ffffffffffffffffffffffffffffffffffffffff021916908373ffffffffffffffffffffffffffffffffffffffff160217905550808273ffffffffffffffffffffffffffffffffffffffff16600073ffffffffffffffffffffffffffffffffffffffff167fddf252ad1be2c89b69c2b068fc378daa952ba7f163c4a11628f55a4df523b3ef60405160405180910390a45050565b60405180610120016040528060008152602001600073ffffffffffffffffffffffffffffffffffffffff168152602001600081526020016000815260200160608152602001606081526020016060815260200160608152602001606081525090565b828054615229906163d8565b90600052602060002090601f01602090048101928261524b5760008555615292565b82601f1061526457805160ff1916838001178555615292565b82800160010185558215615292579182015b82811115615291578251825591602001919060010190615276565b5b50905061529f91906153fa565b5090565b828054828255906000526020600020906007016008900481019282156153425791602002820160005b8382111561531057835183826101000a81548163ffffffff021916908363ffffffff16021790555092602001926004016020816003010492830192600103026152cc565b80156153405782816101000a81549063ffffffff0219169055600401602081600301049283019260010302615310565b505b50905061534f91906153fa565b5090565b82805482825590600052602060002090601f016020900481019282156153e95791602002820160005b838211156153ba57835183826101000a81548160ff021916908360ff160217905550926020019260010160208160000104928301926001030261537c565b80156153e75782816101000a81549060ff02191690556001016020816000010492830192600103026153ba565b505b5090506153f691906153fa565b5090565b5b808211156154135760008160009055506001016153fb565b5090565b6000604051905090565b600080fd5b600080fd5b60007fffffffff0000000000000000000000000000000000000000000000000000000082169050919050565b6154608161542b565b811461546b57600080fd5b50565b60008135905061547d81615457565b92915050565b60006020828403121561549957615498615421565b5b60006154a78482850161546e565b91505092915050565b60008115159050919050565b6154c5816154b0565b82525050565b60006020820190506154e060008301846154bc565b92915050565b600081519050919050565b600082825260208201905092915050565b60005b83811015615520578082015181840152602081019050615505565b8381111561552f576000848401525b50505050565b6000601f19601f8301169050919050565b6000615551826154e6565b61555b81856154f1565b935061556b818560208601615502565b61557481615535565b840191505092915050565b600060208201905081810360008301526155998184615546565b905092915050565b600073ffffffffffffffffffffffffffffffffffffffff82169050919050565b60006155cc826155a1565b9050919050565b6155dc816155c1565b82525050565b60006020820190506155f760008301846155d3565b92915050565b6000819050919050565b615610816155fd565b811461561b57600080fd5b50565b60008135905061562d81615607565b92915050565b60006020828403121561564957615648615421565b5b60006156578482850161561e565b91505092915050565b615669816155c1565b811461567457600080fd5b50565b60008135905061568681615660565b92915050565b600080604083850312156156a3576156a2615421565b5b60006156b185828601615677565b92505060206156c28582860161561e565b9150509250929050565b6000602082840312156156e2576156e1615421565b5b60006156f084828501615677565b91505092915050565b615702816155fd565b82525050565b600060208201905061571d60008301846156f9565b92915050565b6000806040838503121561573a57615739615421565b5b60006157488582860161561e565b92505060206157598582860161561e565b9150509250929050565b60008060006060848603121561577c5761577b615421565b5b600061578a86828701615677565b935050602061579b86828701615677565b92505060406157ac8682870161561e565b9150509250925092565b600060ff82169050919050565b6157cc816157b6565b81146157d757600080fd5b50565b6000813590506157e9816157c3565b92915050565b60006020828403121561580557615804615421565b5b6000615813848285016157da565b91505092915050565b600081519050919050565b600082825260208201905092915050565b6000819050602082019050919050565b615851816157b6565b82525050565b60006158638383615848565b60208301905092915050565b6000602082019050919050565b60006158878261581c565b6158918185615827565b935061589c83615838565b8060005b838110156158cd5781516158b48882615857565b97506158bf8361586f565b9250506001810190506158a0565b5085935050505092915050565b600060208201905081810360008301526158f4818461587c565b905092915050565b615905816155fd565b82525050565b615914816155c1565b82525050565b600081519050919050565b600082825260208201905092915050565b6000819050602082019050919050565b600063ffffffff82169050919050565b61595f81615946565b82525050565b60006159718383615956565b60208301905092915050565b6000602082019050919050565b60006159958261591a565b61599f8185615925565b93506159aa83615936565b8060005b838110156159db5781516159c28882615965565b97506159cd8361597d565b9250506001810190506159ae565b5085935050505092915050565b600082825260208201905092915050565b6000615a048261581c565b615a0e81856159e8565b9350615a1983615838565b8060005b83811015615a4a578151615a318882615857565b9750615a3c8361586f565b925050600181019050615a1d565b5085935050505092915050565b600061012083016000830151615a7060008601826158fc565b506020830151615a83602086018261590b565b506040830151615a9660408601826158fc565b506060830151615aa960608601826158fc565b5060808301518482036080860152615ac1828261598a565b91505060a083015184820360a0860152615adb82826159f9565b91505060c083015184820360c0860152615af582826159f9565b91505060e083015184820360e0860152615b0f82826159f9565b915050610100830151848203610100860152615b2b82826159f9565b9150508091505092915050565b60006020820190508181036000830152615b528184615a57565b905092915050565b600061ffff82169050919050565b615b7181615b5a565b8114615b7c57600080fd5b50565b600081359050615b8e81615b68565b92915050565b600060208284031215615baa57615ba9615421565b5b6000615bb884828501615b7f565b91505092915050565b600081519050919050565b600082825260208201905092915050565b6000819050602082019050919050565b600061012083016000830151615c0660008601826158fc565b506020830151615c19602086018261590b565b506040830151615c2c60408601826158fc565b506060830151615c3f60608601826158fc565b5060808301518482036080860152615c57828261598a565b91505060a083015184820360a0860152615c7182826159f9565b91505060c083015184820360c0860152615c8b82826159f9565b91505060e083015184820360e0860152615ca582826159f9565b915050610100830151848203610100860152615cc182826159f9565b9150508091505092915050565b6000615cda8383615bed565b905092915050565b6000602082019050919050565b6000615cfa82615bc1565b615d048185615bcc565b935083602082028501615d1685615bdd565b8060005b85811015615d525784840389528151615d338582615cce565b9450615d3e83615ce2565b925060208a01995050600181019050615d1a565b50829750879550505050505092915050565b60006020820190508181036000830152615d7e8184615cef565b905092915050565b615d8f816157b6565b82525050565b6000602082019050615daa6000830184615d86565b92915050565b600080fd5b600080fd5b7f4e487b7100000000000000000000000000000000000000000000000000000000600052604160045260246000fd5b615df282615535565b810181811067ffffffffffffffff82111715615e1157615e10615dba565b5b80604052505050565b6000615e24615417565b9050615e308282615de9565b919050565b600067ffffffffffffffff821115615e5057615e4f615dba565b5b615e5982615535565b9050602081019050919050565b82818337600083830152505050565b6000615e88615e8384615e35565b615e1a565b905082815260208101848484011115615ea457615ea3615db5565b5b615eaf848285615e66565b509392505050565b600082601f830112615ecc57615ecb615db0565b5b8135615edc848260208601615e75565b91505092915050565b600060208284031215615efb57615efa615421565b5b600082013567ffffffffffffffff811115615f1957615f18615426565b5b615f2584828501615eb7565b91505092915050565b600081519050919050565b600082825260208201905092915050565b6000819050602082019050919050565b6000615f6683836158fc565b60208301905092915050565b6000602082019050919050565b6000615f8a82615f2e565b615f948185615f39565b9350615f9f83615f4a565b8060005b83811015615fd0578151615fb78882615f5a565b9750615fc283615f72565b925050600181019050615fa3565b5085935050505092915050565b60006020820190508181036000830152615ff78184615f7f565b905092915050565b600082825260208201905092915050565b600061601b8261591a565b6160258185615fff565b935061603083615936565b8060005b838110156160615781516160488882615965565b97506160538361597d565b925050600181019050616034565b5085935050505092915050565b600060208201905081810360008301526160888184616010565b905092915050565b600067ffffffffffffffff8211156160ab576160aa615dba565b5b6160b482615535565b9050602081019050919050565b60006160d46160cf84616090565b615e1a565b9050828152602081018484840111156160f0576160ef615db5565b5b6160fb848285615e66565b509392505050565b600082601f83011261611857616117615db0565b5b81356161288482602086016160c1565b91505092915050565b6000806000806080858703121561614b5761614a615421565b5b600061615987828801615677565b945050602061616a87828801615677565b935050604061617b8782880161561e565b925050606085013567ffffffffffffffff81111561619c5761619b615426565b5b6161a887828801616103565b91505092959194509250565b6000819050919050565b6161c7816161b4565b81146161d257600080fd5b50565b6000813590506161e4816161be565b92915050565b6000806040838503121561620157616200615421565b5b600061620f858286016161d5565b92505060206162208582860161561e565b9150509250929050565b61623381615b5a565b82525050565b600060208201905061624e600083018461622a565b92915050565b61625d816154b0565b811461626857600080fd5b50565b60008135905061627a81616254565b92915050565b6000806040838503121561629757616296615421565b5b60006162a585828601615677565b92505060206162b68582860161626b565b9150509250929050565b6162c981615946565b81146162d457600080fd5b50565b6000813590506162e6816162c0565b92915050565b60008060006060848603121561630557616304615421565b5b60006163138682870161561e565b935050602061632486828701615677565b9250506040616335868287016162d7565b9150509250925092565b616348816161b4565b82525050565b6000602082019050616363600083018461633f565b92915050565b600080604083850312156163805761637f615421565b5b600061638e85828601615677565b925050602061639f85828601615677565b9150509250929050565b7f4e487b7100000000000000000000000000000000000000000000000000000000600052602260045260246000fd5b600060028204905060018216806163f057607f821691505b60208210811415616404576164036163a9565b5b50919050565b7f4245503732313a20617070726f76656420717565727920666f72206e6f6e657860008201527f697374656e7420746f6b656e0000000000000000000000000000000000000000602082015250565b6000616466602c836154f1565b91506164718261640a565b604082019050919050565b6000602082019050818103600083015261649581616459565b9050919050565b7f5061757361626c653a2070617573656400000000000000000000000000000000600082015250565b60006164d26010836154f1565b91506164dd8261649c565b602082019050919050565b60006020820190508181036000830152616501816164c5565b9050919050565b7f4245503732313a20617070726f76616c20746f2063757272656e74206f776e6560008201527f7200000000000000000000000000000000000000000000000000000000000000602082015250565b60006165646021836154f1565b915061656f82616508565b604082019050919050565b6000602082019050818103600083015261659381616557565b9050919050565b7f4245503732313a20617070726f76652063616c6c6572206973206e6f74206f7760008201527f6e6572206e6f7220617070726f76656420666f7220616c6c0000000000000000602082015250565b60006165f66038836154f1565b91506166018261659a565b604082019050919050565b60006020820190508181036000830152616625816165e9565b9050919050565b7f4e487b7100000000000000000000000000000000000000000000000000000000600052601160045260246000fd5b6000616666826155fd565b9150616671836155fd565b9250828210156166845761668361662c565b5b828203905092915050565b7f4e487b7100000000000000000000000000000000000000000000000000000000600052603260045260246000fd5b7f4245503732313a207472616e736665722063616c6c6572206973206e6f74206f60008201527f776e6572206e6f7220617070726f766564000000000000000000000000000000602082015250565b600061671a6031836154f1565b9150616725826166be565b604082019050919050565b600060208201905081810360008301526167498161670d565b9050919050565b7f424550373231456e756d657261626c653a206f776e657220696e646578206f7560008201527f74206f6620626f756e6473000000000000000000000000000000000000000000602082015250565b60006167ac602b836154f1565b91506167b782616750565b604082019050919050565b600060208201905081810360008301526167db8161679f565b9050919050565b7f5061757361626c653a206e6f7420706175736564000000000000000000000000600082015250565b60006168186014836154f1565b9150616823826167e2565b602082019050919050565b600060208201905081810360008301526168478161680b565b9050919050565b7f4e424d6f6e436f72653a204e424d6f6e2077697468207468652073706563696660008201527f69656420494420646f6573206e6f742065786973740000000000000000000000602082015250565b60006168aa6035836154f1565b91506168b58261684e565b604082019050919050565b600060208201905081810360008301526168d98161689d565b9050919050565b7f424550373231456e756d657261626c653a20676c6f62616c20696e646578206f60008201527f7574206f6620626f756e64730000000000000000000000000000000000000000602082015250565b600061693c602c836154f1565b9150616947826168e0565b604082019050919050565b6000602082019050818103600083015261696b8161692f565b9050919050565b60008160011c9050919050565b6000808291508390505b60018511156169c9578086048111156169a5576169a461662c565b5b60018516156169b45780820291505b80810290506169c285616972565b9450616989565b94509492505050565b6000826169e25760019050616a9e565b816169f05760009050616a9e565b8160018114616a065760028114616a1057616a3f565b6001915050616a9e565b60ff841115616a2257616a2161662c565b5b8360020a915084821115616a3957616a3861662c565b5b50616a9e565b5060208310610133831016604e8410600b8410161715616a745782820a905083811115616a6f57616a6e61662c565b5b616a9e565b616a81848484600161697f565b92509050818404811115616a9857616a9761662c565b5b81810290505b9392505050565b6000616ab0826155fd565b9150616abb836155fd565b9250616ae87fffffffffffffffffffffffffffffffffffffffffffffffffffffffffffffffff84846169d2565b905092915050565b6000616afb826155fd565b9150616b06836155fd565b9250817fffffffffffffffffffffffffffffffffffffffffffffffffffffffffffffffff0483118215151615616b3f57616b3e61662c565b5b828202905092915050565b6000616b55826155fd565b9150616b60836155fd565b9250827fffffffffffffffffffffffffffffffffffffffffffffffffffffffffffffffff03821115616b9557616b9461662c565b5b828201905092915050565b6000616bab826155fd565b91507fffffffffffffffffffffffffffffffffffffffffffffffffffffffffffffffff821415616bde57616bdd61662c565b5b600182019050919050565b7f4245503732313a206f776e657220717565727920666f72206e6f6e657869737460008201527f656e7420746f6b656e0000000000000000000000000000000000000000000000602082015250565b6000616c456029836154f1565b9150616c5082616be9565b604082019050919050565b60006020820190508181036000830152616c7481616c38565b9050919050565b7f4245503732313a2062616c616e636520717565727920666f7220746865207a6560008201527f726f206164647265737300000000000000000000000000000000000000000000602082015250565b6000616cd7602a836154f1565b9150616ce282616c7b565b604082019050919050565b60006020820190508181036000830152616d0681616cca565b9050919050565b7f4245503732313a207472616e7366657220746f206e6f6e20424550373231526560008201527f63656976657220696d706c656d656e7465720000000000000000000000000000602082015250565b6000616d696032836154f1565b9150616d7482616d0d565b604082019050919050565b60006020820190508181036000830152616d9881616d5c565b9050919050565b7f4f6e6c7920565246436f6f7264696e61746f722063616e2066756c66696c6c00600082015250565b6000616dd5601f836154f1565b9150616de082616d9f565b602082019050919050565b60006020820190508181036000830152616e0481616dc8565b9050919050565b7f4245503732313a20617070726f766520746f2063616c6c657200000000000000600082015250565b6000616e416019836154f1565b9150616e4c82616e0b565b602082019050919050565b60006020820190508181036000830152616e7081616e34565b9050919050565b7f4245503732313a207472616e73666572206f6620746f6b656e2074686174206960008201527f73206e6f74206f776e0000000000000000000000000000000000000000000000602082015250565b6000616ed36029836154f1565b9150616ede82616e77565b604082019050919050565b60006020820190508181036000830152616f0281616ec6565b9050919050565b7f4245503732313a207472616e7366657220746f20746865207a65726f2061646460008201527f7265737300000000000000000000000000000000000000000000000000000000602082015250565b6000616f656024836154f1565b9150616f7082616f09565b604082019050919050565b60006020820190508181036000830152616f9481616f58565b9050919050565b600081519050616faa81615607565b92915050565b600060208284031215616fc657616fc5615421565b5b6000616fd484828501616f9b565b91505092915050565b7f5652463a204e6f7420656e6f756768204c494e4b20746f20657865637574652060008201527f66756e6374696f6e000000000000000000000000000000000000000000000000602082015250565b60006170396028836154f1565b915061704482616fdd565b604082019050919050565b600060208201905081810360008301526170688161702c565b9050919050565b7f4245503732313a206f70657261746f7220717565727920666f72206e6f6e657860008201527f697374656e7420746f6b656e0000000000000000000000000000000000000000602082015250565b60006170cb602c836154f1565b91506170d68261706f565b604082019050919050565b600060208201905081810360008301526170fa816170be565b9050919050565b600081519050919050565b600082825260208201905092915050565b600061712882617101565b617132818561710c565b9350617142818560208601615502565b61714b81615535565b840191505092915050565b600060808201905061716b60008301876155d3565b61717860208301866155d3565b61718560408301856156f9565b8181036060830152617197818461711d565b905095945050505050565b6000815190506171b181615457565b92915050565b6000602082840312156171cd576171cc615421565b5b60006171db848285016171a2565b91505092915050565b7f42455037323155524953746f726167653a2055524920717565727920666f722060008201527f6e6f6e6578697374656e7420746f6b656e000000000000000000000000000000602082015250565b60006172406031836154f1565b915061724b826171e4565b604082019050919050565b6000602082019050818103600083015261726f81617233565b9050919050565b600081905092915050565b600061728c826154e6565b6172968185617276565b93506172a6818560208601615502565b80840191505092915050565b60006172be8285617281565b91506172ca8284617281565b91508190509392505050565b60006040820190506172eb600083018561633f565b6172f860208301846156f9565b9392505050565b600060608201905061731460008301866155d3565b61732160208301856156f9565b8181036040830152617333818461711d565b9050949350505050565b60008151905061734c81616254565b92915050565b60006020828403121561736857617367615421565b5b60006173768482850161733d565b91505092915050565b6000819050919050565b6000819050919050565b60006173ae6173a96173a48461737f565b617389565b6157b6565b9050919050565b6173be81617393565b82525050565b60006040820190506173d960008301856156f9565b6173e660208301846173b5565b9392505050565b7f4e487b7100000000000000000000000000000000000000000000000000000000600052601260045260246000fd5b6000617427826155fd565b9150617432836155fd565b925082617442576174416173ed565b5b828206905092915050565b6000819050919050565b600061747261746d6174688461744d565b617389565b6157b6565b9050919050565b61748281617457565b82525050565b600060408201905061749d60008301856156f9565b6174aa6020830184617479565b9392505050565b6000819050919050565b60006174d66174d16174cc846174b1565b617389565b6157b6565b9050919050565b6174e6816174bb565b82525050565b600060408201905061750160008301856156f9565b61750e60208301846174dd565b9392505050565b6000819050919050565b600061753a61753561753084617515565b617389565b6157b6565b9050919050565b61754a8161751f565b82525050565b600060408201905061756560008301856156f9565b6175726020830184617541565b9392505050565b6000819050919050565b600061759e61759961759484617579565b617389565b6157b6565b9050919050565b6175ae81617583565b82525050565b60006040820190506175c960008301856156f9565b6175d660208301846175a5565b9392505050565b6000819050919050565b60006176026175fd6175f8846175dd565b617389565b6157b6565b9050919050565b617612816175e7565b82525050565b600060408201905061762d60008301856156f9565b61763a6020830184617609565b9392505050565b600060408201905061765660008301856156f9565b6176636020830184615d86565b9392505050565b6000617675826157b6565b915060ff8214156176895761768861662c565b5b600182019050919050565b7f4245503732314d657461646174613a2055524920717565727920666f72206e6f60008201527f6e6578697374656e7420746f6b656e0000000000000000000000000000000000602082015250565b60006176f0602f836154f1565b91506176fb82617694565b604082019050919050565b6000602082019050818103600083015261771f816176e3565b9050919050565b600060808201905061773b600083018761633f565b61774860208301866156f9565b61775560408301856155d3565b61776260608301846156f9565b95945050505050565b6000819050919050565b617786617781826161b4565b61776b565b82525050565b6000819050919050565b6177a76177a2826155fd565b61778c565b82525050565b60006177b98285617775565b6020820191506177c98284617796565b6020820191508190509392505050565b7f4e487b7100000000000000000000000000000000000000000000000000000000600052603160045260246000fd5b6000617813826155fd565b915061781e836155fd565b92508261782e5761782d6173ed565b5b828204905092915050565b7f4245503732313a206d696e7420746f20746865207a65726f2061646472657373600082015250565b600061786f6020836154f1565b915061787a82617839565b602082019050919050565b6000602082019050818103600083015261789e81617862565b9050919050565b7f4245503732313a20746f6b656e20616c7265616479206d696e74656400000000600082015250565b60006178db601c836154f1565b91506178e6826178a5565b602082019050919050565b6000602082019050818103600083015261790a816178ce565b905091905056fea2646970667358221220d51de4718f5e5caab7d96c7ea494bc63a5919ed39700fe4ad6f4c47b8c333bc364736f6c634300080a0033",
  "immutableReferences": {
    "73": [
      {
        "length": 32,
        "start": 12911
      },
      {
        "length": 32,
        "start": 16340
      }
    ],
    "75": [
      {
        "length": 32,
        "start": 10643
      },
      {
        "length": 32,
        "start": 16400
      }
    ]
  },
  "source": "//SPDX-License-Identifier: MIT\n\npragma solidity ^0.8.6;\n\nimport \"../chainlink/VRF.sol\";\nimport \"../security/Strings.sol\";\nimport \"./NBMonCore.sol\";\nimport \"../security/ConvertTo.sol\";\n\n/**\n * @dev This contract is the extended counterpart to NBMonBreeding.sol. In this case most of the logic is done in this contract. Randomizing functions\n * are done through using Chainlink's VRF. Some logic that requires to be dynamic will still be done from the server and passed on as an argument.\n * NOTE: This contract does NOT have any of the advanced features yet (e.g. using artifacts to boost certain stats when breeding). It also only considers\n * ONE type (e.g. Beast, Ancient etc.); it does not consider the NBMon to have 2 or more types.\n */\ncontract NBMonBreedingExtended is VRF, NBMonCore, ConvertTo {\n    /**\n     * @dev breeds 2 NBMons to give birth to an offspring.\n     *\n     * Note: The current randomization logic for SHINYID is:\n     * It doesn't matter if both parents are shiny or if none of them are or if only 1 of them are. \n     * The chances of receiving a shiny offspring is currently set to 1/4096. If the randomization falls within this number:\n     * the offspring will receive a shinyId of 2. If it isn't shiny, its shinyId is 1.\n     *\n     * Logic: if (randomNumber() % 100 > (1/4096*100)) {\n        shinyId = 1\n    } else {\n        shinyId = 2\n    }\n     *\n     *\n     * Note: The current randomization logic for NBMONTYPE, SPECIES and FERTILITY is:\n     * 1) If both parent A and B are origins, the offspring is an origin too. Species of offspring is randomized from any of the two parents.\n     * 2) If parent A is an origin and parent B is a hybrid (or vice versa), the offspring is a hybrid. Species of offspring is always based on the Origin parent.\n     * 3) If parent A is an origin and parent B is a wild (or vice versa), the offspring is a hybrid. Species of offspring is always based on the Origin parent.\n     * 4) If parent A is a hybrid and parent B is a wild (or vice versa), then offspring is a hybrid. Species of offspring is always based on the Hybrid parent.\n     * If both parents have the same fertility (e.g. 6 and 6) their offspring will have a fertility of both parents - 1 (5).\n     * If one parent has a higher fertility (e.g. 4 and 2), the offspring will have the lowest fertility of both parents as its fertility (fertility - 1).\n     * \n     * Note: The current randomization logic for GENERA is:\n     * An NBMon can be categorized as part of a different species but will only be part of one Genus.\n     * For example, Lamox is a genus and Licorine is a genus. If a Lamox breeds with a Licorine, its offspring can either be a Lamox or Licorine genus.\n     *\n     * Note: The current randomization logic for RARITY is:\n     * There are 6 rarities: common, uncommon, rare, epic, legendary, mythical.\n     * The rarity that the offspring gets is NOT dependent on the parents (even if they're mythical) and will be as follows:\n     * 65% common, 20% uncommmon, 10% rare, 4% epic, 0.9% legendary, 0.1% mythical.\n     *\n     * Note: The current randomization logic for IV is:\n     * Rarity will NOT play a part for IV to make it fair for everyone.\n     * 1) If the offspring is an origin , the IV for each stat can be up to 30.\n     * 2) If the offspring is a hybrid of a wild, the IV for each stat can only be up to 20.\n     * There is a 40% chance it will follow the male parent, 40% chance it will follow the mom parent, 20% chance it will be randomized.\n     * \n     * Note: The current randomization logic for EV is:\n     * For each stat (HP, energy, attack, defense, spA, spD, speed), the NBMon can earn up to 65 EV.\n     * 1) If the offspring is an origin, the EV for each stat can be up to 65.\n     * 2) If the offspring is either a hybrid or wild, the EV for each stat can only be up to 50.\n     * Rarity plays a part into the EVs. \n     * 1) For common, you can earn up to 20 EV for origin and 15 for H + W\n     * 2) For uncommon, you can earn up to 25 EV for origin and 20 for H + W\n     * 3) For rare, you can earn up to 35 EV for origin and 25 for H + W\n     * 4) For epic, you can earn up to 45 EV for origin and 30 for H + W\n     * 5) For legendary, you can earn up to 55 EV for origin and 40 for H + W\n     * 6) For mythical, you can earn up to 65 EV for origin and 50 for H + W\n     * \n     *\n     * Note: The current randomization logic for PASSIVEONE and PASSIVETWO is:\n     * Each parent can have up to 10 passives of which 2 can be chosen in battle. \n     * The offspring can inherit up to 2 passives from either or both the parents. The logic is as follows:\n     * For passiveOne, there's a 50% chance to inherit from parent A and 50% chance to inherit from parent B.  \n     * Let's assume that the number rolls below 50. Then passiveOne will be inheriting from parent A.\n     * Now, it needs to randomize from one of the passives that parent A has. That will be passiveOne for the offspring.\n     * The logic will reset and follow the same route for passiveTwo. Bare in mind that inheriting the same exact passives for both passiveOne and passiveTwo can happen.\n     *\n     * Note: The current randomization logic for MOVEONE and MOVETWO is:\n     * The logic is similar to inheriting passiveOne and passiveTwo, just like mentioned above. \n     * However, instead of having up to 10 for passives, NBMons can have up to 20 moves. \n     *\n     */\n    function breedNBMon(uint256 _parentOne, uint256 _parentTwo) public onlyMinter {\n        \n        // getting both species of parentOne and parentTwo\n        \n\n        // getting both \n    }\n\n\n}",
  "sourcePath": "/Users/igormoscalets/nbmoncompany/nbmondemo/contracts/implementation/NBMonBreedingExtended.sol",
  "compiler": {
    "name": "solc",
    "version": "0.8.10+commit.fc410830.Emscripten.clang"
  },
  "schemaVersion": "3.4.3",
  "updatedAt": "2022-01-02T17:22:48.124Z",
  "devdoc": {
    "details": "This contract is the extended counterpart to NBMonBreeding.sol. In this case most of the logic is done in this contract. Randomizing functions are done through using Chainlink's VRF. Some logic that requires to be dynamic will still be done from the server and passed on as an argument. NOTE: This contract does NOT have any of the advanced features yet (e.g. using artifacts to boost certain stats when breeding). It also only considers ONE type (e.g. Beast, Ancient etc.); it does not consider the NBMon to have 2 or more types.",
    "kind": "dev",
    "methods": {
      "approve(address,uint256)": {
        "details": "See {IBEP721-approve}."
      },
      "balanceOf(address)": {
        "details": "See {IBEP721-balanceOf}."
      },
      "breedNBMon(uint256,uint256)": {
        "details": "breeds 2 NBMons to give birth to an offspring. Note: The current randomization logic for SHINYID is: It doesn't matter if both parents are shiny or if none of them are or if only 1 of them are.  The chances of receiving a shiny offspring is currently set to 1/4096. If the randomization falls within this number: the offspring will receive a shinyId of 2. If it isn't shiny, its shinyId is 1. Logic: if (randomNumber() % 100 > (1/4096*100)) { shinyId = 1 } else { shinyId = 2 } Note: The current randomization logic for NBMONTYPE, SPECIES and FERTILITY is: 1) If both parent A and B are origins, the offspring is an origin too. Species of offspring is randomized from any of the two parents. 2) If parent A is an origin and parent B is a hybrid (or vice versa), the offspring is a hybrid. Species of offspring is always based on the Origin parent. 3) If parent A is an origin and parent B is a wild (or vice versa), the offspring is a hybrid. Species of offspring is always based on the Origin parent. 4) If parent A is a hybrid and parent B is a wild (or vice versa), then offspring is a hybrid. Species of offspring is always based on the Hybrid parent. If both parents have the same fertility (e.g. 6 and 6) their offspring will have a fertility of both parents - 1 (5). If one parent has a higher fertility (e.g. 4 and 2), the offspring will have the lowest fertility of both parents as its fertility (fertility - 1).  Note: The current randomization logic for GENERA is: An NBMon can be categorized as part of a different species but will only be part of one Genus. For example, Lamox is a genus and Licorine is a genus. If a Lamox breeds with a Licorine, its offspring can either be a Lamox or Licorine genus. Note: The current randomization logic for RARITY is: There are 6 rarities: common, uncommon, rare, epic, legendary, mythical. The rarity that the offspring gets is NOT dependent on the parents (even if they're mythical) and will be as follows: 65% common, 20% uncommmon, 10% rare, 4% epic, 0.9% legendary, 0.1% mythical. Note: The current randomization logic for IV is: Rarity will NOT play a part for IV to make it fair for everyone. 1) If the offspring is an origin , the IV for each stat can be up to 30. 2) If the offspring is a hybrid of a wild, the IV for each stat can only be up to 20. There is a 40% chance it will follow the male parent, 40% chance it will follow the mom parent, 20% chance it will be randomized.  Note: The current randomization logic for EV is: For each stat (HP, energy, attack, defense, spA, spD, speed), the NBMon can earn up to 65 EV. 1) If the offspring is an origin, the EV for each stat can be up to 65. 2) If the offspring is either a hybrid or wild, the EV for each stat can only be up to 50. Rarity plays a part into the EVs.  1) For common, you can earn up to 20 EV for origin and 15 for H + W 2) For uncommon, you can earn up to 25 EV for origin and 20 for H + W 3) For rare, you can earn up to 35 EV for origin and 25 for H + W 4) For epic, you can earn up to 45 EV for origin and 30 for H + W 5) For legendary, you can earn up to 55 EV for origin and 40 for H + W 6) For mythical, you can earn up to 65 EV for origin and 50 for H + W  Note: The current randomization logic for PASSIVEONE and PASSIVETWO is: Each parent can have up to 10 passives of which 2 can be chosen in battle.  The offspring can inherit up to 2 passives from either or both the parents. The logic is as follows: For passiveOne, there's a 50% chance to inherit from parent A and 50% chance to inherit from parent B.   Let's assume that the number rolls below 50. Then passiveOne will be inheriting from parent A. Now, it needs to randomize from one of the passives that parent A has. That will be passiveOne for the offspring. The logic will reset and follow the same route for passiveTwo. Bare in mind that inheriting the same exact passives for both passiveOne and passiveTwo can happen. Note: The current randomization logic for MOVEONE and MOVETWO is: The logic is similar to inheriting passiveOne and passiveTwo, just like mentioned above.  However, instead of having up to 10 for passives, NBMons can have up to 20 moves. "
      },
      "getApproved(uint256)": {
        "details": "See {IBEP721-getApproved}."
      },
      "getNbmonStats(uint256)": {
        "details": "Singular purpose functions designed to make reading code easier for front-end Otherwise not needed since getNBMon and getAllNBMonsOfOwner and getNBMon contains complete information at once"
      },
      "isApprovedForAll(address,address)": {
        "details": "See {IBEP721-isApprovedForAll}."
      },
      "name()": {
        "details": "See {IBEP721Metadata-name}."
      },
      "ownerOf(uint256)": {
        "details": "See {IBEP721-ownerOf}."
      },
      "pause()": {
        "details": "Triggers stopped state. Only callable by admin. Requirements: - The contract must not be paused."
      },
      "paused()": {
        "details": "Returns true if the contract is paused, and false otherwise."
      },
      "safeTransfer(address,address,uint256,bytes)": {
        "details": "Safely transfers `tokenId` token from `from` to `to`, checking first that contract recipients are aware of the BEP721 protocol to prevent tokens from being forever locked. `_data` is additional data, it has no specified format and it is sent in call to `to`. This internal function is equivalent to {safeTransferFrom}, and can be used to e.g. implement alternative mechanisms to perform token transfer, such as signature-based. Requirements: - `from` cannot be the zero address. - `to` cannot be the zero address. - `tokenId` token must exist and be owned by `from`. - If `to` refers to a smart contract, it must implement {IBEP721Receiver-onBEP721Received}, which is called upon a safe transfer. Emits a {Transfer} event."
      },
      "safeTransferFrom(address,address,uint256)": {
        "details": "See {IBEP721-safeTransferFrom}."
      },
      "safeTransferFrom(address,address,uint256,bytes)": {
        "details": "See {IBEP721-safeTransferFrom}."
      },
      "setApprovalForAll(address,bool)": {
        "details": "See {IBEP721-setApprovalForAll}."
      },
      "setBaseURI(string)": {
        "details": "Changes the current Base URI.  Only callable by Admin or CEO of contract."
      },
      "symbol()": {
        "details": "See {IBEP721Metadata-symbol}."
      },
      "tokenByIndex(uint256)": {
        "details": "See {IBEP721Enumerable-tokenByIndex}."
      },
      "tokenOfOwnerByIndex(address,uint256)": {
        "details": "See {IBEP721Enumerable-tokenOfOwnerByIndex}."
      },
      "tokenURI(uint256)": {
        "details": "Returns the Uniform Resource Identifier (URI) for `tokenId` token."
      },
      "totalSupply()": {
        "details": "See {IBEP721Enumerable-totalSupply}."
      },
      "transfer(address,address,uint256)": {
        "details": "Transfers `tokenId` from `from` to `to`.  As opposed to {transferFrom}, this imposes no restrictions on msg.sender. Requirements: - `to` cannot be the zero address. - `tokenId` token must be owned by `from`. Emits a {Transfer} event."
      },
      "transferFrom(address,address,uint256)": {
        "details": "See {IBEP721-transferFrom}."
      },
      "unpause()": {
        "details": "Returns to normal state. Only callable by admin. Requirements: - The contract must be paused."
      }
    },
    "version": 1
  },
  "userdoc": {
    "kind": "user",
    "methods": {},
    "version": 1
  }
}