{
  "contractName": "RealmCoin",
  "abi": [
    {
      "inputs": [],
      "stateMutability": "nonpayable",
      "type": "constructor"
    },
    {
      "anonymous": false,
      "inputs": [
        {
          "indexed": true,
          "internalType": "address",
          "name": "owner",
          "type": "address"
        },
        {
          "indexed": true,
          "internalType": "address",
          "name": "spender",
          "type": "address"
        },
        {
          "indexed": false,
          "internalType": "uint256",
          "name": "value",
          "type": "uint256"
        }
      ],
      "name": "Approval",
      "type": "event"
    },
    {
      "anonymous": false,
      "inputs": [
        {
          "indexed": true,
          "internalType": "address",
          "name": "_owner",
          "type": "address"
        },
        {
          "indexed": true,
          "internalType": "address",
          "name": "_spender",
          "type": "address"
        },
        {
          "indexed": false,
          "internalType": "uint256",
          "name": "_oldValue",
          "type": "uint256"
        },
        {
          "indexed": false,
          "internalType": "uint256",
          "name": "_value",
          "type": "uint256"
        }
      ],
      "name": "Approved",
      "type": "event"
    },
    {
      "anonymous": false,
      "inputs": [
        {
          "indexed": true,
          "internalType": "address",
          "name": "by",
          "type": "address"
        },
        {
          "indexed": true,
          "internalType": "address",
          "name": "from",
          "type": "address"
        },
        {
          "indexed": false,
          "internalType": "uint256",
          "name": "value",
          "type": "uint256"
        }
      ],
      "name": "Burnt",
      "type": "event"
    },
    {
      "anonymous": false,
      "inputs": [
        {
          "indexed": true,
          "internalType": "address",
          "name": "from",
          "type": "address"
        },
        {
          "indexed": true,
          "internalType": "address",
          "name": "to",
          "type": "address"
        },
        {
          "indexed": false,
          "internalType": "uint256",
          "name": "value",
          "type": "uint256"
        }
      ],
      "name": "Minted",
      "type": "event"
    },
    {
      "anonymous": false,
      "inputs": [
        {
          "indexed": false,
          "internalType": "address",
          "name": "account",
          "type": "address"
        }
      ],
      "name": "Paused",
      "type": "event"
    },
    {
      "anonymous": false,
      "inputs": [
        {
          "indexed": true,
          "internalType": "address",
          "name": "from",
          "type": "address"
        },
        {
          "indexed": true,
          "internalType": "address",
          "name": "to",
          "type": "address"
        },
        {
          "indexed": false,
          "internalType": "uint256",
          "name": "value",
          "type": "uint256"
        }
      ],
      "name": "Transfer",
      "type": "event"
    },
    {
      "anonymous": false,
      "inputs": [
        {
          "indexed": true,
          "internalType": "address",
          "name": "_by",
          "type": "address"
        },
        {
          "indexed": true,
          "internalType": "address",
          "name": "_from",
          "type": "address"
        },
        {
          "indexed": true,
          "internalType": "address",
          "name": "_to",
          "type": "address"
        },
        {
          "indexed": false,
          "internalType": "uint256",
          "name": "_value",
          "type": "uint256"
        }
      ],
      "name": "Transferred",
      "type": "event"
    },
    {
      "anonymous": false,
      "inputs": [
        {
          "indexed": false,
          "internalType": "address",
          "name": "account",
          "type": "address"
        }
      ],
      "name": "Unpaused",
      "type": "event"
    },
    {
      "inputs": [],
      "name": "admin",
      "outputs": [
        {
          "internalType": "address",
          "name": "",
          "type": "address"
        }
      ],
      "stateMutability": "view",
      "type": "function"
    },
    {
      "inputs": [
        {
          "internalType": "address",
          "name": "_owner",
          "type": "address"
        },
        {
          "internalType": "address",
          "name": "spender",
          "type": "address"
        }
      ],
      "name": "allowance",
      "outputs": [
        {
          "internalType": "uint256",
          "name": "",
          "type": "uint256"
        }
      ],
      "stateMutability": "view",
      "type": "function"
    },
    {
      "inputs": [
        {
          "internalType": "address",
          "name": "spender",
          "type": "address"
        },
        {
          "internalType": "uint256",
          "name": "amount",
          "type": "uint256"
        }
      ],
      "name": "approve",
      "outputs": [
        {
          "internalType": "bool",
          "name": "",
          "type": "bool"
        }
      ],
      "stateMutability": "nonpayable",
      "type": "function"
    },
    {
      "inputs": [
        {
          "internalType": "address",
          "name": "account",
          "type": "address"
        }
      ],
      "name": "balanceOf",
      "outputs": [
        {
          "internalType": "uint256",
          "name": "",
          "type": "uint256"
        }
      ],
      "stateMutability": "view",
      "type": "function"
    },
    {
      "inputs": [],
      "name": "burner",
      "outputs": [
        {
          "internalType": "address",
          "name": "",
          "type": "address"
        }
      ],
      "stateMutability": "view",
      "type": "function"
    },
    {
      "inputs": [],
      "name": "ceo",
      "outputs": [
        {
          "internalType": "address",
          "name": "",
          "type": "address"
        }
      ],
      "stateMutability": "view",
      "type": "function"
    },
    {
      "inputs": [],
      "name": "decimals",
      "outputs": [
        {
          "internalType": "uint8",
          "name": "",
          "type": "uint8"
        }
      ],
      "stateMutability": "view",
      "type": "function"
    },
    {
      "inputs": [
        {
          "internalType": "address",
          "name": "spender",
          "type": "address"
        },
        {
          "internalType": "uint256",
          "name": "subtractedValue",
          "type": "uint256"
        }
      ],
      "name": "decreaseAllowance",
      "outputs": [
        {
          "internalType": "bool",
          "name": "",
          "type": "bool"
        }
      ],
      "stateMutability": "nonpayable",
      "type": "function"
    },
    {
      "inputs": [
        {
          "internalType": "address",
          "name": "spender",
          "type": "address"
        },
        {
          "internalType": "uint256",
          "name": "addedValue",
          "type": "uint256"
        }
      ],
      "name": "increaseAllowance",
      "outputs": [
        {
          "internalType": "bool",
          "name": "",
          "type": "bool"
        }
      ],
      "stateMutability": "nonpayable",
      "type": "function"
    },
    {
      "inputs": [],
      "name": "manager",
      "outputs": [
        {
          "internalType": "address",
          "name": "",
          "type": "address"
        }
      ],
      "stateMutability": "view",
      "type": "function"
    },
    {
      "inputs": [],
      "name": "minter",
      "outputs": [
        {
          "internalType": "address",
          "name": "",
          "type": "address"
        }
      ],
      "stateMutability": "view",
      "type": "function"
    },
    {
      "inputs": [],
      "name": "name",
      "outputs": [
        {
          "internalType": "string",
          "name": "",
          "type": "string"
        }
      ],
      "stateMutability": "view",
      "type": "function"
    },
    {
      "inputs": [
        {
          "internalType": "address",
          "name": "_newAdmin",
          "type": "address"
        }
      ],
      "name": "newAdmin",
      "outputs": [],
      "stateMutability": "nonpayable",
      "type": "function"
    },
    {
      "inputs": [
        {
          "internalType": "address",
          "name": "_newBurner",
          "type": "address"
        }
      ],
      "name": "newBurner",
      "outputs": [],
      "stateMutability": "nonpayable",
      "type": "function"
    },
    {
      "inputs": [
        {
          "internalType": "address",
          "name": "_newCEO",
          "type": "address"
        }
      ],
      "name": "newCEO",
      "outputs": [],
      "stateMutability": "nonpayable",
      "type": "function"
    },
    {
      "inputs": [
        {
          "internalType": "address",
          "name": "_newManager",
          "type": "address"
        }
      ],
      "name": "newManager",
      "outputs": [],
      "stateMutability": "nonpayable",
      "type": "function"
    },
    {
      "inputs": [
        {
          "internalType": "address",
          "name": "_newMinter",
          "type": "address"
        }
      ],
      "name": "newMinter",
      "outputs": [],
      "stateMutability": "nonpayable",
      "type": "function"
    },
    {
      "inputs": [],
      "name": "pause",
      "outputs": [],
      "stateMutability": "nonpayable",
      "type": "function"
    },
    {
      "inputs": [],
      "name": "paused",
      "outputs": [
        {
          "internalType": "bool",
          "name": "",
          "type": "bool"
        }
      ],
      "stateMutability": "view",
      "type": "function"
    },
    {
      "inputs": [],
      "name": "symbol",
      "outputs": [
        {
          "internalType": "string",
          "name": "",
          "type": "string"
        }
      ],
      "stateMutability": "view",
      "type": "function"
    },
    {
      "inputs": [],
      "name": "totalSupply",
      "outputs": [
        {
          "internalType": "uint256",
          "name": "",
          "type": "uint256"
        }
      ],
      "stateMutability": "view",
      "type": "function"
    },
    {
      "inputs": [
        {
          "internalType": "address",
          "name": "recipient",
          "type": "address"
        },
        {
          "internalType": "uint256",
          "name": "amount",
          "type": "uint256"
        }
      ],
      "name": "transfer",
      "outputs": [
        {
          "internalType": "bool",
          "name": "",
          "type": "bool"
        }
      ],
      "stateMutability": "nonpayable",
      "type": "function"
    },
    {
      "inputs": [
        {
          "internalType": "address",
          "name": "sender",
          "type": "address"
        },
        {
          "internalType": "address",
          "name": "recipient",
          "type": "address"
        },
        {
          "internalType": "uint256",
          "name": "amount",
          "type": "uint256"
        }
      ],
      "name": "transferFrom",
      "outputs": [
        {
          "internalType": "bool",
          "name": "",
          "type": "bool"
        }
      ],
      "stateMutability": "nonpayable",
      "type": "function"
    },
    {
      "inputs": [],
      "name": "unpause",
      "outputs": [],
      "stateMutability": "nonpayable",
      "type": "function"
    },
    {
      "inputs": [
        {
          "internalType": "address",
          "name": "_to",
          "type": "address"
        },
        {
          "internalType": "uint256",
          "name": "_amount",
          "type": "uint256"
        }
      ],
      "name": "mint",
      "outputs": [
        {
          "internalType": "bool",
          "name": "",
          "type": "bool"
        }
      ],
      "stateMutability": "nonpayable",
      "type": "function"
    },
    {
      "inputs": [
        {
          "internalType": "address",
          "name": "_from",
          "type": "address"
        },
        {
          "internalType": "uint256",
          "name": "_amount",
          "type": "uint256"
        }
      ],
      "name": "burn",
      "outputs": [
        {
          "internalType": "bool",
          "name": "",
          "type": "bool"
        }
      ],
      "stateMutability": "nonpayable",
      "type": "function"
    }
  ],
  "bytecode": "0x60806040526ae79c4e6a3023e818000000600b556b014adf4b7320334b90000000600c553480156200003057600080fd5b506040518060400160405280600a81526020017f5265616c6d20436f696e000000000000000000000000000000000000000000008152506040518060400160405280600381526020017f5245430000000000000000000000000000000000000000000000000000000000815250620000ad620002c160201b60201c565b6000806101000a81548173ffffffffffffffffffffffffffffffffffffffff021916908373ffffffffffffffffffffffffffffffffffffffff160217905550620000fc620002c160201b60201c565b600160006101000a81548173ffffffffffffffffffffffffffffffffffffffff021916908373ffffffffffffffffffffffffffffffffffffffff1602179055506200014c620002c160201b60201c565b600260006101000a81548173ffffffffffffffffffffffffffffffffffffffff021916908373ffffffffffffffffffffffffffffffffffffffff1602179055506200019c620002c160201b60201c565b600360006101000a81548173ffffffffffffffffffffffffffffffffffffffff021916908373ffffffffffffffffffffffffffffffffffffffff160217905550620001ec620002c160201b60201c565b600460006101000a81548173ffffffffffffffffffffffffffffffffffffffff021916908373ffffffffffffffffffffffffffffffffffffffff1602179055506000600460146101000a81548160ff02191690831515021790555081600890805190602001906200025f929190620006b1565b50806009908051906020019062000278929190620006b1565b506012600a60006101000a81548160ff021916908360ff1602179055505050620002ba620002ab620002c160201b60201c565b600b54620002c960201b60201c565b50620009f1565b600033905090565b6000600160009054906101000a900473ffffffffffffffffffffffffffffffffffffffff1673ffffffffffffffffffffffffffffffffffffffff1662000314620002c160201b60201c565b73ffffffffffffffffffffffffffffffffffffffff16146200033557600080fd5b620003456200040860201b60201c565b1562000388576040517f08c379a00000000000000000000000000000000000000000000000000000000081526004016200037f90620007c2565b60405180910390fd5b600c54826200039c6200041f60201b60201c565b620003a891906200081d565b1115620003ec576040517f08c379a0000000000000000000000000000000000000000000000000000000008152600401620003e390620008ca565b60405180910390fd5b620003fe83836200042960201b60201c565b6001905092915050565b6000600460149054906101000a900460ff16905090565b6000600754905090565b600073ffffffffffffffffffffffffffffffffffffffff168273ffffffffffffffffffffffffffffffffffffffff1614156200049c576040517f08c379a000000000000000000000000000000000000000000000000000000000815260040162000493906200093c565b60405180910390fd5b620004b060008383620006a760201b60201c565b8060076000828254620004c491906200081d565b9250508190555080600560008473ffffffffffffffffffffffffffffffffffffffff1673ffffffffffffffffffffffffffffffffffffffff16815260200190815260200160002060008282546200051c91906200081d565b925050819055508173ffffffffffffffffffffffffffffffffffffffff166200054a620002c160201b60201c565b73ffffffffffffffffffffffffffffffffffffffff167f9d228d69b5fdb8d273a2336f8fb8612d039631024ea9bf09c424a9503aa078f0836040516200059191906200096f565b60405180910390a38173ffffffffffffffffffffffffffffffffffffffff16600073ffffffffffffffffffffffffffffffffffffffff16620005d8620002c160201b60201c565b73ffffffffffffffffffffffffffffffffffffffff167f769254a71d2f67d8ac6cb44f2803c0d05cfbcf9effadb6a984f10ff9de3df6c3846040516200061f91906200096f565b60405180910390a48173ffffffffffffffffffffffffffffffffffffffff16600073ffffffffffffffffffffffffffffffffffffffff167fddf252ad1be2c89b69c2b068fc378daa952ba7f163c4a11628f55a4df523b3ef836040516200068791906200096f565b60405180910390a3620006a360008383620006ac60201b60201c565b5050565b505050565b505050565b828054620006bf90620009bb565b90600052602060002090601f016020900481019282620006e357600085556200072f565b82601f10620006fe57805160ff19168380011785556200072f565b828001600101855582156200072f579182015b828111156200072e57825182559160200191906001019062000711565b5b5090506200073e919062000742565b5090565b5b808211156200075d57600081600090555060010162000743565b5090565b600082825260208201905092915050565b7f5061757361626c653a2070617573656400000000000000000000000000000000600082015250565b6000620007aa60108362000761565b9150620007b78262000772565b602082019050919050565b60006020820190508181036000830152620007dd816200079b565b9050919050565b6000819050919050565b7f4e487b7100000000000000000000000000000000000000000000000000000000600052601160045260246000fd5b60006200082a82620007e4565b91506200083783620007e4565b9250827fffffffffffffffffffffffffffffffffffffffffffffffffffffffffffffffff038211156200086f576200086e620007ee565b5b828201905092915050565b7f42455032303a2043617020726561636865642e2043616e6e6f74206d696e7400600082015250565b6000620008b2601f8362000761565b9150620008bf826200087a565b602082019050919050565b60006020820190508181036000830152620008e581620008a3565b9050919050565b7f42455032303a204d696e7420746f20746865207a65726f206164647265737300600082015250565b600062000924601f8362000761565b91506200093182620008ec565b602082019050919050565b60006020820190508181036000830152620009578162000915565b9050919050565b6200096981620007e4565b82525050565b60006020820190506200098660008301846200095e565b92915050565b7f4e487b7100000000000000000000000000000000000000000000000000000000600052602260045260246000fd5b60006002820490506001821680620009d457607f821691505b60208210811415620009eb57620009ea6200098c565b5b50919050565b612a228062000a016000396000f3fe608060405234801561001057600080fd5b506004361061018e5760003560e01c806370a08231116100de578063a457c2d711610097578063a9917dbe11610071578063a9917dbe14610489578063dd62ed3e146104a5578063f840f72b146104d5578063f851a440146104f15761018e565b8063a457c2d71461040d578063a6ba31c11461043d578063a9059cbb146104595761018e565b806370a082311461034b5780638456cb591461037b578063906e940014610385578063908921fc146103a157806395d89b41146103bf5780639dc29fac146103dd5761018e565b8063313ce5671161014b57806340c10f191161012557806340c10f19146102c3578063481c6a75146102f357806357341912146103115780635c975abb1461032d5761018e565b8063313ce5671461026b57806339509351146102895780633f4ba83a146102b95761018e565b806306fdde031461019357806307546172146101b1578063095ea7b3146101cf57806318160ddd146101ff57806323b872dd1461021d57806327810b6e1461024d575b600080fd5b61019b61050f565b6040516101a89190611f84565b60405180910390f35b6101b96105a1565b6040516101c69190611fe7565b60405180910390f35b6101e960048036038101906101e49190612069565b6105c7565b6040516101f691906120c4565b60405180910390f35b61020761062d565b60405161021491906120ee565b60405180910390f35b61023760048036038101906102329190612109565b610637565b60405161024491906120c4565b60405180910390f35b610255610777565b6040516102629190611fe7565b60405180910390f35b61027361079d565b6040516102809190612178565b60405180910390f35b6102a3600480360381019061029e9190612069565b6107b4565b6040516102b091906120c4565b60405180910390f35b6102c16108a8565b005b6102dd60048036038101906102d89190612069565b6109a9565b6040516102ea91906120c4565b60405180910390f35b6102fb610abf565b6040516103089190611fe7565b60405180910390f35b61032b60048036038101906103269190612193565b610ae5565b005b610335610c21565b60405161034291906120c4565b60405180910390f35b61036560048036038101906103609190612193565b610c38565b60405161037291906120ee565b60405180910390f35b610383610c81565b005b61039f600480360381019061039a9190612193565b610d83565b005b6103a9610ebf565b6040516103b69190611fe7565b60405180910390f35b6103c7610ee5565b6040516103d49190611f84565b60405180910390f35b6103f760048036038101906103f29190612069565b610f77565b60405161040491906120c4565b60405180910390f35b61042760048036038101906104229190612069565b611036565b60405161043491906120c4565b60405180910390f35b61045760048036038101906104529190612193565b61116a565b005b610473600480360381019061046e9190612069565b611246565b60405161048091906120c4565b60405180910390f35b6104a3600480360381019061049e9190612193565b6112ac565b005b6104bf60048036038101906104ba91906121c0565b611389565b6040516104cc91906120ee565b60405180910390f35b6104ef60048036038101906104ea9190612193565b611410565b005b6104f961154c565b6040516105069190611fe7565b60405180910390f35b60606008805461051e9061222f565b80601f016020809104026020016040519081016040528092919081815260200182805461054a9061222f565b80156105975780601f1061056c57610100808354040283529160200191610597565b820191906000526020600020905b81548152906001019060200180831161057a57829003601f168201915b5050505050905090565b600160009054906101000a900473ffffffffffffffffffffffffffffffffffffffff1681565b60006105d1610c21565b15610611576040517f08c379a0000000000000000000000000000000000000000000000000000000008152600401610608906122ad565b60405180910390fd5b61062361061c611570565b8484611578565b6001905092915050565b6000600754905090565b6000610641610c21565b15610681576040517f08c379a0000000000000000000000000000000000000000000000000000000008152600401610678906122ad565b60405180910390fd5b61068c848484611743565b6000600660008673ffffffffffffffffffffffffffffffffffffffff1673ffffffffffffffffffffffffffffffffffffffff16815260200190815260200160002060006106d7611570565b73ffffffffffffffffffffffffffffffffffffffff1673ffffffffffffffffffffffffffffffffffffffff16815260200190815260200160002054905082811015610757576040517f08c379a000000000000000000000000000000000000000000000000000000000815260040161074e9061233f565b60405180910390fd5b61076b85610763611570565b858403611578565b60019150509392505050565b600260009054906101000a900473ffffffffffffffffffffffffffffffffffffffff1681565b6000600a60009054906101000a900460ff16905090565b60006107be610c21565b156107fe576040517f08c379a00000000000000000000000000000000000000000000000000000000081526004016107f5906122ad565b60405180910390fd5b61089e610809611570565b848460066000610817611570565b73ffffffffffffffffffffffffffffffffffffffff1673ffffffffffffffffffffffffffffffffffffffff16815260200190815260200160002060008873ffffffffffffffffffffffffffffffffffffffff1673ffffffffffffffffffffffffffffffffffffffff16815260200190815260200160002054610899919061238e565b611578565b6001905092915050565b6108b0610c21565b6108ef576040517f08c379a00000000000000000000000000000000000000000000000000000000081526004016108e690612430565b60405180910390fd5b60008054906101000a900473ffffffffffffffffffffffffffffffffffffffff1673ffffffffffffffffffffffffffffffffffffffff1661092e611570565b73ffffffffffffffffffffffffffffffffffffffff161461094e57600080fd5b6000600460146101000a81548160ff0219169083151502179055507f5db9ee0a495bf2e6ff9c91a7834c1ba4fdd244a5e8aa4e537bd38aeae4b073aa610992611570565b60405161099f9190611fe7565b60405180910390a1565b6000600160009054906101000a900473ffffffffffffffffffffffffffffffffffffffff1673ffffffffffffffffffffffffffffffffffffffff166109ec611570565b73ffffffffffffffffffffffffffffffffffffffff1614610a0c57600080fd5b610a14610c21565b15610a54576040517f08c379a0000000000000000000000000000000000000000000000000000000008152600401610a4b906122ad565b60405180910390fd5b600c5482610a6061062d565b610a6a919061238e565b1115610aab576040517f08c379a0000000000000000000000000000000000000000000000000000000008152600401610aa29061249c565b60405180910390fd5b610ab583836119c7565b6001905092915050565b600460009054906101000a900473ffffffffffffffffffffffffffffffffffffffff1681565b60008054906101000a900473ffffffffffffffffffffffffffffffffffffffff1673ffffffffffffffffffffffffffffffffffffffff16610b24611570565b73ffffffffffffffffffffffffffffffffffffffff161480610b9a5750600360009054906101000a900473ffffffffffffffffffffffffffffffffffffffff1673ffffffffffffffffffffffffffffffffffffffff16610b82611570565b73ffffffffffffffffffffffffffffffffffffffff16145b610ba357600080fd5b600073ffffffffffffffffffffffffffffffffffffffff168173ffffffffffffffffffffffffffffffffffffffff161415610bdd57600080fd5b80600160006101000a81548173ffffffffffffffffffffffffffffffffffffffff021916908373ffffffffffffffffffffffffffffffffffffffff16021790555050565b6000600460149054906101000a900460ff16905090565b6000600560008373ffffffffffffffffffffffffffffffffffffffff1673ffffffffffffffffffffffffffffffffffffffff168152602001908152602001600020549050919050565b610c89610c21565b15610cc9576040517f08c379a0000000000000000000000000000000000000000000000000000000008152600401610cc0906122ad565b60405180910390fd5b60008054906101000a900473ffffffffffffffffffffffffffffffffffffffff1673ffffffffffffffffffffffffffffffffffffffff16610d08611570565b73ffffffffffffffffffffffffffffffffffffffff1614610d2857600080fd5b6001600460146101000a81548160ff0219169083151502179055507f62e78cea01bee320cd4e420270b5ea74000d11b0c9f74754ebdbfc544b05a258610d6c611570565b604051610d799190611fe7565b60405180910390a1565b60008054906101000a900473ffffffffffffffffffffffffffffffffffffffff1673ffffffffffffffffffffffffffffffffffffffff16610dc2611570565b73ffffffffffffffffffffffffffffffffffffffff161480610e385750600360009054906101000a900473ffffffffffffffffffffffffffffffffffffffff1673ffffffffffffffffffffffffffffffffffffffff16610e20611570565b73ffffffffffffffffffffffffffffffffffffffff16145b610e4157600080fd5b600073ffffffffffffffffffffffffffffffffffffffff168173ffffffffffffffffffffffffffffffffffffffff161415610e7b57600080fd5b80600460006101000a81548173ffffffffffffffffffffffffffffffffffffffff021916908373ffffffffffffffffffffffffffffffffffffffff16021790555050565b600360009054906101000a900473ffffffffffffffffffffffffffffffffffffffff1681565b606060098054610ef49061222f565b80601f0160208091040260200160405190810160405280929190818152602001828054610f209061222f565b8015610f6d5780601f10610f4257610100808354040283529160200191610f6d565b820191906000526020600020905b815481529060010190602001808311610f5057829003601f168201915b5050505050905090565b6000600260009054906101000a900473ffffffffffffffffffffffffffffffffffffffff1673ffffffffffffffffffffffffffffffffffffffff16610fba611570565b73ffffffffffffffffffffffffffffffffffffffff1614610fda57600080fd5b610fe2610c21565b15611022576040517f08c379a0000000000000000000000000000000000000000000000000000000008152600401611019906122ad565b60405180910390fd5b61102c8383611c18565b6001905092915050565b6000611040610c21565b15611080576040517f08c379a0000000000000000000000000000000000000000000000000000000008152600401611077906122ad565b60405180910390fd5b60006006600061108e611570565b73ffffffffffffffffffffffffffffffffffffffff1673ffffffffffffffffffffffffffffffffffffffff16815260200190815260200160002060008573ffffffffffffffffffffffffffffffffffffffff1673ffffffffffffffffffffffffffffffffffffffff1681526020019081526020016000205490508281101561114b576040517f08c379a00000000000000000000000000000000000000000000000000000000081526004016111429061252e565b60405180910390fd5b61115f611156611570565b85858403611578565b600191505092915050565b60008054906101000a900473ffffffffffffffffffffffffffffffffffffffff1673ffffffffffffffffffffffffffffffffffffffff166111a9611570565b73ffffffffffffffffffffffffffffffffffffffff16146111c957600080fd5b600073ffffffffffffffffffffffffffffffffffffffff168173ffffffffffffffffffffffffffffffffffffffff16141561120357600080fd5b806000806101000a81548173ffffffffffffffffffffffffffffffffffffffff021916908373ffffffffffffffffffffffffffffffffffffffff16021790555050565b6000611250610c21565b15611290576040517f08c379a0000000000000000000000000000000000000000000000000000000008152600401611287906122ad565b60405180910390fd5b6112a261129b611570565b8484611743565b6001905092915050565b60008054906101000a900473ffffffffffffffffffffffffffffffffffffffff1673ffffffffffffffffffffffffffffffffffffffff166112eb611570565b73ffffffffffffffffffffffffffffffffffffffff161461130b57600080fd5b600073ffffffffffffffffffffffffffffffffffffffff168173ffffffffffffffffffffffffffffffffffffffff16141561134557600080fd5b80600360006101000a81548173ffffffffffffffffffffffffffffffffffffffff021916908373ffffffffffffffffffffffffffffffffffffffff16021790555050565b6000600660008473ffffffffffffffffffffffffffffffffffffffff1673ffffffffffffffffffffffffffffffffffffffff16815260200190815260200160002060008373ffffffffffffffffffffffffffffffffffffffff1673ffffffffffffffffffffffffffffffffffffffff16815260200190815260200160002054905092915050565b60008054906101000a900473ffffffffffffffffffffffffffffffffffffffff1673ffffffffffffffffffffffffffffffffffffffff1661144f611570565b73ffffffffffffffffffffffffffffffffffffffff1614806114c55750600360009054906101000a900473ffffffffffffffffffffffffffffffffffffffff1673ffffffffffffffffffffffffffffffffffffffff166114ad611570565b73ffffffffffffffffffffffffffffffffffffffff16145b6114ce57600080fd5b600073ffffffffffffffffffffffffffffffffffffffff168173ffffffffffffffffffffffffffffffffffffffff16141561150857600080fd5b80600260006101000a81548173ffffffffffffffffffffffffffffffffffffffff021916908373ffffffffffffffffffffffffffffffffffffffff16021790555050565b60008054906101000a900473ffffffffffffffffffffffffffffffffffffffff1681565b600033905090565b600073ffffffffffffffffffffffffffffffffffffffff168373ffffffffffffffffffffffffffffffffffffffff1614156115e8576040517f08c379a00000000000000000000000000000000000000000000000000000000081526004016115df906125c0565b60405180910390fd5b600073ffffffffffffffffffffffffffffffffffffffff168273ffffffffffffffffffffffffffffffffffffffff161415611658576040517f08c379a000000000000000000000000000000000000000000000000000000000815260040161164f90612652565b60405180910390fd5b80600660008573ffffffffffffffffffffffffffffffffffffffff1673ffffffffffffffffffffffffffffffffffffffff16815260200190815260200160002060008473ffffffffffffffffffffffffffffffffffffffff1673ffffffffffffffffffffffffffffffffffffffff168152602001908152602001600020819055508173ffffffffffffffffffffffffffffffffffffffff168373ffffffffffffffffffffffffffffffffffffffff167f8c5be1e5ebec7d5bd14f71427d1e84f3dd0314c0f7b2291e5b200ac8c7c3b9258360405161173691906120ee565b60405180910390a3505050565b600073ffffffffffffffffffffffffffffffffffffffff168373ffffffffffffffffffffffffffffffffffffffff1614156117b3576040517f08c379a00000000000000000000000000000000000000000000000000000000081526004016117aa906126e4565b60405180910390fd5b600073ffffffffffffffffffffffffffffffffffffffff168273ffffffffffffffffffffffffffffffffffffffff161415611823576040517f08c379a000000000000000000000000000000000000000000000000000000000815260040161181a90612776565b60405180910390fd5b61182e838383611ee1565b6000600560008573ffffffffffffffffffffffffffffffffffffffff1673ffffffffffffffffffffffffffffffffffffffff168152602001908152602001600020549050818110156118b5576040517f08c379a00000000000000000000000000000000000000000000000000000000081526004016118ac90612808565b60405180910390fd5b818103600560008673ffffffffffffffffffffffffffffffffffffffff1673ffffffffffffffffffffffffffffffffffffffff1681526020019081526020016000208190555081600560008573ffffffffffffffffffffffffffffffffffffffff1673ffffffffffffffffffffffffffffffffffffffff168152602001908152602001600020600082825461194a919061238e565b925050819055508273ffffffffffffffffffffffffffffffffffffffff168473ffffffffffffffffffffffffffffffffffffffff167fddf252ad1be2c89b69c2b068fc378daa952ba7f163c4a11628f55a4df523b3ef846040516119ae91906120ee565b60405180910390a36119c1848484611ee6565b50505050565b600073ffffffffffffffffffffffffffffffffffffffff168273ffffffffffffffffffffffffffffffffffffffff161415611a37576040517f08c379a0000000000000000000000000000000000000000000000000000000008152600401611a2e90612874565b60405180910390fd5b611a4360008383611ee1565b8060076000828254611a55919061238e565b9250508190555080600560008473ffffffffffffffffffffffffffffffffffffffff1673ffffffffffffffffffffffffffffffffffffffff1681526020019081526020016000206000828254611aab919061238e565b925050819055508173ffffffffffffffffffffffffffffffffffffffff16611ad1611570565b73ffffffffffffffffffffffffffffffffffffffff167f9d228d69b5fdb8d273a2336f8fb8612d039631024ea9bf09c424a9503aa078f083604051611b1691906120ee565b60405180910390a38173ffffffffffffffffffffffffffffffffffffffff16600073ffffffffffffffffffffffffffffffffffffffff16611b55611570565b73ffffffffffffffffffffffffffffffffffffffff167f769254a71d2f67d8ac6cb44f2803c0d05cfbcf9effadb6a984f10ff9de3df6c384604051611b9a91906120ee565b60405180910390a48173ffffffffffffffffffffffffffffffffffffffff16600073ffffffffffffffffffffffffffffffffffffffff167fddf252ad1be2c89b69c2b068fc378daa952ba7f163c4a11628f55a4df523b3ef83604051611c0091906120ee565b60405180910390a3611c1460008383611ee6565b5050565b600073ffffffffffffffffffffffffffffffffffffffff168273ffffffffffffffffffffffffffffffffffffffff161415611c88576040517f08c379a0000000000000000000000000000000000000000000000000000000008152600401611c7f90612906565b60405180910390fd5b611c9482600083611ee1565b6000600560008473ffffffffffffffffffffffffffffffffffffffff1673ffffffffffffffffffffffffffffffffffffffff16815260200190815260200160002054905081811015611d1b576040517f08c379a0000000000000000000000000000000000000000000000000000000008152600401611d1290612998565b60405180910390fd5b818103600560008573ffffffffffffffffffffffffffffffffffffffff1673ffffffffffffffffffffffffffffffffffffffff168152602001908152602001600020819055508160076000828254611d7391906129b8565b925050819055508273ffffffffffffffffffffffffffffffffffffffff16611d99611570565b73ffffffffffffffffffffffffffffffffffffffff167fe8a89cc6e5096f9d9f43de82c077c1f4cfe707c0e0c2032176c68813b9ae6a5c84604051611dde91906120ee565b60405180910390a3600073ffffffffffffffffffffffffffffffffffffffff168373ffffffffffffffffffffffffffffffffffffffff16611e1d611570565b73ffffffffffffffffffffffffffffffffffffffff167f769254a71d2f67d8ac6cb44f2803c0d05cfbcf9effadb6a984f10ff9de3df6c385604051611e6291906120ee565b60405180910390a4600073ffffffffffffffffffffffffffffffffffffffff168373ffffffffffffffffffffffffffffffffffffffff167fddf252ad1be2c89b69c2b068fc378daa952ba7f163c4a11628f55a4df523b3ef84604051611ec891906120ee565b60405180910390a3611edc83600084611ee6565b505050565b505050565b505050565b600081519050919050565b600082825260208201905092915050565b60005b83811015611f25578082015181840152602081019050611f0a565b83811115611f34576000848401525b50505050565b6000601f19601f8301169050919050565b6000611f5682611eeb565b611f608185611ef6565b9350611f70818560208601611f07565b611f7981611f3a565b840191505092915050565b60006020820190508181036000830152611f9e8184611f4b565b905092915050565b600073ffffffffffffffffffffffffffffffffffffffff82169050919050565b6000611fd182611fa6565b9050919050565b611fe181611fc6565b82525050565b6000602082019050611ffc6000830184611fd8565b92915050565b600080fd5b61201081611fc6565b811461201b57600080fd5b50565b60008135905061202d81612007565b92915050565b6000819050919050565b61204681612033565b811461205157600080fd5b50565b6000813590506120638161203d565b92915050565b600080604083850312156120805761207f612002565b5b600061208e8582860161201e565b925050602061209f85828601612054565b9150509250929050565b60008115159050919050565b6120be816120a9565b82525050565b60006020820190506120d960008301846120b5565b92915050565b6120e881612033565b82525050565b600060208201905061210360008301846120df565b92915050565b60008060006060848603121561212257612121612002565b5b60006121308682870161201e565b93505060206121418682870161201e565b925050604061215286828701612054565b9150509250925092565b600060ff82169050919050565b6121728161215c565b82525050565b600060208201905061218d6000830184612169565b92915050565b6000602082840312156121a9576121a8612002565b5b60006121b78482850161201e565b91505092915050565b600080604083850312156121d7576121d6612002565b5b60006121e58582860161201e565b92505060206121f68582860161201e565b9150509250929050565b7f4e487b7100000000000000000000000000000000000000000000000000000000600052602260045260246000fd5b6000600282049050600182168061224757607f821691505b6020821081141561225b5761225a612200565b5b50919050565b7f5061757361626c653a2070617573656400000000000000000000000000000000600082015250565b6000612297601083611ef6565b91506122a282612261565b602082019050919050565b600060208201905081810360008301526122c68161228a565b9050919050565b7f42455032303a205472616e7366657220616d6f756e742065786365656473206160008201527f6c6c6f77616e6365000000000000000000000000000000000000000000000000602082015250565b6000612329602883611ef6565b9150612334826122cd565b604082019050919050565b600060208201905081810360008301526123588161231c565b9050919050565b7f4e487b7100000000000000000000000000000000000000000000000000000000600052601160045260246000fd5b600061239982612033565b91506123a483612033565b9250827fffffffffffffffffffffffffffffffffffffffffffffffffffffffffffffffff038211156123d9576123d861235f565b5b828201905092915050565b7f5061757361626c653a206e6f7420706175736564000000000000000000000000600082015250565b600061241a601483611ef6565b9150612425826123e4565b602082019050919050565b600060208201905081810360008301526124498161240d565b9050919050565b7f42455032303a2043617020726561636865642e2043616e6e6f74206d696e7400600082015250565b6000612486601f83611ef6565b915061249182612450565b602082019050919050565b600060208201905081810360008301526124b581612479565b9050919050565b7f42455032303a2044656372656173656420616c6c6f77616e63652062656c6f7760008201527f207a65726f000000000000000000000000000000000000000000000000000000602082015250565b6000612518602583611ef6565b9150612523826124bc565b604082019050919050565b600060208201905081810360008301526125478161250b565b9050919050565b7f42455032303a20417070726f76652066726f6d20746865207a65726f2061646460008201527f7265737300000000000000000000000000000000000000000000000000000000602082015250565b60006125aa602483611ef6565b91506125b58261254e565b604082019050919050565b600060208201905081810360008301526125d98161259d565b9050919050565b7f42455032303a20417070726f766520746f20746865207a65726f20616464726560008201527f7373000000000000000000000000000000000000000000000000000000000000602082015250565b600061263c602283611ef6565b9150612647826125e0565b604082019050919050565b6000602082019050818103600083015261266b8161262f565b9050919050565b7f42455032303a205472616e736665722066726f6d20746865207a65726f20616460008201527f6472657373000000000000000000000000000000000000000000000000000000602082015250565b60006126ce602583611ef6565b91506126d982612672565b604082019050919050565b600060208201905081810360008301526126fd816126c1565b9050919050565b7f42455032303a205472616e7366657220746f20746865207a65726f206164647260008201527f6573730000000000000000000000000000000000000000000000000000000000602082015250565b6000612760602383611ef6565b915061276b82612704565b604082019050919050565b6000602082019050818103600083015261278f81612753565b9050919050565b7f42455032303a205472616e7366657220616d6f756e742065786365656473206260008201527f616c616e63650000000000000000000000000000000000000000000000000000602082015250565b60006127f2602683611ef6565b91506127fd82612796565b604082019050919050565b60006020820190508181036000830152612821816127e5565b9050919050565b7f42455032303a204d696e7420746f20746865207a65726f206164647265737300600082015250565b600061285e601f83611ef6565b915061286982612828565b602082019050919050565b6000602082019050818103600083015261288d81612851565b9050919050565b7f42455032303a204275726e2066726f6d20746865207a65726f2061646472657360008201527f7300000000000000000000000000000000000000000000000000000000000000602082015250565b60006128f0602183611ef6565b91506128fb82612894565b604082019050919050565b6000602082019050818103600083015261291f816128e3565b9050919050565b7f42455032303a204275726e20616d6f756e7420657863656564732062616c616e60008201527f6365000000000000000000000000000000000000000000000000000000000000602082015250565b6000612982602283611ef6565b915061298d82612926565b604082019050919050565b600060208201905081810360008301526129b181612975565b9050919050565b60006129c382612033565b91506129ce83612033565b9250828210156129e1576129e061235f565b5b82820390509291505056fea264697066735822122099ef3f88de7c484e14c93d5b2f90fc2fe3086969ec7b8a02faf1682345dcc6b164736f6c634300080a0033",
  "immutableReferences": {},
  "source": "//SPDX-License-Identifier: MIT\n\npragma solidity ^0.8.6;\n\nimport \"../BEP20/BEP20.sol\";\nimport \"../security/AccessControl.sol\";\n\n/**\n * @dev Total supply starts at 280,000,000 (280 million)\n *      Supply will have a maximum cap of 400,000,000 (400 million)\n *      through staking + in-game rewards\n *\n */\ncontract RealmCoin is BEP20(\"Realm Coin\", \"REC\") {\n    uint256 private totalTokens = 280000000 * 10 ** 18;\n    uint256 private cap = 400000000 * 10 ** 18;\n    function mint(address _to, uint256 _amount) public onlyMinter whenNotPaused returns (bool) {\n        require(totalSupply() + _amount <= cap, \"BEP20: Cap reached. Cannot mint\");\n        _mint(_to, _amount);\n        \n        \n        return true;\n    }\n    function burn(address _from, uint256 _amount) public onlyBurner whenNotPaused returns (bool) {\n        _burn(_from, _amount);\n        return true;\n    }\n\n    /**\n     * @dev Constructor will mint initial 280,000,000 tokens to contract address\n     */\n    constructor() {\n        mint(_msgSender(), totalTokens);\n    }\n}\n",
  "sourcePath": "/Users/igormoscalets/nbmoncompany/nbmondemo/contracts/implementation/RealmCoin.sol",
  "compiler": {
    "name": "solc",
    "version": "0.8.10+commit.fc410830.Emscripten.clang"
  },
  "schemaVersion": "3.4.3",
  "updatedAt": "2022-01-02T17:22:48.291Z",
  "devdoc": {
    "details": "Total supply starts at 280,000,000 (280 million)      Supply will have a maximum cap of 400,000,000 (400 million)      through staking + in-game rewards",
    "kind": "dev",
    "methods": {
      "approve(address,uint256)": {
        "details": "Sets `amount` as the allowance of `spender` over the caller's tokens. Returns a boolean value indicating whether the operation succeeded. Requirements: - `spender` cannot be the zero address."
      },
      "balanceOf(address)": {
        "details": "Returns the amount of tokens owned by `account`."
      },
      "constructor": {
        "details": "Constructor will mint initial 280,000,000 tokens to contract address"
      },
      "decimals()": {
        "details": "Returns the token decimals."
      },
      "decreaseAllowance(address,uint256)": {
        "details": "Atomically decreases the allowance granted to `spender` by the caller. This is an alternative to {approve} that can be used as a mitigation for problems described in {IBEP20-approve}. Emits an {Approval} event indicating the updated allowance. Requirements: - `spender` cannot be the zero address. - `spender` must have allowance for the caller of at least `subtractedValue`."
      },
      "increaseAllowance(address,uint256)": {
        "details": "Atomically increases the allowance granted to `spender` by the caller. This is an alternative to {approve} that can be used as a mitigation for problems described in {IBEP20-approve}. Emits an {Approval} event indicating the updated allowance. Requirements: - `spender` cannot be the zero address."
      },
      "name()": {
        "details": "Returns the name of the token."
      },
      "pause()": {
        "details": "Triggers stopped state. Only callable by admin. Requirements: - The contract must not be paused."
      },
      "paused()": {
        "details": "Returns true if the contract is paused, and false otherwise."
      },
      "symbol()": {
        "details": "Returns the symbol of the token."
      },
      "totalSupply()": {
        "details": "Returns the amount of tokens in existence."
      },
      "transfer(address,uint256)": {
        "details": "Moves `amount` tokens from the caller's account to `recipient`. Returns a boolean value indicating whether the operation succeeded. Emits a {Transfer} event. Requirements: - `recipient` cannot be the zero address. - the caller must have a balance of at least `amount`."
      },
      "transferFrom(address,address,uint256)": {
        "details": "Moves `amount` tokens from `sender` to `recipient` using the allowance mechanism. `amount` is then deducted from the caller's allowance. Returns a boolean value indicating whether the operation succeeded. Emits an {Approval} event indicating the updated allowance. This is not required by the EIP. See the note at the beginning of {BEP20}. Requirements: - `sender` and `recipient` cannot be the zero address. - `sender` must have a balance of at least `amount`. - the caller must have allowance for ``sender``'s tokens of at least `amount`."
      },
      "unpause()": {
        "details": "Returns to normal state. Only callable by admin. Requirements: - The contract must be paused."
      }
    },
    "version": 1
  },
  "userdoc": {
    "kind": "user",
    "methods": {},
    "version": 1
  }
}