{
  "contractName": "VRF",
  "abi": [
    {
      "inputs": [],
      "stateMutability": "nonpayable",
      "type": "constructor"
    },
    {
      "inputs": [],
      "name": "randomResult",
      "outputs": [
        {
          "internalType": "uint256",
          "name": "",
          "type": "uint256"
        }
      ],
      "stateMutability": "view",
      "type": "function"
    },
    {
      "inputs": [
        {
          "internalType": "bytes32",
          "name": "requestId",
          "type": "bytes32"
        },
        {
          "internalType": "uint256",
          "name": "randomness",
          "type": "uint256"
        }
      ],
      "name": "rawFulfillRandomness",
      "outputs": [],
      "stateMutability": "nonpayable",
      "type": "function"
    },
    {
      "inputs": [],
      "name": "getRandomNumber",
      "outputs": [
        {
          "internalType": "bytes32",
          "name": "requestId",
          "type": "bytes32"
        }
      ],
      "stateMutability": "nonpayable",
      "type": "function"
    }
  ],
  "bytecode": "0x60c060405234801561001057600080fd5b5073a555fc018435bef5a13c6c6870a9d4c11dec329c7384b9b910527ad5c03a9ca831909e21e236ea7b068173ffffffffffffffffffffffffffffffffffffffff1660a08173ffffffffffffffffffffffffffffffffffffffff16815250508073ffffffffffffffffffffffffffffffffffffffff1660808173ffffffffffffffffffffffffffffffffffffffff168152505050507fcaf3c3727e033261d383b315559476f48034c13b18f8cafed4d871abe504918660001b60018190555067016345785d8a000060028190555060805160a0516109826101106000396000818160a6015261027e015260008181610147015261024201526109826000f3fe608060405234801561001057600080fd5b50600436106100415760003560e01c806342619f661461004657806394985ddd14610064578063dbdff2c114610080575b600080fd5b61004e61009e565b60405161005b9190610416565b60405180910390f35b61007e60048036038101906100799190610498565b6100a4565b005b610088610140565b60405161009591906104e7565b60405180910390f35b60035481565b7f000000000000000000000000000000000000000000000000000000000000000073ffffffffffffffffffffffffffffffffffffffff163373ffffffffffffffffffffffffffffffffffffffff1614610132576040517f08c379a00000000000000000000000000000000000000000000000000000000081526004016101299061055f565b60405180910390fd5b61013c8282610233565b5050565b60006002547f000000000000000000000000000000000000000000000000000000000000000073ffffffffffffffffffffffffffffffffffffffff166370a08231306040518263ffffffff1660e01b815260040161019e91906105c0565b602060405180830381865afa1580156101bb573d6000803e3d6000fd5b505050506040513d601f19601f820116820180604052508101906101df91906105f0565b1015610220576040517f08c379a00000000000000000000000000000000000000000000000000000000081526004016102179061068f565b60405180910390fd5b61022e60015460025461023e565b905090565b806003819055505050565b60007f000000000000000000000000000000000000000000000000000000000000000073ffffffffffffffffffffffffffffffffffffffff16634000aea07f0000000000000000000000000000000000000000000000000000000000000000848660006040516020016102b29291906106af565b6040516020818303038152906040526040518463ffffffff1660e01b81526004016102df93929190610771565b6020604051808303816000875af11580156102fe573d6000803e3d6000fd5b505050506040513d601f19601f8201168201806040525081019061032291906107e7565b506000610344846000306000808981526020019081526020016000205461038e565b90506001600080868152602001908152602001600020546103659190610843565b6000808681526020019081526020016000208190555061038584826103ca565b91505092915050565b6000848484846040516020016103a79493929190610899565b6040516020818303038152906040528051906020012060001c9050949350505050565b600082826040516020016103df929190610920565b60405160208183030381529060405280519060200120905092915050565b6000819050919050565b610410816103fd565b82525050565b600060208201905061042b6000830184610407565b92915050565b600080fd5b6000819050919050565b61044981610436565b811461045457600080fd5b50565b60008135905061046681610440565b92915050565b610475816103fd565b811461048057600080fd5b50565b6000813590506104928161046c565b92915050565b600080604083850312156104af576104ae610431565b5b60006104bd85828601610457565b92505060206104ce85828601610483565b9150509250929050565b6104e181610436565b82525050565b60006020820190506104fc60008301846104d8565b92915050565b600082825260208201905092915050565b7f4f6e6c7920565246436f6f7264696e61746f722063616e2066756c66696c6c00600082015250565b6000610549601f83610502565b915061055482610513565b602082019050919050565b600060208201905081810360008301526105788161053c565b9050919050565b600073ffffffffffffffffffffffffffffffffffffffff82169050919050565b60006105aa8261057f565b9050919050565b6105ba8161059f565b82525050565b60006020820190506105d560008301846105b1565b92915050565b6000815190506105ea8161046c565b92915050565b60006020828403121561060657610605610431565b5b6000610614848285016105db565b91505092915050565b7f5652463a204e6f7420656e6f756768204c494e4b20746f20657865637574652060008201527f66756e6374696f6e000000000000000000000000000000000000000000000000602082015250565b6000610679602883610502565b91506106848261061d565b604082019050919050565b600060208201905081810360008301526106a88161066c565b9050919050565b60006040820190506106c460008301856104d8565b6106d16020830184610407565b9392505050565b600081519050919050565b600082825260208201905092915050565b60005b838110156107125780820151818401526020810190506106f7565b83811115610721576000848401525b50505050565b6000601f19601f8301169050919050565b6000610743826106d8565b61074d81856106e3565b935061075d8185602086016106f4565b61076681610727565b840191505092915050565b600060608201905061078660008301866105b1565b6107936020830185610407565b81810360408301526107a58184610738565b9050949350505050565b60008115159050919050565b6107c4816107af565b81146107cf57600080fd5b50565b6000815190506107e1816107bb565b92915050565b6000602082840312156107fd576107fc610431565b5b600061080b848285016107d2565b91505092915050565b7f4e487b7100000000000000000000000000000000000000000000000000000000600052601160045260246000fd5b600061084e826103fd565b9150610859836103fd565b9250827fffffffffffffffffffffffffffffffffffffffffffffffffffffffffffffffff0382111561088e5761088d610814565b5b828201905092915050565b60006080820190506108ae60008301876104d8565b6108bb6020830186610407565b6108c860408301856105b1565b6108d56060830184610407565b95945050505050565b6000819050919050565b6108f96108f482610436565b6108de565b82525050565b6000819050919050565b61091a610915826103fd565b6108ff565b82525050565b600061092c82856108e8565b60208201915061093c8284610909565b602082019150819050939250505056fea26469706673582212209e097241a0baf8601c2eefc97c28431301de19aa634cf6f5b31da4b776df121764736f6c634300080a0033",
  "immutableReferences": {
    "73": [
      {
        "length": 32,
        "start": 327
      },
      {
        "length": 32,
        "start": 578
      }
    ],
    "75": [
      {
        "length": 32,
        "start": 166
      },
      {
        "length": 32,
        "start": 638
      }
    ]
  },
  "source": "//SDPX-License-Identifier: MIT\n\npragma solidity ^0.8.6;\n\nimport \"@chainlink/contracts/src/v0.8/VRFConsumerBase.sol\";\n\ncontract VRF is VRFConsumerBase {\n    bytes32 internal keyHash;\n    uint256 internal fee;\n    \n    uint256 public randomResult;\n\n    constructor() VRFConsumerBase(\n        //BSC Testnet VRF Coordinator address\n        0xa555fC018435bef5A13C6c6870a9d4C11DEC329C,\n        //BSC Testnet LINK address\n        0x84b9B910527Ad5C03A9Ca831909E21e236EA7b06\n    ) {\n        //BSC Testnet keyHash\n        keyHash = 0xcaf3c3727e033261d383b315559476f48034c13b18f8cafed4d871abe5049186;\n        fee = 0.1 * 10 ** 18; //0.1 LINK in BSC Testnet\n    }\n\n    function getRandomNumber() public returns (bytes32 requestId) {\n        require(LINK.balanceOf(address(this)) >= fee, \"VRF: Not enough LINK to execute function\");\n        return requestRandomness(keyHash, fee);\n    }\n\n    function fulfillRandomness(bytes32 requestId, uint256 randomness) internal override {\n        randomResult = randomness;\n    }\n\n}",
  "sourcePath": "/Users/igormoscalets/nbmoncompany/nbmondemo/contracts/chainlink/VRF.sol",
  "compiler": {
    "name": "solc",
    "version": "0.8.10+commit.fc410830.Emscripten.clang"
  },
  "schemaVersion": "3.4.3",
  "updatedAt": "2022-01-02T17:22:47.885Z",
  "devdoc": {
    "kind": "dev",
    "methods": {},
    "version": 1
  },
  "userdoc": {
    "kind": "user",
    "methods": {},
    "version": 1
  }
}